{
  "_format": "hh-sol-artifact-1",
  "contractName": "AtiumReg",
  "sourceName": "contracts/AtiumReg.sol",
  "abi": [
    {
      "inputs": [],
      "name": "Atium__MemberExists",
      "type": "error"
    },
    {
      "inputs": [],
      "name": "Atium__NotMember",
      "type": "error"
    },
    {
      "anonymous": false,
      "inputs": [
        {
          "indexed": false,
          "internalType": "uint256",
          "name": "id",
          "type": "uint256"
        },
        {
          "indexed": false,
          "internalType": "address",
          "name": "userAddress",
          "type": "address"
        }
      ],
      "name": "newArtistJoined",
      "type": "event"
    },
    {
      "inputs": [
        {
          "internalType": "uint256",
          "name": "",
          "type": "uint256"
        }
      ],
      "name": "addressById",
      "outputs": [
        {
          "internalType": "address",
          "name": "",
          "type": "address"
        }
      ],
      "stateMutability": "view",
      "type": "function"
    },
    {
      "inputs": [],
      "name": "getAllMembers",
      "outputs": [
        {
          "components": [
            {
              "internalType": "uint256",
              "name": "id",
              "type": "uint256"
            },
            {
              "internalType": "address",
              "name": "userAddress",
              "type": "address"
            }
          ],
          "internalType": "struct AtiumReg.Member[]",
          "name": "",
          "type": "tuple[]"
        }
      ],
      "stateMutability": "view",
      "type": "function"
    },
    {
      "inputs": [
        {
          "internalType": "address",
          "name": "",
          "type": "address"
        }
      ],
      "name": "member",
      "outputs": [
        {
          "internalType": "bool",
          "name": "",
          "type": "bool"
        }
      ],
      "stateMutability": "view",
      "type": "function"
    },
    {
      "inputs": [],
      "name": "memberSignUp",
      "outputs": [],
      "stateMutability": "nonpayable",
      "type": "function"
    },
    {
      "inputs": [
        {
          "internalType": "uint256",
          "name": "",
          "type": "uint256"
        }
      ],
      "name": "members",
      "outputs": [
        {
          "internalType": "uint256",
          "name": "id",
          "type": "uint256"
        },
        {
          "internalType": "address",
          "name": "userAddress",
          "type": "address"
        }
      ],
      "stateMutability": "view",
      "type": "function"
    }
  ],
  "bytecode": "0x608060405234801561001057600080fd5b50610832806100206000396000f3fe608060405234801561001057600080fd5b50600436106100575760003560e01c80635daf08ca1461005c5780636e6c7de81461008d5780637c0f6b351461009757806387d3a024146100b5578063e7d4539e146100e5575b600080fd5b6100766004803603810190610071919061058e565b610115565b60405161008492919061060b565b60405180910390f35b610095610169565b005b61009f61041d565b6040516100ac9190610730565b60405180910390f35b6100cf60048036038101906100ca919061058e565b6104dc565b6040516100dc9190610752565b60405180910390f35b6100ff60048036038101906100fa9190610799565b61050f565b60405161010c91906107e1565b60405180910390f35b6004818154811061012557600080fd5b90600052602060002090600202016000915090508060000154908060010160009054906101000a900473ffffffffffffffffffffffffffffffffffffffff16905082565b60011515600160003373ffffffffffffffffffffffffffffffffffffffff1673ffffffffffffffffffffffffffffffffffffffff16815260200190815260200160002060009054906101000a900460ff16151514156101f4576040517fe230084300000000000000000000000000000000000000000000000000000000815260040160405180910390fd5b6101fe600061052f565b600060405180604001604052806102156000610545565b81526020013373ffffffffffffffffffffffffffffffffffffffff16815250905060048190806001815401808255809150506001900390600052602060002090600202016000909190919091506000820151816000015560208201518160010160006101000a81548173ffffffffffffffffffffffffffffffffffffffff021916908373ffffffffffffffffffffffffffffffffffffffff160217905550505060018060003373ffffffffffffffffffffffffffffffffffffffff1673ffffffffffffffffffffffffffffffffffffffff16815260200190815260200160002060006101000a81548160ff021916908315150217905550806002600061031b6000610545565b81526020019081526020016000206000820151816000015560208201518160010160006101000a81548173ffffffffffffffffffffffffffffffffffffffff021916908373ffffffffffffffffffffffffffffffffffffffff160217905550905050336003600061038c6000610545565b815260200190815260200160002060006101000a81548173ffffffffffffffffffffffffffffffffffffffff021916908373ffffffffffffffffffffffffffffffffffffffff1602179055507f539d55a78ff1fe52459bfc08d73d937191f192506c35d1fe1962914a228a26116104036000610545565b3360405161041292919061060b565b60405180910390a150565b60606004805480602002602001604051908101604052809291908181526020016000905b828210156104d35783829060005260206000209060020201604051806040016040529081600082015481526020016001820160009054906101000a900473ffffffffffffffffffffffffffffffffffffffff1673ffffffffffffffffffffffffffffffffffffffff1673ffffffffffffffffffffffffffffffffffffffff168152505081526020019060010190610441565b50505050905090565b60036020528060005260406000206000915054906101000a900473ffffffffffffffffffffffffffffffffffffffff1681565b60016020528060005260406000206000915054906101000a900460ff1681565b6001816000016000828254019250508190555050565b600081600001549050919050565b600080fd5b6000819050919050565b61056b81610558565b811461057657600080fd5b50565b60008135905061058881610562565b92915050565b6000602082840312156105a4576105a3610553565b5b60006105b284828501610579565b91505092915050565b6105c481610558565b82525050565b600073ffffffffffffffffffffffffffffffffffffffff82169050919050565b60006105f5826105ca565b9050919050565b610605816105ea565b82525050565b600060408201905061062060008301856105bb565b61062d60208301846105fc565b9392505050565b600081519050919050565b600082825260208201905092915050565b6000819050602082019050919050565b61066981610558565b82525050565b610678816105ea565b82525050565b6040820160008201516106946000850182610660565b5060208201516106a7602085018261066f565b50505050565b60006106b9838361067e565b60408301905092915050565b6000602082019050919050565b60006106dd82610634565b6106e7818561063f565b93506106f283610650565b8060005b8381101561072357815161070a88826106ad565b9750610715836106c5565b9250506001810190506106f6565b5085935050505092915050565b6000602082019050818103600083015261074a81846106d2565b905092915050565b600060208201905061076760008301846105fc565b92915050565b610776816105ea565b811461078157600080fd5b50565b6000813590506107938161076d565b92915050565b6000602082840312156107af576107ae610553565b5b60006107bd84828501610784565b91505092915050565b60008115159050919050565b6107db816107c6565b82525050565b60006020820190506107f660008301846107d2565b9291505056fea26469706673582212202feb068a72576bf3d856102faa14063a05541d5cd095770144bb892bc85bcdfe64736f6c63430008090033",
  "linkReferences": {},
  "deployedLinkReferences": {}
}