{
  "_format": "hh-sol-artifact-1",
  "contractName": "AtiumPlan",
  "sourceName": "contracts/AtiumPlan.sol",
  "abi": [
    {
      "inputs": [],
      "name": "Atium_NotOwnerId",
      "type": "error"
    },
    {
      "inputs": [],
      "name": "Atium_ZeroInput",
      "type": "error"
    },
    {
      "inputs": [],
      "name": "Atium__MemberExists",
      "type": "error"
    },
    {
      "inputs": [],
      "name": "Atium__NotMember",
      "type": "error"
    },
    {
      "anonymous": false,
      "inputs": [
        {
          "indexed": false,
          "internalType": "uint256",
          "name": "id",
          "type": "uint256"
        },
        {
          "indexed": true,
          "internalType": "address",
          "name": "user",
          "type": "address"
        },
        {
          "indexed": true,
          "internalType": "address",
          "name": "receiver",
          "type": "address"
        },
        {
          "indexed": false,
          "internalType": "uint256",
          "name": "deposit",
          "type": "uint256"
        },
        {
          "indexed": false,
          "internalType": "uint256",
          "name": "startDate",
          "type": "uint256"
        },
        {
          "indexed": false,
          "internalType": "uint256",
          "name": "withdrawal",
          "type": "uint256"
        },
        {
          "indexed": false,
          "internalType": "uint256",
          "name": "interval",
          "type": "uint256"
        }
      ],
      "name": "Allowance",
      "type": "event"
    },
    {
      "anonymous": false,
      "inputs": [
        {
          "indexed": false,
          "internalType": "uint256",
          "name": "id",
          "type": "uint256"
        },
        {
          "indexed": true,
          "internalType": "address",
          "name": "user",
          "type": "address"
        },
        {
          "indexed": true,
          "internalType": "address",
          "name": "receiver",
          "type": "address"
        },
        {
          "indexed": false,
          "internalType": "uint256",
          "name": "deposit",
          "type": "uint256"
        },
        {
          "indexed": false,
          "internalType": "uint256",
          "name": "date",
          "type": "uint256"
        }
      ],
      "name": "Gift",
      "type": "event"
    },
    {
      "anonymous": false,
      "inputs": [
        {
          "indexed": false,
          "internalType": "uint256",
          "name": "id",
          "type": "uint256"
        },
        {
          "indexed": true,
          "internalType": "address",
          "name": "user",
          "type": "address"
        },
        {
          "indexed": false,
          "internalType": "uint256",
          "name": "deposit",
          "type": "uint256"
        },
        {
          "indexed": false,
          "internalType": "uint256",
          "name": "goal",
          "type": "uint256"
        },
        {
          "indexed": false,
          "internalType": "uint256",
          "name": "time",
          "type": "uint256"
        }
      ],
      "name": "Savings",
      "type": "event"
    },
    {
      "anonymous": false,
      "inputs": [
        {
          "indexed": false,
          "internalType": "uint256",
          "name": "id",
          "type": "uint256"
        },
        {
          "indexed": true,
          "internalType": "address",
          "name": "user",
          "type": "address"
        },
        {
          "indexed": true,
          "internalType": "address",
          "name": "receiver",
          "type": "address"
        },
        {
          "indexed": false,
          "internalType": "uint256",
          "name": "deposit",
          "type": "uint256"
        },
        {
          "indexed": false,
          "internalType": "uint256",
          "name": "startDate",
          "type": "uint256"
        },
        {
          "indexed": false,
          "internalType": "uint256",
          "name": "withdrawal",
          "type": "uint256"
        },
        {
          "indexed": false,
          "internalType": "uint256",
          "name": "interval",
          "type": "uint256"
        }
      ],
      "name": "Trustfund",
      "type": "event"
    },
    {
      "anonymous": false,
      "inputs": [
        {
          "indexed": false,
          "internalType": "uint256",
          "name": "id",
          "type": "uint256"
        },
        {
          "indexed": false,
          "internalType": "address",
          "name": "userAddress",
          "type": "address"
        }
      ],
      "name": "newArtistJoined",
      "type": "event"
    },
    {
      "inputs": [
        {
          "internalType": "uint256",
          "name": "",
          "type": "uint256"
        }
      ],
      "name": "addressById",
      "outputs": [
        {
          "internalType": "address",
          "name": "",
          "type": "address"
        }
      ],
      "stateMutability": "view",
      "type": "function"
    },
    {
      "inputs": [
        {
          "internalType": "address",
          "name": "_receiver",
          "type": "address"
        },
        {
          "internalType": "uint256",
          "name": "_startDate",
          "type": "uint256"
        },
        {
          "internalType": "uint256",
          "name": "_amount",
          "type": "uint256"
        },
        {
          "internalType": "uint256",
          "name": "_interval",
          "type": "uint256"
        }
      ],
      "name": "allowancePlan",
      "outputs": [],
      "stateMutability": "nonpayable",
      "type": "function"
    },
    {
      "inputs": [
        {
          "internalType": "uint256",
          "name": "_id",
          "type": "uint256"
        },
        {
          "internalType": "address",
          "name": "_receiver",
          "type": "address"
        },
        {
          "internalType": "uint256",
          "name": "_startDate",
          "type": "uint256"
        },
        {
          "internalType": "uint256",
          "name": "_amount",
          "type": "uint256"
        },
        {
          "internalType": "uint256",
          "name": "_interval",
          "type": "uint256"
        }
      ],
      "name": "editAllowancePlan",
      "outputs": [],
      "stateMutability": "nonpayable",
      "type": "function"
    },
    {
      "inputs": [
        {
          "internalType": "uint256",
          "name": "_id",
          "type": "uint256"
        },
        {
          "internalType": "address",
          "name": "_receiver",
          "type": "address"
        },
        {
          "internalType": "uint256",
          "name": "_date",
          "type": "uint256"
        }
      ],
      "name": "editGiftPlan",
      "outputs": [],
      "stateMutability": "nonpayable",
      "type": "function"
    },
    {
      "inputs": [
        {
          "internalType": "uint256",
          "name": "_id",
          "type": "uint256"
        },
        {
          "internalType": "uint256",
          "name": "_goal",
          "type": "uint256"
        }
      ],
      "name": "editSavingsPlanGoal",
      "outputs": [],
      "stateMutability": "nonpayable",
      "type": "function"
    },
    {
      "inputs": [
        {
          "internalType": "uint256",
          "name": "_id",
          "type": "uint256"
        },
        {
          "internalType": "uint256",
          "name": "_time",
          "type": "uint256"
        }
      ],
      "name": "editSavingsPlanTime",
      "outputs": [],
      "stateMutability": "nonpayable",
      "type": "function"
    },
    {
      "inputs": [
        {
          "internalType": "uint256",
          "name": "_id",
          "type": "uint256"
        },
        {
          "internalType": "address",
          "name": "_receiver",
          "type": "address"
        },
        {
          "internalType": "uint256",
          "name": "_startDate",
          "type": "uint256"
        },
        {
          "internalType": "uint256",
          "name": "_amount",
          "type": "uint256"
        },
        {
          "internalType": "uint256",
          "name": "_interval",
          "type": "uint256"
        }
      ],
      "name": "editTrustfundPlan",
      "outputs": [],
      "stateMutability": "nonpayable",
      "type": "function"
    },
    {
      "inputs": [],
      "name": "getAllMembers",
      "outputs": [
        {
          "components": [
            {
              "internalType": "uint256",
              "name": "id",
              "type": "uint256"
            },
            {
              "internalType": "address",
              "name": "userAddress",
              "type": "address"
            }
          ],
          "internalType": "struct AtiumReg.Member[]",
          "name": "",
          "type": "tuple[]"
        }
      ],
      "stateMutability": "view",
      "type": "function"
    },
    {
      "inputs": [
        {
          "internalType": "uint256",
          "name": "_id",
          "type": "uint256"
        }
      ],
      "name": "getAllowance",
      "outputs": [
        {
          "components": [
            {
              "internalType": "uint256",
              "name": "id",
              "type": "uint256"
            },
            {
              "internalType": "address",
              "name": "sender",
              "type": "address"
            },
            {
              "internalType": "address",
              "name": "receiver",
              "type": "address"
            },
            {
              "internalType": "uint256",
              "name": "deposit",
              "type": "uint256"
            },
            {
              "internalType": "uint256",
              "name": "startDate",
              "type": "uint256"
            },
            {
              "internalType": "uint256",
              "name": "withdrawalAmount",
              "type": "uint256"
            },
            {
              "internalType": "uint256",
              "name": "withdrawalInterval",
              "type": "uint256"
            }
          ],
          "internalType": "struct AtiumPlan.AllowanceList",
          "name": "",
          "type": "tuple"
        }
      ],
      "stateMutability": "view",
      "type": "function"
    },
    {
      "inputs": [
        {
          "internalType": "uint256",
          "name": "_id",
          "type": "uint256"
        }
      ],
      "name": "getAtium",
      "outputs": [
        {
          "components": [
            {
              "internalType": "uint256",
              "name": "id",
              "type": "uint256"
            },
            {
              "internalType": "address",
              "name": "user",
              "type": "address"
            },
            {
              "internalType": "enum AtiumPlan.Select",
              "name": "select",
              "type": "uint8"
            }
          ],
          "internalType": "struct AtiumPlan.AtiumList",
          "name": "",
          "type": "tuple"
        }
      ],
      "stateMutability": "view",
      "type": "function"
    },
    {
      "inputs": [
        {
          "internalType": "uint256",
          "name": "_id",
          "type": "uint256"
        }
      ],
      "name": "getGift",
      "outputs": [
        {
          "components": [
            {
              "internalType": "uint256",
              "name": "id",
              "type": "uint256"
            },
            {
              "internalType": "address",
              "name": "sender",
              "type": "address"
            },
            {
              "internalType": "address",
              "name": "receiver",
              "type": "address"
            },
            {
              "internalType": "uint256",
              "name": "date",
              "type": "uint256"
            },
            {
              "internalType": "uint256",
              "name": "amount",
              "type": "uint256"
            }
          ],
          "internalType": "struct AtiumPlan.GiftList",
          "name": "",
          "type": "tuple"
        }
      ],
      "stateMutability": "view",
      "type": "function"
    },
    {
      "inputs": [
        {
          "internalType": "uint256",
          "name": "_id",
          "type": "uint256"
        }
      ],
      "name": "getSavings",
      "outputs": [
        {
          "components": [
            {
              "internalType": "uint256",
              "name": "id",
              "type": "uint256"
            },
            {
              "internalType": "address",
              "name": "user",
              "type": "address"
            },
            {
              "internalType": "uint256",
              "name": "amount",
              "type": "uint256"
            },
            {
              "internalType": "uint256",
              "name": "goal",
              "type": "uint256"
            },
            {
              "internalType": "uint256",
              "name": "time",
              "type": "uint256"
            }
          ],
          "internalType": "struct AtiumPlan.SavingsList",
          "name": "",
          "type": "tuple"
        }
      ],
      "stateMutability": "view",
      "type": "function"
    },
    {
      "inputs": [
        {
          "internalType": "uint256",
          "name": "_id",
          "type": "uint256"
        }
      ],
      "name": "getTrustfund",
      "outputs": [
        {
          "components": [
            {
              "internalType": "uint256",
              "name": "id",
              "type": "uint256"
            },
            {
              "internalType": "address",
              "name": "sender",
              "type": "address"
            },
            {
              "internalType": "address",
              "name": "receiver",
              "type": "address"
            },
            {
              "internalType": "uint256",
              "name": "amount",
              "type": "uint256"
            },
            {
              "internalType": "uint256",
              "name": "startDate",
              "type": "uint256"
            },
            {
              "internalType": "uint256",
              "name": "withdrawalAmount",
              "type": "uint256"
            },
            {
              "internalType": "uint256",
              "name": "withdrawalInterval",
              "type": "uint256"
            }
          ],
          "internalType": "struct AtiumPlan.TrustFundList",
          "name": "",
          "type": "tuple"
        }
      ],
      "stateMutability": "view",
      "type": "function"
    },
    {
      "inputs": [
        {
          "internalType": "address",
          "name": "_receiver",
          "type": "address"
        },
        {
          "internalType": "uint256",
          "name": "_date",
          "type": "uint256"
        }
      ],
      "name": "giftPlan",
      "outputs": [],
      "stateMutability": "nonpayable",
      "type": "function"
    },
    {
      "inputs": [
        {
          "internalType": "address",
          "name": "",
          "type": "address"
        }
      ],
      "name": "member",
      "outputs": [
        {
          "internalType": "bool",
          "name": "",
          "type": "bool"
        }
      ],
      "stateMutability": "view",
      "type": "function"
    },
    {
      "inputs": [],
      "name": "memberSignUp",
      "outputs": [],
      "stateMutability": "nonpayable",
      "type": "function"
    },
    {
      "inputs": [
        {
          "internalType": "uint256",
          "name": "",
          "type": "uint256"
        }
      ],
      "name": "members",
      "outputs": [
        {
          "internalType": "uint256",
          "name": "id",
          "type": "uint256"
        },
        {
          "internalType": "address",
          "name": "userAddress",
          "type": "address"
        }
      ],
      "stateMutability": "view",
      "type": "function"
    },
    {
      "inputs": [
        {
          "internalType": "uint256",
          "name": "_goal",
          "type": "uint256"
        }
      ],
      "name": "savingsPlanGoal",
      "outputs": [],
      "stateMutability": "nonpayable",
      "type": "function"
    },
    {
      "inputs": [
        {
          "internalType": "uint256",
          "name": "_time",
          "type": "uint256"
        }
      ],
      "name": "savingsPlanTime",
      "outputs": [],
      "stateMutability": "nonpayable",
      "type": "function"
    },
    {
      "inputs": [
        {
          "internalType": "address",
          "name": "_receiver",
          "type": "address"
        },
        {
          "internalType": "uint256",
          "name": "_startDate",
          "type": "uint256"
        },
        {
          "internalType": "uint256",
          "name": "_amount",
          "type": "uint256"
        },
        {
          "internalType": "uint256",
          "name": "_interval",
          "type": "uint256"
        }
      ],
      "name": "trustfundPlan",
      "outputs": [],
      "stateMutability": "nonpayable",
      "type": "function"
    }
  ],
  "bytecode": "0x608060405234801561001057600080fd5b5061340e806100206000396000f3fe608060405234801561001057600080fd5b506004361061012c5760003560e01c8063ad31cc9f116100ad578063d67d10dc11610071578063d67d10dc1461033e578063e7d4539e1461035a578063eb5149001461038a578063ed5579fc146103a6578063fa278ae6146103c25761012c565b8063ad31cc9f1461028a578063bf6713f6146102a6578063c315d635146102d6578063c960174e146102f2578063d14fb6db146103225761012c565b80635daf08ca116100f45780635daf08ca146101e55780636e6c7de8146102165780637c0f6b3514610220578063872c60951461023e57806387d3a0241461025a5761012c565b8063024025f41461013157806313bfb1821461014d5780633d53316b1461017d5780633e346eeb146101995780635029919b146101c9575b600080fd5b61014b60048036038101906101469190612b09565b6103f2565b005b61016760048036038101906101629190612b84565b61069e565b6040516101749190612c37565b60405180910390f35b61019760048036038101906101929190612c52565b610749565b005b6101b360048036038101906101ae9190612b84565b6109a9565b6040516101c09190612d5e565b60405180910390f35b6101e360048036038101906101de9190612b09565b610a71565b005b6101ff60048036038101906101fa9190612b84565b610d0f565b60405161020d929190612d97565b60405180910390f35b61021e610d63565b005b610228611017565b6040516102359190612e9e565b60405180910390f35b61025860048036038101906102539190612ec0565b6110d6565b005b610274600480360381019061026f9190612b84565b6112cf565b6040516102819190612f00565b60405180910390f35b6102a4600480360381019061029f9190612b84565b611302565b005b6102c060048036038101906102bb9190612b84565b6115be565b6040516102cd9190612f83565b60405180910390f35b6102f060048036038101906102eb9190612b84565b6116b5565b005b61030c60048036038101906103079190612b84565b61197f565b604051610319919061302c565b60405180910390f35b61033c60048036038101906103379190613047565b611a8a565b005b61035860048036038101906103539190613087565b611df1565b005b610374600480360381019061036f91906130ee565b6121b6565b6040516103819190613136565b60405180910390f35b6103a4600480360381019061039f9190612ec0565b6121d6565b005b6103c060048036038101906103bb9190613087565b6123c1565b005b6103dc60048036038101906103d79190612b84565b612786565b6040516103e991906131df565b60405180910390f35b843373ffffffffffffffffffffffffffffffffffffffff16600c600083815260200190815260200160002060010160009054906101000a900473ffffffffffffffffffffffffffffffffffffffff1673ffffffffffffffffffffffffffffffffffffffff161461048e576040517f0d9ff29600000000000000000000000000000000000000000000000000000000815260040160405180910390fd5b428461049a9190613229565b935060006040518060e001604052808881526020013373ffffffffffffffffffffffffffffffffffffffff1681526020018773ffffffffffffffffffffffffffffffffffffffff168152602001600c60008a8152602001908152602001600020600301548152602001428761050f9190613229565b965086815260200185815260200184815250905080600c60008981526020019081526020016000206000820151816000015560208201518160010160006101000a81548173ffffffffffffffffffffffffffffffffffffffff021916908373ffffffffffffffffffffffffffffffffffffffff16021790555060408201518160020160006101000a81548173ffffffffffffffffffffffffffffffffffffffff021916908373ffffffffffffffffffffffffffffffffffffffff160217905550606082015181600301556080820151816004015560a0820151816005015560c0820151816006015590505084600f6000898152602001908152602001600020819055508573ffffffffffffffffffffffffffffffffffffffff163373ffffffffffffffffffffffffffffffffffffffff167f7ae56fec07023e809c892be62111eb83aa2c212bbc4687da5af1b43048de86e689600c60008c81526020019081526020016000206003015489898960405161068d95949392919061327f565b60405180910390a350505050505050565b6106a66128b5565b600b60008381526020019081526020016000206040518060a0016040529081600082015481526020016001820160009054906101000a900473ffffffffffffffffffffffffffffffffffffffff1673ffffffffffffffffffffffffffffffffffffffff1673ffffffffffffffffffffffffffffffffffffffff16815260200160028201548152602001600382015481526020016004820154815250509050919050565b823373ffffffffffffffffffffffffffffffffffffffff16600e600083815260200190815260200160002060010160009054906101000a900473ffffffffffffffffffffffffffffffffffffffff1673ffffffffffffffffffffffffffffffffffffffff16146107e5576040517f0d9ff29600000000000000000000000000000000000000000000000000000000815260040160405180910390fd5b42826107f19190613229565b915060006040518060a001604052808681526020013373ffffffffffffffffffffffffffffffffffffffff1681526020018573ffffffffffffffffffffffffffffffffffffffff168152602001848152602001600e600088815260200190815260200160002060040154815250905080600e60008781526020019081526020016000206000820151816000015560208201518160010160006101000a81548173ffffffffffffffffffffffffffffffffffffffff021916908373ffffffffffffffffffffffffffffffffffffffff16021790555060408201518160020160006101000a81548173ffffffffffffffffffffffffffffffffffffffff021916908373ffffffffffffffffffffffffffffffffffffffff16021790555060608201518160030155608082015181600401559050508373ffffffffffffffffffffffffffffffffffffffff163373ffffffffffffffffffffffffffffffffffffffff167f45c072424520e0f43771406123f773276f0aaea392c03a4c776e8df9b2e90d0c87600e60008a8152602001908152602001600020600401548760405161099a939291906132d2565b60405180910390a35050505050565b6109b16128fa565b600a6000838152602001908152602001600020604051806060016040529081600082015481526020016001820160009054906101000a900473ffffffffffffffffffffffffffffffffffffffff1673ffffffffffffffffffffffffffffffffffffffff1673ffffffffffffffffffffffffffffffffffffffff1681526020016001820160149054906101000a900460ff166003811115610a5457610a53612ca5565b5b6003811115610a6657610a65612ca5565b5b815250509050919050565b843373ffffffffffffffffffffffffffffffffffffffff16600d600083815260200190815260200160002060010160009054906101000a900473ffffffffffffffffffffffffffffffffffffffff1673ffffffffffffffffffffffffffffffffffffffff1614610b0d576040517f0d9ff29600000000000000000000000000000000000000000000000000000000815260040160405180910390fd5b4284610b199190613229565b935060006040518060e001604052808881526020013373ffffffffffffffffffffffffffffffffffffffff1681526020018773ffffffffffffffffffffffffffffffffffffffff168152602001600d60008a815260200190815260200160002060030154815260200186815260200185815260200184815250905080600d60008981526020019081526020016000206000820151816000015560208201518160010160006101000a81548173ffffffffffffffffffffffffffffffffffffffff021916908373ffffffffffffffffffffffffffffffffffffffff16021790555060408201518160020160006101000a81548173ffffffffffffffffffffffffffffffffffffffff021916908373ffffffffffffffffffffffffffffffffffffffff160217905550606082015181600301556080820151816004015560a0820151816005015560c082015181600601559050508460106000898152602001908152602001600020819055508573ffffffffffffffffffffffffffffffffffffffff163373ffffffffffffffffffffffffffffffffffffffff167fb74791b0a4c373e84daff7ffcedc5c320f5d43d7e43462f49d938959564b435089600d60008c815260200190815260200160002060030154898989604051610cfe95949392919061327f565b60405180910390a350505050505050565b60048181548110610d1f57600080fd5b90600052602060002090600202016000915090508060000154908060010160009054906101000a900473ffffffffffffffffffffffffffffffffffffffff16905082565b60011515600160003373ffffffffffffffffffffffffffffffffffffffff1673ffffffffffffffffffffffffffffffffffffffff16815260200190815260200160002060009054906101000a900460ff1615151415610dee576040517fe230084300000000000000000000000000000000000000000000000000000000815260040160405180910390fd5b610df86000612891565b60006040518060400160405280610e0f60006128a7565b81526020013373ffffffffffffffffffffffffffffffffffffffff16815250905060048190806001815401808255809150506001900390600052602060002090600202016000909190919091506000820151816000015560208201518160010160006101000a81548173ffffffffffffffffffffffffffffffffffffffff021916908373ffffffffffffffffffffffffffffffffffffffff160217905550505060018060003373ffffffffffffffffffffffffffffffffffffffff1673ffffffffffffffffffffffffffffffffffffffff16815260200190815260200160002060006101000a81548160ff0219169083151502179055508060026000610f1560006128a7565b81526020019081526020016000206000820151816000015560208201518160010160006101000a81548173ffffffffffffffffffffffffffffffffffffffff021916908373ffffffffffffffffffffffffffffffffffffffff1602179055509050503360036000610f8660006128a7565b815260200190815260200160002060006101000a81548173ffffffffffffffffffffffffffffffffffffffff021916908373ffffffffffffffffffffffffffffffffffffffff1602179055507f539d55a78ff1fe52459bfc08d73d937191f192506c35d1fe1962914a228a2611610ffd60006128a7565b3360405161100c929190612d97565b60405180910390a150565b60606004805480602002602001604051908101604052809291908181526020016000905b828210156110cd5783829060005260206000209060020201604051806040016040529081600082015481526020016001820160009054906101000a900473ffffffffffffffffffffffffffffffffffffffff1673ffffffffffffffffffffffffffffffffffffffff1673ffffffffffffffffffffffffffffffffffffffff16815250508152602001906001019061103b565b50505050905090565b813373ffffffffffffffffffffffffffffffffffffffff16600b600083815260200190815260200160002060010160009054906101000a900473ffffffffffffffffffffffffffffffffffffffff1673ffffffffffffffffffffffffffffffffffffffff1614611172576040517f0d9ff29600000000000000000000000000000000000000000000000000000000815260040160405180910390fd5b428261117e9190613229565b915060006040518060a001604052808581526020013373ffffffffffffffffffffffffffffffffffffffff168152602001600b60008781526020019081526020016000206002015481526020016000815260200184815250905080600b60008681526020019081526020016000206000820151816000015560208201518160010160006101000a81548173ffffffffffffffffffffffffffffffffffffffff021916908373ffffffffffffffffffffffffffffffffffffffff1602179055506040820151816002015560608201518160030155608082015181600401559050503373ffffffffffffffffffffffffffffffffffffffff167fad57387c37d180b737321fddef35ced92cc15f70cc699b9b192d3621a2a4fd3285600b6000888152602001908152602001600020600201546000876040516112c1949392919061334e565b60405180910390a250505050565b60036020528060005260406000206000915054906101000a900473ffffffffffffffffffffffffffffffffffffffff1681565b600081141561133d576040517f8e277c2c00000000000000000000000000000000000000000000000000000000815260040160405180910390fd5b6113476005612891565b6113516006612891565b6000604051806060016040528061136860056128a7565b81526020013373ffffffffffffffffffffffffffffffffffffffff1681526020016000600381111561139d5761139c612ca5565b5b815250905060006040518060a001604052806113b960066128a7565b81526020013373ffffffffffffffffffffffffffffffffffffffff168152602001600b60006113e860066128a7565b81526020019081526020016000206002015481526020018481526020016000815250905081600a600061141b60056128a7565b81526020019081526020016000206000820151816000015560208201518160010160006101000a81548173ffffffffffffffffffffffffffffffffffffffff021916908373ffffffffffffffffffffffffffffffffffffffff16021790555060408201518160010160146101000a81548160ff021916908360038111156114a5576114a4612ca5565b5b021790555090505080600b60006114bc60066128a7565b81526020019081526020016000206000820151816000015560208201518160010160006101000a81548173ffffffffffffffffffffffffffffffffffffffff021916908373ffffffffffffffffffffffffffffffffffffffff1602179055506040820151816002015560608201518160030155608082015181600401559050503373ffffffffffffffffffffffffffffffffffffffff167fad57387c37d180b737321fddef35ced92cc15f70cc699b9b192d3621a2a4fd3261157e60066128a7565b600b600061158c60066128a7565b8152602001908152602001600020600201548660006040516115b19493929190613393565b60405180910390a2505050565b6115c6612943565b600e60008381526020019081526020016000206040518060a0016040529081600082015481526020016001820160009054906101000a900473ffffffffffffffffffffffffffffffffffffffff1673ffffffffffffffffffffffffffffffffffffffff1673ffffffffffffffffffffffffffffffffffffffff1681526020016002820160009054906101000a900473ffffffffffffffffffffffffffffffffffffffff1673ffffffffffffffffffffffffffffffffffffffff1673ffffffffffffffffffffffffffffffffffffffff168152602001600382015481526020016004820154815250509050919050565b60008114156116f0576040517f8e277c2c00000000000000000000000000000000000000000000000000000000815260040160405180910390fd5b6116fa6005612891565b6117046006612891565b42816117109190613229565b90506000604051806060016040528061172960056128a7565b81526020013373ffffffffffffffffffffffffffffffffffffffff1681526020016000600381111561175e5761175d612ca5565b5b815250905060006040518060a0016040528061177a60066128a7565b81526020013373ffffffffffffffffffffffffffffffffffffffff168152602001600b60006117a960066128a7565b81526020019081526020016000206002015481526020016000815260200184815250905081600a60006117dc60056128a7565b81526020019081526020016000206000820151816000015560208201518160010160006101000a81548173ffffffffffffffffffffffffffffffffffffffff021916908373ffffffffffffffffffffffffffffffffffffffff16021790555060408201518160010160146101000a81548160ff0219169083600381111561186657611865612ca5565b5b021790555090505080600b600061187d60066128a7565b81526020019081526020016000206000820151816000015560208201518160010160006101000a81548173ffffffffffffffffffffffffffffffffffffffff021916908373ffffffffffffffffffffffffffffffffffffffff1602179055506040820151816002015560608201518160030155608082015181600401559050503373ffffffffffffffffffffffffffffffffffffffff167fad57387c37d180b737321fddef35ced92cc15f70cc699b9b192d3621a2a4fd3261193f60066128a7565b600b600061194d60066128a7565b815260200190815260200160002060020154600087604051611972949392919061334e565b60405180910390a2505050565b61198761299e565b600c60008381526020019081526020016000206040518060e0016040529081600082015481526020016001820160009054906101000a900473ffffffffffffffffffffffffffffffffffffffff1673ffffffffffffffffffffffffffffffffffffffff1673ffffffffffffffffffffffffffffffffffffffff1681526020016002820160009054906101000a900473ffffffffffffffffffffffffffffffffffffffff1673ffffffffffffffffffffffffffffffffffffffff1673ffffffffffffffffffffffffffffffffffffffff1681526020016003820154815260200160048201548152602001600582015481526020016006820154815250509050919050565b600073ffffffffffffffffffffffffffffffffffffffff168273ffffffffffffffffffffffffffffffffffffffff161480611ac55750600081145b15611afc576040517f8e277c2c00000000000000000000000000000000000000000000000000000000815260040160405180910390fd5b611b066005612891565b611b106009612891565b4281611b1c9190613229565b905060006040518060600160405280611b3560056128a7565b81526020013373ffffffffffffffffffffffffffffffffffffffff168152602001600380811115611b6957611b68612ca5565b5b815250905060006040518060a00160405280611b8560096128a7565b81526020013373ffffffffffffffffffffffffffffffffffffffff1681526020018573ffffffffffffffffffffffffffffffffffffffff168152602001848152602001600e6000611bd660096128a7565b815260200190815260200160002060040154815250905081600a6000611bfc60056128a7565b81526020019081526020016000206000820151816000015560208201518160010160006101000a81548173ffffffffffffffffffffffffffffffffffffffff021916908373ffffffffffffffffffffffffffffffffffffffff16021790555060408201518160010160146101000a81548160ff02191690836003811115611c8657611c85612ca5565b5b021790555090505080600e6000611c9d60096128a7565b81526020019081526020016000206000820151816000015560208201518160010160006101000a81548173ffffffffffffffffffffffffffffffffffffffff021916908373ffffffffffffffffffffffffffffffffffffffff16021790555060408201518160020160006101000a81548173ffffffffffffffffffffffffffffffffffffffff021916908373ffffffffffffffffffffffffffffffffffffffff16021790555060608201518160030155608082015181600401559050508373ffffffffffffffffffffffffffffffffffffffff163373ffffffffffffffffffffffffffffffffffffffff167f45c072424520e0f43771406123f773276f0aaea392c03a4c776e8df9b2e90d0c611db360096128a7565b600e6000611dc160096128a7565b81526020019081526020016000206004015487604051611de3939291906132d2565b60405180910390a350505050565b600073ffffffffffffffffffffffffffffffffffffffff168473ffffffffffffffffffffffffffffffffffffffff161480611e2c5750600083145b80611e375750600082145b80611e425750600081145b15611e79576040517f8e277c2c00000000000000000000000000000000000000000000000000000000815260040160405180910390fd5b611e836005612891565b611e8d6008612891565b4283611e999190613229565b925060006040518060600160405280611eb260056128a7565b81526020013373ffffffffffffffffffffffffffffffffffffffff16815260200160026003811115611ee757611ee6612ca5565b5b815250905060006040518060e00160405280611f0360086128a7565b81526020013373ffffffffffffffffffffffffffffffffffffffff1681526020018773ffffffffffffffffffffffffffffffffffffffff168152602001600d6000611f4e60086128a7565b815260200190815260200160002060030154815260200186815260200185815260200184815250905081600a6000611f8660056128a7565b81526020019081526020016000206000820151816000015560208201518160010160006101000a81548173ffffffffffffffffffffffffffffffffffffffff021916908373ffffffffffffffffffffffffffffffffffffffff16021790555060408201518160010160146101000a81548160ff021916908360038111156120105761200f612ca5565b5b021790555090505080600d600061202760086128a7565b81526020019081526020016000206000820151816000015560208201518160010160006101000a81548173ffffffffffffffffffffffffffffffffffffffff021916908373ffffffffffffffffffffffffffffffffffffffff16021790555060408201518160020160006101000a81548173ffffffffffffffffffffffffffffffffffffffff021916908373ffffffffffffffffffffffffffffffffffffffff160217905550606082015181600301556080820151816004015560a0820151816005015560c08201518160060155905050846010600061210760086128a7565b8152602001908152602001600020819055508573ffffffffffffffffffffffffffffffffffffffff163373ffffffffffffffffffffffffffffffffffffffff167fb74791b0a4c373e84daff7ffcedc5c320f5d43d7e43462f49d938959564b435061217260086128a7565b600d600061218060086128a7565b8152602001908152602001600020600301548989896040516121a695949392919061327f565b60405180910390a3505050505050565b60016020528060005260406000206000915054906101000a900460ff1681565b813373ffffffffffffffffffffffffffffffffffffffff16600b600083815260200190815260200160002060010160009054906101000a900473ffffffffffffffffffffffffffffffffffffffff1673ffffffffffffffffffffffffffffffffffffffff1614612272576040517f0d9ff29600000000000000000000000000000000000000000000000000000000815260040160405180910390fd5b60006040518060a001604052808581526020013373ffffffffffffffffffffffffffffffffffffffff168152602001600b60008781526020019081526020016000206002015481526020018481526020016000815250905080600b60008681526020019081526020016000206000820151816000015560208201518160010160006101000a81548173ffffffffffffffffffffffffffffffffffffffff021916908373ffffffffffffffffffffffffffffffffffffffff1602179055506040820151816002015560608201518160030155608082015181600401559050503373ffffffffffffffffffffffffffffffffffffffff167fad57387c37d180b737321fddef35ced92cc15f70cc699b9b192d3621a2a4fd3285600b6000888152602001908152602001600020600201548660006040516123b39493929190613393565b60405180910390a250505050565b600073ffffffffffffffffffffffffffffffffffffffff168473ffffffffffffffffffffffffffffffffffffffff1614806123fc5750600083145b806124075750600082145b806124125750600081145b15612449576040517f8e277c2c00000000000000000000000000000000000000000000000000000000815260040160405180910390fd5b6124536005612891565b61245d6007612891565b42836124699190613229565b92506000604051806060016040528061248260056128a7565b81526020013373ffffffffffffffffffffffffffffffffffffffff168152602001600160038111156124b7576124b6612ca5565b5b815250905060006040518060e001604052806124d360076128a7565b81526020013373ffffffffffffffffffffffffffffffffffffffff1681526020018773ffffffffffffffffffffffffffffffffffffffff168152602001600c600061251e60076128a7565b815260200190815260200160002060030154815260200186815260200185815260200184815250905081600a600061255660056128a7565b81526020019081526020016000206000820151816000015560208201518160010160006101000a81548173ffffffffffffffffffffffffffffffffffffffff021916908373ffffffffffffffffffffffffffffffffffffffff16021790555060408201518160010160146101000a81548160ff021916908360038111156125e0576125df612ca5565b5b021790555090505080600c60006125f760076128a7565b81526020019081526020016000206000820151816000015560208201518160010160006101000a81548173ffffffffffffffffffffffffffffffffffffffff021916908373ffffffffffffffffffffffffffffffffffffffff16021790555060408201518160020160006101000a81548173ffffffffffffffffffffffffffffffffffffffff021916908373ffffffffffffffffffffffffffffffffffffffff160217905550606082015181600301556080820151816004015560a0820151816005015560c0820151816006015590505084600f60006126d760076128a7565b8152602001908152602001600020819055508573ffffffffffffffffffffffffffffffffffffffff163373ffffffffffffffffffffffffffffffffffffffff167f7ae56fec07023e809c892be62111eb83aa2c212bbc4687da5af1b43048de86e661274260076128a7565b600c600061275060076128a7565b81526020019081526020016000206003015489898960405161277695949392919061327f565b60405180910390a3505050505050565b61278e612a07565b600d60008381526020019081526020016000206040518060e0016040529081600082015481526020016001820160009054906101000a900473ffffffffffffffffffffffffffffffffffffffff1673ffffffffffffffffffffffffffffffffffffffff1673ffffffffffffffffffffffffffffffffffffffff1681526020016002820160009054906101000a900473ffffffffffffffffffffffffffffffffffffffff1673ffffffffffffffffffffffffffffffffffffffff1673ffffffffffffffffffffffffffffffffffffffff1681526020016003820154815260200160048201548152602001600582015481526020016006820154815250509050919050565b6001816000016000828254019250508190555050565b600081600001549050919050565b6040518060a0016040528060008152602001600073ffffffffffffffffffffffffffffffffffffffff1681526020016000815260200160008152602001600081525090565b604051806060016040528060008152602001600073ffffffffffffffffffffffffffffffffffffffff1681526020016000600381111561293d5761293c612ca5565b5b81525090565b6040518060a0016040528060008152602001600073ffffffffffffffffffffffffffffffffffffffff168152602001600073ffffffffffffffffffffffffffffffffffffffff16815260200160008152602001600081525090565b6040518060e0016040528060008152602001600073ffffffffffffffffffffffffffffffffffffffff168152602001600073ffffffffffffffffffffffffffffffffffffffff168152602001600081526020016000815260200160008152602001600081525090565b6040518060e0016040528060008152602001600073ffffffffffffffffffffffffffffffffffffffff168152602001600073ffffffffffffffffffffffffffffffffffffffff168152602001600081526020016000815260200160008152602001600081525090565b600080fd5b6000819050919050565b612a8881612a75565b8114612a9357600080fd5b50565b600081359050612aa581612a7f565b92915050565b600073ffffffffffffffffffffffffffffffffffffffff82169050919050565b6000612ad682612aab565b9050919050565b612ae681612acb565b8114612af157600080fd5b50565b600081359050612b0381612add565b92915050565b600080600080600060a08688031215612b2557612b24612a70565b5b6000612b3388828901612a96565b9550506020612b4488828901612af4565b9450506040612b5588828901612a96565b9350506060612b6688828901612a96565b9250506080612b7788828901612a96565b9150509295509295909350565b600060208284031215612b9a57612b99612a70565b5b6000612ba884828501612a96565b91505092915050565b612bba81612a75565b82525050565b612bc981612acb565b82525050565b60a082016000820151612be56000850182612bb1565b506020820151612bf86020850182612bc0565b506040820151612c0b6040850182612bb1565b506060820151612c1e6060850182612bb1565b506080820151612c316080850182612bb1565b50505050565b600060a082019050612c4c6000830184612bcf565b92915050565b600080600060608486031215612c6b57612c6a612a70565b5b6000612c7986828701612a96565b9350506020612c8a86828701612af4565b9250506040612c9b86828701612a96565b9150509250925092565b7f4e487b7100000000000000000000000000000000000000000000000000000000600052602160045260246000fd5b60048110612ce557612ce4612ca5565b5b50565b6000819050612cf682612cd4565b919050565b6000612d0682612ce8565b9050919050565b612d1681612cfb565b82525050565b606082016000820151612d326000850182612bb1565b506020820151612d456020850182612bc0565b506040820151612d586040850182612d0d565b50505050565b6000606082019050612d736000830184612d1c565b92915050565b612d8281612a75565b82525050565b612d9181612acb565b82525050565b6000604082019050612dac6000830185612d79565b612db96020830184612d88565b9392505050565b600081519050919050565b600082825260208201905092915050565b6000819050602082019050919050565b604082016000820151612e026000850182612bb1565b506020820151612e156020850182612bc0565b50505050565b6000612e278383612dec565b60408301905092915050565b6000602082019050919050565b6000612e4b82612dc0565b612e558185612dcb565b9350612e6083612ddc565b8060005b83811015612e91578151612e788882612e1b565b9750612e8383612e33565b925050600181019050612e64565b5085935050505092915050565b60006020820190508181036000830152612eb88184612e40565b905092915050565b60008060408385031215612ed757612ed6612a70565b5b6000612ee585828601612a96565b9250506020612ef685828601612a96565b9150509250929050565b6000602082019050612f156000830184612d88565b92915050565b60a082016000820151612f316000850182612bb1565b506020820151612f446020850182612bc0565b506040820151612f576040850182612bc0565b506060820151612f6a6060850182612bb1565b506080820151612f7d6080850182612bb1565b50505050565b600060a082019050612f986000830184612f1b565b92915050565b60e082016000820151612fb46000850182612bb1565b506020820151612fc76020850182612bc0565b506040820151612fda6040850182612bc0565b506060820151612fed6060850182612bb1565b5060808201516130006080850182612bb1565b5060a082015161301360a0850182612bb1565b5060c082015161302660c0850182612bb1565b50505050565b600060e0820190506130416000830184612f9e565b92915050565b6000806040838503121561305e5761305d612a70565b5b600061306c85828601612af4565b925050602061307d85828601612a96565b9150509250929050565b600080600080608085870312156130a1576130a0612a70565b5b60006130af87828801612af4565b94505060206130c087828801612a96565b93505060406130d187828801612a96565b92505060606130e287828801612a96565b91505092959194509250565b60006020828403121561310457613103612a70565b5b600061311284828501612af4565b91505092915050565b60008115159050919050565b6131308161311b565b82525050565b600060208201905061314b6000830184613127565b92915050565b60e0820160008201516131676000850182612bb1565b50602082015161317a6020850182612bc0565b50604082015161318d6040850182612bc0565b5060608201516131a06060850182612bb1565b5060808201516131b36080850182612bb1565b5060a08201516131c660a0850182612bb1565b5060c08201516131d960c0850182612bb1565b50505050565b600060e0820190506131f46000830184613151565b92915050565b7f4e487b7100000000000000000000000000000000000000000000000000000000600052601160045260246000fd5b600061323482612a75565b915061323f83612a75565b9250827fffffffffffffffffffffffffffffffffffffffffffffffffffffffffffffffff03821115613274576132736131fa565b5b828201905092915050565b600060a0820190506132946000830188612d79565b6132a16020830187612d79565b6132ae6040830186612d79565b6132bb6060830185612d79565b6132c86080830184612d79565b9695505050505050565b60006060820190506132e76000830186612d79565b6132f46020830185612d79565b6133016040830184612d79565b949350505050565b6000819050919050565b6000819050919050565b600061333861333361332e84613309565b613313565b612a75565b9050919050565b6133488161331d565b82525050565b60006080820190506133636000830187612d79565b6133706020830186612d79565b61337d604083018561333f565b61338a6060830184612d79565b95945050505050565b60006080820190506133a86000830187612d79565b6133b56020830186612d79565b6133c26040830185612d79565b6133cf606083018461333f565b9594505050505056fea26469706673582212207312b93a5b9be233a057dddf9505ecbb12484a0f060d199f1ed381c060f3649064736f6c63430008090033",
  "linkReferences": {},
  "deployedLinkReferences": {}
}