{
  "_format": "hh-sol-artifact-1",
  "contractName": "AtiumPlan",
  "sourceName": "contracts/AtiumPlan.sol",
  "abi": [
    {
      "inputs": [],
      "name": "Atium_ZeroInput",
      "type": "error"
    },
    {
      "inputs": [
        {
          "internalType": "address",
          "name": "_receiver",
          "type": "address"
        },
        {
          "internalType": "uint256",
          "name": "_startDate",
          "type": "uint256"
        },
        {
          "internalType": "uint256",
          "name": "_amount",
          "type": "uint256"
        },
        {
          "internalType": "uint256",
          "name": "_interval",
          "type": "uint256"
        }
      ],
      "name": "allowancePlan",
      "outputs": [],
      "stateMutability": "nonpayable",
      "type": "function"
    },
    {
      "inputs": [],
      "name": "getAllActiveAllowance",
      "outputs": [
        {
          "components": [
            {
              "internalType": "uint256",
              "name": "id",
              "type": "uint256"
            },
            {
              "internalType": "address",
              "name": "sender",
              "type": "address"
            },
            {
              "internalType": "address",
              "name": "receiver",
              "type": "address"
            },
            {
              "internalType": "uint256",
              "name": "deposit",
              "type": "uint256"
            },
            {
              "internalType": "uint256",
              "name": "startDate",
              "type": "uint256"
            },
            {
              "internalType": "uint256",
              "name": "withdrawalAmount",
              "type": "uint256"
            },
            {
              "internalType": "uint256",
              "name": "withdrawalInterval",
              "type": "uint256"
            }
          ],
          "internalType": "struct AtiumPlan.AllowanceList[]",
          "name": "",
          "type": "tuple[]"
        }
      ],
      "stateMutability": "view",
      "type": "function"
    },
    {
      "inputs": [],
      "name": "getAllActiveGift",
      "outputs": [
        {
          "components": [
            {
              "internalType": "uint256",
              "name": "id",
              "type": "uint256"
            },
            {
              "internalType": "address",
              "name": "sender",
              "type": "address"
            },
            {
              "internalType": "address",
              "name": "receiver",
              "type": "address"
            },
            {
              "internalType": "uint256",
              "name": "date",
              "type": "uint256"
            },
            {
              "internalType": "uint256",
              "name": "amount",
              "type": "uint256"
            }
          ],
          "internalType": "struct AtiumPlan.GiftList[]",
          "name": "",
          "type": "tuple[]"
        }
      ],
      "stateMutability": "view",
      "type": "function"
    },
    {
      "inputs": [],
      "name": "getAllActiveSavings",
      "outputs": [
        {
          "components": [
            {
              "internalType": "uint256",
              "name": "id",
              "type": "uint256"
            },
            {
              "internalType": "address",
              "name": "user",
              "type": "address"
            },
            {
              "internalType": "uint256",
              "name": "amount",
              "type": "uint256"
            },
            {
              "internalType": "uint256",
              "name": "goal",
              "type": "uint256"
            },
            {
              "internalType": "uint256",
              "name": "time",
              "type": "uint256"
            }
          ],
          "internalType": "struct AtiumPlan.SavingsList[]",
          "name": "",
          "type": "tuple[]"
        }
      ],
      "stateMutability": "view",
      "type": "function"
    },
    {
      "inputs": [],
      "name": "getAllActiveTrustfund",
      "outputs": [
        {
          "components": [
            {
              "internalType": "uint256",
              "name": "id",
              "type": "uint256"
            },
            {
              "internalType": "address",
              "name": "sender",
              "type": "address"
            },
            {
              "internalType": "address",
              "name": "receiver",
              "type": "address"
            },
            {
              "internalType": "uint256",
              "name": "amount",
              "type": "uint256"
            },
            {
              "internalType": "uint256",
              "name": "startDate",
              "type": "uint256"
            },
            {
              "internalType": "uint256",
              "name": "withdrawalAmount",
              "type": "uint256"
            },
            {
              "internalType": "uint256",
              "name": "withdrawalInterval",
              "type": "uint256"
            }
          ],
          "internalType": "struct AtiumPlan.TrustFundList[]",
          "name": "",
          "type": "tuple[]"
        }
      ],
      "stateMutability": "view",
      "type": "function"
    },
    {
      "inputs": [
        {
          "internalType": "uint256",
          "name": "_id",
          "type": "uint256"
        }
      ],
      "name": "getAllowance",
      "outputs": [
        {
          "components": [
            {
              "internalType": "uint256",
              "name": "id",
              "type": "uint256"
            },
            {
              "internalType": "address",
              "name": "sender",
              "type": "address"
            },
            {
              "internalType": "address",
              "name": "receiver",
              "type": "address"
            },
            {
              "internalType": "uint256",
              "name": "deposit",
              "type": "uint256"
            },
            {
              "internalType": "uint256",
              "name": "startDate",
              "type": "uint256"
            },
            {
              "internalType": "uint256",
              "name": "withdrawalAmount",
              "type": "uint256"
            },
            {
              "internalType": "uint256",
              "name": "withdrawalInterval",
              "type": "uint256"
            }
          ],
          "internalType": "struct AtiumPlan.AllowanceList",
          "name": "",
          "type": "tuple"
        }
      ],
      "stateMutability": "view",
      "type": "function"
    },
    {
      "inputs": [
        {
          "internalType": "uint256",
          "name": "_id",
          "type": "uint256"
        }
      ],
      "name": "getAtium",
      "outputs": [
        {
          "components": [
            {
              "internalType": "uint256",
              "name": "id",
              "type": "uint256"
            },
            {
              "internalType": "address",
              "name": "user",
              "type": "address"
            },
            {
              "internalType": "enum AtiumPlan.Select",
              "name": "select",
              "type": "uint8"
            }
          ],
          "internalType": "struct AtiumPlan.AtiumList",
          "name": "",
          "type": "tuple"
        }
      ],
      "stateMutability": "view",
      "type": "function"
    },
    {
      "inputs": [
        {
          "internalType": "uint256",
          "name": "_id",
          "type": "uint256"
        }
      ],
      "name": "getGift",
      "outputs": [
        {
          "components": [
            {
              "internalType": "uint256",
              "name": "id",
              "type": "uint256"
            },
            {
              "internalType": "address",
              "name": "sender",
              "type": "address"
            },
            {
              "internalType": "address",
              "name": "receiver",
              "type": "address"
            },
            {
              "internalType": "uint256",
              "name": "date",
              "type": "uint256"
            },
            {
              "internalType": "uint256",
              "name": "amount",
              "type": "uint256"
            }
          ],
          "internalType": "struct AtiumPlan.GiftList",
          "name": "",
          "type": "tuple"
        }
      ],
      "stateMutability": "view",
      "type": "function"
    },
    {
      "inputs": [
        {
          "internalType": "uint256",
          "name": "_id",
          "type": "uint256"
        }
      ],
      "name": "getSavings",
      "outputs": [
        {
          "components": [
            {
              "internalType": "uint256",
              "name": "id",
              "type": "uint256"
            },
            {
              "internalType": "address",
              "name": "user",
              "type": "address"
            },
            {
              "internalType": "uint256",
              "name": "amount",
              "type": "uint256"
            },
            {
              "internalType": "uint256",
              "name": "goal",
              "type": "uint256"
            },
            {
              "internalType": "uint256",
              "name": "time",
              "type": "uint256"
            }
          ],
          "internalType": "struct AtiumPlan.SavingsList",
          "name": "",
          "type": "tuple"
        }
      ],
      "stateMutability": "view",
      "type": "function"
    },
    {
      "inputs": [
        {
          "internalType": "uint256",
          "name": "_id",
          "type": "uint256"
        }
      ],
      "name": "getTrustfund",
      "outputs": [
        {
          "components": [
            {
              "internalType": "uint256",
              "name": "id",
              "type": "uint256"
            },
            {
              "internalType": "address",
              "name": "sender",
              "type": "address"
            },
            {
              "internalType": "address",
              "name": "receiver",
              "type": "address"
            },
            {
              "internalType": "uint256",
              "name": "amount",
              "type": "uint256"
            },
            {
              "internalType": "uint256",
              "name": "startDate",
              "type": "uint256"
            },
            {
              "internalType": "uint256",
              "name": "withdrawalAmount",
              "type": "uint256"
            },
            {
              "internalType": "uint256",
              "name": "withdrawalInterval",
              "type": "uint256"
            }
          ],
          "internalType": "struct AtiumPlan.TrustFundList",
          "name": "",
          "type": "tuple"
        }
      ],
      "stateMutability": "view",
      "type": "function"
    },
    {
      "inputs": [
        {
          "internalType": "address",
          "name": "_receiver",
          "type": "address"
        },
        {
          "internalType": "uint256",
          "name": "_date",
          "type": "uint256"
        }
      ],
      "name": "giftPlan",
      "outputs": [],
      "stateMutability": "nonpayable",
      "type": "function"
    },
    {
      "inputs": [
        {
          "internalType": "uint256",
          "name": "_goal",
          "type": "uint256"
        }
      ],
      "name": "savingsPlanGoal",
      "outputs": [],
      "stateMutability": "nonpayable",
      "type": "function"
    },
    {
      "inputs": [
        {
          "internalType": "uint256",
          "name": "_time",
          "type": "uint256"
        }
      ],
      "name": "savingsPlanTime",
      "outputs": [],
      "stateMutability": "nonpayable",
      "type": "function"
    },
    {
      "inputs": [
        {
          "internalType": "address",
          "name": "_receiver",
          "type": "address"
        },
        {
          "internalType": "uint256",
          "name": "_startDate",
          "type": "uint256"
        },
        {
          "internalType": "uint256",
          "name": "_amount",
          "type": "uint256"
        },
        {
          "internalType": "uint256",
          "name": "_interval",
          "type": "uint256"
        }
      ],
      "name": "trustfundPlan",
      "outputs": [],
      "stateMutability": "nonpayable",
      "type": "function"
    }
  ],
  "bytecode": "0x608060405234801561001057600080fd5b5061307b806100206000396000f3fe608060405234801561001057600080fd5b50600436106100ea5760003560e01c8063bf6713f61161008c578063d14fb6db11610066578063d14fb6db1461025f578063d67d10dc1461027b578063ed5579fc14610297578063fa278ae6146102b3576100ea565b8063bf6713f6146101e3578063c315d63514610213578063c960174e1461022f576100ea565b80632bb59145116100c85780632bb591451461015b5780633e346eeb146101795780636c45bdc4146101a9578063ad31cc9f146101c7576100ea565b806308339b93146100ef57806312cc19e71461010d57806313bfb1821461012b575b600080fd5b6100f76102e3565b60405161010491906126ec565b60405180910390f35b610115610515565b604051610122919061284b565b60405180910390f35b6101456004803603810190610140919061289e565b61075b565b6040516101529190612933565b60405180910390f35b610163610806565b6040516101709190612a65565b60405180910390f35b610193600480360381019061018e919061289e565b6109ec565b6040516101a09190612b40565b60405180910390f35b6101b1610ab4565b6040516101be9190612c98565b60405180910390f35b6101e160048036038101906101dc919061289e565b610cfa565b005b6101fd60048036038101906101f8919061289e565b610ffe565b60405161020a9190612d22565b60405180910390f35b61022d6004803603810190610228919061289e565b6110f5565b005b6102496004803603810190610244919061289e565b611407565b6040516102569190612dcb565b60405180910390f35b61027960048036038101906102749190612e12565b611512565b005b61029560048036038101906102909190612e52565b61191c565b005b6102b160048036038101906102ac9190612e52565b611d80565b005b6102cd60048036038101906102c8919061289e565b6121e4565b6040516102da9190612f47565b60405180910390f35b60606000600d60003373ffffffffffffffffffffffffffffffffffffffff1673ffffffffffffffffffffffffffffffffffffffff16815260200190815260200160002080548060200260200160405190810160405280929190818152602001828054801561037057602002820191906000526020600020905b81548152602001906001019080831161035c575b5050505050905060008151905060008167ffffffffffffffff81111561039957610398612f62565b5b6040519080825280602002602001820160405280156103d257816020015b6103bf6123c0565b8152602001906001900390816103b75790505b50905060005b8281101561050b57600960008583815181106103f7576103f6612f91565b5b602002602001015181526020019081526020016000206040518060a0016040529081600082015481526020016001820160009054906101000a900473ffffffffffffffffffffffffffffffffffffffff1673ffffffffffffffffffffffffffffffffffffffff1673ffffffffffffffffffffffffffffffffffffffff1681526020016002820160009054906101000a900473ffffffffffffffffffffffffffffffffffffffff1673ffffffffffffffffffffffffffffffffffffffff1673ffffffffffffffffffffffffffffffffffffffff168152602001600382015481526020016004820154815250508282815181106104f5576104f4612f91565b5b60200260200101819052508060010190506103d8565b5080935050505090565b60606000600b60003373ffffffffffffffffffffffffffffffffffffffff1673ffffffffffffffffffffffffffffffffffffffff1681526020019081526020016000208054806020026020016040519081016040528092919081815260200182805480156105a257602002820191906000526020600020905b81548152602001906001019080831161058e575b5050505050905060008151905060008167ffffffffffffffff8111156105cb576105ca612f62565b5b60405190808252806020026020018201604052801561060457816020015b6105f161241b565b8152602001906001900390816105e95790505b50905060005b82811015610751576007600085838151811061062957610628612f91565b5b602002602001015181526020019081526020016000206040518060e0016040529081600082015481526020016001820160009054906101000a900473ffffffffffffffffffffffffffffffffffffffff1673ffffffffffffffffffffffffffffffffffffffff1673ffffffffffffffffffffffffffffffffffffffff1681526020016002820160009054906101000a900473ffffffffffffffffffffffffffffffffffffffff1673ffffffffffffffffffffffffffffffffffffffff1673ffffffffffffffffffffffffffffffffffffffff16815260200160038201548152602001600482015481526020016005820154815260200160068201548152505082828151811061073b5761073a612f91565b5b602002602001018190525080600101905061060a565b5080935050505090565b610763612484565b600660008381526020019081526020016000206040518060a0016040529081600082015481526020016001820160009054906101000a900473ffffffffffffffffffffffffffffffffffffffff1673ffffffffffffffffffffffffffffffffffffffff1673ffffffffffffffffffffffffffffffffffffffff16815260200160028201548152602001600382015481526020016004820154815250509050919050565b60606000600a60003373ffffffffffffffffffffffffffffffffffffffff1673ffffffffffffffffffffffffffffffffffffffff16815260200190815260200160002080548060200260200160405190810160405280929190818152602001828054801561089357602002820191906000526020600020905b81548152602001906001019080831161087f575b5050505050905060008151905060008167ffffffffffffffff8111156108bc576108bb612f62565b5b6040519080825280602002602001820160405280156108f557816020015b6108e2612484565b8152602001906001900390816108da5790505b50905060005b828110156109e2576006600085838151811061091a57610919612f91565b5b602002602001015181526020019081526020016000206040518060a0016040529081600082015481526020016001820160009054906101000a900473ffffffffffffffffffffffffffffffffffffffff1673ffffffffffffffffffffffffffffffffffffffff1673ffffffffffffffffffffffffffffffffffffffff16815260200160028201548152602001600382015481526020016004820154815250508282815181106109cc576109cb612f91565b5b60200260200101819052508060010190506108fb565b5080935050505090565b6109f46124c9565b60056000838152602001908152602001600020604051806060016040529081600082015481526020016001820160009054906101000a900473ffffffffffffffffffffffffffffffffffffffff1673ffffffffffffffffffffffffffffffffffffffff1673ffffffffffffffffffffffffffffffffffffffff1681526020016001820160149054906101000a900460ff166003811115610a9757610a96612a87565b5b6003811115610aa957610aa8612a87565b5b815250509050919050565b60606000600c60003373ffffffffffffffffffffffffffffffffffffffff1673ffffffffffffffffffffffffffffffffffffffff168152602001908152602001600020805480602002602001604051908101604052809291908181526020018280548015610b4157602002820191906000526020600020905b815481526020019060010190808311610b2d575b5050505050905060008151905060008167ffffffffffffffff811115610b6a57610b69612f62565b5b604051908082528060200260200182016040528015610ba357816020015b610b90612512565b815260200190600190039081610b885790505b50905060005b82811015610cf05760086000858381518110610bc857610bc7612f91565b5b602002602001015181526020019081526020016000206040518060e0016040529081600082015481526020016001820160009054906101000a900473ffffffffffffffffffffffffffffffffffffffff1673ffffffffffffffffffffffffffffffffffffffff1673ffffffffffffffffffffffffffffffffffffffff1681526020016002820160009054906101000a900473ffffffffffffffffffffffffffffffffffffffff1673ffffffffffffffffffffffffffffffffffffffff1673ffffffffffffffffffffffffffffffffffffffff168152602001600382015481526020016004820154815260200160058201548152602001600682015481525050828281518110610cda57610cd9612f91565b5b6020026020010181905250806001019050610ba9565b5080935050505090565b6000811415610d35576040517f8e277c2c00000000000000000000000000000000000000000000000000000000815260040160405180910390fd5b610d3f60006122ef565b610d4960016122ef565b60006040518060600160405280610d606000612305565b81526020013373ffffffffffffffffffffffffffffffffffffffff16815260200160006003811115610d9557610d94612a87565b5b815250905060006040518060a00160405280610db16001612305565b81526020013373ffffffffffffffffffffffffffffffffffffffff16815260200160066000610de06001612305565b8152602001908152602001600020600201548152602001848152602001600081525090508160056000610e136000612305565b81526020019081526020016000206000820151816000015560208201518160010160006101000a81548173ffffffffffffffffffffffffffffffffffffffff021916908373ffffffffffffffffffffffffffffffffffffffff16021790555060408201518160010160146101000a81548160ff02191690836003811115610e9d57610e9c612a87565b5b02179055509050508060066000610eb46001612305565b81526020019081526020016000206000820151816000015560208201518160010160006101000a81548173ffffffffffffffffffffffffffffffffffffffff021916908373ffffffffffffffffffffffffffffffffffffffff160217905550604082015181600201556060820151816003015560808201518160040155905050600a60003373ffffffffffffffffffffffffffffffffffffffff1673ffffffffffffffffffffffffffffffffffffffff168152602001908152602001600020610f7d6001612305565b9080600181540180825580915050600190039060005260206000200160009091909190915055610ff88160000151600e60003373ffffffffffffffffffffffffffffffffffffffff1673ffffffffffffffffffffffffffffffffffffffff16815260200190815260200160002061231390919063ffffffff16565b50505050565b6110066123c0565b600960008381526020019081526020016000206040518060a0016040529081600082015481526020016001820160009054906101000a900473ffffffffffffffffffffffffffffffffffffffff1673ffffffffffffffffffffffffffffffffffffffff1673ffffffffffffffffffffffffffffffffffffffff1681526020016002820160009054906101000a900473ffffffffffffffffffffffffffffffffffffffff1673ffffffffffffffffffffffffffffffffffffffff1673ffffffffffffffffffffffffffffffffffffffff168152602001600382015481526020016004820154815250509050919050565b6000811415611130576040517f8e277c2c00000000000000000000000000000000000000000000000000000000815260040160405180910390fd5b61113a60006122ef565b61114460016122ef565b42816111509190612fef565b9050600060405180606001604052806111696000612305565b81526020013373ffffffffffffffffffffffffffffffffffffffff1681526020016000600381111561119e5761119d612a87565b5b815250905060006040518060a001604052806111ba6001612305565b81526020013373ffffffffffffffffffffffffffffffffffffffff168152602001600660006111e96001612305565b815260200190815260200160002060020154815260200160008152602001848152509050816005600061121c6000612305565b81526020019081526020016000206000820151816000015560208201518160010160006101000a81548173ffffffffffffffffffffffffffffffffffffffff021916908373ffffffffffffffffffffffffffffffffffffffff16021790555060408201518160010160146101000a81548160ff021916908360038111156112a6576112a5612a87565b5b021790555090505080600660006112bd6001612305565b81526020019081526020016000206000820151816000015560208201518160010160006101000a81548173ffffffffffffffffffffffffffffffffffffffff021916908373ffffffffffffffffffffffffffffffffffffffff160217905550604082015181600201556060820151816003015560808201518160040155905050600a60003373ffffffffffffffffffffffffffffffffffffffff1673ffffffffffffffffffffffffffffffffffffffff1681526020019081526020016000206113866001612305565b90806001815401808255809150506001900390600052602060002001600090919091909150556114018160000151600e60003373ffffffffffffffffffffffffffffffffffffffff1673ffffffffffffffffffffffffffffffffffffffff16815260200190815260200160002061231390919063ffffffff16565b50505050565b61140f61241b565b600760008381526020019081526020016000206040518060e0016040529081600082015481526020016001820160009054906101000a900473ffffffffffffffffffffffffffffffffffffffff1673ffffffffffffffffffffffffffffffffffffffff1673ffffffffffffffffffffffffffffffffffffffff1681526020016002820160009054906101000a900473ffffffffffffffffffffffffffffffffffffffff1673ffffffffffffffffffffffffffffffffffffffff1673ffffffffffffffffffffffffffffffffffffffff1681526020016003820154815260200160048201548152602001600582015481526020016006820154815250509050919050565b600073ffffffffffffffffffffffffffffffffffffffff168273ffffffffffffffffffffffffffffffffffffffff16148061154d5750600081145b15611584576040517f8e277c2c00000000000000000000000000000000000000000000000000000000815260040160405180910390fd5b61158e60006122ef565b61159860046122ef565b42816115a49190612fef565b9050600060405180606001604052806115bd6000612305565b81526020013373ffffffffffffffffffffffffffffffffffffffff1681526020016003808111156115f1576115f0612a87565b5b815250905060006040518060a0016040528061160d6004612305565b81526020013373ffffffffffffffffffffffffffffffffffffffff1681526020018573ffffffffffffffffffffffffffffffffffffffff1681526020018481526020016009600061165e6004612305565b815260200190815260200160002060040154815250905081600560006116846000612305565b81526020019081526020016000206000820151816000015560208201518160010160006101000a81548173ffffffffffffffffffffffffffffffffffffffff021916908373ffffffffffffffffffffffffffffffffffffffff16021790555060408201518160010160146101000a81548160ff0219169083600381111561170e5761170d612a87565b5b021790555090505080600960006117256004612305565b81526020019081526020016000206000820151816000015560208201518160010160006101000a81548173ffffffffffffffffffffffffffffffffffffffff021916908373ffffffffffffffffffffffffffffffffffffffff16021790555060408201518160020160006101000a81548173ffffffffffffffffffffffffffffffffffffffff021916908373ffffffffffffffffffffffffffffffffffffffff1602179055506060820151816003015560808201518160040155905050600d60003373ffffffffffffffffffffffffffffffffffffffff1673ffffffffffffffffffffffffffffffffffffffff16815260200190815260200160002061182b6004612305565b9080600181540180825580915050600190039060005260206000200160009091909190915055601460008573ffffffffffffffffffffffffffffffffffffffff1673ffffffffffffffffffffffffffffffffffffffff16815260200190815260200160002061189a6004612305565b90806001815401808255809150506001900390600052602060002001600090919091909150556119158160000151601160003373ffffffffffffffffffffffffffffffffffffffff1673ffffffffffffffffffffffffffffffffffffffff16815260200190815260200160002061231390919063ffffffff16565b5050505050565b600073ffffffffffffffffffffffffffffffffffffffff168473ffffffffffffffffffffffffffffffffffffffff1614806119575750600083145b806119625750600082145b8061196d5750600081145b156119a4576040517f8e277c2c00000000000000000000000000000000000000000000000000000000815260040160405180910390fd5b6119ae60006122ef565b6119b860036122ef565b42836119c49190612fef565b9250600060405180606001604052806119dd6000612305565b81526020013373ffffffffffffffffffffffffffffffffffffffff16815260200160026003811115611a1257611a11612a87565b5b815250905060006040518060e00160405280611a2e6003612305565b81526020013373ffffffffffffffffffffffffffffffffffffffff1681526020018773ffffffffffffffffffffffffffffffffffffffff16815260200160086000611a796003612305565b81526020019081526020016000206003015481526020018681526020018581526020018481525090508160056000611ab16000612305565b81526020019081526020016000206000820151816000015560208201518160010160006101000a81548173ffffffffffffffffffffffffffffffffffffffff021916908373ffffffffffffffffffffffffffffffffffffffff16021790555060408201518160010160146101000a81548160ff02191690836003811115611b3b57611b3a612a87565b5b02179055509050508060086000611b526003612305565b81526020019081526020016000206000820151816000015560208201518160010160006101000a81548173ffffffffffffffffffffffffffffffffffffffff021916908373ffffffffffffffffffffffffffffffffffffffff16021790555060408201518160020160006101000a81548173ffffffffffffffffffffffffffffffffffffffff021916908373ffffffffffffffffffffffffffffffffffffffff160217905550606082015181600301556080820151816004015560a0820151816005015560c082015181600601559050508460166000611c326003612305565b815260200190815260200160002081905550600c60003373ffffffffffffffffffffffffffffffffffffffff1673ffffffffffffffffffffffffffffffffffffffff168152602001908152602001600020611c8d6003612305565b9080600181540180825580915050600190039060005260206000200160009091909190915055601360008773ffffffffffffffffffffffffffffffffffffffff1673ffffffffffffffffffffffffffffffffffffffff168152602001908152602001600020611cfc6003612305565b9080600181540180825580915050600190039060005260206000200160009091909190915055611d778160000151601060003373ffffffffffffffffffffffffffffffffffffffff1673ffffffffffffffffffffffffffffffffffffffff16815260200190815260200160002061231390919063ffffffff16565b50505050505050565b600073ffffffffffffffffffffffffffffffffffffffff168473ffffffffffffffffffffffffffffffffffffffff161480611dbb5750600083145b80611dc65750600082145b80611dd15750600081145b15611e08576040517f8e277c2c00000000000000000000000000000000000000000000000000000000815260040160405180910390fd5b611e1260006122ef565b611e1c60026122ef565b4283611e289190612fef565b925060006040518060600160405280611e416000612305565b81526020013373ffffffffffffffffffffffffffffffffffffffff16815260200160016003811115611e7657611e75612a87565b5b815250905060006040518060e00160405280611e926002612305565b81526020013373ffffffffffffffffffffffffffffffffffffffff1681526020018773ffffffffffffffffffffffffffffffffffffffff16815260200160076000611edd6002612305565b81526020019081526020016000206003015481526020018681526020018581526020018481525090508160056000611f156000612305565b81526020019081526020016000206000820151816000015560208201518160010160006101000a81548173ffffffffffffffffffffffffffffffffffffffff021916908373ffffffffffffffffffffffffffffffffffffffff16021790555060408201518160010160146101000a81548160ff02191690836003811115611f9f57611f9e612a87565b5b02179055509050508060076000611fb66002612305565b81526020019081526020016000206000820151816000015560208201518160010160006101000a81548173ffffffffffffffffffffffffffffffffffffffff021916908373ffffffffffffffffffffffffffffffffffffffff16021790555060408201518160020160006101000a81548173ffffffffffffffffffffffffffffffffffffffff021916908373ffffffffffffffffffffffffffffffffffffffff160217905550606082015181600301556080820151816004015560a0820151816005015560c0820151816006015590505084601560006120966002612305565b815260200190815260200160002081905550600b60003373ffffffffffffffffffffffffffffffffffffffff1673ffffffffffffffffffffffffffffffffffffffff1681526020019081526020016000206120f16002612305565b9080600181540180825580915050600190039060005260206000200160009091909190915055601260008773ffffffffffffffffffffffffffffffffffffffff1673ffffffffffffffffffffffffffffffffffffffff1681526020019081526020016000206121606002612305565b90806001815401808255809150506001900390600052602060002001600090919091909150556121db8160000151600f60003373ffffffffffffffffffffffffffffffffffffffff1673ffffffffffffffffffffffffffffffffffffffff16815260200190815260200160002061231390919063ffffffff16565b50505050505050565b6121ec612512565b600860008381526020019081526020016000206040518060e0016040529081600082015481526020016001820160009054906101000a900473ffffffffffffffffffffffffffffffffffffffff1673ffffffffffffffffffffffffffffffffffffffff1673ffffffffffffffffffffffffffffffffffffffff1681526020016002820160009054906101000a900473ffffffffffffffffffffffffffffffffffffffff1673ffffffffffffffffffffffffffffffffffffffff1673ffffffffffffffffffffffffffffffffffffffff1681526020016003820154815260200160048201548152602001600582015481526020016006820154815250509050919050565b6001816000016000828254019250508190555050565b600081600001549050919050565b6000612325836000018360001b61232d565b905092915050565b6000612339838361239d565b612392578260000182908060018154018082558091505060019003906000526020600020016000909190919091505582600001805490508360010160008481526020019081526020016000208190555060019050612397565b600090505b92915050565b600080836001016000848152602001908152602001600020541415905092915050565b6040518060a0016040528060008152602001600073ffffffffffffffffffffffffffffffffffffffff168152602001600073ffffffffffffffffffffffffffffffffffffffff16815260200160008152602001600081525090565b6040518060e0016040528060008152602001600073ffffffffffffffffffffffffffffffffffffffff168152602001600073ffffffffffffffffffffffffffffffffffffffff168152602001600081526020016000815260200160008152602001600081525090565b6040518060a0016040528060008152602001600073ffffffffffffffffffffffffffffffffffffffff1681526020016000815260200160008152602001600081525090565b604051806060016040528060008152602001600073ffffffffffffffffffffffffffffffffffffffff1681526020016000600381111561250c5761250b612a87565b5b81525090565b6040518060e0016040528060008152602001600073ffffffffffffffffffffffffffffffffffffffff168152602001600073ffffffffffffffffffffffffffffffffffffffff168152602001600081526020016000815260200160008152602001600081525090565b600081519050919050565b600082825260208201905092915050565b6000819050602082019050919050565b6000819050919050565b6125ba816125a7565b82525050565b600073ffffffffffffffffffffffffffffffffffffffff82169050919050565b60006125eb826125c0565b9050919050565b6125fb816125e0565b82525050565b60a08201600082015161261760008501826125b1565b50602082015161262a60208501826125f2565b50604082015161263d60408501826125f2565b50606082015161265060608501826125b1565b50608082015161266360808501826125b1565b50505050565b60006126758383612601565b60a08301905092915050565b6000602082019050919050565b60006126998261257b565b6126a38185612586565b93506126ae83612597565b8060005b838110156126df5781516126c68882612669565b97506126d183612681565b9250506001810190506126b2565b5085935050505092915050565b60006020820190508181036000830152612706818461268e565b905092915050565b600081519050919050565b600082825260208201905092915050565b6000819050602082019050919050565b60e08201600082015161275060008501826125b1565b50602082015161276360208501826125f2565b50604082015161277660408501826125f2565b50606082015161278960608501826125b1565b50608082015161279c60808501826125b1565b5060a08201516127af60a08501826125b1565b5060c08201516127c260c08501826125b1565b50505050565b60006127d4838361273a565b60e08301905092915050565b6000602082019050919050565b60006127f88261270e565b6128028185612719565b935061280d8361272a565b8060005b8381101561283e57815161282588826127c8565b9750612830836127e0565b925050600181019050612811565b5085935050505092915050565b6000602082019050818103600083015261286581846127ed565b905092915050565b600080fd5b61287b816125a7565b811461288657600080fd5b50565b60008135905061289881612872565b92915050565b6000602082840312156128b4576128b361286d565b5b60006128c284828501612889565b91505092915050565b60a0820160008201516128e160008501826125b1565b5060208201516128f460208501826125f2565b50604082015161290760408501826125b1565b50606082015161291a60608501826125b1565b50608082015161292d60808501826125b1565b50505050565b600060a08201905061294860008301846128cb565b92915050565b600081519050919050565b600082825260208201905092915050565b6000819050602082019050919050565b60a08201600082015161299060008501826125b1565b5060208201516129a360208501826125f2565b5060408201516129b660408501826125b1565b5060608201516129c960608501826125b1565b5060808201516129dc60808501826125b1565b50505050565b60006129ee838361297a565b60a08301905092915050565b6000602082019050919050565b6000612a128261294e565b612a1c8185612959565b9350612a278361296a565b8060005b83811015612a58578151612a3f88826129e2565b9750612a4a836129fa565b925050600181019050612a2b565b5085935050505092915050565b60006020820190508181036000830152612a7f8184612a07565b905092915050565b7f4e487b7100000000000000000000000000000000000000000000000000000000600052602160045260246000fd5b60048110612ac757612ac6612a87565b5b50565b6000819050612ad882612ab6565b919050565b6000612ae882612aca565b9050919050565b612af881612add565b82525050565b606082016000820151612b1460008501826125b1565b506020820151612b2760208501826125f2565b506040820151612b3a6040850182612aef565b50505050565b6000606082019050612b556000830184612afe565b92915050565b600081519050919050565b600082825260208201905092915050565b6000819050602082019050919050565b60e082016000820151612b9d60008501826125b1565b506020820151612bb060208501826125f2565b506040820151612bc360408501826125f2565b506060820151612bd660608501826125b1565b506080820151612be960808501826125b1565b5060a0820151612bfc60a08501826125b1565b5060c0820151612c0f60c08501826125b1565b50505050565b6000612c218383612b87565b60e08301905092915050565b6000602082019050919050565b6000612c4582612b5b565b612c4f8185612b66565b9350612c5a83612b77565b8060005b83811015612c8b578151612c728882612c15565b9750612c7d83612c2d565b925050600181019050612c5e565b5085935050505092915050565b60006020820190508181036000830152612cb28184612c3a565b905092915050565b60a082016000820151612cd060008501826125b1565b506020820151612ce360208501826125f2565b506040820151612cf660408501826125f2565b506060820151612d0960608501826125b1565b506080820151612d1c60808501826125b1565b50505050565b600060a082019050612d376000830184612cba565b92915050565b60e082016000820151612d5360008501826125b1565b506020820151612d6660208501826125f2565b506040820151612d7960408501826125f2565b506060820151612d8c60608501826125b1565b506080820151612d9f60808501826125b1565b5060a0820151612db260a08501826125b1565b5060c0820151612dc560c08501826125b1565b50505050565b600060e082019050612de06000830184612d3d565b92915050565b612def816125e0565b8114612dfa57600080fd5b50565b600081359050612e0c81612de6565b92915050565b60008060408385031215612e2957612e2861286d565b5b6000612e3785828601612dfd565b9250506020612e4885828601612889565b9150509250929050565b60008060008060808587031215612e6c57612e6b61286d565b5b6000612e7a87828801612dfd565b9450506020612e8b87828801612889565b9350506040612e9c87828801612889565b9250506060612ead87828801612889565b91505092959194509250565b60e082016000820151612ecf60008501826125b1565b506020820151612ee260208501826125f2565b506040820151612ef560408501826125f2565b506060820151612f0860608501826125b1565b506080820151612f1b60808501826125b1565b5060a0820151612f2e60a08501826125b1565b5060c0820151612f4160c08501826125b1565b50505050565b600060e082019050612f5c6000830184612eb9565b92915050565b7f4e487b7100000000000000000000000000000000000000000000000000000000600052604160045260246000fd5b7f4e487b7100000000000000000000000000000000000000000000000000000000600052603260045260246000fd5b7f4e487b7100000000000000000000000000000000000000000000000000000000600052601160045260246000fd5b6000612ffa826125a7565b9150613005836125a7565b9250827fffffffffffffffffffffffffffffffffffffffffffffffffffffffffffffffff0382111561303a57613039612fc0565b5b82820190509291505056fea2646970667358221220b4830c8a76e281969e56aa206c4f6be7905a7f12d572d2fecb4e63d83b2eca6764736f6c63430008090033",
  "linkReferences": {},
  "deployedLinkReferences": {}
}