{
  "_format": "hh-sol-artifact-1",
  "contractName": "AtiumPlan",
  "sourceName": "contracts/AtiumPlan.sol",
  "abi": [
    {
      "inputs": [],
      "name": "Atium_ZeroInput",
      "type": "error"
    },
    {
      "inputs": [
        {
          "internalType": "address",
          "name": "_receiver",
          "type": "address"
        },
        {
          "internalType": "uint256",
          "name": "_startDate",
          "type": "uint256"
        },
        {
          "internalType": "uint256",
          "name": "_amount",
          "type": "uint256"
        },
        {
          "internalType": "uint256",
          "name": "_interval",
          "type": "uint256"
        }
      ],
      "name": "allowancePlan",
      "outputs": [],
      "stateMutability": "nonpayable",
      "type": "function"
    },
    {
      "inputs": [
        {
          "internalType": "address",
          "name": "_user",
          "type": "address"
        }
      ],
      "name": "getAllActiveAllowance",
      "outputs": [
        {
          "components": [
            {
              "internalType": "uint256",
              "name": "id",
              "type": "uint256"
            },
            {
              "internalType": "address",
              "name": "sender",
              "type": "address"
            },
            {
              "internalType": "address",
              "name": "receiver",
              "type": "address"
            },
            {
              "internalType": "uint256",
              "name": "deposit",
              "type": "uint256"
            },
            {
              "internalType": "uint256",
              "name": "startDate",
              "type": "uint256"
            },
            {
              "internalType": "uint256",
              "name": "withdrawalAmount",
              "type": "uint256"
            },
            {
              "internalType": "uint256",
              "name": "withdrawalInterval",
              "type": "uint256"
            }
          ],
          "internalType": "struct AtiumPlan.AllowanceList[]",
          "name": "",
          "type": "tuple[]"
        }
      ],
      "stateMutability": "view",
      "type": "function"
    },
    {
      "inputs": [
        {
          "internalType": "address",
          "name": "_user",
          "type": "address"
        }
      ],
      "name": "getAllActiveGift",
      "outputs": [
        {
          "components": [
            {
              "internalType": "uint256",
              "name": "id",
              "type": "uint256"
            },
            {
              "internalType": "address",
              "name": "sender",
              "type": "address"
            },
            {
              "internalType": "address",
              "name": "receiver",
              "type": "address"
            },
            {
              "internalType": "uint256",
              "name": "date",
              "type": "uint256"
            },
            {
              "internalType": "uint256",
              "name": "amount",
              "type": "uint256"
            }
          ],
          "internalType": "struct AtiumPlan.GiftList[]",
          "name": "",
          "type": "tuple[]"
        }
      ],
      "stateMutability": "view",
      "type": "function"
    },
    {
      "inputs": [
        {
          "internalType": "address",
          "name": "_user",
          "type": "address"
        }
      ],
      "name": "getAllActiveSavings",
      "outputs": [
        {
          "components": [
            {
              "internalType": "uint256",
              "name": "id",
              "type": "uint256"
            },
            {
              "internalType": "address",
              "name": "user",
              "type": "address"
            },
            {
              "internalType": "uint256",
              "name": "amount",
              "type": "uint256"
            },
            {
              "internalType": "uint256",
              "name": "goal",
              "type": "uint256"
            },
            {
              "internalType": "uint256",
              "name": "time",
              "type": "uint256"
            }
          ],
          "internalType": "struct AtiumPlan.SavingsList[]",
          "name": "",
          "type": "tuple[]"
        }
      ],
      "stateMutability": "view",
      "type": "function"
    },
    {
      "inputs": [
        {
          "internalType": "address",
          "name": "_user",
          "type": "address"
        }
      ],
      "name": "getAllActiveTrustfund",
      "outputs": [
        {
          "components": [
            {
              "internalType": "uint256",
              "name": "id",
              "type": "uint256"
            },
            {
              "internalType": "address",
              "name": "sender",
              "type": "address"
            },
            {
              "internalType": "address",
              "name": "receiver",
              "type": "address"
            },
            {
              "internalType": "uint256",
              "name": "amount",
              "type": "uint256"
            },
            {
              "internalType": "uint256",
              "name": "startDate",
              "type": "uint256"
            },
            {
              "internalType": "uint256",
              "name": "withdrawalAmount",
              "type": "uint256"
            },
            {
              "internalType": "uint256",
              "name": "withdrawalInterval",
              "type": "uint256"
            }
          ],
          "internalType": "struct AtiumPlan.TrustFundList[]",
          "name": "",
          "type": "tuple[]"
        }
      ],
      "stateMutability": "view",
      "type": "function"
    },
    {
      "inputs": [
        {
          "internalType": "uint256",
          "name": "_id",
          "type": "uint256"
        }
      ],
      "name": "getAllowance",
      "outputs": [
        {
          "components": [
            {
              "internalType": "uint256",
              "name": "id",
              "type": "uint256"
            },
            {
              "internalType": "address",
              "name": "sender",
              "type": "address"
            },
            {
              "internalType": "address",
              "name": "receiver",
              "type": "address"
            },
            {
              "internalType": "uint256",
              "name": "deposit",
              "type": "uint256"
            },
            {
              "internalType": "uint256",
              "name": "startDate",
              "type": "uint256"
            },
            {
              "internalType": "uint256",
              "name": "withdrawalAmount",
              "type": "uint256"
            },
            {
              "internalType": "uint256",
              "name": "withdrawalInterval",
              "type": "uint256"
            }
          ],
          "internalType": "struct AtiumPlan.AllowanceList",
          "name": "",
          "type": "tuple"
        }
      ],
      "stateMutability": "view",
      "type": "function"
    },
    {
      "inputs": [
        {
          "internalType": "uint256",
          "name": "_id",
          "type": "uint256"
        }
      ],
      "name": "getAtium",
      "outputs": [
        {
          "components": [
            {
              "internalType": "uint256",
              "name": "id",
              "type": "uint256"
            },
            {
              "internalType": "address",
              "name": "user",
              "type": "address"
            },
            {
              "internalType": "enum AtiumPlan.Select",
              "name": "select",
              "type": "uint8"
            }
          ],
          "internalType": "struct AtiumPlan.AtiumList",
          "name": "",
          "type": "tuple"
        }
      ],
      "stateMutability": "view",
      "type": "function"
    },
    {
      "inputs": [
        {
          "internalType": "uint256",
          "name": "_id",
          "type": "uint256"
        }
      ],
      "name": "getGift",
      "outputs": [
        {
          "components": [
            {
              "internalType": "uint256",
              "name": "id",
              "type": "uint256"
            },
            {
              "internalType": "address",
              "name": "sender",
              "type": "address"
            },
            {
              "internalType": "address",
              "name": "receiver",
              "type": "address"
            },
            {
              "internalType": "uint256",
              "name": "date",
              "type": "uint256"
            },
            {
              "internalType": "uint256",
              "name": "amount",
              "type": "uint256"
            }
          ],
          "internalType": "struct AtiumPlan.GiftList",
          "name": "",
          "type": "tuple"
        }
      ],
      "stateMutability": "view",
      "type": "function"
    },
    {
      "inputs": [
        {
          "internalType": "uint256",
          "name": "_id",
          "type": "uint256"
        }
      ],
      "name": "getSavings",
      "outputs": [
        {
          "components": [
            {
              "internalType": "uint256",
              "name": "id",
              "type": "uint256"
            },
            {
              "internalType": "address",
              "name": "user",
              "type": "address"
            },
            {
              "internalType": "uint256",
              "name": "amount",
              "type": "uint256"
            },
            {
              "internalType": "uint256",
              "name": "goal",
              "type": "uint256"
            },
            {
              "internalType": "uint256",
              "name": "time",
              "type": "uint256"
            }
          ],
          "internalType": "struct AtiumPlan.SavingsList",
          "name": "",
          "type": "tuple"
        }
      ],
      "stateMutability": "view",
      "type": "function"
    },
    {
      "inputs": [
        {
          "internalType": "uint256",
          "name": "_id",
          "type": "uint256"
        }
      ],
      "name": "getTrustfund",
      "outputs": [
        {
          "components": [
            {
              "internalType": "uint256",
              "name": "id",
              "type": "uint256"
            },
            {
              "internalType": "address",
              "name": "sender",
              "type": "address"
            },
            {
              "internalType": "address",
              "name": "receiver",
              "type": "address"
            },
            {
              "internalType": "uint256",
              "name": "amount",
              "type": "uint256"
            },
            {
              "internalType": "uint256",
              "name": "startDate",
              "type": "uint256"
            },
            {
              "internalType": "uint256",
              "name": "withdrawalAmount",
              "type": "uint256"
            },
            {
              "internalType": "uint256",
              "name": "withdrawalInterval",
              "type": "uint256"
            }
          ],
          "internalType": "struct AtiumPlan.TrustFundList",
          "name": "",
          "type": "tuple"
        }
      ],
      "stateMutability": "view",
      "type": "function"
    },
    {
      "inputs": [
        {
          "internalType": "address",
          "name": "_receiver",
          "type": "address"
        },
        {
          "internalType": "uint256",
          "name": "_date",
          "type": "uint256"
        }
      ],
      "name": "giftPlan",
      "outputs": [],
      "stateMutability": "nonpayable",
      "type": "function"
    },
    {
      "inputs": [
        {
          "internalType": "uint256",
          "name": "_goal",
          "type": "uint256"
        }
      ],
      "name": "savingsPlanGoal",
      "outputs": [],
      "stateMutability": "nonpayable",
      "type": "function"
    },
    {
      "inputs": [
        {
          "internalType": "uint256",
          "name": "_time",
          "type": "uint256"
        }
      ],
      "name": "savingsPlanTime",
      "outputs": [],
      "stateMutability": "nonpayable",
      "type": "function"
    },
    {
      "inputs": [
        {
          "internalType": "address",
          "name": "_receiver",
          "type": "address"
        },
        {
          "internalType": "uint256",
          "name": "_startDate",
          "type": "uint256"
        },
        {
          "internalType": "uint256",
          "name": "_amount",
          "type": "uint256"
        },
        {
          "internalType": "uint256",
          "name": "_interval",
          "type": "uint256"
        }
      ],
      "name": "trustfundPlan",
      "outputs": [],
      "stateMutability": "nonpayable",
      "type": "function"
    }
  ],
  "bytecode": "0x608060405234801561001057600080fd5b50612e9d806100206000396000f3fe608060405234801561001057600080fd5b50600436106100ea5760003560e01c8063c315d6351161008c578063d14fb6db11610066578063d14fb6db146102a7578063d67d10dc146102c3578063ed5579fc146102df578063fa278ae6146102fb576100ea565b8063c315d6351461022b578063c960174e14610247578063cf6e282714610277576100ea565b806384c8d490116100c857806384c8d4901461017f57806393ea685b146101af578063ad31cc9f146101df578063bf6713f6146101fb576100ea565b806313bfb182146100ef57806316aa22341461011f5780633e346eeb1461014f575b600080fd5b610109600480360381019061010491906123ab565b61032b565b6040516101169190612490565b60405180910390f35b610139600480360381019061013491906124d7565b6103d6565b6040516101469190612641565b60405180910390f35b610169600480360381019061016491906123ab565b61061e565b604051610176919061271c565b60405180910390f35b610199600480360381019061019491906124d7565b6106e6565b6040516101a6919061284e565b60405180910390f35b6101c960048036038101906101c491906124d7565b61091a565b6040516101d691906129ad565b60405180910390f35b6101f960048036038101906101f491906123ab565b610b62565b005b610215600480360381019061021091906123ab565b610e10565b6040516102229190612a37565b60405180910390f35b610245600480360381019061024091906123ab565b610f07565b005b610261600480360381019061025c91906123ab565b6111c3565b60405161026e9190612ae0565b60405180910390f35b610291600480360381019061028c91906124d7565b6112ce565b60405161029e9190612c12565b60405180910390f35b6102c160048036038101906102bc9190612c34565b6114b6565b005b6102dd60048036038101906102d89190612c74565b61186a565b005b6102f960048036038101906102f49190612c74565b611c78565b005b610315600480360381019061031091906123ab565b612086565b6040516103229190612d69565b60405180910390f35b6103336121b5565b600660008381526020019081526020016000206040518060a0016040529081600082015481526020016001820160009054906101000a900473ffffffffffffffffffffffffffffffffffffffff1673ffffffffffffffffffffffffffffffffffffffff1673ffffffffffffffffffffffffffffffffffffffff16815260200160028201548152602001600382015481526020016004820154815250509050919050565b60606000600b60008473ffffffffffffffffffffffffffffffffffffffff1673ffffffffffffffffffffffffffffffffffffffff16815260200190815260200160002080548060200260200160405190810160405280929190818152602001828054801561046357602002820191906000526020600020905b81548152602001906001019080831161044f575b5050505050905060008151905060008167ffffffffffffffff81111561048c5761048b612d84565b5b6040519080825280602002602001820160405280156104c557816020015b6104b26121fa565b8152602001906001900390816104aa5790505b50905060005b8281101561061257600760008583815181106104ea576104e9612db3565b5b602002602001015181526020019081526020016000206040518060e0016040529081600082015481526020016001820160009054906101000a900473ffffffffffffffffffffffffffffffffffffffff1673ffffffffffffffffffffffffffffffffffffffff1673ffffffffffffffffffffffffffffffffffffffff1681526020016002820160009054906101000a900473ffffffffffffffffffffffffffffffffffffffff1673ffffffffffffffffffffffffffffffffffffffff1673ffffffffffffffffffffffffffffffffffffffff1681526020016003820154815260200160048201548152602001600582015481526020016006820154815250508282815181106105fc576105fb612db3565b5b60200260200101819052508060010190506104cb565b50809350505050919050565b610626612263565b60056000838152602001908152602001600020604051806060016040529081600082015481526020016001820160009054906101000a900473ffffffffffffffffffffffffffffffffffffffff1673ffffffffffffffffffffffffffffffffffffffff1673ffffffffffffffffffffffffffffffffffffffff1681526020016001820160149054906101000a900460ff1660038111156106c9576106c8612663565b5b60038111156106db576106da612663565b5b815250509050919050565b60606000600d60008473ffffffffffffffffffffffffffffffffffffffff1673ffffffffffffffffffffffffffffffffffffffff16815260200190815260200160002080548060200260200160405190810160405280929190818152602001828054801561077357602002820191906000526020600020905b81548152602001906001019080831161075f575b5050505050905060008151905060008167ffffffffffffffff81111561079c5761079b612d84565b5b6040519080825280602002602001820160405280156107d557816020015b6107c26122ac565b8152602001906001900390816107ba5790505b50905060005b8281101561090e57600960008583815181106107fa576107f9612db3565b5b602002602001015181526020019081526020016000206040518060a0016040529081600082015481526020016001820160009054906101000a900473ffffffffffffffffffffffffffffffffffffffff1673ffffffffffffffffffffffffffffffffffffffff1673ffffffffffffffffffffffffffffffffffffffff1681526020016002820160009054906101000a900473ffffffffffffffffffffffffffffffffffffffff1673ffffffffffffffffffffffffffffffffffffffff1673ffffffffffffffffffffffffffffffffffffffff168152602001600382015481526020016004820154815250508282815181106108f8576108f7612db3565b5b60200260200101819052508060010190506107db565b50809350505050919050565b60606000600c60008473ffffffffffffffffffffffffffffffffffffffff1673ffffffffffffffffffffffffffffffffffffffff1681526020019081526020016000208054806020026020016040519081016040528092919081815260200182805480156109a757602002820191906000526020600020905b815481526020019060010190808311610993575b5050505050905060008151905060008167ffffffffffffffff8111156109d0576109cf612d84565b5b604051908082528060200260200182016040528015610a0957816020015b6109f6612307565b8152602001906001900390816109ee5790505b50905060005b82811015610b565760086000858381518110610a2e57610a2d612db3565b5b602002602001015181526020019081526020016000206040518060e0016040529081600082015481526020016001820160009054906101000a900473ffffffffffffffffffffffffffffffffffffffff1673ffffffffffffffffffffffffffffffffffffffff1673ffffffffffffffffffffffffffffffffffffffff1681526020016002820160009054906101000a900473ffffffffffffffffffffffffffffffffffffffff1673ffffffffffffffffffffffffffffffffffffffff1673ffffffffffffffffffffffffffffffffffffffff168152602001600382015481526020016004820154815260200160058201548152602001600682015481525050828281518110610b4057610b3f612db3565b5b6020026020010181905250806001019050610a0f565b50809350505050919050565b6000811415610b9d576040517f8e277c2c00000000000000000000000000000000000000000000000000000000815260040160405180910390fd5b610ba76000612191565b610bb16001612191565b60006040518060600160405280610bc860006121a7565b81526020013373ffffffffffffffffffffffffffffffffffffffff16815260200160006003811115610bfd57610bfc612663565b5b815250905060006040518060a00160405280610c1960016121a7565b81526020013373ffffffffffffffffffffffffffffffffffffffff16815260200160066000610c4860016121a7565b8152602001908152602001600020600201548152602001848152602001600081525090508160056000610c7b60006121a7565b81526020019081526020016000206000820151816000015560208201518160010160006101000a81548173ffffffffffffffffffffffffffffffffffffffff021916908373ffffffffffffffffffffffffffffffffffffffff16021790555060408201518160010160146101000a81548160ff02191690836003811115610d0557610d04612663565b5b02179055509050508060066000610d1c60016121a7565b81526020019081526020016000206000820151816000015560208201518160010160006101000a81548173ffffffffffffffffffffffffffffffffffffffff021916908373ffffffffffffffffffffffffffffffffffffffff160217905550604082015181600201556060820151816003015560808201518160040155905050600a60003373ffffffffffffffffffffffffffffffffffffffff1673ffffffffffffffffffffffffffffffffffffffff168152602001908152602001600020610de560016121a7565b9080600181540180825580915050600190039060005260206000200160009091909190915055505050565b610e186122ac565b600960008381526020019081526020016000206040518060a0016040529081600082015481526020016001820160009054906101000a900473ffffffffffffffffffffffffffffffffffffffff1673ffffffffffffffffffffffffffffffffffffffff1673ffffffffffffffffffffffffffffffffffffffff1681526020016002820160009054906101000a900473ffffffffffffffffffffffffffffffffffffffff1673ffffffffffffffffffffffffffffffffffffffff1673ffffffffffffffffffffffffffffffffffffffff168152602001600382015481526020016004820154815250509050919050565b6000811415610f42576040517f8e277c2c00000000000000000000000000000000000000000000000000000000815260040160405180910390fd5b610f4c6000612191565b610f566001612191565b4281610f629190612e11565b905060006040518060600160405280610f7b60006121a7565b81526020013373ffffffffffffffffffffffffffffffffffffffff16815260200160006003811115610fb057610faf612663565b5b815250905060006040518060a00160405280610fcc60016121a7565b81526020013373ffffffffffffffffffffffffffffffffffffffff16815260200160066000610ffb60016121a7565b815260200190815260200160002060020154815260200160008152602001848152509050816005600061102e60006121a7565b81526020019081526020016000206000820151816000015560208201518160010160006101000a81548173ffffffffffffffffffffffffffffffffffffffff021916908373ffffffffffffffffffffffffffffffffffffffff16021790555060408201518160010160146101000a81548160ff021916908360038111156110b8576110b7612663565b5b021790555090505080600660006110cf60016121a7565b81526020019081526020016000206000820151816000015560208201518160010160006101000a81548173ffffffffffffffffffffffffffffffffffffffff021916908373ffffffffffffffffffffffffffffffffffffffff160217905550604082015181600201556060820151816003015560808201518160040155905050600a60003373ffffffffffffffffffffffffffffffffffffffff1673ffffffffffffffffffffffffffffffffffffffff16815260200190815260200160002061119860016121a7565b9080600181540180825580915050600190039060005260206000200160009091909190915055505050565b6111cb6121fa565b600760008381526020019081526020016000206040518060e0016040529081600082015481526020016001820160009054906101000a900473ffffffffffffffffffffffffffffffffffffffff1673ffffffffffffffffffffffffffffffffffffffff1673ffffffffffffffffffffffffffffffffffffffff1681526020016002820160009054906101000a900473ffffffffffffffffffffffffffffffffffffffff1673ffffffffffffffffffffffffffffffffffffffff1673ffffffffffffffffffffffffffffffffffffffff1681526020016003820154815260200160048201548152602001600582015481526020016006820154815250509050919050565b60606000600a60008473ffffffffffffffffffffffffffffffffffffffff1673ffffffffffffffffffffffffffffffffffffffff16815260200190815260200160002080548060200260200160405190810160405280929190818152602001828054801561135b57602002820191906000526020600020905b815481526020019060010190808311611347575b5050505050905060008151905060008167ffffffffffffffff81111561138457611383612d84565b5b6040519080825280602002602001820160405280156113bd57816020015b6113aa6121b5565b8152602001906001900390816113a25790505b50905060005b828110156114aa57600660008583815181106113e2576113e1612db3565b5b602002602001015181526020019081526020016000206040518060a0016040529081600082015481526020016001820160009054906101000a900473ffffffffffffffffffffffffffffffffffffffff1673ffffffffffffffffffffffffffffffffffffffff1673ffffffffffffffffffffffffffffffffffffffff168152602001600282015481526020016003820154815260200160048201548152505082828151811061149457611493612db3565b5b60200260200101819052508060010190506113c3565b50809350505050919050565b600073ffffffffffffffffffffffffffffffffffffffff168273ffffffffffffffffffffffffffffffffffffffff1614806114f15750600081145b15611528576040517f8e277c2c00000000000000000000000000000000000000000000000000000000815260040160405180910390fd5b6115326000612191565b61153c6004612191565b42816115489190612e11565b90506000604051806060016040528061156160006121a7565b81526020013373ffffffffffffffffffffffffffffffffffffffff16815260200160038081111561159557611594612663565b5b815250905060006040518060a001604052806115b160046121a7565b81526020013373ffffffffffffffffffffffffffffffffffffffff1681526020018573ffffffffffffffffffffffffffffffffffffffff1681526020018481526020016009600061160260046121a7565b8152602001908152602001600020600401548152509050816005600061162860006121a7565b81526020019081526020016000206000820151816000015560208201518160010160006101000a81548173ffffffffffffffffffffffffffffffffffffffff021916908373ffffffffffffffffffffffffffffffffffffffff16021790555060408201518160010160146101000a81548160ff021916908360038111156116b2576116b1612663565b5b021790555090505080600960006116c960046121a7565b81526020019081526020016000206000820151816000015560208201518160010160006101000a81548173ffffffffffffffffffffffffffffffffffffffff021916908373ffffffffffffffffffffffffffffffffffffffff16021790555060408201518160020160006101000a81548173ffffffffffffffffffffffffffffffffffffffff021916908373ffffffffffffffffffffffffffffffffffffffff1602179055506060820151816003015560808201518160040155905050600d60003373ffffffffffffffffffffffffffffffffffffffff1673ffffffffffffffffffffffffffffffffffffffff1681526020019081526020016000206117cf60046121a7565b9080600181540180825580915050600190039060005260206000200160009091909190915055601060008573ffffffffffffffffffffffffffffffffffffffff1673ffffffffffffffffffffffffffffffffffffffff16815260200190815260200160002061183e60046121a7565b908060018154018082558091505060019003906000526020600020016000909190919091505550505050565b600073ffffffffffffffffffffffffffffffffffffffff168473ffffffffffffffffffffffffffffffffffffffff1614806118a55750600083145b806118b05750600082145b806118bb5750600081145b156118f2576040517f8e277c2c00000000000000000000000000000000000000000000000000000000815260040160405180910390fd5b6118fc6000612191565b6119066003612191565b42836119129190612e11565b92506000604051806060016040528061192b60006121a7565b81526020013373ffffffffffffffffffffffffffffffffffffffff168152602001600260038111156119605761195f612663565b5b815250905060006040518060e0016040528061197c60036121a7565b81526020013373ffffffffffffffffffffffffffffffffffffffff1681526020018773ffffffffffffffffffffffffffffffffffffffff168152602001600860006119c760036121a7565b815260200190815260200160002060030154815260200186815260200185815260200184815250905081600560006119ff60006121a7565b81526020019081526020016000206000820151816000015560208201518160010160006101000a81548173ffffffffffffffffffffffffffffffffffffffff021916908373ffffffffffffffffffffffffffffffffffffffff16021790555060408201518160010160146101000a81548160ff02191690836003811115611a8957611a88612663565b5b02179055509050508060086000611aa060036121a7565b81526020019081526020016000206000820151816000015560208201518160010160006101000a81548173ffffffffffffffffffffffffffffffffffffffff021916908373ffffffffffffffffffffffffffffffffffffffff16021790555060408201518160020160006101000a81548173ffffffffffffffffffffffffffffffffffffffff021916908373ffffffffffffffffffffffffffffffffffffffff160217905550606082015181600301556080820151816004015560a0820151816005015560c082015181600601559050508460126000611b8060036121a7565b815260200190815260200160002081905550600c60003373ffffffffffffffffffffffffffffffffffffffff1673ffffffffffffffffffffffffffffffffffffffff168152602001908152602001600020611bdb60036121a7565b9080600181540180825580915050600190039060005260206000200160009091909190915055600f60008773ffffffffffffffffffffffffffffffffffffffff1673ffffffffffffffffffffffffffffffffffffffff168152602001908152602001600020611c4a60036121a7565b9080600181540180825580915050600190039060005260206000200160009091909190915055505050505050565b600073ffffffffffffffffffffffffffffffffffffffff168473ffffffffffffffffffffffffffffffffffffffff161480611cb35750600083145b80611cbe5750600082145b80611cc95750600081145b15611d00576040517f8e277c2c00000000000000000000000000000000000000000000000000000000815260040160405180910390fd5b611d0a6000612191565b611d146002612191565b4283611d209190612e11565b925060006040518060600160405280611d3960006121a7565b81526020013373ffffffffffffffffffffffffffffffffffffffff16815260200160016003811115611d6e57611d6d612663565b5b815250905060006040518060e00160405280611d8a60026121a7565b81526020013373ffffffffffffffffffffffffffffffffffffffff1681526020018773ffffffffffffffffffffffffffffffffffffffff16815260200160076000611dd560026121a7565b81526020019081526020016000206003015481526020018681526020018581526020018481525090508160056000611e0d60006121a7565b81526020019081526020016000206000820151816000015560208201518160010160006101000a81548173ffffffffffffffffffffffffffffffffffffffff021916908373ffffffffffffffffffffffffffffffffffffffff16021790555060408201518160010160146101000a81548160ff02191690836003811115611e9757611e96612663565b5b02179055509050508060076000611eae60026121a7565b81526020019081526020016000206000820151816000015560208201518160010160006101000a81548173ffffffffffffffffffffffffffffffffffffffff021916908373ffffffffffffffffffffffffffffffffffffffff16021790555060408201518160020160006101000a81548173ffffffffffffffffffffffffffffffffffffffff021916908373ffffffffffffffffffffffffffffffffffffffff160217905550606082015181600301556080820151816004015560a0820151816005015560c082015181600601559050508460116000611f8e60026121a7565b815260200190815260200160002081905550600b60003373ffffffffffffffffffffffffffffffffffffffff1673ffffffffffffffffffffffffffffffffffffffff168152602001908152602001600020611fe960026121a7565b9080600181540180825580915050600190039060005260206000200160009091909190915055600e60008773ffffffffffffffffffffffffffffffffffffffff1673ffffffffffffffffffffffffffffffffffffffff16815260200190815260200160002061205860026121a7565b9080600181540180825580915050600190039060005260206000200160009091909190915055505050505050565b61208e612307565b600860008381526020019081526020016000206040518060e0016040529081600082015481526020016001820160009054906101000a900473ffffffffffffffffffffffffffffffffffffffff1673ffffffffffffffffffffffffffffffffffffffff1673ffffffffffffffffffffffffffffffffffffffff1681526020016002820160009054906101000a900473ffffffffffffffffffffffffffffffffffffffff1673ffffffffffffffffffffffffffffffffffffffff1673ffffffffffffffffffffffffffffffffffffffff1681526020016003820154815260200160048201548152602001600582015481526020016006820154815250509050919050565b6001816000016000828254019250508190555050565b600081600001549050919050565b6040518060a0016040528060008152602001600073ffffffffffffffffffffffffffffffffffffffff1681526020016000815260200160008152602001600081525090565b6040518060e0016040528060008152602001600073ffffffffffffffffffffffffffffffffffffffff168152602001600073ffffffffffffffffffffffffffffffffffffffff168152602001600081526020016000815260200160008152602001600081525090565b604051806060016040528060008152602001600073ffffffffffffffffffffffffffffffffffffffff168152602001600060038111156122a6576122a5612663565b5b81525090565b6040518060a0016040528060008152602001600073ffffffffffffffffffffffffffffffffffffffff168152602001600073ffffffffffffffffffffffffffffffffffffffff16815260200160008152602001600081525090565b6040518060e0016040528060008152602001600073ffffffffffffffffffffffffffffffffffffffff168152602001600073ffffffffffffffffffffffffffffffffffffffff168152602001600081526020016000815260200160008152602001600081525090565b600080fd5b6000819050919050565b61238881612375565b811461239357600080fd5b50565b6000813590506123a58161237f565b92915050565b6000602082840312156123c1576123c0612370565b5b60006123cf84828501612396565b91505092915050565b6123e181612375565b82525050565b600073ffffffffffffffffffffffffffffffffffffffff82169050919050565b6000612412826123e7565b9050919050565b61242281612407565b82525050565b60a08201600082015161243e60008501826123d8565b5060208201516124516020850182612419565b50604082015161246460408501826123d8565b50606082015161247760608501826123d8565b50608082015161248a60808501826123d8565b50505050565b600060a0820190506124a56000830184612428565b92915050565b6124b481612407565b81146124bf57600080fd5b50565b6000813590506124d1816124ab565b92915050565b6000602082840312156124ed576124ec612370565b5b60006124fb848285016124c2565b91505092915050565b600081519050919050565b600082825260208201905092915050565b6000819050602082019050919050565b60e08201600082015161254660008501826123d8565b5060208201516125596020850182612419565b50604082015161256c6040850182612419565b50606082015161257f60608501826123d8565b50608082015161259260808501826123d8565b5060a08201516125a560a08501826123d8565b5060c08201516125b860c08501826123d8565b50505050565b60006125ca8383612530565b60e08301905092915050565b6000602082019050919050565b60006125ee82612504565b6125f8818561250f565b935061260383612520565b8060005b8381101561263457815161261b88826125be565b9750612626836125d6565b925050600181019050612607565b5085935050505092915050565b6000602082019050818103600083015261265b81846125e3565b905092915050565b7f4e487b7100000000000000000000000000000000000000000000000000000000600052602160045260246000fd5b600481106126a3576126a2612663565b5b50565b60008190506126b482612692565b919050565b60006126c4826126a6565b9050919050565b6126d4816126b9565b82525050565b6060820160008201516126f060008501826123d8565b5060208201516127036020850182612419565b50604082015161271660408501826126cb565b50505050565b600060608201905061273160008301846126da565b92915050565b600081519050919050565b600082825260208201905092915050565b6000819050602082019050919050565b60a08201600082015161277960008501826123d8565b50602082015161278c6020850182612419565b50604082015161279f6040850182612419565b5060608201516127b260608501826123d8565b5060808201516127c560808501826123d8565b50505050565b60006127d78383612763565b60a08301905092915050565b6000602082019050919050565b60006127fb82612737565b6128058185612742565b935061281083612753565b8060005b8381101561284157815161282888826127cb565b9750612833836127e3565b925050600181019050612814565b5085935050505092915050565b6000602082019050818103600083015261286881846127f0565b905092915050565b600081519050919050565b600082825260208201905092915050565b6000819050602082019050919050565b60e0820160008201516128b260008501826123d8565b5060208201516128c56020850182612419565b5060408201516128d86040850182612419565b5060608201516128eb60608501826123d8565b5060808201516128fe60808501826123d8565b5060a082015161291160a08501826123d8565b5060c082015161292460c08501826123d8565b50505050565b6000612936838361289c565b60e08301905092915050565b6000602082019050919050565b600061295a82612870565b612964818561287b565b935061296f8361288c565b8060005b838110156129a0578151612987888261292a565b975061299283612942565b925050600181019050612973565b5085935050505092915050565b600060208201905081810360008301526129c7818461294f565b905092915050565b60a0820160008201516129e560008501826123d8565b5060208201516129f86020850182612419565b506040820151612a0b6040850182612419565b506060820151612a1e60608501826123d8565b506080820151612a3160808501826123d8565b50505050565b600060a082019050612a4c60008301846129cf565b92915050565b60e082016000820151612a6860008501826123d8565b506020820151612a7b6020850182612419565b506040820151612a8e6040850182612419565b506060820151612aa160608501826123d8565b506080820151612ab460808501826123d8565b5060a0820151612ac760a08501826123d8565b5060c0820151612ada60c08501826123d8565b50505050565b600060e082019050612af56000830184612a52565b92915050565b600081519050919050565b600082825260208201905092915050565b6000819050602082019050919050565b60a082016000820151612b3d60008501826123d8565b506020820151612b506020850182612419565b506040820151612b6360408501826123d8565b506060820151612b7660608501826123d8565b506080820151612b8960808501826123d8565b50505050565b6000612b9b8383612b27565b60a08301905092915050565b6000602082019050919050565b6000612bbf82612afb565b612bc98185612b06565b9350612bd483612b17565b8060005b83811015612c05578151612bec8882612b8f565b9750612bf783612ba7565b925050600181019050612bd8565b5085935050505092915050565b60006020820190508181036000830152612c2c8184612bb4565b905092915050565b60008060408385031215612c4b57612c4a612370565b5b6000612c59858286016124c2565b9250506020612c6a85828601612396565b9150509250929050565b60008060008060808587031215612c8e57612c8d612370565b5b6000612c9c878288016124c2565b9450506020612cad87828801612396565b9350506040612cbe87828801612396565b9250506060612ccf87828801612396565b91505092959194509250565b60e082016000820151612cf160008501826123d8565b506020820151612d046020850182612419565b506040820151612d176040850182612419565b506060820151612d2a60608501826123d8565b506080820151612d3d60808501826123d8565b5060a0820151612d5060a08501826123d8565b5060c0820151612d6360c08501826123d8565b50505050565b600060e082019050612d7e6000830184612cdb565b92915050565b7f4e487b7100000000000000000000000000000000000000000000000000000000600052604160045260246000fd5b7f4e487b7100000000000000000000000000000000000000000000000000000000600052603260045260246000fd5b7f4e487b7100000000000000000000000000000000000000000000000000000000600052601160045260246000fd5b6000612e1c82612375565b9150612e2783612375565b9250827fffffffffffffffffffffffffffffffffffffffffffffffffffffffffffffffff03821115612e5c57612e5b612de2565b5b82820190509291505056fea2646970667358221220f93c95dcf52aff9e51c128ad271ce6b185e624014a871eda74683ea6348aac9864736f6c63430008090033",
  "linkReferences": {},
  "deployedLinkReferences": {}
}