{
  "_format": "hh-sol-artifact-1",
  "contractName": "AtiumPlan",
  "sourceName": "contracts/AtiumPlan.sol",
  "abi": [
    {
      "inputs": [],
      "name": "Atium_ZeroInput",
      "type": "error"
    },
    {
      "inputs": [
        {
          "internalType": "address",
          "name": "_receiver",
          "type": "address"
        },
        {
          "internalType": "uint256",
          "name": "_startDate",
          "type": "uint256"
        },
        {
          "internalType": "uint256",
          "name": "_amount",
          "type": "uint256"
        },
        {
          "internalType": "uint256",
          "name": "_interval",
          "type": "uint256"
        }
      ],
      "name": "allowancePlan",
      "outputs": [],
      "stateMutability": "nonpayable",
      "type": "function"
    },
    {
      "inputs": [
        {
          "internalType": "address",
          "name": "_user",
          "type": "address"
        }
      ],
      "name": "getAllActiveAllowance",
      "outputs": [
        {
          "components": [
            {
              "internalType": "uint256",
              "name": "id",
              "type": "uint256"
            },
            {
              "internalType": "address",
              "name": "sender",
              "type": "address"
            },
            {
              "internalType": "address",
              "name": "receiver",
              "type": "address"
            },
            {
              "internalType": "uint256",
              "name": "deposit",
              "type": "uint256"
            },
            {
              "internalType": "uint256",
              "name": "startDate",
              "type": "uint256"
            },
            {
              "internalType": "uint256",
              "name": "withdrawalAmount",
              "type": "uint256"
            },
            {
              "internalType": "uint256",
              "name": "withdrawalInterval",
              "type": "uint256"
            }
          ],
          "internalType": "struct AtiumPlan.AllowanceList[]",
          "name": "",
          "type": "tuple[]"
        }
      ],
      "stateMutability": "view",
      "type": "function"
    },
    {
      "inputs": [
        {
          "internalType": "address",
          "name": "_user",
          "type": "address"
        }
      ],
      "name": "getAllActiveGift",
      "outputs": [
        {
          "components": [
            {
              "internalType": "uint256",
              "name": "id",
              "type": "uint256"
            },
            {
              "internalType": "address",
              "name": "sender",
              "type": "address"
            },
            {
              "internalType": "address",
              "name": "receiver",
              "type": "address"
            },
            {
              "internalType": "uint256",
              "name": "date",
              "type": "uint256"
            },
            {
              "internalType": "uint256",
              "name": "amount",
              "type": "uint256"
            }
          ],
          "internalType": "struct AtiumPlan.GiftList[]",
          "name": "",
          "type": "tuple[]"
        }
      ],
      "stateMutability": "view",
      "type": "function"
    },
    {
      "inputs": [
        {
          "internalType": "address",
          "name": "_user",
          "type": "address"
        }
      ],
      "name": "getAllActiveSavings",
      "outputs": [
        {
          "components": [
            {
              "internalType": "uint256",
              "name": "id",
              "type": "uint256"
            },
            {
              "internalType": "address",
              "name": "user",
              "type": "address"
            },
            {
              "internalType": "uint256",
              "name": "amount",
              "type": "uint256"
            },
            {
              "internalType": "uint256",
              "name": "goal",
              "type": "uint256"
            },
            {
              "internalType": "uint256",
              "name": "time",
              "type": "uint256"
            }
          ],
          "internalType": "struct AtiumPlan.SavingsList[]",
          "name": "",
          "type": "tuple[]"
        }
      ],
      "stateMutability": "view",
      "type": "function"
    },
    {
      "inputs": [
        {
          "internalType": "address",
          "name": "_user",
          "type": "address"
        }
      ],
      "name": "getAllActiveTrustfund",
      "outputs": [
        {
          "components": [
            {
              "internalType": "uint256",
              "name": "id",
              "type": "uint256"
            },
            {
              "internalType": "address",
              "name": "sender",
              "type": "address"
            },
            {
              "internalType": "address",
              "name": "receiver",
              "type": "address"
            },
            {
              "internalType": "uint256",
              "name": "amount",
              "type": "uint256"
            },
            {
              "internalType": "uint256",
              "name": "startDate",
              "type": "uint256"
            },
            {
              "internalType": "uint256",
              "name": "withdrawalAmount",
              "type": "uint256"
            },
            {
              "internalType": "uint256",
              "name": "withdrawalInterval",
              "type": "uint256"
            }
          ],
          "internalType": "struct AtiumPlan.TrustFundList[]",
          "name": "",
          "type": "tuple[]"
        }
      ],
      "stateMutability": "view",
      "type": "function"
    },
    {
      "inputs": [
        {
          "internalType": "uint256",
          "name": "_id",
          "type": "uint256"
        }
      ],
      "name": "getAllowance",
      "outputs": [
        {
          "components": [
            {
              "internalType": "uint256",
              "name": "id",
              "type": "uint256"
            },
            {
              "internalType": "address",
              "name": "sender",
              "type": "address"
            },
            {
              "internalType": "address",
              "name": "receiver",
              "type": "address"
            },
            {
              "internalType": "uint256",
              "name": "deposit",
              "type": "uint256"
            },
            {
              "internalType": "uint256",
              "name": "startDate",
              "type": "uint256"
            },
            {
              "internalType": "uint256",
              "name": "withdrawalAmount",
              "type": "uint256"
            },
            {
              "internalType": "uint256",
              "name": "withdrawalInterval",
              "type": "uint256"
            }
          ],
          "internalType": "struct AtiumPlan.AllowanceList",
          "name": "",
          "type": "tuple"
        }
      ],
      "stateMutability": "view",
      "type": "function"
    },
    {
      "inputs": [
        {
          "internalType": "uint256",
          "name": "_id",
          "type": "uint256"
        }
      ],
      "name": "getAtium",
      "outputs": [
        {
          "components": [
            {
              "internalType": "uint256",
              "name": "id",
              "type": "uint256"
            },
            {
              "internalType": "address",
              "name": "user",
              "type": "address"
            },
            {
              "internalType": "enum AtiumPlan.Select",
              "name": "select",
              "type": "uint8"
            }
          ],
          "internalType": "struct AtiumPlan.AtiumList",
          "name": "",
          "type": "tuple"
        }
      ],
      "stateMutability": "view",
      "type": "function"
    },
    {
      "inputs": [
        {
          "internalType": "uint256",
          "name": "_id",
          "type": "uint256"
        }
      ],
      "name": "getGift",
      "outputs": [
        {
          "components": [
            {
              "internalType": "uint256",
              "name": "id",
              "type": "uint256"
            },
            {
              "internalType": "address",
              "name": "sender",
              "type": "address"
            },
            {
              "internalType": "address",
              "name": "receiver",
              "type": "address"
            },
            {
              "internalType": "uint256",
              "name": "date",
              "type": "uint256"
            },
            {
              "internalType": "uint256",
              "name": "amount",
              "type": "uint256"
            }
          ],
          "internalType": "struct AtiumPlan.GiftList",
          "name": "",
          "type": "tuple"
        }
      ],
      "stateMutability": "view",
      "type": "function"
    },
    {
      "inputs": [
        {
          "internalType": "uint256",
          "name": "_id",
          "type": "uint256"
        }
      ],
      "name": "getSavings",
      "outputs": [
        {
          "components": [
            {
              "internalType": "uint256",
              "name": "id",
              "type": "uint256"
            },
            {
              "internalType": "address",
              "name": "user",
              "type": "address"
            },
            {
              "internalType": "uint256",
              "name": "amount",
              "type": "uint256"
            },
            {
              "internalType": "uint256",
              "name": "goal",
              "type": "uint256"
            },
            {
              "internalType": "uint256",
              "name": "time",
              "type": "uint256"
            }
          ],
          "internalType": "struct AtiumPlan.SavingsList",
          "name": "",
          "type": "tuple"
        }
      ],
      "stateMutability": "view",
      "type": "function"
    },
    {
      "inputs": [
        {
          "internalType": "uint256",
          "name": "_id",
          "type": "uint256"
        }
      ],
      "name": "getTrustfund",
      "outputs": [
        {
          "components": [
            {
              "internalType": "uint256",
              "name": "id",
              "type": "uint256"
            },
            {
              "internalType": "address",
              "name": "sender",
              "type": "address"
            },
            {
              "internalType": "address",
              "name": "receiver",
              "type": "address"
            },
            {
              "internalType": "uint256",
              "name": "amount",
              "type": "uint256"
            },
            {
              "internalType": "uint256",
              "name": "startDate",
              "type": "uint256"
            },
            {
              "internalType": "uint256",
              "name": "withdrawalAmount",
              "type": "uint256"
            },
            {
              "internalType": "uint256",
              "name": "withdrawalInterval",
              "type": "uint256"
            }
          ],
          "internalType": "struct AtiumPlan.TrustFundList",
          "name": "",
          "type": "tuple"
        }
      ],
      "stateMutability": "view",
      "type": "function"
    },
    {
      "inputs": [
        {
          "internalType": "address",
          "name": "_receiver",
          "type": "address"
        },
        {
          "internalType": "uint256",
          "name": "_date",
          "type": "uint256"
        }
      ],
      "name": "giftPlan",
      "outputs": [],
      "stateMutability": "nonpayable",
      "type": "function"
    },
    {
      "inputs": [
        {
          "internalType": "uint256",
          "name": "_goal",
          "type": "uint256"
        }
      ],
      "name": "savingsPlanGoal",
      "outputs": [],
      "stateMutability": "nonpayable",
      "type": "function"
    },
    {
      "inputs": [
        {
          "internalType": "uint256",
          "name": "_time",
          "type": "uint256"
        }
      ],
      "name": "savingsPlanTime",
      "outputs": [],
      "stateMutability": "nonpayable",
      "type": "function"
    },
    {
      "inputs": [
        {
          "internalType": "address",
          "name": "_receiver",
          "type": "address"
        },
        {
          "internalType": "uint256",
          "name": "_startDate",
          "type": "uint256"
        },
        {
          "internalType": "uint256",
          "name": "_amount",
          "type": "uint256"
        },
        {
          "internalType": "uint256",
          "name": "_interval",
          "type": "uint256"
        }
      ],
      "name": "trustfundPlan",
      "outputs": [],
      "stateMutability": "nonpayable",
      "type": "function"
    }
  ],
  "bytecode": "0x608060405234801561001057600080fd5b50612de0806100206000396000f3fe608060405234801561001057600080fd5b50600436106100ea5760003560e01c8063c315d6351161008c578063d14fb6db11610066578063d14fb6db146102a7578063d67d10dc146102c3578063ed5579fc146102df578063fa278ae6146102fb576100ea565b8063c315d6351461022b578063c960174e14610247578063cf6e282714610277576100ea565b806384c8d490116100c857806384c8d4901461017f57806393ea685b146101af578063ad31cc9f146101df578063bf6713f6146101fb576100ea565b806313bfb182146100ef57806316aa22341461011f5780633e346eeb1461014f575b600080fd5b61010960048036038101906101049190612373565b61032b565b6040516101169190612458565b60405180910390f35b6101396004803603810190610134919061249f565b6103d6565b6040516101469190612609565b60405180910390f35b61016960048036038101906101649190612373565b61061e565b60405161017691906126e4565b60405180910390f35b6101996004803603810190610194919061249f565b6106e6565b6040516101a69190612816565b60405180910390f35b6101c960048036038101906101c4919061249f565b61091a565b6040516101d69190612975565b60405180910390f35b6101f960048036038101906101f49190612373565b610b62565b005b61021560048036038101906102109190612373565b610e10565b60405161022291906129ff565b60405180910390f35b61024560048036038101906102409190612373565b610f07565b005b610261600480360381019061025c9190612373565b6111b5565b60405161026e9190612aa8565b60405180910390f35b610291600480360381019061028c919061249f565b6112c0565b60405161029e9190612bda565b60405180910390f35b6102c160048036038101906102bc9190612bfc565b6114a8565b005b6102dd60048036038101906102d89190612c3c565b61184e565b005b6102f960048036038101906102f49190612c3c565b611c4e565b005b61031560048036038101906103109190612373565b61204e565b6040516103229190612d31565b60405180910390f35b61033361217d565b600660008381526020019081526020016000206040518060a0016040529081600082015481526020016001820160009054906101000a900473ffffffffffffffffffffffffffffffffffffffff1673ffffffffffffffffffffffffffffffffffffffff1673ffffffffffffffffffffffffffffffffffffffff16815260200160028201548152602001600382015481526020016004820154815250509050919050565b60606000600b60008473ffffffffffffffffffffffffffffffffffffffff1673ffffffffffffffffffffffffffffffffffffffff16815260200190815260200160002080548060200260200160405190810160405280929190818152602001828054801561046357602002820191906000526020600020905b81548152602001906001019080831161044f575b5050505050905060008151905060008167ffffffffffffffff81111561048c5761048b612d4c565b5b6040519080825280602002602001820160405280156104c557816020015b6104b26121c2565b8152602001906001900390816104aa5790505b50905060005b8281101561061257600760008583815181106104ea576104e9612d7b565b5b602002602001015181526020019081526020016000206040518060e0016040529081600082015481526020016001820160009054906101000a900473ffffffffffffffffffffffffffffffffffffffff1673ffffffffffffffffffffffffffffffffffffffff1673ffffffffffffffffffffffffffffffffffffffff1681526020016002820160009054906101000a900473ffffffffffffffffffffffffffffffffffffffff1673ffffffffffffffffffffffffffffffffffffffff1673ffffffffffffffffffffffffffffffffffffffff1681526020016003820154815260200160048201548152602001600582015481526020016006820154815250508282815181106105fc576105fb612d7b565b5b60200260200101819052508060010190506104cb565b50809350505050919050565b61062661222b565b60056000838152602001908152602001600020604051806060016040529081600082015481526020016001820160009054906101000a900473ffffffffffffffffffffffffffffffffffffffff1673ffffffffffffffffffffffffffffffffffffffff1673ffffffffffffffffffffffffffffffffffffffff1681526020016001820160149054906101000a900460ff1660038111156106c9576106c861262b565b5b60038111156106db576106da61262b565b5b815250509050919050565b60606000600d60008473ffffffffffffffffffffffffffffffffffffffff1673ffffffffffffffffffffffffffffffffffffffff16815260200190815260200160002080548060200260200160405190810160405280929190818152602001828054801561077357602002820191906000526020600020905b81548152602001906001019080831161075f575b5050505050905060008151905060008167ffffffffffffffff81111561079c5761079b612d4c565b5b6040519080825280602002602001820160405280156107d557816020015b6107c2612274565b8152602001906001900390816107ba5790505b50905060005b8281101561090e57600960008583815181106107fa576107f9612d7b565b5b602002602001015181526020019081526020016000206040518060a0016040529081600082015481526020016001820160009054906101000a900473ffffffffffffffffffffffffffffffffffffffff1673ffffffffffffffffffffffffffffffffffffffff1673ffffffffffffffffffffffffffffffffffffffff1681526020016002820160009054906101000a900473ffffffffffffffffffffffffffffffffffffffff1673ffffffffffffffffffffffffffffffffffffffff1673ffffffffffffffffffffffffffffffffffffffff168152602001600382015481526020016004820154815250508282815181106108f8576108f7612d7b565b5b60200260200101819052508060010190506107db565b50809350505050919050565b60606000600c60008473ffffffffffffffffffffffffffffffffffffffff1673ffffffffffffffffffffffffffffffffffffffff1681526020019081526020016000208054806020026020016040519081016040528092919081815260200182805480156109a757602002820191906000526020600020905b815481526020019060010190808311610993575b5050505050905060008151905060008167ffffffffffffffff8111156109d0576109cf612d4c565b5b604051908082528060200260200182016040528015610a0957816020015b6109f66122cf565b8152602001906001900390816109ee5790505b50905060005b82811015610b565760086000858381518110610a2e57610a2d612d7b565b5b602002602001015181526020019081526020016000206040518060e0016040529081600082015481526020016001820160009054906101000a900473ffffffffffffffffffffffffffffffffffffffff1673ffffffffffffffffffffffffffffffffffffffff1673ffffffffffffffffffffffffffffffffffffffff1681526020016002820160009054906101000a900473ffffffffffffffffffffffffffffffffffffffff1673ffffffffffffffffffffffffffffffffffffffff1673ffffffffffffffffffffffffffffffffffffffff168152602001600382015481526020016004820154815260200160058201548152602001600682015481525050828281518110610b4057610b3f612d7b565b5b6020026020010181905250806001019050610a0f565b50809350505050919050565b6000811415610b9d576040517f8e277c2c00000000000000000000000000000000000000000000000000000000815260040160405180910390fd5b610ba76000612159565b610bb16001612159565b60006040518060600160405280610bc8600061216f565b81526020013373ffffffffffffffffffffffffffffffffffffffff16815260200160006003811115610bfd57610bfc61262b565b5b815250905060006040518060a00160405280610c19600161216f565b81526020013373ffffffffffffffffffffffffffffffffffffffff16815260200160066000610c48600161216f565b8152602001908152602001600020600201548152602001848152602001600081525090508160056000610c7b600061216f565b81526020019081526020016000206000820151816000015560208201518160010160006101000a81548173ffffffffffffffffffffffffffffffffffffffff021916908373ffffffffffffffffffffffffffffffffffffffff16021790555060408201518160010160146101000a81548160ff02191690836003811115610d0557610d0461262b565b5b02179055509050508060066000610d1c600161216f565b81526020019081526020016000206000820151816000015560208201518160010160006101000a81548173ffffffffffffffffffffffffffffffffffffffff021916908373ffffffffffffffffffffffffffffffffffffffff160217905550604082015181600201556060820151816003015560808201518160040155905050600a60003373ffffffffffffffffffffffffffffffffffffffff1673ffffffffffffffffffffffffffffffffffffffff168152602001908152602001600020610de5600161216f565b9080600181540180825580915050600190039060005260206000200160009091909190915055505050565b610e18612274565b600960008381526020019081526020016000206040518060a0016040529081600082015481526020016001820160009054906101000a900473ffffffffffffffffffffffffffffffffffffffff1673ffffffffffffffffffffffffffffffffffffffff1673ffffffffffffffffffffffffffffffffffffffff1681526020016002820160009054906101000a900473ffffffffffffffffffffffffffffffffffffffff1673ffffffffffffffffffffffffffffffffffffffff1673ffffffffffffffffffffffffffffffffffffffff168152602001600382015481526020016004820154815250509050919050565b6000811415610f42576040517f8e277c2c00000000000000000000000000000000000000000000000000000000815260040160405180910390fd5b610f4c6000612159565b610f566001612159565b60006040518060600160405280610f6d600061216f565b81526020013373ffffffffffffffffffffffffffffffffffffffff16815260200160006003811115610fa257610fa161262b565b5b815250905060006040518060a00160405280610fbe600161216f565b81526020013373ffffffffffffffffffffffffffffffffffffffff16815260200160066000610fed600161216f565b8152602001908152602001600020600201548152602001600081526020018481525090508160056000611020600061216f565b81526020019081526020016000206000820151816000015560208201518160010160006101000a81548173ffffffffffffffffffffffffffffffffffffffff021916908373ffffffffffffffffffffffffffffffffffffffff16021790555060408201518160010160146101000a81548160ff021916908360038111156110aa576110a961262b565b5b021790555090505080600660006110c1600161216f565b81526020019081526020016000206000820151816000015560208201518160010160006101000a81548173ffffffffffffffffffffffffffffffffffffffff021916908373ffffffffffffffffffffffffffffffffffffffff160217905550604082015181600201556060820151816003015560808201518160040155905050600a60003373ffffffffffffffffffffffffffffffffffffffff1673ffffffffffffffffffffffffffffffffffffffff16815260200190815260200160002061118a600161216f565b9080600181540180825580915050600190039060005260206000200160009091909190915055505050565b6111bd6121c2565b600760008381526020019081526020016000206040518060e0016040529081600082015481526020016001820160009054906101000a900473ffffffffffffffffffffffffffffffffffffffff1673ffffffffffffffffffffffffffffffffffffffff1673ffffffffffffffffffffffffffffffffffffffff1681526020016002820160009054906101000a900473ffffffffffffffffffffffffffffffffffffffff1673ffffffffffffffffffffffffffffffffffffffff1673ffffffffffffffffffffffffffffffffffffffff1681526020016003820154815260200160048201548152602001600582015481526020016006820154815250509050919050565b60606000600a60008473ffffffffffffffffffffffffffffffffffffffff1673ffffffffffffffffffffffffffffffffffffffff16815260200190815260200160002080548060200260200160405190810160405280929190818152602001828054801561134d57602002820191906000526020600020905b815481526020019060010190808311611339575b5050505050905060008151905060008167ffffffffffffffff81111561137657611375612d4c565b5b6040519080825280602002602001820160405280156113af57816020015b61139c61217d565b8152602001906001900390816113945790505b50905060005b8281101561149c57600660008583815181106113d4576113d3612d7b565b5b602002602001015181526020019081526020016000206040518060a0016040529081600082015481526020016001820160009054906101000a900473ffffffffffffffffffffffffffffffffffffffff1673ffffffffffffffffffffffffffffffffffffffff1673ffffffffffffffffffffffffffffffffffffffff168152602001600282015481526020016003820154815260200160048201548152505082828151811061148657611485612d7b565b5b60200260200101819052508060010190506113b5565b50809350505050919050565b600073ffffffffffffffffffffffffffffffffffffffff168273ffffffffffffffffffffffffffffffffffffffff1614806114e35750600081145b1561151a576040517f8e277c2c00000000000000000000000000000000000000000000000000000000815260040160405180910390fd5b6115246000612159565b61152e6004612159565b60006040518060600160405280611545600061216f565b81526020013373ffffffffffffffffffffffffffffffffffffffff1681526020016003808111156115795761157861262b565b5b815250905060006040518060a00160405280611595600461216f565b81526020013373ffffffffffffffffffffffffffffffffffffffff1681526020018573ffffffffffffffffffffffffffffffffffffffff168152602001848152602001600960006115e6600461216f565b8152602001908152602001600020600401548152509050816005600061160c600061216f565b81526020019081526020016000206000820151816000015560208201518160010160006101000a81548173ffffffffffffffffffffffffffffffffffffffff021916908373ffffffffffffffffffffffffffffffffffffffff16021790555060408201518160010160146101000a81548160ff021916908360038111156116965761169561262b565b5b021790555090505080600960006116ad600461216f565b81526020019081526020016000206000820151816000015560208201518160010160006101000a81548173ffffffffffffffffffffffffffffffffffffffff021916908373ffffffffffffffffffffffffffffffffffffffff16021790555060408201518160020160006101000a81548173ffffffffffffffffffffffffffffffffffffffff021916908373ffffffffffffffffffffffffffffffffffffffff1602179055506060820151816003015560808201518160040155905050600d60003373ffffffffffffffffffffffffffffffffffffffff1673ffffffffffffffffffffffffffffffffffffffff1681526020019081526020016000206117b3600461216f565b9080600181540180825580915050600190039060005260206000200160009091909190915055601060008573ffffffffffffffffffffffffffffffffffffffff1673ffffffffffffffffffffffffffffffffffffffff168152602001908152602001600020611822600461216f565b908060018154018082558091505060019003906000526020600020016000909190919091505550505050565b600073ffffffffffffffffffffffffffffffffffffffff168473ffffffffffffffffffffffffffffffffffffffff1614806118895750600083145b806118945750600082145b8061189f5750600081145b156118d6576040517f8e277c2c00000000000000000000000000000000000000000000000000000000815260040160405180910390fd5b6118e06000612159565b6118ea6003612159565b60006040518060600160405280611901600061216f565b81526020013373ffffffffffffffffffffffffffffffffffffffff168152602001600260038111156119365761193561262b565b5b815250905060006040518060e00160405280611952600361216f565b81526020013373ffffffffffffffffffffffffffffffffffffffff1681526020018773ffffffffffffffffffffffffffffffffffffffff1681526020016008600061199d600361216f565b815260200190815260200160002060030154815260200186815260200185815260200184815250905081600560006119d5600061216f565b81526020019081526020016000206000820151816000015560208201518160010160006101000a81548173ffffffffffffffffffffffffffffffffffffffff021916908373ffffffffffffffffffffffffffffffffffffffff16021790555060408201518160010160146101000a81548160ff02191690836003811115611a5f57611a5e61262b565b5b02179055509050508060086000611a76600361216f565b81526020019081526020016000206000820151816000015560208201518160010160006101000a81548173ffffffffffffffffffffffffffffffffffffffff021916908373ffffffffffffffffffffffffffffffffffffffff16021790555060408201518160020160006101000a81548173ffffffffffffffffffffffffffffffffffffffff021916908373ffffffffffffffffffffffffffffffffffffffff160217905550606082015181600301556080820151816004015560a0820151816005015560c082015181600601559050508460126000611b56600361216f565b815260200190815260200160002081905550600c60003373ffffffffffffffffffffffffffffffffffffffff1673ffffffffffffffffffffffffffffffffffffffff168152602001908152602001600020611bb1600361216f565b9080600181540180825580915050600190039060005260206000200160009091909190915055600f60008773ffffffffffffffffffffffffffffffffffffffff1673ffffffffffffffffffffffffffffffffffffffff168152602001908152602001600020611c20600361216f565b9080600181540180825580915050600190039060005260206000200160009091909190915055505050505050565b600073ffffffffffffffffffffffffffffffffffffffff168473ffffffffffffffffffffffffffffffffffffffff161480611c895750600083145b80611c945750600082145b80611c9f5750600081145b15611cd6576040517f8e277c2c00000000000000000000000000000000000000000000000000000000815260040160405180910390fd5b611ce06000612159565b611cea6002612159565b60006040518060600160405280611d01600061216f565b81526020013373ffffffffffffffffffffffffffffffffffffffff16815260200160016003811115611d3657611d3561262b565b5b815250905060006040518060e00160405280611d52600261216f565b81526020013373ffffffffffffffffffffffffffffffffffffffff1681526020018773ffffffffffffffffffffffffffffffffffffffff16815260200160076000611d9d600261216f565b81526020019081526020016000206003015481526020018681526020018581526020018481525090508160056000611dd5600061216f565b81526020019081526020016000206000820151816000015560208201518160010160006101000a81548173ffffffffffffffffffffffffffffffffffffffff021916908373ffffffffffffffffffffffffffffffffffffffff16021790555060408201518160010160146101000a81548160ff02191690836003811115611e5f57611e5e61262b565b5b02179055509050508060076000611e76600261216f565b81526020019081526020016000206000820151816000015560208201518160010160006101000a81548173ffffffffffffffffffffffffffffffffffffffff021916908373ffffffffffffffffffffffffffffffffffffffff16021790555060408201518160020160006101000a81548173ffffffffffffffffffffffffffffffffffffffff021916908373ffffffffffffffffffffffffffffffffffffffff160217905550606082015181600301556080820151816004015560a0820151816005015560c082015181600601559050508460116000611f56600261216f565b815260200190815260200160002081905550600b60003373ffffffffffffffffffffffffffffffffffffffff1673ffffffffffffffffffffffffffffffffffffffff168152602001908152602001600020611fb1600261216f565b9080600181540180825580915050600190039060005260206000200160009091909190915055600e60008773ffffffffffffffffffffffffffffffffffffffff1673ffffffffffffffffffffffffffffffffffffffff168152602001908152602001600020612020600261216f565b9080600181540180825580915050600190039060005260206000200160009091909190915055505050505050565b6120566122cf565b600860008381526020019081526020016000206040518060e0016040529081600082015481526020016001820160009054906101000a900473ffffffffffffffffffffffffffffffffffffffff1673ffffffffffffffffffffffffffffffffffffffff1673ffffffffffffffffffffffffffffffffffffffff1681526020016002820160009054906101000a900473ffffffffffffffffffffffffffffffffffffffff1673ffffffffffffffffffffffffffffffffffffffff1673ffffffffffffffffffffffffffffffffffffffff1681526020016003820154815260200160048201548152602001600582015481526020016006820154815250509050919050565b6001816000016000828254019250508190555050565b600081600001549050919050565b6040518060a0016040528060008152602001600073ffffffffffffffffffffffffffffffffffffffff1681526020016000815260200160008152602001600081525090565b6040518060e0016040528060008152602001600073ffffffffffffffffffffffffffffffffffffffff168152602001600073ffffffffffffffffffffffffffffffffffffffff168152602001600081526020016000815260200160008152602001600081525090565b604051806060016040528060008152602001600073ffffffffffffffffffffffffffffffffffffffff1681526020016000600381111561226e5761226d61262b565b5b81525090565b6040518060a0016040528060008152602001600073ffffffffffffffffffffffffffffffffffffffff168152602001600073ffffffffffffffffffffffffffffffffffffffff16815260200160008152602001600081525090565b6040518060e0016040528060008152602001600073ffffffffffffffffffffffffffffffffffffffff168152602001600073ffffffffffffffffffffffffffffffffffffffff168152602001600081526020016000815260200160008152602001600081525090565b600080fd5b6000819050919050565b6123508161233d565b811461235b57600080fd5b50565b60008135905061236d81612347565b92915050565b60006020828403121561238957612388612338565b5b60006123978482850161235e565b91505092915050565b6123a98161233d565b82525050565b600073ffffffffffffffffffffffffffffffffffffffff82169050919050565b60006123da826123af565b9050919050565b6123ea816123cf565b82525050565b60a08201600082015161240660008501826123a0565b50602082015161241960208501826123e1565b50604082015161242c60408501826123a0565b50606082015161243f60608501826123a0565b50608082015161245260808501826123a0565b50505050565b600060a08201905061246d60008301846123f0565b92915050565b61247c816123cf565b811461248757600080fd5b50565b60008135905061249981612473565b92915050565b6000602082840312156124b5576124b4612338565b5b60006124c38482850161248a565b91505092915050565b600081519050919050565b600082825260208201905092915050565b6000819050602082019050919050565b60e08201600082015161250e60008501826123a0565b50602082015161252160208501826123e1565b50604082015161253460408501826123e1565b50606082015161254760608501826123a0565b50608082015161255a60808501826123a0565b5060a082015161256d60a08501826123a0565b5060c082015161258060c08501826123a0565b50505050565b600061259283836124f8565b60e08301905092915050565b6000602082019050919050565b60006125b6826124cc565b6125c081856124d7565b93506125cb836124e8565b8060005b838110156125fc5781516125e38882612586565b97506125ee8361259e565b9250506001810190506125cf565b5085935050505092915050565b6000602082019050818103600083015261262381846125ab565b905092915050565b7f4e487b7100000000000000000000000000000000000000000000000000000000600052602160045260246000fd5b6004811061266b5761266a61262b565b5b50565b600081905061267c8261265a565b919050565b600061268c8261266e565b9050919050565b61269c81612681565b82525050565b6060820160008201516126b860008501826123a0565b5060208201516126cb60208501826123e1565b5060408201516126de6040850182612693565b50505050565b60006060820190506126f960008301846126a2565b92915050565b600081519050919050565b600082825260208201905092915050565b6000819050602082019050919050565b60a08201600082015161274160008501826123a0565b50602082015161275460208501826123e1565b50604082015161276760408501826123e1565b50606082015161277a60608501826123a0565b50608082015161278d60808501826123a0565b50505050565b600061279f838361272b565b60a08301905092915050565b6000602082019050919050565b60006127c3826126ff565b6127cd818561270a565b93506127d88361271b565b8060005b838110156128095781516127f08882612793565b97506127fb836127ab565b9250506001810190506127dc565b5085935050505092915050565b6000602082019050818103600083015261283081846127b8565b905092915050565b600081519050919050565b600082825260208201905092915050565b6000819050602082019050919050565b60e08201600082015161287a60008501826123a0565b50602082015161288d60208501826123e1565b5060408201516128a060408501826123e1565b5060608201516128b360608501826123a0565b5060808201516128c660808501826123a0565b5060a08201516128d960a08501826123a0565b5060c08201516128ec60c08501826123a0565b50505050565b60006128fe8383612864565b60e08301905092915050565b6000602082019050919050565b600061292282612838565b61292c8185612843565b935061293783612854565b8060005b8381101561296857815161294f88826128f2565b975061295a8361290a565b92505060018101905061293b565b5085935050505092915050565b6000602082019050818103600083015261298f8184612917565b905092915050565b60a0820160008201516129ad60008501826123a0565b5060208201516129c060208501826123e1565b5060408201516129d360408501826123e1565b5060608201516129e660608501826123a0565b5060808201516129f960808501826123a0565b50505050565b600060a082019050612a146000830184612997565b92915050565b60e082016000820151612a3060008501826123a0565b506020820151612a4360208501826123e1565b506040820151612a5660408501826123e1565b506060820151612a6960608501826123a0565b506080820151612a7c60808501826123a0565b5060a0820151612a8f60a08501826123a0565b5060c0820151612aa260c08501826123a0565b50505050565b600060e082019050612abd6000830184612a1a565b92915050565b600081519050919050565b600082825260208201905092915050565b6000819050602082019050919050565b60a082016000820151612b0560008501826123a0565b506020820151612b1860208501826123e1565b506040820151612b2b60408501826123a0565b506060820151612b3e60608501826123a0565b506080820151612b5160808501826123a0565b50505050565b6000612b638383612aef565b60a08301905092915050565b6000602082019050919050565b6000612b8782612ac3565b612b918185612ace565b9350612b9c83612adf565b8060005b83811015612bcd578151612bb48882612b57565b9750612bbf83612b6f565b925050600181019050612ba0565b5085935050505092915050565b60006020820190508181036000830152612bf48184612b7c565b905092915050565b60008060408385031215612c1357612c12612338565b5b6000612c218582860161248a565b9250506020612c328582860161235e565b9150509250929050565b60008060008060808587031215612c5657612c55612338565b5b6000612c648782880161248a565b9450506020612c758782880161235e565b9350506040612c868782880161235e565b9250506060612c978782880161235e565b91505092959194509250565b60e082016000820151612cb960008501826123a0565b506020820151612ccc60208501826123e1565b506040820151612cdf60408501826123e1565b506060820151612cf260608501826123a0565b506080820151612d0560808501826123a0565b5060a0820151612d1860a08501826123a0565b5060c0820151612d2b60c08501826123a0565b50505050565b600060e082019050612d466000830184612ca3565b92915050565b7f4e487b7100000000000000000000000000000000000000000000000000000000600052604160045260246000fd5b7f4e487b7100000000000000000000000000000000000000000000000000000000600052603260045260246000fdfea264697066735822122030e2681533f8efb4284b7cae5ad1d5b97f75e366391c7f191570db3a040a96a064736f6c63430008090033",
  "linkReferences": {},
  "deployedLinkReferences": {}
}