{
  "_format": "hh-sol-artifact-1",
  "contractName": "AtiumPlan",
  "sourceName": "contracts/AtiumPlan.sol",
  "abi": [
    {
      "inputs": [],
      "name": "Atium_ZeroInput",
      "type": "error"
    },
    {
      "inputs": [
        {
          "internalType": "address",
          "name": "_receiver",
          "type": "address"
        },
        {
          "internalType": "uint256",
          "name": "_startDate",
          "type": "uint256"
        },
        {
          "internalType": "uint256",
          "name": "_amount",
          "type": "uint256"
        },
        {
          "internalType": "uint256",
          "name": "_interval",
          "type": "uint256"
        }
      ],
      "name": "allowancePlan",
      "outputs": [],
      "stateMutability": "nonpayable",
      "type": "function"
    },
    {
      "inputs": [],
      "name": "getAllActiveAllowance",
      "outputs": [
        {
          "components": [
            {
              "internalType": "uint256",
              "name": "id",
              "type": "uint256"
            },
            {
              "internalType": "address",
              "name": "sender",
              "type": "address"
            },
            {
              "internalType": "address",
              "name": "receiver",
              "type": "address"
            },
            {
              "internalType": "uint256",
              "name": "deposit",
              "type": "uint256"
            },
            {
              "internalType": "uint256",
              "name": "startDate",
              "type": "uint256"
            },
            {
              "internalType": "uint256",
              "name": "withdrawalAmount",
              "type": "uint256"
            },
            {
              "internalType": "uint256",
              "name": "withdrawalInterval",
              "type": "uint256"
            }
          ],
          "internalType": "struct AtiumPlan.AllowanceList[]",
          "name": "",
          "type": "tuple[]"
        }
      ],
      "stateMutability": "view",
      "type": "function"
    },
    {
      "inputs": [],
      "name": "getAllActiveGift",
      "outputs": [
        {
          "components": [
            {
              "internalType": "uint256",
              "name": "id",
              "type": "uint256"
            },
            {
              "internalType": "address",
              "name": "sender",
              "type": "address"
            },
            {
              "internalType": "address",
              "name": "receiver",
              "type": "address"
            },
            {
              "internalType": "uint256",
              "name": "date",
              "type": "uint256"
            },
            {
              "internalType": "uint256",
              "name": "amount",
              "type": "uint256"
            }
          ],
          "internalType": "struct AtiumPlan.GiftList[]",
          "name": "",
          "type": "tuple[]"
        }
      ],
      "stateMutability": "view",
      "type": "function"
    },
    {
      "inputs": [],
      "name": "getAllActiveSavings",
      "outputs": [
        {
          "components": [
            {
              "internalType": "uint256",
              "name": "id",
              "type": "uint256"
            },
            {
              "internalType": "address",
              "name": "user",
              "type": "address"
            },
            {
              "internalType": "uint256",
              "name": "amount",
              "type": "uint256"
            },
            {
              "internalType": "uint256",
              "name": "goal",
              "type": "uint256"
            },
            {
              "internalType": "uint256",
              "name": "time",
              "type": "uint256"
            }
          ],
          "internalType": "struct AtiumPlan.SavingsList[]",
          "name": "",
          "type": "tuple[]"
        }
      ],
      "stateMutability": "view",
      "type": "function"
    },
    {
      "inputs": [],
      "name": "getAllActiveTrustfund",
      "outputs": [
        {
          "components": [
            {
              "internalType": "uint256",
              "name": "id",
              "type": "uint256"
            },
            {
              "internalType": "address",
              "name": "sender",
              "type": "address"
            },
            {
              "internalType": "address",
              "name": "receiver",
              "type": "address"
            },
            {
              "internalType": "uint256",
              "name": "amount",
              "type": "uint256"
            },
            {
              "internalType": "uint256",
              "name": "startDate",
              "type": "uint256"
            },
            {
              "internalType": "uint256",
              "name": "withdrawalAmount",
              "type": "uint256"
            },
            {
              "internalType": "uint256",
              "name": "withdrawalInterval",
              "type": "uint256"
            }
          ],
          "internalType": "struct AtiumPlan.TrustFundList[]",
          "name": "",
          "type": "tuple[]"
        }
      ],
      "stateMutability": "view",
      "type": "function"
    },
    {
      "inputs": [
        {
          "internalType": "uint256",
          "name": "_id",
          "type": "uint256"
        }
      ],
      "name": "getAllowance",
      "outputs": [
        {
          "components": [
            {
              "internalType": "uint256",
              "name": "id",
              "type": "uint256"
            },
            {
              "internalType": "address",
              "name": "sender",
              "type": "address"
            },
            {
              "internalType": "address",
              "name": "receiver",
              "type": "address"
            },
            {
              "internalType": "uint256",
              "name": "deposit",
              "type": "uint256"
            },
            {
              "internalType": "uint256",
              "name": "startDate",
              "type": "uint256"
            },
            {
              "internalType": "uint256",
              "name": "withdrawalAmount",
              "type": "uint256"
            },
            {
              "internalType": "uint256",
              "name": "withdrawalInterval",
              "type": "uint256"
            }
          ],
          "internalType": "struct AtiumPlan.AllowanceList",
          "name": "",
          "type": "tuple"
        }
      ],
      "stateMutability": "view",
      "type": "function"
    },
    {
      "inputs": [
        {
          "internalType": "uint256",
          "name": "_id",
          "type": "uint256"
        }
      ],
      "name": "getAtium",
      "outputs": [
        {
          "components": [
            {
              "internalType": "uint256",
              "name": "id",
              "type": "uint256"
            },
            {
              "internalType": "address",
              "name": "user",
              "type": "address"
            },
            {
              "internalType": "enum AtiumPlan.Select",
              "name": "select",
              "type": "uint8"
            }
          ],
          "internalType": "struct AtiumPlan.AtiumList",
          "name": "",
          "type": "tuple"
        }
      ],
      "stateMutability": "view",
      "type": "function"
    },
    {
      "inputs": [
        {
          "internalType": "uint256",
          "name": "_id",
          "type": "uint256"
        }
      ],
      "name": "getGift",
      "outputs": [
        {
          "components": [
            {
              "internalType": "uint256",
              "name": "id",
              "type": "uint256"
            },
            {
              "internalType": "address",
              "name": "sender",
              "type": "address"
            },
            {
              "internalType": "address",
              "name": "receiver",
              "type": "address"
            },
            {
              "internalType": "uint256",
              "name": "date",
              "type": "uint256"
            },
            {
              "internalType": "uint256",
              "name": "amount",
              "type": "uint256"
            }
          ],
          "internalType": "struct AtiumPlan.GiftList",
          "name": "",
          "type": "tuple"
        }
      ],
      "stateMutability": "view",
      "type": "function"
    },
    {
      "inputs": [
        {
          "internalType": "uint256",
          "name": "_id",
          "type": "uint256"
        }
      ],
      "name": "getSavings",
      "outputs": [
        {
          "components": [
            {
              "internalType": "uint256",
              "name": "id",
              "type": "uint256"
            },
            {
              "internalType": "address",
              "name": "user",
              "type": "address"
            },
            {
              "internalType": "uint256",
              "name": "amount",
              "type": "uint256"
            },
            {
              "internalType": "uint256",
              "name": "goal",
              "type": "uint256"
            },
            {
              "internalType": "uint256",
              "name": "time",
              "type": "uint256"
            }
          ],
          "internalType": "struct AtiumPlan.SavingsList",
          "name": "",
          "type": "tuple"
        }
      ],
      "stateMutability": "view",
      "type": "function"
    },
    {
      "inputs": [
        {
          "internalType": "uint256",
          "name": "_id",
          "type": "uint256"
        }
      ],
      "name": "getTrustfund",
      "outputs": [
        {
          "components": [
            {
              "internalType": "uint256",
              "name": "id",
              "type": "uint256"
            },
            {
              "internalType": "address",
              "name": "sender",
              "type": "address"
            },
            {
              "internalType": "address",
              "name": "receiver",
              "type": "address"
            },
            {
              "internalType": "uint256",
              "name": "amount",
              "type": "uint256"
            },
            {
              "internalType": "uint256",
              "name": "startDate",
              "type": "uint256"
            },
            {
              "internalType": "uint256",
              "name": "withdrawalAmount",
              "type": "uint256"
            },
            {
              "internalType": "uint256",
              "name": "withdrawalInterval",
              "type": "uint256"
            }
          ],
          "internalType": "struct AtiumPlan.TrustFundList",
          "name": "",
          "type": "tuple"
        }
      ],
      "stateMutability": "view",
      "type": "function"
    },
    {
      "inputs": [
        {
          "internalType": "address",
          "name": "_receiver",
          "type": "address"
        },
        {
          "internalType": "uint256",
          "name": "_date",
          "type": "uint256"
        }
      ],
      "name": "giftPlan",
      "outputs": [],
      "stateMutability": "nonpayable",
      "type": "function"
    },
    {
      "inputs": [
        {
          "internalType": "uint256",
          "name": "_goal",
          "type": "uint256"
        }
      ],
      "name": "savingsPlanGoal",
      "outputs": [],
      "stateMutability": "nonpayable",
      "type": "function"
    },
    {
      "inputs": [
        {
          "internalType": "uint256",
          "name": "_time",
          "type": "uint256"
        }
      ],
      "name": "savingsPlanTime",
      "outputs": [],
      "stateMutability": "nonpayable",
      "type": "function"
    },
    {
      "inputs": [
        {
          "internalType": "address",
          "name": "_receiver",
          "type": "address"
        },
        {
          "internalType": "uint256",
          "name": "_startDate",
          "type": "uint256"
        },
        {
          "internalType": "uint256",
          "name": "_amount",
          "type": "uint256"
        },
        {
          "internalType": "uint256",
          "name": "_interval",
          "type": "uint256"
        }
      ],
      "name": "trustfundPlan",
      "outputs": [],
      "stateMutability": "nonpayable",
      "type": "function"
    }
  ],
  "bytecode": "0x608060405234801561001057600080fd5b50612e20806100206000396000f3fe608060405234801561001057600080fd5b50600436106100ea5760003560e01c8063bf6713f61161008c578063d14fb6db11610066578063d14fb6db1461025f578063d67d10dc1461027b578063ed5579fc14610297578063fa278ae6146102b3576100ea565b8063bf6713f6146101e3578063c315d63514610213578063c960174e1461022f576100ea565b80632bb59145116100c85780632bb591451461015b5780633e346eeb146101795780636c45bdc4146101a9578063ad31cc9f146101c7576100ea565b806308339b93146100ef57806312cc19e71461010d57806313bfb1821461012b575b600080fd5b6100f76102e3565b6040516101049190612491565b60405180910390f35b610115610515565b60405161012291906125f0565b60405180910390f35b61014560048036038101906101409190612643565b61075b565b60405161015291906126d8565b60405180910390f35b610163610806565b604051610170919061280a565b60405180910390f35b610193600480360381019061018e9190612643565b6109ec565b6040516101a091906128e5565b60405180910390f35b6101b1610ab4565b6040516101be9190612a3d565b60405180910390f35b6101e160048036038101906101dc9190612643565b610cfa565b005b6101fd60048036038101906101f89190612643565b610fa8565b60405161020a9190612ac7565b60405180910390f35b61022d60048036038101906102289190612643565b61109f565b005b61024960048036038101906102449190612643565b61135b565b6040516102569190612b70565b60405180910390f35b61027960048036038101906102749190612bb7565b611466565b005b61029560048036038101906102909190612bf7565b61181a565b005b6102b160048036038101906102ac9190612bf7565b611c28565b005b6102cd60048036038101906102c89190612643565b612036565b6040516102da9190612cec565b60405180910390f35b60606000600d60003373ffffffffffffffffffffffffffffffffffffffff1673ffffffffffffffffffffffffffffffffffffffff16815260200190815260200160002080548060200260200160405190810160405280929190818152602001828054801561037057602002820191906000526020600020905b81548152602001906001019080831161035c575b5050505050905060008151905060008167ffffffffffffffff81111561039957610398612d07565b5b6040519080825280602002602001820160405280156103d257816020015b6103bf612165565b8152602001906001900390816103b75790505b50905060005b8281101561050b57600960008583815181106103f7576103f6612d36565b5b602002602001015181526020019081526020016000206040518060a0016040529081600082015481526020016001820160009054906101000a900473ffffffffffffffffffffffffffffffffffffffff1673ffffffffffffffffffffffffffffffffffffffff1673ffffffffffffffffffffffffffffffffffffffff1681526020016002820160009054906101000a900473ffffffffffffffffffffffffffffffffffffffff1673ffffffffffffffffffffffffffffffffffffffff1673ffffffffffffffffffffffffffffffffffffffff168152602001600382015481526020016004820154815250508282815181106104f5576104f4612d36565b5b60200260200101819052508060010190506103d8565b5080935050505090565b60606000600b60003373ffffffffffffffffffffffffffffffffffffffff1673ffffffffffffffffffffffffffffffffffffffff1681526020019081526020016000208054806020026020016040519081016040528092919081815260200182805480156105a257602002820191906000526020600020905b81548152602001906001019080831161058e575b5050505050905060008151905060008167ffffffffffffffff8111156105cb576105ca612d07565b5b60405190808252806020026020018201604052801561060457816020015b6105f16121c0565b8152602001906001900390816105e95790505b50905060005b82811015610751576007600085838151811061062957610628612d36565b5b602002602001015181526020019081526020016000206040518060e0016040529081600082015481526020016001820160009054906101000a900473ffffffffffffffffffffffffffffffffffffffff1673ffffffffffffffffffffffffffffffffffffffff1673ffffffffffffffffffffffffffffffffffffffff1681526020016002820160009054906101000a900473ffffffffffffffffffffffffffffffffffffffff1673ffffffffffffffffffffffffffffffffffffffff1673ffffffffffffffffffffffffffffffffffffffff16815260200160038201548152602001600482015481526020016005820154815260200160068201548152505082828151811061073b5761073a612d36565b5b602002602001018190525080600101905061060a565b5080935050505090565b610763612229565b600660008381526020019081526020016000206040518060a0016040529081600082015481526020016001820160009054906101000a900473ffffffffffffffffffffffffffffffffffffffff1673ffffffffffffffffffffffffffffffffffffffff1673ffffffffffffffffffffffffffffffffffffffff16815260200160028201548152602001600382015481526020016004820154815250509050919050565b60606000600a60003373ffffffffffffffffffffffffffffffffffffffff1673ffffffffffffffffffffffffffffffffffffffff16815260200190815260200160002080548060200260200160405190810160405280929190818152602001828054801561089357602002820191906000526020600020905b81548152602001906001019080831161087f575b5050505050905060008151905060008167ffffffffffffffff8111156108bc576108bb612d07565b5b6040519080825280602002602001820160405280156108f557816020015b6108e2612229565b8152602001906001900390816108da5790505b50905060005b828110156109e2576006600085838151811061091a57610919612d36565b5b602002602001015181526020019081526020016000206040518060a0016040529081600082015481526020016001820160009054906101000a900473ffffffffffffffffffffffffffffffffffffffff1673ffffffffffffffffffffffffffffffffffffffff1673ffffffffffffffffffffffffffffffffffffffff16815260200160028201548152602001600382015481526020016004820154815250508282815181106109cc576109cb612d36565b5b60200260200101819052508060010190506108fb565b5080935050505090565b6109f461226e565b60056000838152602001908152602001600020604051806060016040529081600082015481526020016001820160009054906101000a900473ffffffffffffffffffffffffffffffffffffffff1673ffffffffffffffffffffffffffffffffffffffff1673ffffffffffffffffffffffffffffffffffffffff1681526020016001820160149054906101000a900460ff166003811115610a9757610a9661282c565b5b6003811115610aa957610aa861282c565b5b815250509050919050565b60606000600c60003373ffffffffffffffffffffffffffffffffffffffff1673ffffffffffffffffffffffffffffffffffffffff168152602001908152602001600020805480602002602001604051908101604052809291908181526020018280548015610b4157602002820191906000526020600020905b815481526020019060010190808311610b2d575b5050505050905060008151905060008167ffffffffffffffff811115610b6a57610b69612d07565b5b604051908082528060200260200182016040528015610ba357816020015b610b906122b7565b815260200190600190039081610b885790505b50905060005b82811015610cf05760086000858381518110610bc857610bc7612d36565b5b602002602001015181526020019081526020016000206040518060e0016040529081600082015481526020016001820160009054906101000a900473ffffffffffffffffffffffffffffffffffffffff1673ffffffffffffffffffffffffffffffffffffffff1673ffffffffffffffffffffffffffffffffffffffff1681526020016002820160009054906101000a900473ffffffffffffffffffffffffffffffffffffffff1673ffffffffffffffffffffffffffffffffffffffff1673ffffffffffffffffffffffffffffffffffffffff168152602001600382015481526020016004820154815260200160058201548152602001600682015481525050828281518110610cda57610cd9612d36565b5b6020026020010181905250806001019050610ba9565b5080935050505090565b6000811415610d35576040517f8e277c2c00000000000000000000000000000000000000000000000000000000815260040160405180910390fd5b610d3f6000612141565b610d496001612141565b60006040518060600160405280610d606000612157565b81526020013373ffffffffffffffffffffffffffffffffffffffff16815260200160006003811115610d9557610d9461282c565b5b815250905060006040518060a00160405280610db16001612157565b81526020013373ffffffffffffffffffffffffffffffffffffffff16815260200160066000610de06001612157565b8152602001908152602001600020600201548152602001848152602001600081525090508160056000610e136000612157565b81526020019081526020016000206000820151816000015560208201518160010160006101000a81548173ffffffffffffffffffffffffffffffffffffffff021916908373ffffffffffffffffffffffffffffffffffffffff16021790555060408201518160010160146101000a81548160ff02191690836003811115610e9d57610e9c61282c565b5b02179055509050508060066000610eb46001612157565b81526020019081526020016000206000820151816000015560208201518160010160006101000a81548173ffffffffffffffffffffffffffffffffffffffff021916908373ffffffffffffffffffffffffffffffffffffffff160217905550604082015181600201556060820151816003015560808201518160040155905050600a60003373ffffffffffffffffffffffffffffffffffffffff1673ffffffffffffffffffffffffffffffffffffffff168152602001908152602001600020610f7d6001612157565b9080600181540180825580915050600190039060005260206000200160009091909190915055505050565b610fb0612165565b600960008381526020019081526020016000206040518060a0016040529081600082015481526020016001820160009054906101000a900473ffffffffffffffffffffffffffffffffffffffff1673ffffffffffffffffffffffffffffffffffffffff1673ffffffffffffffffffffffffffffffffffffffff1681526020016002820160009054906101000a900473ffffffffffffffffffffffffffffffffffffffff1673ffffffffffffffffffffffffffffffffffffffff1673ffffffffffffffffffffffffffffffffffffffff168152602001600382015481526020016004820154815250509050919050565b60008114156110da576040517f8e277c2c00000000000000000000000000000000000000000000000000000000815260040160405180910390fd5b6110e46000612141565b6110ee6001612141565b42816110fa9190612d94565b9050600060405180606001604052806111136000612157565b81526020013373ffffffffffffffffffffffffffffffffffffffff168152602001600060038111156111485761114761282c565b5b815250905060006040518060a001604052806111646001612157565b81526020013373ffffffffffffffffffffffffffffffffffffffff168152602001600660006111936001612157565b81526020019081526020016000206002015481526020016000815260200184815250905081600560006111c66000612157565b81526020019081526020016000206000820151816000015560208201518160010160006101000a81548173ffffffffffffffffffffffffffffffffffffffff021916908373ffffffffffffffffffffffffffffffffffffffff16021790555060408201518160010160146101000a81548160ff021916908360038111156112505761124f61282c565b5b021790555090505080600660006112676001612157565b81526020019081526020016000206000820151816000015560208201518160010160006101000a81548173ffffffffffffffffffffffffffffffffffffffff021916908373ffffffffffffffffffffffffffffffffffffffff160217905550604082015181600201556060820151816003015560808201518160040155905050600a60003373ffffffffffffffffffffffffffffffffffffffff1673ffffffffffffffffffffffffffffffffffffffff1681526020019081526020016000206113306001612157565b9080600181540180825580915050600190039060005260206000200160009091909190915055505050565b6113636121c0565b600760008381526020019081526020016000206040518060e0016040529081600082015481526020016001820160009054906101000a900473ffffffffffffffffffffffffffffffffffffffff1673ffffffffffffffffffffffffffffffffffffffff1673ffffffffffffffffffffffffffffffffffffffff1681526020016002820160009054906101000a900473ffffffffffffffffffffffffffffffffffffffff1673ffffffffffffffffffffffffffffffffffffffff1673ffffffffffffffffffffffffffffffffffffffff1681526020016003820154815260200160048201548152602001600582015481526020016006820154815250509050919050565b600073ffffffffffffffffffffffffffffffffffffffff168273ffffffffffffffffffffffffffffffffffffffff1614806114a15750600081145b156114d8576040517f8e277c2c00000000000000000000000000000000000000000000000000000000815260040160405180910390fd5b6114e26000612141565b6114ec6004612141565b42816114f89190612d94565b9050600060405180606001604052806115116000612157565b81526020013373ffffffffffffffffffffffffffffffffffffffff1681526020016003808111156115455761154461282c565b5b815250905060006040518060a001604052806115616004612157565b81526020013373ffffffffffffffffffffffffffffffffffffffff1681526020018573ffffffffffffffffffffffffffffffffffffffff168152602001848152602001600960006115b26004612157565b815260200190815260200160002060040154815250905081600560006115d86000612157565b81526020019081526020016000206000820151816000015560208201518160010160006101000a81548173ffffffffffffffffffffffffffffffffffffffff021916908373ffffffffffffffffffffffffffffffffffffffff16021790555060408201518160010160146101000a81548160ff021916908360038111156116625761166161282c565b5b021790555090505080600960006116796004612157565b81526020019081526020016000206000820151816000015560208201518160010160006101000a81548173ffffffffffffffffffffffffffffffffffffffff021916908373ffffffffffffffffffffffffffffffffffffffff16021790555060408201518160020160006101000a81548173ffffffffffffffffffffffffffffffffffffffff021916908373ffffffffffffffffffffffffffffffffffffffff1602179055506060820151816003015560808201518160040155905050600d60003373ffffffffffffffffffffffffffffffffffffffff1673ffffffffffffffffffffffffffffffffffffffff16815260200190815260200160002061177f6004612157565b9080600181540180825580915050600190039060005260206000200160009091909190915055601060008573ffffffffffffffffffffffffffffffffffffffff1673ffffffffffffffffffffffffffffffffffffffff1681526020019081526020016000206117ee6004612157565b908060018154018082558091505060019003906000526020600020016000909190919091505550505050565b600073ffffffffffffffffffffffffffffffffffffffff168473ffffffffffffffffffffffffffffffffffffffff1614806118555750600083145b806118605750600082145b8061186b5750600081145b156118a2576040517f8e277c2c00000000000000000000000000000000000000000000000000000000815260040160405180910390fd5b6118ac6000612141565b6118b66003612141565b42836118c29190612d94565b9250600060405180606001604052806118db6000612157565b81526020013373ffffffffffffffffffffffffffffffffffffffff168152602001600260038111156119105761190f61282c565b5b815250905060006040518060e0016040528061192c6003612157565b81526020013373ffffffffffffffffffffffffffffffffffffffff1681526020018773ffffffffffffffffffffffffffffffffffffffff168152602001600860006119776003612157565b815260200190815260200160002060030154815260200186815260200185815260200184815250905081600560006119af6000612157565b81526020019081526020016000206000820151816000015560208201518160010160006101000a81548173ffffffffffffffffffffffffffffffffffffffff021916908373ffffffffffffffffffffffffffffffffffffffff16021790555060408201518160010160146101000a81548160ff02191690836003811115611a3957611a3861282c565b5b02179055509050508060086000611a506003612157565b81526020019081526020016000206000820151816000015560208201518160010160006101000a81548173ffffffffffffffffffffffffffffffffffffffff021916908373ffffffffffffffffffffffffffffffffffffffff16021790555060408201518160020160006101000a81548173ffffffffffffffffffffffffffffffffffffffff021916908373ffffffffffffffffffffffffffffffffffffffff160217905550606082015181600301556080820151816004015560a0820151816005015560c082015181600601559050508460126000611b306003612157565b815260200190815260200160002081905550600c60003373ffffffffffffffffffffffffffffffffffffffff1673ffffffffffffffffffffffffffffffffffffffff168152602001908152602001600020611b8b6003612157565b9080600181540180825580915050600190039060005260206000200160009091909190915055600f60008773ffffffffffffffffffffffffffffffffffffffff1673ffffffffffffffffffffffffffffffffffffffff168152602001908152602001600020611bfa6003612157565b9080600181540180825580915050600190039060005260206000200160009091909190915055505050505050565b600073ffffffffffffffffffffffffffffffffffffffff168473ffffffffffffffffffffffffffffffffffffffff161480611c635750600083145b80611c6e5750600082145b80611c795750600081145b15611cb0576040517f8e277c2c00000000000000000000000000000000000000000000000000000000815260040160405180910390fd5b611cba6000612141565b611cc46002612141565b4283611cd09190612d94565b925060006040518060600160405280611ce96000612157565b81526020013373ffffffffffffffffffffffffffffffffffffffff16815260200160016003811115611d1e57611d1d61282c565b5b815250905060006040518060e00160405280611d3a6002612157565b81526020013373ffffffffffffffffffffffffffffffffffffffff1681526020018773ffffffffffffffffffffffffffffffffffffffff16815260200160076000611d856002612157565b81526020019081526020016000206003015481526020018681526020018581526020018481525090508160056000611dbd6000612157565b81526020019081526020016000206000820151816000015560208201518160010160006101000a81548173ffffffffffffffffffffffffffffffffffffffff021916908373ffffffffffffffffffffffffffffffffffffffff16021790555060408201518160010160146101000a81548160ff02191690836003811115611e4757611e4661282c565b5b02179055509050508060076000611e5e6002612157565b81526020019081526020016000206000820151816000015560208201518160010160006101000a81548173ffffffffffffffffffffffffffffffffffffffff021916908373ffffffffffffffffffffffffffffffffffffffff16021790555060408201518160020160006101000a81548173ffffffffffffffffffffffffffffffffffffffff021916908373ffffffffffffffffffffffffffffffffffffffff160217905550606082015181600301556080820151816004015560a0820151816005015560c082015181600601559050508460116000611f3e6002612157565b815260200190815260200160002081905550600b60003373ffffffffffffffffffffffffffffffffffffffff1673ffffffffffffffffffffffffffffffffffffffff168152602001908152602001600020611f996002612157565b9080600181540180825580915050600190039060005260206000200160009091909190915055600e60008773ffffffffffffffffffffffffffffffffffffffff1673ffffffffffffffffffffffffffffffffffffffff1681526020019081526020016000206120086002612157565b9080600181540180825580915050600190039060005260206000200160009091909190915055505050505050565b61203e6122b7565b600860008381526020019081526020016000206040518060e0016040529081600082015481526020016001820160009054906101000a900473ffffffffffffffffffffffffffffffffffffffff1673ffffffffffffffffffffffffffffffffffffffff1673ffffffffffffffffffffffffffffffffffffffff1681526020016002820160009054906101000a900473ffffffffffffffffffffffffffffffffffffffff1673ffffffffffffffffffffffffffffffffffffffff1673ffffffffffffffffffffffffffffffffffffffff1681526020016003820154815260200160048201548152602001600582015481526020016006820154815250509050919050565b6001816000016000828254019250508190555050565b600081600001549050919050565b6040518060a0016040528060008152602001600073ffffffffffffffffffffffffffffffffffffffff168152602001600073ffffffffffffffffffffffffffffffffffffffff16815260200160008152602001600081525090565b6040518060e0016040528060008152602001600073ffffffffffffffffffffffffffffffffffffffff168152602001600073ffffffffffffffffffffffffffffffffffffffff168152602001600081526020016000815260200160008152602001600081525090565b6040518060a0016040528060008152602001600073ffffffffffffffffffffffffffffffffffffffff1681526020016000815260200160008152602001600081525090565b604051806060016040528060008152602001600073ffffffffffffffffffffffffffffffffffffffff168152602001600060038111156122b1576122b061282c565b5b81525090565b6040518060e0016040528060008152602001600073ffffffffffffffffffffffffffffffffffffffff168152602001600073ffffffffffffffffffffffffffffffffffffffff168152602001600081526020016000815260200160008152602001600081525090565b600081519050919050565b600082825260208201905092915050565b6000819050602082019050919050565b6000819050919050565b61235f8161234c565b82525050565b600073ffffffffffffffffffffffffffffffffffffffff82169050919050565b600061239082612365565b9050919050565b6123a081612385565b82525050565b60a0820160008201516123bc6000850182612356565b5060208201516123cf6020850182612397565b5060408201516123e26040850182612397565b5060608201516123f56060850182612356565b5060808201516124086080850182612356565b50505050565b600061241a83836123a6565b60a08301905092915050565b6000602082019050919050565b600061243e82612320565b612448818561232b565b93506124538361233c565b8060005b8381101561248457815161246b888261240e565b975061247683612426565b925050600181019050612457565b5085935050505092915050565b600060208201905081810360008301526124ab8184612433565b905092915050565b600081519050919050565b600082825260208201905092915050565b6000819050602082019050919050565b60e0820160008201516124f56000850182612356565b5060208201516125086020850182612397565b50604082015161251b6040850182612397565b50606082015161252e6060850182612356565b5060808201516125416080850182612356565b5060a082015161255460a0850182612356565b5060c082015161256760c0850182612356565b50505050565b600061257983836124df565b60e08301905092915050565b6000602082019050919050565b600061259d826124b3565b6125a781856124be565b93506125b2836124cf565b8060005b838110156125e35781516125ca888261256d565b97506125d583612585565b9250506001810190506125b6565b5085935050505092915050565b6000602082019050818103600083015261260a8184612592565b905092915050565b600080fd5b6126208161234c565b811461262b57600080fd5b50565b60008135905061263d81612617565b92915050565b60006020828403121561265957612658612612565b5b60006126678482850161262e565b91505092915050565b60a0820160008201516126866000850182612356565b5060208201516126996020850182612397565b5060408201516126ac6040850182612356565b5060608201516126bf6060850182612356565b5060808201516126d26080850182612356565b50505050565b600060a0820190506126ed6000830184612670565b92915050565b600081519050919050565b600082825260208201905092915050565b6000819050602082019050919050565b60a0820160008201516127356000850182612356565b5060208201516127486020850182612397565b50604082015161275b6040850182612356565b50606082015161276e6060850182612356565b5060808201516127816080850182612356565b50505050565b6000612793838361271f565b60a08301905092915050565b6000602082019050919050565b60006127b7826126f3565b6127c181856126fe565b93506127cc8361270f565b8060005b838110156127fd5781516127e48882612787565b97506127ef8361279f565b9250506001810190506127d0565b5085935050505092915050565b6000602082019050818103600083015261282481846127ac565b905092915050565b7f4e487b7100000000000000000000000000000000000000000000000000000000600052602160045260246000fd5b6004811061286c5761286b61282c565b5b50565b600081905061287d8261285b565b919050565b600061288d8261286f565b9050919050565b61289d81612882565b82525050565b6060820160008201516128b96000850182612356565b5060208201516128cc6020850182612397565b5060408201516128df6040850182612894565b50505050565b60006060820190506128fa60008301846128a3565b92915050565b600081519050919050565b600082825260208201905092915050565b6000819050602082019050919050565b60e0820160008201516129426000850182612356565b5060208201516129556020850182612397565b5060408201516129686040850182612397565b50606082015161297b6060850182612356565b50608082015161298e6080850182612356565b5060a08201516129a160a0850182612356565b5060c08201516129b460c0850182612356565b50505050565b60006129c6838361292c565b60e08301905092915050565b6000602082019050919050565b60006129ea82612900565b6129f4818561290b565b93506129ff8361291c565b8060005b83811015612a30578151612a1788826129ba565b9750612a22836129d2565b925050600181019050612a03565b5085935050505092915050565b60006020820190508181036000830152612a5781846129df565b905092915050565b60a082016000820151612a756000850182612356565b506020820151612a886020850182612397565b506040820151612a9b6040850182612397565b506060820151612aae6060850182612356565b506080820151612ac16080850182612356565b50505050565b600060a082019050612adc6000830184612a5f565b92915050565b60e082016000820151612af86000850182612356565b506020820151612b0b6020850182612397565b506040820151612b1e6040850182612397565b506060820151612b316060850182612356565b506080820151612b446080850182612356565b5060a0820151612b5760a0850182612356565b5060c0820151612b6a60c0850182612356565b50505050565b600060e082019050612b856000830184612ae2565b92915050565b612b9481612385565b8114612b9f57600080fd5b50565b600081359050612bb181612b8b565b92915050565b60008060408385031215612bce57612bcd612612565b5b6000612bdc85828601612ba2565b9250506020612bed8582860161262e565b9150509250929050565b60008060008060808587031215612c1157612c10612612565b5b6000612c1f87828801612ba2565b9450506020612c308782880161262e565b9350506040612c418782880161262e565b9250506060612c528782880161262e565b91505092959194509250565b60e082016000820151612c746000850182612356565b506020820151612c876020850182612397565b506040820151612c9a6040850182612397565b506060820151612cad6060850182612356565b506080820151612cc06080850182612356565b5060a0820151612cd360a0850182612356565b5060c0820151612ce660c0850182612356565b50505050565b600060e082019050612d016000830184612c5e565b92915050565b7f4e487b7100000000000000000000000000000000000000000000000000000000600052604160045260246000fd5b7f4e487b7100000000000000000000000000000000000000000000000000000000600052603260045260246000fd5b7f4e487b7100000000000000000000000000000000000000000000000000000000600052601160045260246000fd5b6000612d9f8261234c565b9150612daa8361234c565b9250827fffffffffffffffffffffffffffffffffffffffffffffffffffffffffffffffff03821115612ddf57612dde612d65565b5b82820190509291505056fea2646970667358221220359205f9acfeb57298bfb14636a585c8f3fb08d7aa7cf4fc5d03eb8c7ff8ada264736f6c63430008090033",
  "linkReferences": {},
  "deployedLinkReferences": {}
}