{
  "_format": "hh-sol-artifact-1",
  "contractName": "AtiumPlan",
  "sourceName": "contracts/AtiumPlan.sol",
  "abi": [
    {
      "inputs": [],
      "name": "Atium_NotOwnerId",
      "type": "error"
    },
    {
      "inputs": [],
      "name": "Atium_ZeroInput",
      "type": "error"
    },
    {
      "inputs": [
        {
          "internalType": "address",
          "name": "_receiver",
          "type": "address"
        },
        {
          "internalType": "uint256",
          "name": "_startDate",
          "type": "uint256"
        },
        {
          "internalType": "uint256",
          "name": "_amount",
          "type": "uint256"
        },
        {
          "internalType": "uint256",
          "name": "_interval",
          "type": "uint256"
        }
      ],
      "name": "allowancePlan",
      "outputs": [],
      "stateMutability": "nonpayable",
      "type": "function"
    },
    {
      "inputs": [
        {
          "internalType": "uint256",
          "name": "_id",
          "type": "uint256"
        },
        {
          "internalType": "address",
          "name": "_receiver",
          "type": "address"
        },
        {
          "internalType": "uint256",
          "name": "_startDate",
          "type": "uint256"
        },
        {
          "internalType": "uint256",
          "name": "_amount",
          "type": "uint256"
        },
        {
          "internalType": "uint256",
          "name": "_interval",
          "type": "uint256"
        }
      ],
      "name": "editAllowancePlan",
      "outputs": [],
      "stateMutability": "nonpayable",
      "type": "function"
    },
    {
      "inputs": [
        {
          "internalType": "uint256",
          "name": "_id",
          "type": "uint256"
        },
        {
          "internalType": "address",
          "name": "_receiver",
          "type": "address"
        },
        {
          "internalType": "uint256",
          "name": "_date",
          "type": "uint256"
        }
      ],
      "name": "editGiftPlan",
      "outputs": [],
      "stateMutability": "nonpayable",
      "type": "function"
    },
    {
      "inputs": [
        {
          "internalType": "uint256",
          "name": "_id",
          "type": "uint256"
        },
        {
          "internalType": "uint256",
          "name": "_goal",
          "type": "uint256"
        }
      ],
      "name": "editSavingsPlanGoal",
      "outputs": [],
      "stateMutability": "nonpayable",
      "type": "function"
    },
    {
      "inputs": [
        {
          "internalType": "uint256",
          "name": "_id",
          "type": "uint256"
        },
        {
          "internalType": "uint256",
          "name": "_time",
          "type": "uint256"
        }
      ],
      "name": "editSavingsPlanTime",
      "outputs": [],
      "stateMutability": "nonpayable",
      "type": "function"
    },
    {
      "inputs": [
        {
          "internalType": "uint256",
          "name": "_id",
          "type": "uint256"
        },
        {
          "internalType": "address",
          "name": "_receiver",
          "type": "address"
        },
        {
          "internalType": "uint256",
          "name": "_startDate",
          "type": "uint256"
        },
        {
          "internalType": "uint256",
          "name": "_amount",
          "type": "uint256"
        },
        {
          "internalType": "uint256",
          "name": "_interval",
          "type": "uint256"
        }
      ],
      "name": "editTrustfundPlan",
      "outputs": [],
      "stateMutability": "nonpayable",
      "type": "function"
    },
    {
      "inputs": [],
      "name": "getAllActiveAllowance",
      "outputs": [
        {
          "components": [
            {
              "internalType": "uint256",
              "name": "id",
              "type": "uint256"
            },
            {
              "internalType": "address",
              "name": "sender",
              "type": "address"
            },
            {
              "internalType": "address",
              "name": "receiver",
              "type": "address"
            },
            {
              "internalType": "uint256",
              "name": "deposit",
              "type": "uint256"
            },
            {
              "internalType": "uint256",
              "name": "startDate",
              "type": "uint256"
            },
            {
              "internalType": "uint256",
              "name": "withdrawalAmount",
              "type": "uint256"
            },
            {
              "internalType": "uint256",
              "name": "withdrawalInterval",
              "type": "uint256"
            }
          ],
          "internalType": "struct AtiumPlan.AllowanceList[]",
          "name": "",
          "type": "tuple[]"
        }
      ],
      "stateMutability": "view",
      "type": "function"
    },
    {
      "inputs": [],
      "name": "getAllActiveGift",
      "outputs": [
        {
          "components": [
            {
              "internalType": "uint256",
              "name": "id",
              "type": "uint256"
            },
            {
              "internalType": "address",
              "name": "sender",
              "type": "address"
            },
            {
              "internalType": "address",
              "name": "receiver",
              "type": "address"
            },
            {
              "internalType": "uint256",
              "name": "date",
              "type": "uint256"
            },
            {
              "internalType": "uint256",
              "name": "amount",
              "type": "uint256"
            }
          ],
          "internalType": "struct AtiumPlan.GiftList[]",
          "name": "",
          "type": "tuple[]"
        }
      ],
      "stateMutability": "view",
      "type": "function"
    },
    {
      "inputs": [],
      "name": "getAllActiveSavings",
      "outputs": [
        {
          "components": [
            {
              "internalType": "uint256",
              "name": "id",
              "type": "uint256"
            },
            {
              "internalType": "address",
              "name": "user",
              "type": "address"
            },
            {
              "internalType": "uint256",
              "name": "amount",
              "type": "uint256"
            },
            {
              "internalType": "uint256",
              "name": "goal",
              "type": "uint256"
            },
            {
              "internalType": "uint256",
              "name": "time",
              "type": "uint256"
            }
          ],
          "internalType": "struct AtiumPlan.SavingsList[]",
          "name": "",
          "type": "tuple[]"
        }
      ],
      "stateMutability": "view",
      "type": "function"
    },
    {
      "inputs": [],
      "name": "getAllActiveTrustfund",
      "outputs": [
        {
          "components": [
            {
              "internalType": "uint256",
              "name": "id",
              "type": "uint256"
            },
            {
              "internalType": "address",
              "name": "sender",
              "type": "address"
            },
            {
              "internalType": "address",
              "name": "receiver",
              "type": "address"
            },
            {
              "internalType": "uint256",
              "name": "amount",
              "type": "uint256"
            },
            {
              "internalType": "uint256",
              "name": "startDate",
              "type": "uint256"
            },
            {
              "internalType": "uint256",
              "name": "withdrawalAmount",
              "type": "uint256"
            },
            {
              "internalType": "uint256",
              "name": "withdrawalInterval",
              "type": "uint256"
            }
          ],
          "internalType": "struct AtiumPlan.TrustFundList[]",
          "name": "",
          "type": "tuple[]"
        }
      ],
      "stateMutability": "view",
      "type": "function"
    },
    {
      "inputs": [
        {
          "internalType": "uint256",
          "name": "_id",
          "type": "uint256"
        }
      ],
      "name": "getAllowance",
      "outputs": [
        {
          "components": [
            {
              "internalType": "uint256",
              "name": "id",
              "type": "uint256"
            },
            {
              "internalType": "address",
              "name": "sender",
              "type": "address"
            },
            {
              "internalType": "address",
              "name": "receiver",
              "type": "address"
            },
            {
              "internalType": "uint256",
              "name": "deposit",
              "type": "uint256"
            },
            {
              "internalType": "uint256",
              "name": "startDate",
              "type": "uint256"
            },
            {
              "internalType": "uint256",
              "name": "withdrawalAmount",
              "type": "uint256"
            },
            {
              "internalType": "uint256",
              "name": "withdrawalInterval",
              "type": "uint256"
            }
          ],
          "internalType": "struct AtiumPlan.AllowanceList",
          "name": "",
          "type": "tuple"
        }
      ],
      "stateMutability": "view",
      "type": "function"
    },
    {
      "inputs": [
        {
          "internalType": "uint256",
          "name": "_id",
          "type": "uint256"
        }
      ],
      "name": "getAtium",
      "outputs": [
        {
          "components": [
            {
              "internalType": "uint256",
              "name": "id",
              "type": "uint256"
            },
            {
              "internalType": "address",
              "name": "user",
              "type": "address"
            },
            {
              "internalType": "enum AtiumPlan.Select",
              "name": "select",
              "type": "uint8"
            }
          ],
          "internalType": "struct AtiumPlan.AtiumList",
          "name": "",
          "type": "tuple"
        }
      ],
      "stateMutability": "view",
      "type": "function"
    },
    {
      "inputs": [
        {
          "internalType": "uint256",
          "name": "_id",
          "type": "uint256"
        }
      ],
      "name": "getGift",
      "outputs": [
        {
          "components": [
            {
              "internalType": "uint256",
              "name": "id",
              "type": "uint256"
            },
            {
              "internalType": "address",
              "name": "sender",
              "type": "address"
            },
            {
              "internalType": "address",
              "name": "receiver",
              "type": "address"
            },
            {
              "internalType": "uint256",
              "name": "date",
              "type": "uint256"
            },
            {
              "internalType": "uint256",
              "name": "amount",
              "type": "uint256"
            }
          ],
          "internalType": "struct AtiumPlan.GiftList",
          "name": "",
          "type": "tuple"
        }
      ],
      "stateMutability": "view",
      "type": "function"
    },
    {
      "inputs": [
        {
          "internalType": "uint256",
          "name": "_id",
          "type": "uint256"
        }
      ],
      "name": "getSavings",
      "outputs": [
        {
          "components": [
            {
              "internalType": "uint256",
              "name": "id",
              "type": "uint256"
            },
            {
              "internalType": "address",
              "name": "user",
              "type": "address"
            },
            {
              "internalType": "uint256",
              "name": "amount",
              "type": "uint256"
            },
            {
              "internalType": "uint256",
              "name": "goal",
              "type": "uint256"
            },
            {
              "internalType": "uint256",
              "name": "time",
              "type": "uint256"
            }
          ],
          "internalType": "struct AtiumPlan.SavingsList",
          "name": "",
          "type": "tuple"
        }
      ],
      "stateMutability": "view",
      "type": "function"
    },
    {
      "inputs": [
        {
          "internalType": "uint256",
          "name": "_id",
          "type": "uint256"
        }
      ],
      "name": "getTrustfund",
      "outputs": [
        {
          "components": [
            {
              "internalType": "uint256",
              "name": "id",
              "type": "uint256"
            },
            {
              "internalType": "address",
              "name": "sender",
              "type": "address"
            },
            {
              "internalType": "address",
              "name": "receiver",
              "type": "address"
            },
            {
              "internalType": "uint256",
              "name": "amount",
              "type": "uint256"
            },
            {
              "internalType": "uint256",
              "name": "startDate",
              "type": "uint256"
            },
            {
              "internalType": "uint256",
              "name": "withdrawalAmount",
              "type": "uint256"
            },
            {
              "internalType": "uint256",
              "name": "withdrawalInterval",
              "type": "uint256"
            }
          ],
          "internalType": "struct AtiumPlan.TrustFundList",
          "name": "",
          "type": "tuple"
        }
      ],
      "stateMutability": "view",
      "type": "function"
    },
    {
      "inputs": [
        {
          "internalType": "address",
          "name": "_receiver",
          "type": "address"
        },
        {
          "internalType": "uint256",
          "name": "_date",
          "type": "uint256"
        }
      ],
      "name": "giftPlan",
      "outputs": [],
      "stateMutability": "nonpayable",
      "type": "function"
    },
    {
      "inputs": [
        {
          "internalType": "uint256",
          "name": "_goal",
          "type": "uint256"
        }
      ],
      "name": "savingsPlanGoal",
      "outputs": [],
      "stateMutability": "nonpayable",
      "type": "function"
    },
    {
      "inputs": [
        {
          "internalType": "uint256",
          "name": "_time",
          "type": "uint256"
        }
      ],
      "name": "savingsPlanTime",
      "outputs": [],
      "stateMutability": "nonpayable",
      "type": "function"
    },
    {
      "inputs": [
        {
          "internalType": "address",
          "name": "_receiver",
          "type": "address"
        },
        {
          "internalType": "uint256",
          "name": "_startDate",
          "type": "uint256"
        },
        {
          "internalType": "uint256",
          "name": "_amount",
          "type": "uint256"
        },
        {
          "internalType": "uint256",
          "name": "_interval",
          "type": "uint256"
        }
      ],
      "name": "trustfundPlan",
      "outputs": [],
      "stateMutability": "nonpayable",
      "type": "function"
    }
  ],
  "bytecode": "0x608060405234801561001057600080fd5b50614044806100206000396000f3fe608060405234801561001057600080fd5b50600436106101215760003560e01c8063872c6095116100ad578063d14fb6db11610071578063d14fb6db14610306578063d67d10dc14610322578063eb5149001461033e578063ed5579fc1461035a578063fa278ae61461037657610121565b8063872c609514610252578063ad31cc9f1461026e578063bf6713f61461028a578063c315d635146102ba578063c960174e146102d657610121565b80632bb59145116100f45780632bb59145146101ae5780633d53316b146101cc5780633e346eeb146101e85780635029919b146102185780636c45bdc41461023457610121565b8063024025f41461012657806308339b931461014257806312cc19e71461016057806313bfb1821461017e575b600080fd5b610140600480360381019061013b919061346c565b6103a6565b005b61014a610673565b604051610157919061361c565b60405180910390f35b6101686108a5565b604051610175919061377b565b60405180910390f35b6101986004803603810190610193919061379d565b610aeb565b6040516101a59190613832565b60405180910390f35b6101b6610b96565b6040516101c39190613964565b60405180910390f35b6101e660048036038101906101e19190613986565b610d7c565b005b61020260048036038101906101fd919061379d565b611001565b60405161020f9190613a92565b60405180910390f35b610232600480360381019061022d919061346c565b6110c9565b005b61023c611388565b6040516102499190613bea565b60405180910390f35b61026c60048036038101906102679190613c0c565b6115ce565b005b6102886004803603810190610283919061379d565b611800565b005b6102a4600480360381019061029f919061379d565b611b04565b6040516102b19190613cb4565b60405180910390f35b6102d460048036038101906102cf919061379d565b611bfb565b005b6102f060048036038101906102eb919061379d565b611f0d565b6040516102fd9190613d5d565b60405180910390f35b610320600480360381019061031b9190613d78565b612018565b005b61033c60048036038101906103379190613db8565b612422565b005b61035860048036038101906103539190613c0c565b612886565b005b610374600480360381019061036f9190613db8565b612aaa565b005b610390600480360381019061038b919061379d565b612f0e565b60405161039d9190613ead565b60405180910390f35b843373ffffffffffffffffffffffffffffffffffffffff166007600083815260200190815260200160002060010160009054906101000a900473ffffffffffffffffffffffffffffffffffffffff1673ffffffffffffffffffffffffffffffffffffffff1614610442576040517f0d9ff29600000000000000000000000000000000000000000000000000000000815260040160405180910390fd5b428461044e9190613ef7565b935060006040518060e001604052808881526020013373ffffffffffffffffffffffffffffffffffffffff1681526020018773ffffffffffffffffffffffffffffffffffffffff168152602001600760008a815260200190815260200160002060030154815260200142876104c39190613ef7565b965086815260200185815260200184815250905080600760008981526020019081526020016000206000820151816000015560208201518160010160006101000a81548173ffffffffffffffffffffffffffffffffffffffff021916908373ffffffffffffffffffffffffffffffffffffffff16021790555060408201518160020160006101000a81548173ffffffffffffffffffffffffffffffffffffffff021916908373ffffffffffffffffffffffffffffffffffffffff160217905550606082015181600301556080820151816004015560a0820151816005015560c0820151816006015590505084601560008981526020019081526020016000208190555061061787600f60003373ffffffffffffffffffffffffffffffffffffffff1673ffffffffffffffffffffffffffffffffffffffff16815260200190815260200160002061301990919063ffffffff16565b5061066987600f60003373ffffffffffffffffffffffffffffffffffffffff1673ffffffffffffffffffffffffffffffffffffffff16815260200190815260200160002061303390919063ffffffff16565b5050505050505050565b60606000600d60003373ffffffffffffffffffffffffffffffffffffffff1673ffffffffffffffffffffffffffffffffffffffff16815260200190815260200160002080548060200260200160405190810160405280929190818152602001828054801561070057602002820191906000526020600020905b8154815260200190600101908083116106ec575b5050505050905060008151905060008167ffffffffffffffff81111561072957610728613f4d565b5b60405190808252806020026020018201604052801561076257816020015b61074f613218565b8152602001906001900390816107475790505b50905060005b8281101561089b576009600085838151811061078757610786613f7c565b5b602002602001015181526020019081526020016000206040518060a0016040529081600082015481526020016001820160009054906101000a900473ffffffffffffffffffffffffffffffffffffffff1673ffffffffffffffffffffffffffffffffffffffff1673ffffffffffffffffffffffffffffffffffffffff1681526020016002820160009054906101000a900473ffffffffffffffffffffffffffffffffffffffff1673ffffffffffffffffffffffffffffffffffffffff1673ffffffffffffffffffffffffffffffffffffffff1681526020016003820154815260200160048201548152505082828151811061088557610884613f7c565b5b6020026020010181905250806001019050610768565b5080935050505090565b60606000600b60003373ffffffffffffffffffffffffffffffffffffffff1673ffffffffffffffffffffffffffffffffffffffff16815260200190815260200160002080548060200260200160405190810160405280929190818152602001828054801561093257602002820191906000526020600020905b81548152602001906001019080831161091e575b5050505050905060008151905060008167ffffffffffffffff81111561095b5761095a613f4d565b5b60405190808252806020026020018201604052801561099457816020015b610981613273565b8152602001906001900390816109795790505b50905060005b82811015610ae157600760008583815181106109b9576109b8613f7c565b5b602002602001015181526020019081526020016000206040518060e0016040529081600082015481526020016001820160009054906101000a900473ffffffffffffffffffffffffffffffffffffffff1673ffffffffffffffffffffffffffffffffffffffff1673ffffffffffffffffffffffffffffffffffffffff1681526020016002820160009054906101000a900473ffffffffffffffffffffffffffffffffffffffff1673ffffffffffffffffffffffffffffffffffffffff1673ffffffffffffffffffffffffffffffffffffffff168152602001600382015481526020016004820154815260200160058201548152602001600682015481525050828281518110610acb57610aca613f7c565b5b602002602001018190525080600101905061099a565b5080935050505090565b610af36132dc565b600660008381526020019081526020016000206040518060a0016040529081600082015481526020016001820160009054906101000a900473ffffffffffffffffffffffffffffffffffffffff1673ffffffffffffffffffffffffffffffffffffffff1673ffffffffffffffffffffffffffffffffffffffff16815260200160028201548152602001600382015481526020016004820154815250509050919050565b60606000600a60003373ffffffffffffffffffffffffffffffffffffffff1673ffffffffffffffffffffffffffffffffffffffff168152602001908152602001600020805480602002602001604051908101604052809291908181526020018280548015610c2357602002820191906000526020600020905b815481526020019060010190808311610c0f575b5050505050905060008151905060008167ffffffffffffffff811115610c4c57610c4b613f4d565b5b604051908082528060200260200182016040528015610c8557816020015b610c726132dc565b815260200190600190039081610c6a5790505b50905060005b82811015610d725760066000858381518110610caa57610ca9613f7c565b5b602002602001015181526020019081526020016000206040518060a0016040529081600082015481526020016001820160009054906101000a900473ffffffffffffffffffffffffffffffffffffffff1673ffffffffffffffffffffffffffffffffffffffff1673ffffffffffffffffffffffffffffffffffffffff1681526020016002820154815260200160038201548152602001600482015481525050828281518110610d5c57610d5b613f7c565b5b6020026020010181905250806001019050610c8b565b5080935050505090565b823373ffffffffffffffffffffffffffffffffffffffff166009600083815260200190815260200160002060010160009054906101000a900473ffffffffffffffffffffffffffffffffffffffff1673ffffffffffffffffffffffffffffffffffffffff1614610e18576040517f0d9ff29600000000000000000000000000000000000000000000000000000000815260040160405180910390fd5b4282610e249190613ef7565b915060006040518060a001604052808681526020013373ffffffffffffffffffffffffffffffffffffffff1681526020018573ffffffffffffffffffffffffffffffffffffffff1681526020018481526020016009600088815260200190815260200160002060040154815250905080600960008781526020019081526020016000206000820151816000015560208201518160010160006101000a81548173ffffffffffffffffffffffffffffffffffffffff021916908373ffffffffffffffffffffffffffffffffffffffff16021790555060408201518160020160006101000a81548173ffffffffffffffffffffffffffffffffffffffff021916908373ffffffffffffffffffffffffffffffffffffffff1602179055506060820151816003015560808201518160040155905050610fa785601160003373ffffffffffffffffffffffffffffffffffffffff1673ffffffffffffffffffffffffffffffffffffffff16815260200190815260200160002061301990919063ffffffff16565b50610ff985601160003373ffffffffffffffffffffffffffffffffffffffff1673ffffffffffffffffffffffffffffffffffffffff16815260200190815260200160002061303390919063ffffffff16565b505050505050565b611009613321565b60056000838152602001908152602001600020604051806060016040529081600082015481526020016001820160009054906101000a900473ffffffffffffffffffffffffffffffffffffffff1673ffffffffffffffffffffffffffffffffffffffff1673ffffffffffffffffffffffffffffffffffffffff1681526020016001820160149054906101000a900460ff1660038111156110ac576110ab6139d9565b5b60038111156110be576110bd6139d9565b5b815250509050919050565b843373ffffffffffffffffffffffffffffffffffffffff166008600083815260200190815260200160002060010160009054906101000a900473ffffffffffffffffffffffffffffffffffffffff1673ffffffffffffffffffffffffffffffffffffffff1614611165576040517f0d9ff29600000000000000000000000000000000000000000000000000000000815260040160405180910390fd5b42846111719190613ef7565b935060006040518060e001604052808881526020013373ffffffffffffffffffffffffffffffffffffffff1681526020018773ffffffffffffffffffffffffffffffffffffffff168152602001600860008a815260200190815260200160002060030154815260200186815260200185815260200184815250905080600860008981526020019081526020016000206000820151816000015560208201518160010160006101000a81548173ffffffffffffffffffffffffffffffffffffffff021916908373ffffffffffffffffffffffffffffffffffffffff16021790555060408201518160020160006101000a81548173ffffffffffffffffffffffffffffffffffffffff021916908373ffffffffffffffffffffffffffffffffffffffff160217905550606082015181600301556080820151816004015560a0820151816005015560c0820151816006015590505084601660008981526020019081526020016000208190555061132c87601060003373ffffffffffffffffffffffffffffffffffffffff1673ffffffffffffffffffffffffffffffffffffffff16815260200190815260200160002061301990919063ffffffff16565b5061137e87601060003373ffffffffffffffffffffffffffffffffffffffff1673ffffffffffffffffffffffffffffffffffffffff16815260200190815260200160002061303390919063ffffffff16565b5050505050505050565b60606000600c60003373ffffffffffffffffffffffffffffffffffffffff1673ffffffffffffffffffffffffffffffffffffffff16815260200190815260200160002080548060200260200160405190810160405280929190818152602001828054801561141557602002820191906000526020600020905b815481526020019060010190808311611401575b5050505050905060008151905060008167ffffffffffffffff81111561143e5761143d613f4d565b5b60405190808252806020026020018201604052801561147757816020015b61146461336a565b81526020019060019003908161145c5790505b50905060005b828110156115c4576008600085838151811061149c5761149b613f7c565b5b602002602001015181526020019081526020016000206040518060e0016040529081600082015481526020016001820160009054906101000a900473ffffffffffffffffffffffffffffffffffffffff1673ffffffffffffffffffffffffffffffffffffffff1673ffffffffffffffffffffffffffffffffffffffff1681526020016002820160009054906101000a900473ffffffffffffffffffffffffffffffffffffffff1673ffffffffffffffffffffffffffffffffffffffff1673ffffffffffffffffffffffffffffffffffffffff1681526020016003820154815260200160048201548152602001600582015481526020016006820154815250508282815181106115ae576115ad613f7c565b5b602002602001018190525080600101905061147d565b5080935050505090565b813373ffffffffffffffffffffffffffffffffffffffff166006600083815260200190815260200160002060010160009054906101000a900473ffffffffffffffffffffffffffffffffffffffff1673ffffffffffffffffffffffffffffffffffffffff161461166a576040517f0d9ff29600000000000000000000000000000000000000000000000000000000815260040160405180910390fd5b42826116769190613ef7565b915060006040518060a001604052808581526020013373ffffffffffffffffffffffffffffffffffffffff168152602001600660008781526020019081526020016000206002015481526020016000815260200184815250905080600660008681526020019081526020016000206000820151816000015560208201518160010160006101000a81548173ffffffffffffffffffffffffffffffffffffffff021916908373ffffffffffffffffffffffffffffffffffffffff1602179055506040820151816002015560608201518160030155608082015181600401559050506117a784600e60003373ffffffffffffffffffffffffffffffffffffffff1673ffffffffffffffffffffffffffffffffffffffff16815260200190815260200160002061301990919063ffffffff16565b506117f984600e60003373ffffffffffffffffffffffffffffffffffffffff1673ffffffffffffffffffffffffffffffffffffffff16815260200190815260200160002061303390919063ffffffff16565b5050505050565b600081141561183b576040517f8e277c2c00000000000000000000000000000000000000000000000000000000815260040160405180910390fd5b611845600061304d565b61184f600161304d565b600060405180606001604052806118666000613063565b81526020013373ffffffffffffffffffffffffffffffffffffffff1681526020016000600381111561189b5761189a6139d9565b5b815250905060006040518060a001604052806118b76001613063565b81526020013373ffffffffffffffffffffffffffffffffffffffff168152602001600660006118e66001613063565b81526020019081526020016000206002015481526020018481526020016000815250905081600560006119196000613063565b81526020019081526020016000206000820151816000015560208201518160010160006101000a81548173ffffffffffffffffffffffffffffffffffffffff021916908373ffffffffffffffffffffffffffffffffffffffff16021790555060408201518160010160146101000a81548160ff021916908360038111156119a3576119a26139d9565b5b021790555090505080600660006119ba6001613063565b81526020019081526020016000206000820151816000015560208201518160010160006101000a81548173ffffffffffffffffffffffffffffffffffffffff021916908373ffffffffffffffffffffffffffffffffffffffff160217905550604082015181600201556060820151816003015560808201518160040155905050600a60003373ffffffffffffffffffffffffffffffffffffffff1673ffffffffffffffffffffffffffffffffffffffff168152602001908152602001600020611a836001613063565b9080600181540180825580915050600190039060005260206000200160009091909190915055611afe8160000151600e60003373ffffffffffffffffffffffffffffffffffffffff1673ffffffffffffffffffffffffffffffffffffffff16815260200190815260200160002061303390919063ffffffff16565b50505050565b611b0c613218565b600960008381526020019081526020016000206040518060a0016040529081600082015481526020016001820160009054906101000a900473ffffffffffffffffffffffffffffffffffffffff1673ffffffffffffffffffffffffffffffffffffffff1673ffffffffffffffffffffffffffffffffffffffff1681526020016002820160009054906101000a900473ffffffffffffffffffffffffffffffffffffffff1673ffffffffffffffffffffffffffffffffffffffff1673ffffffffffffffffffffffffffffffffffffffff168152602001600382015481526020016004820154815250509050919050565b6000811415611c36576040517f8e277c2c00000000000000000000000000000000000000000000000000000000815260040160405180910390fd5b611c40600061304d565b611c4a600161304d565b4281611c569190613ef7565b905060006040518060600160405280611c6f6000613063565b81526020013373ffffffffffffffffffffffffffffffffffffffff16815260200160006003811115611ca457611ca36139d9565b5b815250905060006040518060a00160405280611cc06001613063565b81526020013373ffffffffffffffffffffffffffffffffffffffff16815260200160066000611cef6001613063565b8152602001908152602001600020600201548152602001600081526020018481525090508160056000611d226000613063565b81526020019081526020016000206000820151816000015560208201518160010160006101000a81548173ffffffffffffffffffffffffffffffffffffffff021916908373ffffffffffffffffffffffffffffffffffffffff16021790555060408201518160010160146101000a81548160ff02191690836003811115611dac57611dab6139d9565b5b02179055509050508060066000611dc36001613063565b81526020019081526020016000206000820151816000015560208201518160010160006101000a81548173ffffffffffffffffffffffffffffffffffffffff021916908373ffffffffffffffffffffffffffffffffffffffff160217905550604082015181600201556060820151816003015560808201518160040155905050600a60003373ffffffffffffffffffffffffffffffffffffffff1673ffffffffffffffffffffffffffffffffffffffff168152602001908152602001600020611e8c6001613063565b9080600181540180825580915050600190039060005260206000200160009091909190915055611f078160000151600e60003373ffffffffffffffffffffffffffffffffffffffff1673ffffffffffffffffffffffffffffffffffffffff16815260200190815260200160002061303390919063ffffffff16565b50505050565b611f15613273565b600760008381526020019081526020016000206040518060e0016040529081600082015481526020016001820160009054906101000a900473ffffffffffffffffffffffffffffffffffffffff1673ffffffffffffffffffffffffffffffffffffffff1673ffffffffffffffffffffffffffffffffffffffff1681526020016002820160009054906101000a900473ffffffffffffffffffffffffffffffffffffffff1673ffffffffffffffffffffffffffffffffffffffff1673ffffffffffffffffffffffffffffffffffffffff1681526020016003820154815260200160048201548152602001600582015481526020016006820154815250509050919050565b600073ffffffffffffffffffffffffffffffffffffffff168273ffffffffffffffffffffffffffffffffffffffff1614806120535750600081145b1561208a576040517f8e277c2c00000000000000000000000000000000000000000000000000000000815260040160405180910390fd5b612094600061304d565b61209e600461304d565b42816120aa9190613ef7565b9050600060405180606001604052806120c36000613063565b81526020013373ffffffffffffffffffffffffffffffffffffffff1681526020016003808111156120f7576120f66139d9565b5b815250905060006040518060a001604052806121136004613063565b81526020013373ffffffffffffffffffffffffffffffffffffffff1681526020018573ffffffffffffffffffffffffffffffffffffffff168152602001848152602001600960006121646004613063565b8152602001908152602001600020600401548152509050816005600061218a6000613063565b81526020019081526020016000206000820151816000015560208201518160010160006101000a81548173ffffffffffffffffffffffffffffffffffffffff021916908373ffffffffffffffffffffffffffffffffffffffff16021790555060408201518160010160146101000a81548160ff02191690836003811115612214576122136139d9565b5b0217905550905050806009600061222b6004613063565b81526020019081526020016000206000820151816000015560208201518160010160006101000a81548173ffffffffffffffffffffffffffffffffffffffff021916908373ffffffffffffffffffffffffffffffffffffffff16021790555060408201518160020160006101000a81548173ffffffffffffffffffffffffffffffffffffffff021916908373ffffffffffffffffffffffffffffffffffffffff1602179055506060820151816003015560808201518160040155905050600d60003373ffffffffffffffffffffffffffffffffffffffff1673ffffffffffffffffffffffffffffffffffffffff1681526020019081526020016000206123316004613063565b9080600181540180825580915050600190039060005260206000200160009091909190915055601460008573ffffffffffffffffffffffffffffffffffffffff1673ffffffffffffffffffffffffffffffffffffffff1681526020019081526020016000206123a06004613063565b908060018154018082558091505060019003906000526020600020016000909190919091505561241b8160000151601160003373ffffffffffffffffffffffffffffffffffffffff1673ffffffffffffffffffffffffffffffffffffffff16815260200190815260200160002061303390919063ffffffff16565b5050505050565b600073ffffffffffffffffffffffffffffffffffffffff168473ffffffffffffffffffffffffffffffffffffffff16148061245d5750600083145b806124685750600082145b806124735750600081145b156124aa576040517f8e277c2c00000000000000000000000000000000000000000000000000000000815260040160405180910390fd5b6124b4600061304d565b6124be600361304d565b42836124ca9190613ef7565b9250600060405180606001604052806124e36000613063565b81526020013373ffffffffffffffffffffffffffffffffffffffff16815260200160026003811115612518576125176139d9565b5b815250905060006040518060e001604052806125346003613063565b81526020013373ffffffffffffffffffffffffffffffffffffffff1681526020018773ffffffffffffffffffffffffffffffffffffffff1681526020016008600061257f6003613063565b815260200190815260200160002060030154815260200186815260200185815260200184815250905081600560006125b76000613063565b81526020019081526020016000206000820151816000015560208201518160010160006101000a81548173ffffffffffffffffffffffffffffffffffffffff021916908373ffffffffffffffffffffffffffffffffffffffff16021790555060408201518160010160146101000a81548160ff02191690836003811115612641576126406139d9565b5b021790555090505080600860006126586003613063565b81526020019081526020016000206000820151816000015560208201518160010160006101000a81548173ffffffffffffffffffffffffffffffffffffffff021916908373ffffffffffffffffffffffffffffffffffffffff16021790555060408201518160020160006101000a81548173ffffffffffffffffffffffffffffffffffffffff021916908373ffffffffffffffffffffffffffffffffffffffff160217905550606082015181600301556080820151816004015560a0820151816005015560c0820151816006015590505084601660006127386003613063565b815260200190815260200160002081905550600c60003373ffffffffffffffffffffffffffffffffffffffff1673ffffffffffffffffffffffffffffffffffffffff1681526020019081526020016000206127936003613063565b9080600181540180825580915050600190039060005260206000200160009091909190915055601360008773ffffffffffffffffffffffffffffffffffffffff1673ffffffffffffffffffffffffffffffffffffffff1681526020019081526020016000206128026003613063565b908060018154018082558091505060019003906000526020600020016000909190919091505561287d8160000151601060003373ffffffffffffffffffffffffffffffffffffffff1673ffffffffffffffffffffffffffffffffffffffff16815260200190815260200160002061303390919063ffffffff16565b50505050505050565b813373ffffffffffffffffffffffffffffffffffffffff166006600083815260200190815260200160002060010160009054906101000a900473ffffffffffffffffffffffffffffffffffffffff1673ffffffffffffffffffffffffffffffffffffffff1614612922576040517f0d9ff29600000000000000000000000000000000000000000000000000000000815260040160405180910390fd5b60006040518060a001604052808581526020013373ffffffffffffffffffffffffffffffffffffffff168152602001600660008781526020019081526020016000206002015481526020018481526020016000815250905080600660008681526020019081526020016000206000820151816000015560208201518160010160006101000a81548173ffffffffffffffffffffffffffffffffffffffff021916908373ffffffffffffffffffffffffffffffffffffffff160217905550604082015181600201556060820151816003015560808201518160040155905050612a5184600e60003373ffffffffffffffffffffffffffffffffffffffff1673ffffffffffffffffffffffffffffffffffffffff16815260200190815260200160002061301990919063ffffffff16565b50612aa384600e60003373ffffffffffffffffffffffffffffffffffffffff1673ffffffffffffffffffffffffffffffffffffffff16815260200190815260200160002061303390919063ffffffff16565b5050505050565b600073ffffffffffffffffffffffffffffffffffffffff168473ffffffffffffffffffffffffffffffffffffffff161480612ae55750600083145b80612af05750600082145b80612afb5750600081145b15612b32576040517f8e277c2c00000000000000000000000000000000000000000000000000000000815260040160405180910390fd5b612b3c600061304d565b612b46600261304d565b4283612b529190613ef7565b925060006040518060600160405280612b6b6000613063565b81526020013373ffffffffffffffffffffffffffffffffffffffff16815260200160016003811115612ba057612b9f6139d9565b5b815250905060006040518060e00160405280612bbc6002613063565b81526020013373ffffffffffffffffffffffffffffffffffffffff1681526020018773ffffffffffffffffffffffffffffffffffffffff16815260200160076000612c076002613063565b81526020019081526020016000206003015481526020018681526020018581526020018481525090508160056000612c3f6000613063565b81526020019081526020016000206000820151816000015560208201518160010160006101000a81548173ffffffffffffffffffffffffffffffffffffffff021916908373ffffffffffffffffffffffffffffffffffffffff16021790555060408201518160010160146101000a81548160ff02191690836003811115612cc957612cc86139d9565b5b02179055509050508060076000612ce06002613063565b81526020019081526020016000206000820151816000015560208201518160010160006101000a81548173ffffffffffffffffffffffffffffffffffffffff021916908373ffffffffffffffffffffffffffffffffffffffff16021790555060408201518160020160006101000a81548173ffffffffffffffffffffffffffffffffffffffff021916908373ffffffffffffffffffffffffffffffffffffffff160217905550606082015181600301556080820151816004015560a0820151816005015560c082015181600601559050508460156000612dc06002613063565b815260200190815260200160002081905550600b60003373ffffffffffffffffffffffffffffffffffffffff1673ffffffffffffffffffffffffffffffffffffffff168152602001908152602001600020612e1b6002613063565b9080600181540180825580915050600190039060005260206000200160009091909190915055601260008773ffffffffffffffffffffffffffffffffffffffff1673ffffffffffffffffffffffffffffffffffffffff168152602001908152602001600020612e8a6002613063565b9080600181540180825580915050600190039060005260206000200160009091909190915055612f058160000151600f60003373ffffffffffffffffffffffffffffffffffffffff1673ffffffffffffffffffffffffffffffffffffffff16815260200190815260200160002061303390919063ffffffff16565b50505050505050565b612f1661336a565b600860008381526020019081526020016000206040518060e0016040529081600082015481526020016001820160009054906101000a900473ffffffffffffffffffffffffffffffffffffffff1673ffffffffffffffffffffffffffffffffffffffff1673ffffffffffffffffffffffffffffffffffffffff1681526020016002820160009054906101000a900473ffffffffffffffffffffffffffffffffffffffff1673ffffffffffffffffffffffffffffffffffffffff1673ffffffffffffffffffffffffffffffffffffffff1681526020016003820154815260200160048201548152602001600582015481526020016006820154815250509050919050565b600061302b836000018360001b613071565b905092915050565b6000613045836000018360001b613185565b905092915050565b6001816000016000828254019250508190555050565b600081600001549050919050565b600080836001016000848152602001908152602001600020549050600081146131795760006001826130a39190613fab565b90506000600186600001805490506130bb9190613fab565b905081811461312a5760008660000182815481106130dc576130db613f7c565b5b9060005260206000200154905080876000018481548110613100576130ff613f7c565b5b90600052602060002001819055508387600101600083815260200190815260200160002081905550505b8560000180548061313e5761313d613fdf565b5b60019003818190600052602060002001600090559055856001016000868152602001908152602001600020600090556001935050505061317f565b60009150505b92915050565b600061319183836131f5565b6131ea5782600001829080600181540180825580915050600190039060005260206000200160009091909190915055826000018054905083600101600084815260200190815260200160002081905550600190506131ef565b600090505b92915050565b600080836001016000848152602001908152602001600020541415905092915050565b6040518060a0016040528060008152602001600073ffffffffffffffffffffffffffffffffffffffff168152602001600073ffffffffffffffffffffffffffffffffffffffff16815260200160008152602001600081525090565b6040518060e0016040528060008152602001600073ffffffffffffffffffffffffffffffffffffffff168152602001600073ffffffffffffffffffffffffffffffffffffffff168152602001600081526020016000815260200160008152602001600081525090565b6040518060a0016040528060008152602001600073ffffffffffffffffffffffffffffffffffffffff1681526020016000815260200160008152602001600081525090565b604051806060016040528060008152602001600073ffffffffffffffffffffffffffffffffffffffff16815260200160006003811115613364576133636139d9565b5b81525090565b6040518060e0016040528060008152602001600073ffffffffffffffffffffffffffffffffffffffff168152602001600073ffffffffffffffffffffffffffffffffffffffff168152602001600081526020016000815260200160008152602001600081525090565b600080fd5b6000819050919050565b6133eb816133d8565b81146133f657600080fd5b50565b600081359050613408816133e2565b92915050565b600073ffffffffffffffffffffffffffffffffffffffff82169050919050565b60006134398261340e565b9050919050565b6134498161342e565b811461345457600080fd5b50565b60008135905061346681613440565b92915050565b600080600080600060a08688031215613488576134876133d3565b5b6000613496888289016133f9565b95505060206134a788828901613457565b94505060406134b8888289016133f9565b93505060606134c9888289016133f9565b92505060806134da888289016133f9565b9150509295509295909350565b600081519050919050565b600082825260208201905092915050565b6000819050602082019050919050565b61351c816133d8565b82525050565b61352b8161342e565b82525050565b60a0820160008201516135476000850182613513565b50602082015161355a6020850182613522565b50604082015161356d6040850182613522565b5060608201516135806060850182613513565b5060808201516135936080850182613513565b50505050565b60006135a58383613531565b60a08301905092915050565b6000602082019050919050565b60006135c9826134e7565b6135d381856134f2565b93506135de83613503565b8060005b8381101561360f5781516135f68882613599565b9750613601836135b1565b9250506001810190506135e2565b5085935050505092915050565b6000602082019050818103600083015261363681846135be565b905092915050565b600081519050919050565b600082825260208201905092915050565b6000819050602082019050919050565b60e0820160008201516136806000850182613513565b5060208201516136936020850182613522565b5060408201516136a66040850182613522565b5060608201516136b96060850182613513565b5060808201516136cc6080850182613513565b5060a08201516136df60a0850182613513565b5060c08201516136f260c0850182613513565b50505050565b6000613704838361366a565b60e08301905092915050565b6000602082019050919050565b60006137288261363e565b6137328185613649565b935061373d8361365a565b8060005b8381101561376e57815161375588826136f8565b975061376083613710565b925050600181019050613741565b5085935050505092915050565b60006020820190508181036000830152613795818461371d565b905092915050565b6000602082840312156137b3576137b26133d3565b5b60006137c1848285016133f9565b91505092915050565b60a0820160008201516137e06000850182613513565b5060208201516137f36020850182613522565b5060408201516138066040850182613513565b5060608201516138196060850182613513565b50608082015161382c6080850182613513565b50505050565b600060a08201905061384760008301846137ca565b92915050565b600081519050919050565b600082825260208201905092915050565b6000819050602082019050919050565b60a08201600082015161388f6000850182613513565b5060208201516138a26020850182613522565b5060408201516138b56040850182613513565b5060608201516138c86060850182613513565b5060808201516138db6080850182613513565b50505050565b60006138ed8383613879565b60a08301905092915050565b6000602082019050919050565b60006139118261384d565b61391b8185613858565b935061392683613869565b8060005b8381101561395757815161393e88826138e1565b9750613949836138f9565b92505060018101905061392a565b5085935050505092915050565b6000602082019050818103600083015261397e8184613906565b905092915050565b60008060006060848603121561399f5761399e6133d3565b5b60006139ad868287016133f9565b93505060206139be86828701613457565b92505060406139cf868287016133f9565b9150509250925092565b7f4e487b7100000000000000000000000000000000000000000000000000000000600052602160045260246000fd5b60048110613a1957613a186139d9565b5b50565b6000819050613a2a82613a08565b919050565b6000613a3a82613a1c565b9050919050565b613a4a81613a2f565b82525050565b606082016000820151613a666000850182613513565b506020820151613a796020850182613522565b506040820151613a8c6040850182613a41565b50505050565b6000606082019050613aa76000830184613a50565b92915050565b600081519050919050565b600082825260208201905092915050565b6000819050602082019050919050565b60e082016000820151613aef6000850182613513565b506020820151613b026020850182613522565b506040820151613b156040850182613522565b506060820151613b286060850182613513565b506080820151613b3b6080850182613513565b5060a0820151613b4e60a0850182613513565b5060c0820151613b6160c0850182613513565b50505050565b6000613b738383613ad9565b60e08301905092915050565b6000602082019050919050565b6000613b9782613aad565b613ba18185613ab8565b9350613bac83613ac9565b8060005b83811015613bdd578151613bc48882613b67565b9750613bcf83613b7f565b925050600181019050613bb0565b5085935050505092915050565b60006020820190508181036000830152613c048184613b8c565b905092915050565b60008060408385031215613c2357613c226133d3565b5b6000613c31858286016133f9565b9250506020613c42858286016133f9565b9150509250929050565b60a082016000820151613c626000850182613513565b506020820151613c756020850182613522565b506040820151613c886040850182613522565b506060820151613c9b6060850182613513565b506080820151613cae6080850182613513565b50505050565b600060a082019050613cc96000830184613c4c565b92915050565b60e082016000820151613ce56000850182613513565b506020820151613cf86020850182613522565b506040820151613d0b6040850182613522565b506060820151613d1e6060850182613513565b506080820151613d316080850182613513565b5060a0820151613d4460a0850182613513565b5060c0820151613d5760c0850182613513565b50505050565b600060e082019050613d726000830184613ccf565b92915050565b60008060408385031215613d8f57613d8e6133d3565b5b6000613d9d85828601613457565b9250506020613dae858286016133f9565b9150509250929050565b60008060008060808587031215613dd257613dd16133d3565b5b6000613de087828801613457565b9450506020613df1878288016133f9565b9350506040613e02878288016133f9565b9250506060613e13878288016133f9565b91505092959194509250565b60e082016000820151613e356000850182613513565b506020820151613e486020850182613522565b506040820151613e5b6040850182613522565b506060820151613e6e6060850182613513565b506080820151613e816080850182613513565b5060a0820151613e9460a0850182613513565b5060c0820151613ea760c0850182613513565b50505050565b600060e082019050613ec26000830184613e1f565b92915050565b7f4e487b7100000000000000000000000000000000000000000000000000000000600052601160045260246000fd5b6000613f02826133d8565b9150613f0d836133d8565b9250827fffffffffffffffffffffffffffffffffffffffffffffffffffffffffffffffff03821115613f4257613f41613ec8565b5b828201905092915050565b7f4e487b7100000000000000000000000000000000000000000000000000000000600052604160045260246000fd5b7f4e487b7100000000000000000000000000000000000000000000000000000000600052603260045260246000fd5b6000613fb6826133d8565b9150613fc1836133d8565b925082821015613fd457613fd3613ec8565b5b828203905092915050565b7f4e487b7100000000000000000000000000000000000000000000000000000000600052603160045260246000fdfea2646970667358221220b19c871ee3ae210e9fe5eaa24fc6f1e8d6917e3f33f64f75e51e63621b21d91264736f6c63430008090033",
  "linkReferences": {},
  "deployedLinkReferences": {}
}