{
  "_format": "hh-sol-artifact-1",
  "contractName": "Atium",
  "sourceName": "contracts/Atium.sol",
  "abi": [
    {
      "inputs": [],
      "name": "Atium_Cancelled",
      "type": "error"
    },
    {
      "inputs": [],
      "name": "Atium_NoWithdrawal",
      "type": "error"
    },
    {
      "inputs": [],
      "name": "Atium_NotAmount",
      "type": "error"
    },
    {
      "inputs": [],
      "name": "Atium_NotOwnerId",
      "type": "error"
    },
    {
      "inputs": [],
      "name": "Atium_NotReceiverId",
      "type": "error"
    },
    {
      "inputs": [
        {
          "internalType": "uint256",
          "name": "goal",
          "type": "uint256"
        },
        {
          "internalType": "uint256",
          "name": "rem",
          "type": "uint256"
        }
      ],
      "name": "Atium_SavingsGoal_Exceeded",
      "type": "error"
    },
    {
      "inputs": [],
      "name": "Atium_SavingsGoal_Not_Hit",
      "type": "error"
    },
    {
      "inputs": [],
      "name": "Atium_TransactionFailed",
      "type": "error"
    },
    {
      "inputs": [
        {
          "internalType": "uint256",
          "name": "_id",
          "type": "uint256"
        },
        {
          "internalType": "uint256",
          "name": "_amount",
          "type": "uint256"
        }
      ],
      "name": "allowance",
      "outputs": [],
      "stateMutability": "payable",
      "type": "function"
    },
    {
      "inputs": [
        {
          "internalType": "address",
          "name": "_receiver",
          "type": "address"
        },
        {
          "internalType": "uint256",
          "name": "_startDate",
          "type": "uint256"
        },
        {
          "internalType": "uint256",
          "name": "_amount",
          "type": "uint256"
        },
        {
          "internalType": "uint256",
          "name": "_interval",
          "type": "uint256"
        }
      ],
      "name": "allowancePlan",
      "outputs": [],
      "stateMutability": "nonpayable",
      "type": "function"
    },
    {
      "inputs": [
        {
          "internalType": "uint256",
          "name": "_id",
          "type": "uint256"
        }
      ],
      "name": "cancelAllowance",
      "outputs": [],
      "stateMutability": "nonpayable",
      "type": "function"
    },
    {
      "inputs": [
        {
          "internalType": "uint256",
          "name": "_id",
          "type": "uint256"
        }
      ],
      "name": "cancelGift",
      "outputs": [],
      "stateMutability": "nonpayable",
      "type": "function"
    },
    {
      "inputs": [
        {
          "internalType": "uint256",
          "name": "_id",
          "type": "uint256"
        }
      ],
      "name": "cancelSavings",
      "outputs": [],
      "stateMutability": "nonpayable",
      "type": "function"
    },
    {
      "inputs": [
        {
          "internalType": "uint256",
          "name": "_id",
          "type": "uint256"
        }
      ],
      "name": "cancelTrustfund",
      "outputs": [],
      "stateMutability": "nonpayable",
      "type": "function"
    },
    {
      "inputs": [
        {
          "internalType": "uint256",
          "name": "_id",
          "type": "uint256"
        },
        {
          "internalType": "address",
          "name": "_receiver",
          "type": "address"
        },
        {
          "internalType": "uint256",
          "name": "_startDate",
          "type": "uint256"
        },
        {
          "internalType": "uint256",
          "name": "_amount",
          "type": "uint256"
        },
        {
          "internalType": "uint256",
          "name": "_interval",
          "type": "uint256"
        }
      ],
      "name": "editAllowancePlan",
      "outputs": [],
      "stateMutability": "nonpayable",
      "type": "function"
    },
    {
      "inputs": [
        {
          "internalType": "uint256",
          "name": "_id",
          "type": "uint256"
        },
        {
          "internalType": "address",
          "name": "_receiver",
          "type": "address"
        },
        {
          "internalType": "uint256",
          "name": "_date",
          "type": "uint256"
        }
      ],
      "name": "editGiftPlan",
      "outputs": [],
      "stateMutability": "nonpayable",
      "type": "function"
    },
    {
      "inputs": [
        {
          "internalType": "uint256",
          "name": "_id",
          "type": "uint256"
        },
        {
          "internalType": "uint256",
          "name": "_goal",
          "type": "uint256"
        }
      ],
      "name": "editSavingsPlanGoal",
      "outputs": [],
      "stateMutability": "nonpayable",
      "type": "function"
    },
    {
      "inputs": [
        {
          "internalType": "uint256",
          "name": "_id",
          "type": "uint256"
        },
        {
          "internalType": "uint256",
          "name": "_time",
          "type": "uint256"
        }
      ],
      "name": "editSavingsPlanTime",
      "outputs": [],
      "stateMutability": "nonpayable",
      "type": "function"
    },
    {
      "inputs": [
        {
          "internalType": "uint256",
          "name": "_id",
          "type": "uint256"
        },
        {
          "internalType": "address",
          "name": "_receiver",
          "type": "address"
        },
        {
          "internalType": "uint256",
          "name": "_startDate",
          "type": "uint256"
        },
        {
          "internalType": "uint256",
          "name": "_amount",
          "type": "uint256"
        },
        {
          "internalType": "uint256",
          "name": "_interval",
          "type": "uint256"
        }
      ],
      "name": "editTrustfundPlan",
      "outputs": [],
      "stateMutability": "nonpayable",
      "type": "function"
    },
    {
      "inputs": [
        {
          "internalType": "uint256",
          "name": "_id",
          "type": "uint256"
        }
      ],
      "name": "getAllowance",
      "outputs": [
        {
          "components": [
            {
              "internalType": "uint256",
              "name": "id",
              "type": "uint256"
            },
            {
              "internalType": "address",
              "name": "sender",
              "type": "address"
            },
            {
              "internalType": "address",
              "name": "receiver",
              "type": "address"
            },
            {
              "internalType": "uint256",
              "name": "deposit",
              "type": "uint256"
            },
            {
              "internalType": "uint256",
              "name": "startDate",
              "type": "uint256"
            },
            {
              "internalType": "uint256",
              "name": "withdrawalAmount",
              "type": "uint256"
            },
            {
              "internalType": "uint256",
              "name": "withdrawalInterval",
              "type": "uint256"
            }
          ],
          "internalType": "struct AtiumPlan.AllowanceList",
          "name": "",
          "type": "tuple"
        }
      ],
      "stateMutability": "view",
      "type": "function"
    },
    {
      "inputs": [
        {
          "internalType": "uint256",
          "name": "_id",
          "type": "uint256"
        }
      ],
      "name": "getAtium",
      "outputs": [
        {
          "components": [
            {
              "internalType": "uint256",
              "name": "id",
              "type": "uint256"
            },
            {
              "internalType": "address",
              "name": "user",
              "type": "address"
            },
            {
              "internalType": "enum AtiumPlan.Select",
              "name": "select",
              "type": "uint8"
            }
          ],
          "internalType": "struct AtiumPlan.AtiumList",
          "name": "",
          "type": "tuple"
        }
      ],
      "stateMutability": "view",
      "type": "function"
    },
    {
      "inputs": [
        {
          "internalType": "uint256",
          "name": "_id",
          "type": "uint256"
        }
      ],
      "name": "getGift",
      "outputs": [
        {
          "components": [
            {
              "internalType": "uint256",
              "name": "id",
              "type": "uint256"
            },
            {
              "internalType": "address",
              "name": "sender",
              "type": "address"
            },
            {
              "internalType": "address",
              "name": "receiver",
              "type": "address"
            },
            {
              "internalType": "uint256",
              "name": "date",
              "type": "uint256"
            },
            {
              "internalType": "uint256",
              "name": "amount",
              "type": "uint256"
            }
          ],
          "internalType": "struct AtiumPlan.GiftList",
          "name": "",
          "type": "tuple"
        }
      ],
      "stateMutability": "view",
      "type": "function"
    },
    {
      "inputs": [
        {
          "internalType": "uint256",
          "name": "_id",
          "type": "uint256"
        }
      ],
      "name": "getSavings",
      "outputs": [
        {
          "components": [
            {
              "internalType": "uint256",
              "name": "id",
              "type": "uint256"
            },
            {
              "internalType": "address",
              "name": "user",
              "type": "address"
            },
            {
              "internalType": "uint256",
              "name": "amount",
              "type": "uint256"
            },
            {
              "internalType": "uint256",
              "name": "goal",
              "type": "uint256"
            },
            {
              "internalType": "uint256",
              "name": "time",
              "type": "uint256"
            }
          ],
          "internalType": "struct AtiumPlan.SavingsList",
          "name": "",
          "type": "tuple"
        }
      ],
      "stateMutability": "view",
      "type": "function"
    },
    {
      "inputs": [
        {
          "internalType": "uint256",
          "name": "_id",
          "type": "uint256"
        }
      ],
      "name": "getTrustfund",
      "outputs": [
        {
          "components": [
            {
              "internalType": "uint256",
              "name": "id",
              "type": "uint256"
            },
            {
              "internalType": "address",
              "name": "sender",
              "type": "address"
            },
            {
              "internalType": "address",
              "name": "receiver",
              "type": "address"
            },
            {
              "internalType": "uint256",
              "name": "amount",
              "type": "uint256"
            },
            {
              "internalType": "uint256",
              "name": "startDate",
              "type": "uint256"
            },
            {
              "internalType": "uint256",
              "name": "withdrawalAmount",
              "type": "uint256"
            },
            {
              "internalType": "uint256",
              "name": "withdrawalInterval",
              "type": "uint256"
            }
          ],
          "internalType": "struct AtiumPlan.TrustFundList",
          "name": "",
          "type": "tuple"
        }
      ],
      "stateMutability": "view",
      "type": "function"
    },
    {
      "inputs": [
        {
          "internalType": "uint256",
          "name": "_id",
          "type": "uint256"
        },
        {
          "internalType": "uint256",
          "name": "_amount",
          "type": "uint256"
        }
      ],
      "name": "gift",
      "outputs": [],
      "stateMutability": "payable",
      "type": "function"
    },
    {
      "inputs": [
        {
          "internalType": "address",
          "name": "_receiver",
          "type": "address"
        },
        {
          "internalType": "uint256",
          "name": "_date",
          "type": "uint256"
        }
      ],
      "name": "giftPlan",
      "outputs": [],
      "stateMutability": "nonpayable",
      "type": "function"
    },
    {
      "inputs": [
        {
          "internalType": "uint256",
          "name": "_id",
          "type": "uint256"
        },
        {
          "internalType": "uint256",
          "name": "_amount",
          "type": "uint256"
        }
      ],
      "name": "save",
      "outputs": [],
      "stateMutability": "payable",
      "type": "function"
    },
    {
      "inputs": [
        {
          "internalType": "uint256",
          "name": "_goal",
          "type": "uint256"
        }
      ],
      "name": "savingsPlanGoal",
      "outputs": [],
      "stateMutability": "nonpayable",
      "type": "function"
    },
    {
      "inputs": [
        {
          "internalType": "uint256",
          "name": "_time",
          "type": "uint256"
        }
      ],
      "name": "savingsPlanTime",
      "outputs": [],
      "stateMutability": "nonpayable",
      "type": "function"
    },
    {
      "inputs": [
        {
          "internalType": "uint256",
          "name": "_id",
          "type": "uint256"
        },
        {
          "internalType": "uint256",
          "name": "_amount",
          "type": "uint256"
        }
      ],
      "name": "trustfund",
      "outputs": [],
      "stateMutability": "payable",
      "type": "function"
    },
    {
      "inputs": [
        {
          "internalType": "address",
          "name": "_receiver",
          "type": "address"
        },
        {
          "internalType": "uint256",
          "name": "_startDate",
          "type": "uint256"
        },
        {
          "internalType": "uint256",
          "name": "_amount",
          "type": "uint256"
        },
        {
          "internalType": "uint256",
          "name": "_interval",
          "type": "uint256"
        }
      ],
      "name": "trustfundPlan",
      "outputs": [],
      "stateMutability": "nonpayable",
      "type": "function"
    },
    {
      "inputs": [
        {
          "internalType": "uint256",
          "name": "_id",
          "type": "uint256"
        }
      ],
      "name": "w_allowance",
      "outputs": [],
      "stateMutability": "nonpayable",
      "type": "function"
    },
    {
      "inputs": [
        {
          "internalType": "uint256",
          "name": "_id",
          "type": "uint256"
        }
      ],
      "name": "w_gift",
      "outputs": [],
      "stateMutability": "nonpayable",
      "type": "function"
    },
    {
      "inputs": [
        {
          "internalType": "uint256",
          "name": "_id",
          "type": "uint256"
        }
      ],
      "name": "w_save",
      "outputs": [],
      "stateMutability": "nonpayable",
      "type": "function"
    },
    {
      "inputs": [
        {
          "internalType": "uint256",
          "name": "_id",
          "type": "uint256"
        }
      ],
      "name": "w_trustfund",
      "outputs": [],
      "stateMutability": "nonpayable",
      "type": "function"
    },
    {
      "stateMutability": "payable",
      "type": "receive"
    }
  ],
  "bytecode": "0x608060405234801561001057600080fd5b506143c6806100206000396000f3fe6080604052600436106101a05760003560e01c80639378d65a116100ec578063cca16fa81161008a578063e4d9fff811610064578063e4d9fff814610577578063eb514900146105a0578063ed5579fc146105c9578063fa278ae6146105f2576101a7565b8063cca16fa814610509578063d14fb6db14610525578063d67d10dc1461054e576101a7565b8063ad31cc9f116100c6578063ad31cc9f1461043d578063bf6713f614610466578063c315d635146104a3578063c960174e146104cc576101a7565b80639378d65a146103c2578063a0781399146103eb578063aca9d54c14610414576101a7565b80635029919b116101595780636c793fc9116101335780636c793fc91461032b57806383a74acc14610354578063872c6095146103705780638ee69ae814610399576101a7565b80635029919b146102ca57806357fc0363146102f3578063640117be1461030f576101a7565b8063024025f4146101ac5780631072354b146101d557806313bfb182146101fe5780631f7525d01461023b5780633d53316b146102645780633e346eeb1461028d576101a7565b366101a757005b600080fd5b3480156101b857600080fd5b506101d360048036038101906101ce9190613d2d565b61062f565b005b3480156101e157600080fd5b506101fc60048036038101906101f79190613da8565b610840565b005b34801561020a57600080fd5b5061022560048036038101906102209190613da8565b610981565b6040516102329190613e5b565b60405180910390f35b34801561024757600080fd5b50610262600480360381019061025d9190613da8565b610a2c565b005b34801561027057600080fd5b5061028b60048036038101906102869190613e76565b610c7c565b005b34801561029957600080fd5b506102b460048036038101906102af9190613da8565b610e66565b6040516102c19190613f82565b60405180910390f35b3480156102d657600080fd5b506102f160048036038101906102ec9190613d2d565b610f2e565b005b61030d60048036038101906103089190613f9d565b611131565b005b61032960048036038101906103249190613f9d565b6114b1565b005b34801561033757600080fd5b50610352600480360381019061034d9190613da8565b61184f565b005b61036e60048036038101906103699190613f9d565b611a9f565b005b34801561037c57600080fd5b5061039760048036038101906103929190613f9d565b611dc7565b005b3480156103a557600080fd5b506103c060048036038101906103bb9190613da8565b611f55565b005b3480156103ce57600080fd5b506103e960048036038101906103e49190613da8565b612096565b005b3480156103f757600080fd5b50610412600480360381019061040d9190613da8565b6121d7565b005b34801561042057600080fd5b5061043b60048036038101906104369190613da8565b61235d565b005b34801561044957600080fd5b50610464600480360381019061045f9190613da8565b6125c1565b005b34801561047257600080fd5b5061048d60048036038101906104889190613da8565b6127c5565b60405161049a9190614045565b60405180910390f35b3480156104af57600080fd5b506104ca60048036038101906104c59190613da8565b6128bc565b005b3480156104d857600080fd5b506104f360048036038101906104ee9190613da8565b612ace565b60405161050091906140ee565b60405180910390f35b610523600480360381019061051e9190613f9d565b612bd9565b005b34801561053157600080fd5b5061054c60048036038101906105479190614109565b612f77565b005b34801561055a57600080fd5b5061057560048036038101906105709190614149565b6131db565b005b34801561058357600080fd5b5061059e60048036038101906105999190613da8565b613462565b005b3480156105ac57600080fd5b506105c760048036038101906105c29190613f9d565b6135a3565b005b3480156105d557600080fd5b506105f060048036038101906105eb9190614149565b613723565b005b3480156105fe57600080fd5b5061061960048036038101906106149190613da8565b6139aa565b604051610626919061423e565b60405180910390f35b843373ffffffffffffffffffffffffffffffffffffffff166007600083815260200190815260200160002060010160009054906101000a900473ffffffffffffffffffffffffffffffffffffffff1673ffffffffffffffffffffffffffffffffffffffff16146106cb576040517f0d9ff29600000000000000000000000000000000000000000000000000000000815260040160405180910390fd5b60006040518060e001604052808881526020013373ffffffffffffffffffffffffffffffffffffffff1681526020018773ffffffffffffffffffffffffffffffffffffffff168152602001600760008a8152602001908152602001600020600301548152602001428761073e9190614288565b965086815260200185815260200142856107589190614288565b945084815250905080600760008981526020019081526020016000206000820151816000015560208201518160010160006101000a81548173ffffffffffffffffffffffffffffffffffffffff021916908373ffffffffffffffffffffffffffffffffffffffff16021790555060408201518160020160006101000a81548173ffffffffffffffffffffffffffffffffffffffff021916908373ffffffffffffffffffffffffffffffffffffffff160217905550606082015181600301556080820151816004015560a0820151816005015560c0820151816006015590505050505050505050565b600c600082815260200190815260200160002060009054906101000a900460ff1615610898576040517f18fbf5ed00000000000000000000000000000000000000000000000000000000815260040160405180910390fd5b6001600c600083815260200190815260200160002060006101000a81548160ff02191690831515021790555060003373ffffffffffffffffffffffffffffffffffffffff1660086000848152602001908152602001600020600301546040516109009061430f565b60006040518083038185875af1925050503d806000811461093d576040519150601f19603f3d011682016040523d82523d6000602084013e610942565b606091505b505090508061097d576040517f75a8758900000000000000000000000000000000000000000000000000000000815260040160405180910390fd5b5050565b610989613ad9565b600660008381526020019081526020016000206040518060a0016040529081600082015481526020016001820160009054906101000a900473ffffffffffffffffffffffffffffffffffffffff1673ffffffffffffffffffffffffffffffffffffffff1673ffffffffffffffffffffffffffffffffffffffff16815260200160028201548152602001600382015481526020016004820154815250509050919050565b803373ffffffffffffffffffffffffffffffffffffffff166008600083815260200190815260200160002060020160009054906101000a900473ffffffffffffffffffffffffffffffffffffffff1673ffffffffffffffffffffffffffffffffffffffff1614610ac8576040517f1d53a4ad00000000000000000000000000000000000000000000000000000000815260040160405180910390fd5b600080600f6000858152602001908152602001600020541415610b17576040517fcd672d5d00000000000000000000000000000000000000000000000000000000815260040160405180910390fd5b6008600084815260200190815260200160002060050154600f6000858152602001908152602001600020541015610b5f57600f60008481526020019081526020016000205490505b6008600084815260200190815260200160002060050154600f60008581526020019081526020016000205410610ba957600860008481526020019081526020016000206005015490505b80600f60008581526020019081526020016000206000828254610bcc9190614324565b9250508190555060003373ffffffffffffffffffffffffffffffffffffffff1682604051610bf99061430f565b60006040518083038185875af1925050503d8060008114610c36576040519150601f19603f3d011682016040523d82523d6000602084013e610c3b565b606091505b5050905080610c76576040517f75a8758900000000000000000000000000000000000000000000000000000000815260040160405180910390fd5b50505050565b823373ffffffffffffffffffffffffffffffffffffffff166009600083815260200190815260200160002060010160009054906101000a900473ffffffffffffffffffffffffffffffffffffffff1673ffffffffffffffffffffffffffffffffffffffff1614610d18576040517f0d9ff29600000000000000000000000000000000000000000000000000000000815260040160405180910390fd5b60006040518060a00160405280610d2f6004613ab5565b81526020013373ffffffffffffffffffffffffffffffffffffffff1681526020018573ffffffffffffffffffffffffffffffffffffffff1681526020014285610d789190614288565b94508481526020016009600088815260200190815260200160002060040154815250905080600960008781526020019081526020016000206000820151816000015560208201518160010160006101000a81548173ffffffffffffffffffffffffffffffffffffffff021916908373ffffffffffffffffffffffffffffffffffffffff16021790555060408201518160020160006101000a81548173ffffffffffffffffffffffffffffffffffffffff021916908373ffffffffffffffffffffffffffffffffffffffff16021790555060608201518160030155608082015181600401559050505050505050565b610e6e613b1e565b60056000838152602001908152602001600020604051806060016040529081600082015481526020016001820160009054906101000a900473ffffffffffffffffffffffffffffffffffffffff1673ffffffffffffffffffffffffffffffffffffffff1673ffffffffffffffffffffffffffffffffffffffff1681526020016001820160149054906101000a900460ff166003811115610f1157610f10613ec9565b5b6003811115610f2357610f22613ec9565b5b815250509050919050565b843373ffffffffffffffffffffffffffffffffffffffff166008600083815260200190815260200160002060010160009054906101000a900473ffffffffffffffffffffffffffffffffffffffff1673ffffffffffffffffffffffffffffffffffffffff1614610fca576040517f0d9ff29600000000000000000000000000000000000000000000000000000000815260040160405180910390fd5b60006040518060e001604052808881526020013373ffffffffffffffffffffffffffffffffffffffff1681526020018773ffffffffffffffffffffffffffffffffffffffff168152602001600860008a8152602001908152602001600020600301548152602001428761103d9190614288565b965086815260200185815260200184815250905080600860008981526020019081526020016000206000820151816000015560208201518160010160006101000a81548173ffffffffffffffffffffffffffffffffffffffff021916908373ffffffffffffffffffffffffffffffffffffffff16021790555060408201518160020160006101000a81548173ffffffffffffffffffffffffffffffffffffffff021916908373ffffffffffffffffffffffffffffffffffffffff160217905550606082015181600301556080820151816004015560a0820151816005015560c0820151816006015590505050505050505050565b813373ffffffffffffffffffffffffffffffffffffffff166006600083815260200190815260200160002060010160009054906101000a900473ffffffffffffffffffffffffffffffffffffffff1673ffffffffffffffffffffffffffffffffffffffff16146111cd576040517f0d9ff29600000000000000000000000000000000000000000000000000000000815260040160405180910390fd5b813414611206576040517f055932c300000000000000000000000000000000000000000000000000000000815260040160405180910390fd5b600660008481526020019081526020016000206003015460066000858152602001908152602001600020600201548361123f9190614288565b11156112d1576006600084815260200190815260200160002060030154600660008581526020019081526020016000206002015460066000868152602001908152602001600020600301546112949190614324565b6040517ff6f09cc80000000000000000000000000000000000000000000000000000000081526004016112c8929190614367565b60405180910390fd5b816006600085815260200190815260200160002060020160008282546112f79190614288565b9250508190555060006040518060a001604052808581526020013373ffffffffffffffffffffffffffffffffffffffff16815260200160066000878152602001908152602001600020600201548152602001600660008781526020019081526020016000206003015481526020016006600087815260200190815260200160002060040154815250905080600660008681526020019081526020016000206000820151816000015560208201518160010160006101000a81548173ffffffffffffffffffffffffffffffffffffffff021916908373ffffffffffffffffffffffffffffffffffffffff16021790555060408201518160020155606082015181600301556080820151816004015590505060003073ffffffffffffffffffffffffffffffffffffffff163460405161142d9061430f565b60006040518083038185875af1925050503d806000811461146a576040519150601f19603f3d011682016040523d82523d6000602084013e61146f565b606091505b50509050806114aa576040517f75a8758900000000000000000000000000000000000000000000000000000000815260040160405180910390fd5b5050505050565b813373ffffffffffffffffffffffffffffffffffffffff166008600083815260200190815260200160002060010160009054906101000a900473ffffffffffffffffffffffffffffffffffffffff1673ffffffffffffffffffffffffffffffffffffffff161461154d576040517f0d9ff29600000000000000000000000000000000000000000000000000000000815260040160405180910390fd5b813414611586576040517f055932c300000000000000000000000000000000000000000000000000000000815260040160405180910390fd5b816008600085815260200190815260200160002060030160008282546115ac9190614288565b9250508190555081600f600085815260200190815260200160002060008282546115d69190614288565b9250508190555060006040518060e001604052808581526020013373ffffffffffffffffffffffffffffffffffffffff1681526020016008600087815260200190815260200160002060020160009054906101000a900473ffffffffffffffffffffffffffffffffffffffff1673ffffffffffffffffffffffffffffffffffffffff1681526020016008600087815260200190815260200160002060030154815260200160086000878152602001908152602001600020600401548152602001600860008781526020019081526020016000206005015481526020016008600087815260200190815260200160002060060154815250905080600860008681526020019081526020016000206000820151816000015560208201518160010160006101000a81548173ffffffffffffffffffffffffffffffffffffffff021916908373ffffffffffffffffffffffffffffffffffffffff16021790555060408201518160020160006101000a81548173ffffffffffffffffffffffffffffffffffffffff021916908373ffffffffffffffffffffffffffffffffffffffff160217905550606082015181600301556080820151816004015560a0820151816005015560c0820151816006015590505060003073ffffffffffffffffffffffffffffffffffffffff16346040516117cb9061430f565b60006040518083038185875af1925050503d8060008114611808576040519150601f19603f3d011682016040523d82523d6000602084013e61180d565b606091505b5050905080611848576040517f75a8758900000000000000000000000000000000000000000000000000000000815260040160405180910390fd5b5050505050565b803373ffffffffffffffffffffffffffffffffffffffff166007600083815260200190815260200160002060020160009054906101000a900473ffffffffffffffffffffffffffffffffffffffff1673ffffffffffffffffffffffffffffffffffffffff16146118eb576040517f1d53a4ad00000000000000000000000000000000000000000000000000000000815260040160405180910390fd5b600080600e600085815260200190815260200160002054141561193a576040517fcd672d5d00000000000000000000000000000000000000000000000000000000815260040160405180910390fd5b6007600084815260200190815260200160002060050154600e600085815260200190815260200160002054101561198257600e60008481526020019081526020016000205490505b6007600084815260200190815260200160002060050154600e600085815260200190815260200160002054106119cc57600760008481526020019081526020016000206005015490505b80600e600085815260200190815260200160002060008282546119ef9190614324565b9250508190555060003373ffffffffffffffffffffffffffffffffffffffff1682604051611a1c9061430f565b60006040518083038185875af1925050503d8060008114611a59576040519150601f19603f3d011682016040523d82523d6000602084013e611a5e565b606091505b5050905080611a99576040517f75a8758900000000000000000000000000000000000000000000000000000000815260040160405180910390fd5b50505050565b813373ffffffffffffffffffffffffffffffffffffffff166009600083815260200190815260200160002060010160009054906101000a900473ffffffffffffffffffffffffffffffffffffffff1673ffffffffffffffffffffffffffffffffffffffff1614611b3b576040517f0d9ff29600000000000000000000000000000000000000000000000000000000815260040160405180910390fd5b813414611b74576040517f055932c300000000000000000000000000000000000000000000000000000000815260040160405180910390fd5b81600960008581526020019081526020016000206004016000828254611b9a9190614288565b9250508190555060006040518060a001604052808581526020013373ffffffffffffffffffffffffffffffffffffffff1681526020016009600087815260200190815260200160002060020160009054906101000a900473ffffffffffffffffffffffffffffffffffffffff1673ffffffffffffffffffffffffffffffffffffffff168152602001600960008781526020019081526020016000206003015481526020016009600087815260200190815260200160002060040154815250905080600960008681526020019081526020016000206000820151816000015560208201518160010160006101000a81548173ffffffffffffffffffffffffffffffffffffffff021916908373ffffffffffffffffffffffffffffffffffffffff16021790555060408201518160020160006101000a81548173ffffffffffffffffffffffffffffffffffffffff021916908373ffffffffffffffffffffffffffffffffffffffff160217905550606082015181600301556080820151816004015590505060003073ffffffffffffffffffffffffffffffffffffffff1634604051611d439061430f565b60006040518083038185875af1925050503d8060008114611d80576040519150601f19603f3d011682016040523d82523d6000602084013e611d85565b606091505b5050905080611dc0576040517f75a8758900000000000000000000000000000000000000000000000000000000815260040160405180910390fd5b5050505050565b813373ffffffffffffffffffffffffffffffffffffffff166006600083815260200190815260200160002060010160009054906101000a900473ffffffffffffffffffffffffffffffffffffffff1673ffffffffffffffffffffffffffffffffffffffff1614611e63576040517f0d9ff29600000000000000000000000000000000000000000000000000000000815260040160405180910390fd5b60006040518060a001604052808581526020013373ffffffffffffffffffffffffffffffffffffffff16815260200160066000878152602001908152602001600020600201548152602001600081526020014285611ec19190614288565b945084815250905080600660008681526020019081526020016000206000820151816000015560208201518160010160006101000a81548173ffffffffffffffffffffffffffffffffffffffff021916908373ffffffffffffffffffffffffffffffffffffffff16021790555060408201518160020155606082015181600301556080820151816004015590505050505050565b600d600082815260200190815260200160002060009054906101000a900460ff1615611fad576040517f18fbf5ed00000000000000000000000000000000000000000000000000000000815260040160405180910390fd5b6001600d600083815260200190815260200160002060006101000a81548160ff02191690831515021790555060003373ffffffffffffffffffffffffffffffffffffffff1660096000848152602001908152602001600020600401546040516120159061430f565b60006040518083038185875af1925050503d8060008114612052576040519150601f19603f3d011682016040523d82523d6000602084013e612057565b606091505b5050905080612092576040517f75a8758900000000000000000000000000000000000000000000000000000000815260040160405180910390fd5b5050565b600a600082815260200190815260200160002060009054906101000a900460ff16156120ee576040517f18fbf5ed00000000000000000000000000000000000000000000000000000000815260040160405180910390fd5b6001600a600083815260200190815260200160002060006101000a81548160ff02191690831515021790555060003373ffffffffffffffffffffffffffffffffffffffff1660066000848152602001908152602001600020600201546040516121569061430f565b60006040518083038185875af1925050503d8060008114612193576040519150601f19603f3d011682016040523d82523d6000602084013e612198565b606091505b50509050806121d3576040517f75a8758900000000000000000000000000000000000000000000000000000000815260040160405180910390fd5b5050565b803373ffffffffffffffffffffffffffffffffffffffff166009600083815260200190815260200160002060020160009054906101000a900473ffffffffffffffffffffffffffffffffffffffff1673ffffffffffffffffffffffffffffffffffffffff1614612273576040517f1d53a4ad00000000000000000000000000000000000000000000000000000000815260040160405180910390fd5b6001600d600084815260200190815260200160002060006101000a81548160ff02191690831515021790555060003373ffffffffffffffffffffffffffffffffffffffff1660096000858152602001908152602001600020600401546040516122db9061430f565b60006040518083038185875af1925050503d8060008114612318576040519150601f19603f3d011682016040523d82523d6000602084013e61231d565b606091505b5050905080612358576040517f75a8758900000000000000000000000000000000000000000000000000000000815260040160405180910390fd5b505050565b803373ffffffffffffffffffffffffffffffffffffffff166006600083815260200190815260200160002060010160009054906101000a900473ffffffffffffffffffffffffffffffffffffffff1673ffffffffffffffffffffffffffffffffffffffff16146123f9576040517f0d9ff29600000000000000000000000000000000000000000000000000000000815260040160405180910390fd5b6006600083815260200190815260200160002060030154600660008481526020019081526020016000206002015410806124485750600660008381526020019081526020016000206004015442105b1561247f576040517fa3fc45c600000000000000000000000000000000000000000000000000000000815260040160405180910390fd5b600a600083815260200190815260200160002060009054906101000a900460ff16156124d7576040517f18fbf5ed00000000000000000000000000000000000000000000000000000000815260040160405180910390fd5b6001600a600084815260200190815260200160002060006101000a81548160ff02191690831515021790555060003373ffffffffffffffffffffffffffffffffffffffff16600660008581526020019081526020016000206002015460405161253f9061430f565b60006040518083038185875af1925050503d806000811461257c576040519150601f19603f3d011682016040523d82523d6000602084013e612581565b606091505b50509050806125bc576040517f75a8758900000000000000000000000000000000000000000000000000000000815260040160405180910390fd5b505050565b6125cb6000613ac3565b6125d56001613ac3565b600060405180606001604052806125ec6000613ab5565b81526020013373ffffffffffffffffffffffffffffffffffffffff1681526020016000600381111561262157612620613ec9565b5b815250905060006040518060a0016040528061263d6001613ab5565b81526020013373ffffffffffffffffffffffffffffffffffffffff1681526020016006600061266c6001613ab5565b815260200190815260200160002060020154815260200184815260200160008152509050816005600061269f6000613ab5565b81526020019081526020016000206000820151816000015560208201518160010160006101000a81548173ffffffffffffffffffffffffffffffffffffffff021916908373ffffffffffffffffffffffffffffffffffffffff16021790555060408201518160010160146101000a81548160ff0219169083600381111561272957612728613ec9565b5b021790555090505080600660006127406001613ab5565b81526020019081526020016000206000820151816000015560208201518160010160006101000a81548173ffffffffffffffffffffffffffffffffffffffff021916908373ffffffffffffffffffffffffffffffffffffffff160217905550604082015181600201556060820151816003015560808201518160040155905050505050565b6127cd613b67565b600960008381526020019081526020016000206040518060a0016040529081600082015481526020016001820160009054906101000a900473ffffffffffffffffffffffffffffffffffffffff1673ffffffffffffffffffffffffffffffffffffffff1673ffffffffffffffffffffffffffffffffffffffff1681526020016002820160009054906101000a900473ffffffffffffffffffffffffffffffffffffffff1673ffffffffffffffffffffffffffffffffffffffff1673ffffffffffffffffffffffffffffffffffffffff168152602001600382015481526020016004820154815250509050919050565b6128c66000613ac3565b6128d06001613ac3565b42816128dc9190614288565b9050600060405180606001604052806128f56000613ab5565b81526020013373ffffffffffffffffffffffffffffffffffffffff1681526020016000600381111561292a57612929613ec9565b5b815250905060006040518060a001604052806129466001613ab5565b81526020013373ffffffffffffffffffffffffffffffffffffffff168152602001600660006129756001613ab5565b81526020019081526020016000206002015481526020016000815260200184815250905081600560006129a86000613ab5565b81526020019081526020016000206000820151816000015560208201518160010160006101000a81548173ffffffffffffffffffffffffffffffffffffffff021916908373ffffffffffffffffffffffffffffffffffffffff16021790555060408201518160010160146101000a81548160ff02191690836003811115612a3257612a31613ec9565b5b02179055509050508060066000612a496001613ab5565b81526020019081526020016000206000820151816000015560208201518160010160006101000a81548173ffffffffffffffffffffffffffffffffffffffff021916908373ffffffffffffffffffffffffffffffffffffffff160217905550604082015181600201556060820151816003015560808201518160040155905050505050565b612ad6613bc2565b600760008381526020019081526020016000206040518060e0016040529081600082015481526020016001820160009054906101000a900473ffffffffffffffffffffffffffffffffffffffff1673ffffffffffffffffffffffffffffffffffffffff1673ffffffffffffffffffffffffffffffffffffffff1681526020016002820160009054906101000a900473ffffffffffffffffffffffffffffffffffffffff1673ffffffffffffffffffffffffffffffffffffffff1673ffffffffffffffffffffffffffffffffffffffff1681526020016003820154815260200160048201548152602001600582015481526020016006820154815250509050919050565b813373ffffffffffffffffffffffffffffffffffffffff166007600083815260200190815260200160002060010160009054906101000a900473ffffffffffffffffffffffffffffffffffffffff1673ffffffffffffffffffffffffffffffffffffffff1614612c75576040517f0d9ff29600000000000000000000000000000000000000000000000000000000815260040160405180910390fd5b813414612cae576040517f055932c300000000000000000000000000000000000000000000000000000000815260040160405180910390fd5b81600760008581526020019081526020016000206003016000828254612cd49190614288565b9250508190555081600e60008581526020019081526020016000206000828254612cfe9190614288565b9250508190555060006040518060e001604052808581526020013373ffffffffffffffffffffffffffffffffffffffff1681526020016007600087815260200190815260200160002060020160009054906101000a900473ffffffffffffffffffffffffffffffffffffffff1673ffffffffffffffffffffffffffffffffffffffff1681526020016007600087815260200190815260200160002060030154815260200160076000878152602001908152602001600020600401548152602001600760008781526020019081526020016000206005015481526020016007600087815260200190815260200160002060060154815250905080600760008681526020019081526020016000206000820151816000015560208201518160010160006101000a81548173ffffffffffffffffffffffffffffffffffffffff021916908373ffffffffffffffffffffffffffffffffffffffff16021790555060408201518160020160006101000a81548173ffffffffffffffffffffffffffffffffffffffff021916908373ffffffffffffffffffffffffffffffffffffffff160217905550606082015181600301556080820151816004015560a0820151816005015560c0820151816006015590505060003073ffffffffffffffffffffffffffffffffffffffff1634604051612ef39061430f565b60006040518083038185875af1925050503d8060008114612f30576040519150601f19603f3d011682016040523d82523d6000602084013e612f35565b606091505b5050905080612f70576040517f75a8758900000000000000000000000000000000000000000000000000000000815260040160405180910390fd5b5050505050565b612f816000613ac3565b612f8b6004613ac3565b60006040518060600160405280612fa26000613ab5565b81526020013373ffffffffffffffffffffffffffffffffffffffff168152602001600380811115612fd657612fd5613ec9565b5b815250905060006040518060a00160405280612ff26004613ab5565b81526020013373ffffffffffffffffffffffffffffffffffffffff1681526020018573ffffffffffffffffffffffffffffffffffffffff168152602001428561303b9190614288565b9450848152602001600960006130516004613ab5565b815260200190815260200160002060040154815250905081600560006130776000613ab5565b81526020019081526020016000206000820151816000015560208201518160010160006101000a81548173ffffffffffffffffffffffffffffffffffffffff021916908373ffffffffffffffffffffffffffffffffffffffff16021790555060408201518160010160146101000a81548160ff0219169083600381111561310157613100613ec9565b5b021790555090505080600960006131186004613ab5565b81526020019081526020016000206000820151816000015560208201518160010160006101000a81548173ffffffffffffffffffffffffffffffffffffffff021916908373ffffffffffffffffffffffffffffffffffffffff16021790555060408201518160020160006101000a81548173ffffffffffffffffffffffffffffffffffffffff021916908373ffffffffffffffffffffffffffffffffffffffff160217905550606082015181600301556080820151816004015590505050505050565b6131e56000613ac3565b6131ef6003613ac3565b600060405180606001604052806132066000613ab5565b81526020013373ffffffffffffffffffffffffffffffffffffffff1681526020016002600381111561323b5761323a613ec9565b5b815250905060006040518060e001604052806132576003613ab5565b81526020013373ffffffffffffffffffffffffffffffffffffffff1681526020018773ffffffffffffffffffffffffffffffffffffffff168152602001600860006132a26003613ab5565b815260200190815260200160002060030154815260200142876132c59190614288565b965086815260200185815260200184815250905081600560006132e86000613ab5565b81526020019081526020016000206000820151816000015560208201518160010160006101000a81548173ffffffffffffffffffffffffffffffffffffffff021916908373ffffffffffffffffffffffffffffffffffffffff16021790555060408201518160010160146101000a81548160ff0219169083600381111561337257613371613ec9565b5b021790555090505080600860006133896003613ab5565b81526020019081526020016000206000820151816000015560208201518160010160006101000a81548173ffffffffffffffffffffffffffffffffffffffff021916908373ffffffffffffffffffffffffffffffffffffffff16021790555060408201518160020160006101000a81548173ffffffffffffffffffffffffffffffffffffffff021916908373ffffffffffffffffffffffffffffffffffffffff160217905550606082015181600301556080820151816004015560a0820151816005015560c08201518160060155905050505050505050565b600b600082815260200190815260200160002060009054906101000a900460ff16156134ba576040517f18fbf5ed00000000000000000000000000000000000000000000000000000000815260040160405180910390fd5b6001600b600083815260200190815260200160002060006101000a81548160ff02191690831515021790555060003373ffffffffffffffffffffffffffffffffffffffff1660076000848152602001908152602001600020600301546040516135229061430f565b60006040518083038185875af1925050503d806000811461355f576040519150601f19603f3d011682016040523d82523d6000602084013e613564565b606091505b505090508061359f576040517f75a8758900000000000000000000000000000000000000000000000000000000815260040160405180910390fd5b5050565b813373ffffffffffffffffffffffffffffffffffffffff166006600083815260200190815260200160002060010160009054906101000a900473ffffffffffffffffffffffffffffffffffffffff1673ffffffffffffffffffffffffffffffffffffffff161461363f576040517f0d9ff29600000000000000000000000000000000000000000000000000000000815260040160405180910390fd5b60006040518060a001604052808581526020013373ffffffffffffffffffffffffffffffffffffffff168152602001600660008781526020019081526020016000206002015481526020018481526020016000815250905080600660008681526020019081526020016000206000820151816000015560208201518160010160006101000a81548173ffffffffffffffffffffffffffffffffffffffff021916908373ffffffffffffffffffffffffffffffffffffffff16021790555060408201518160020155606082015181600301556080820151816004015590505050505050565b61372d6000613ac3565b6137376002613ac3565b42836137439190614288565b92506000604051806060016040528061375c6000613ab5565b81526020013373ffffffffffffffffffffffffffffffffffffffff1681526020016001600381111561379157613790613ec9565b5b815250905060006040518060e001604052806137ad6002613ab5565b81526020013373ffffffffffffffffffffffffffffffffffffffff1681526020018773ffffffffffffffffffffffffffffffffffffffff168152602001600760006137f86002613ab5565b815260200190815260200160002060030154815260200186815260200185815260200184815250905081600560006138306000613ab5565b81526020019081526020016000206000820151816000015560208201518160010160006101000a81548173ffffffffffffffffffffffffffffffffffffffff021916908373ffffffffffffffffffffffffffffffffffffffff16021790555060408201518160010160146101000a81548160ff021916908360038111156138ba576138b9613ec9565b5b021790555090505080600760006138d16002613ab5565b81526020019081526020016000206000820151816000015560208201518160010160006101000a81548173ffffffffffffffffffffffffffffffffffffffff021916908373ffffffffffffffffffffffffffffffffffffffff16021790555060408201518160020160006101000a81548173ffffffffffffffffffffffffffffffffffffffff021916908373ffffffffffffffffffffffffffffffffffffffff160217905550606082015181600301556080820151816004015560a0820151816005015560c08201518160060155905050505050505050565b6139b2613c2b565b600860008381526020019081526020016000206040518060e0016040529081600082015481526020016001820160009054906101000a900473ffffffffffffffffffffffffffffffffffffffff1673ffffffffffffffffffffffffffffffffffffffff1673ffffffffffffffffffffffffffffffffffffffff1681526020016002820160009054906101000a900473ffffffffffffffffffffffffffffffffffffffff1673ffffffffffffffffffffffffffffffffffffffff1673ffffffffffffffffffffffffffffffffffffffff1681526020016003820154815260200160048201548152602001600582015481526020016006820154815250509050919050565b600081600001549050919050565b6001816000016000828254019250508190555050565b6040518060a0016040528060008152602001600073ffffffffffffffffffffffffffffffffffffffff1681526020016000815260200160008152602001600081525090565b604051806060016040528060008152602001600073ffffffffffffffffffffffffffffffffffffffff16815260200160006003811115613b6157613b60613ec9565b5b81525090565b6040518060a0016040528060008152602001600073ffffffffffffffffffffffffffffffffffffffff168152602001600073ffffffffffffffffffffffffffffffffffffffff16815260200160008152602001600081525090565b6040518060e0016040528060008152602001600073ffffffffffffffffffffffffffffffffffffffff168152602001600073ffffffffffffffffffffffffffffffffffffffff168152602001600081526020016000815260200160008152602001600081525090565b6040518060e0016040528060008152602001600073ffffffffffffffffffffffffffffffffffffffff168152602001600073ffffffffffffffffffffffffffffffffffffffff168152602001600081526020016000815260200160008152602001600081525090565b600080fd5b6000819050919050565b613cac81613c99565b8114613cb757600080fd5b50565b600081359050613cc981613ca3565b92915050565b600073ffffffffffffffffffffffffffffffffffffffff82169050919050565b6000613cfa82613ccf565b9050919050565b613d0a81613cef565b8114613d1557600080fd5b50565b600081359050613d2781613d01565b92915050565b600080600080600060a08688031215613d4957613d48613c94565b5b6000613d5788828901613cba565b9550506020613d6888828901613d18565b9450506040613d7988828901613cba565b9350506060613d8a88828901613cba565b9250506080613d9b88828901613cba565b9150509295509295909350565b600060208284031215613dbe57613dbd613c94565b5b6000613dcc84828501613cba565b91505092915050565b613dde81613c99565b82525050565b613ded81613cef565b82525050565b60a082016000820151613e096000850182613dd5565b506020820151613e1c6020850182613de4565b506040820151613e2f6040850182613dd5565b506060820151613e426060850182613dd5565b506080820151613e556080850182613dd5565b50505050565b600060a082019050613e706000830184613df3565b92915050565b600080600060608486031215613e8f57613e8e613c94565b5b6000613e9d86828701613cba565b9350506020613eae86828701613d18565b9250506040613ebf86828701613cba565b9150509250925092565b7f4e487b7100000000000000000000000000000000000000000000000000000000600052602160045260246000fd5b60048110613f0957613f08613ec9565b5b50565b6000819050613f1a82613ef8565b919050565b6000613f2a82613f0c565b9050919050565b613f3a81613f1f565b82525050565b606082016000820151613f566000850182613dd5565b506020820151613f696020850182613de4565b506040820151613f7c6040850182613f31565b50505050565b6000606082019050613f976000830184613f40565b92915050565b60008060408385031215613fb457613fb3613c94565b5b6000613fc285828601613cba565b9250506020613fd385828601613cba565b9150509250929050565b60a082016000820151613ff36000850182613dd5565b5060208201516140066020850182613de4565b5060408201516140196040850182613de4565b50606082015161402c6060850182613dd5565b50608082015161403f6080850182613dd5565b50505050565b600060a08201905061405a6000830184613fdd565b92915050565b60e0820160008201516140766000850182613dd5565b5060208201516140896020850182613de4565b50604082015161409c6040850182613de4565b5060608201516140af6060850182613dd5565b5060808201516140c26080850182613dd5565b5060a08201516140d560a0850182613dd5565b5060c08201516140e860c0850182613dd5565b50505050565b600060e0820190506141036000830184614060565b92915050565b600080604083850312156141205761411f613c94565b5b600061412e85828601613d18565b925050602061413f85828601613cba565b9150509250929050565b6000806000806080858703121561416357614162613c94565b5b600061417187828801613d18565b945050602061418287828801613cba565b935050604061419387828801613cba565b92505060606141a487828801613cba565b91505092959194509250565b60e0820160008201516141c66000850182613dd5565b5060208201516141d96020850182613de4565b5060408201516141ec6040850182613de4565b5060608201516141ff6060850182613dd5565b5060808201516142126080850182613dd5565b5060a082015161422560a0850182613dd5565b5060c082015161423860c0850182613dd5565b50505050565b600060e08201905061425360008301846141b0565b92915050565b7f4e487b7100000000000000000000000000000000000000000000000000000000600052601160045260246000fd5b600061429382613c99565b915061429e83613c99565b9250827fffffffffffffffffffffffffffffffffffffffffffffffffffffffffffffffff038211156142d3576142d2614259565b5b828201905092915050565b600081905092915050565b50565b60006142f96000836142de565b9150614304826142e9565b600082019050919050565b600061431a826142ec565b9150819050919050565b600061432f82613c99565b915061433a83613c99565b92508282101561434d5761434c614259565b5b828203905092915050565b61436181613c99565b82525050565b600060408201905061437c6000830185614358565b6143896020830184614358565b939250505056fea264697066735822122072264a73a08f7937ea5372a448320dc178118877edbf2608055a43d952fe33f764736f6c63430008090033",
  "linkReferences": {},
  "deployedLinkReferences": {}
}