{
  "_format": "hh-sol-artifact-1",
  "contractName": "Atium",
  "sourceName": "contracts/Atium.sol",
  "abi": [
    {
      "inputs": [],
      "name": "Atium_Cancelled",
      "type": "error"
    },
    {
      "inputs": [],
      "name": "Atium_NoWithdrawal",
      "type": "error"
    },
    {
      "inputs": [],
      "name": "Atium_NotAmount",
      "type": "error"
    },
    {
      "inputs": [],
      "name": "Atium_NotOwnerId",
      "type": "error"
    },
    {
      "inputs": [],
      "name": "Atium_OnlyFutureDate",
      "type": "error"
    },
    {
      "inputs": [
        {
          "internalType": "uint256",
          "name": "goal",
          "type": "uint256"
        },
        {
          "internalType": "uint256",
          "name": "rem",
          "type": "uint256"
        }
      ],
      "name": "Atium_SavingsGoal_Exceeded",
      "type": "error"
    },
    {
      "inputs": [],
      "name": "Atium_SavingsGoal_Not_Hit",
      "type": "error"
    },
    {
      "inputs": [],
      "name": "Atium_TransactionFailed",
      "type": "error"
    },
    {
      "inputs": [],
      "name": "Atium_ZeroInput",
      "type": "error"
    },
    {
      "inputs": [
        {
          "internalType": "uint256",
          "name": "_id",
          "type": "uint256"
        },
        {
          "internalType": "uint256",
          "name": "_amount",
          "type": "uint256"
        }
      ],
      "name": "allowance",
      "outputs": [],
      "stateMutability": "payable",
      "type": "function"
    },
    {
      "inputs": [
        {
          "internalType": "address",
          "name": "_receiver",
          "type": "address"
        },
        {
          "internalType": "uint256",
          "name": "_startDate",
          "type": "uint256"
        },
        {
          "internalType": "uint256",
          "name": "_amount",
          "type": "uint256"
        },
        {
          "internalType": "uint256",
          "name": "_interval",
          "type": "uint256"
        }
      ],
      "name": "allowancePlan",
      "outputs": [],
      "stateMutability": "nonpayable",
      "type": "function"
    },
    {
      "inputs": [
        {
          "internalType": "uint256",
          "name": "_id",
          "type": "uint256"
        },
        {
          "internalType": "address",
          "name": "_receiver",
          "type": "address"
        },
        {
          "internalType": "uint256",
          "name": "_startDate",
          "type": "uint256"
        },
        {
          "internalType": "uint256",
          "name": "_amount",
          "type": "uint256"
        },
        {
          "internalType": "uint256",
          "name": "_interval",
          "type": "uint256"
        }
      ],
      "name": "editAllowancePlan",
      "outputs": [],
      "stateMutability": "nonpayable",
      "type": "function"
    },
    {
      "inputs": [
        {
          "internalType": "uint256",
          "name": "_id",
          "type": "uint256"
        },
        {
          "internalType": "address",
          "name": "_receiver",
          "type": "address"
        },
        {
          "internalType": "uint256",
          "name": "_date",
          "type": "uint256"
        }
      ],
      "name": "editGiftPlan",
      "outputs": [],
      "stateMutability": "nonpayable",
      "type": "function"
    },
    {
      "inputs": [
        {
          "internalType": "uint256",
          "name": "_id",
          "type": "uint256"
        },
        {
          "internalType": "uint256",
          "name": "_goal",
          "type": "uint256"
        }
      ],
      "name": "editSavingsPlanGoal",
      "outputs": [],
      "stateMutability": "nonpayable",
      "type": "function"
    },
    {
      "inputs": [
        {
          "internalType": "uint256",
          "name": "_id",
          "type": "uint256"
        },
        {
          "internalType": "uint256",
          "name": "_time",
          "type": "uint256"
        }
      ],
      "name": "editSavingsPlanTime",
      "outputs": [],
      "stateMutability": "nonpayable",
      "type": "function"
    },
    {
      "inputs": [
        {
          "internalType": "uint256",
          "name": "_id",
          "type": "uint256"
        },
        {
          "internalType": "address",
          "name": "_receiver",
          "type": "address"
        },
        {
          "internalType": "uint256",
          "name": "_startDate",
          "type": "uint256"
        },
        {
          "internalType": "uint256",
          "name": "_amount",
          "type": "uint256"
        },
        {
          "internalType": "uint256",
          "name": "_interval",
          "type": "uint256"
        }
      ],
      "name": "editTrustfundPlan",
      "outputs": [],
      "stateMutability": "nonpayable",
      "type": "function"
    },
    {
      "inputs": [],
      "name": "getAllActiveAllowance",
      "outputs": [
        {
          "components": [
            {
              "internalType": "uint256",
              "name": "id",
              "type": "uint256"
            },
            {
              "internalType": "address",
              "name": "sender",
              "type": "address"
            },
            {
              "internalType": "address",
              "name": "receiver",
              "type": "address"
            },
            {
              "internalType": "uint256",
              "name": "deposit",
              "type": "uint256"
            },
            {
              "internalType": "uint256",
              "name": "startDate",
              "type": "uint256"
            },
            {
              "internalType": "uint256",
              "name": "withdrawalAmount",
              "type": "uint256"
            },
            {
              "internalType": "uint256",
              "name": "withdrawalInterval",
              "type": "uint256"
            }
          ],
          "internalType": "struct AtiumPlan.AllowanceList[]",
          "name": "",
          "type": "tuple[]"
        }
      ],
      "stateMutability": "view",
      "type": "function"
    },
    {
      "inputs": [],
      "name": "getAllActiveGift",
      "outputs": [
        {
          "components": [
            {
              "internalType": "uint256",
              "name": "id",
              "type": "uint256"
            },
            {
              "internalType": "address",
              "name": "sender",
              "type": "address"
            },
            {
              "internalType": "address",
              "name": "receiver",
              "type": "address"
            },
            {
              "internalType": "uint256",
              "name": "date",
              "type": "uint256"
            },
            {
              "internalType": "uint256",
              "name": "amount",
              "type": "uint256"
            }
          ],
          "internalType": "struct AtiumPlan.GiftList[]",
          "name": "",
          "type": "tuple[]"
        }
      ],
      "stateMutability": "view",
      "type": "function"
    },
    {
      "inputs": [],
      "name": "getAllActiveSavings",
      "outputs": [
        {
          "components": [
            {
              "internalType": "uint256",
              "name": "id",
              "type": "uint256"
            },
            {
              "internalType": "address",
              "name": "user",
              "type": "address"
            },
            {
              "internalType": "uint256",
              "name": "amount",
              "type": "uint256"
            },
            {
              "internalType": "uint256",
              "name": "goal",
              "type": "uint256"
            },
            {
              "internalType": "uint256",
              "name": "time",
              "type": "uint256"
            }
          ],
          "internalType": "struct AtiumPlan.SavingsList[]",
          "name": "",
          "type": "tuple[]"
        }
      ],
      "stateMutability": "view",
      "type": "function"
    },
    {
      "inputs": [],
      "name": "getAllActiveTrustfund",
      "outputs": [
        {
          "components": [
            {
              "internalType": "uint256",
              "name": "id",
              "type": "uint256"
            },
            {
              "internalType": "address",
              "name": "sender",
              "type": "address"
            },
            {
              "internalType": "address",
              "name": "receiver",
              "type": "address"
            },
            {
              "internalType": "uint256",
              "name": "amount",
              "type": "uint256"
            },
            {
              "internalType": "uint256",
              "name": "startDate",
              "type": "uint256"
            },
            {
              "internalType": "uint256",
              "name": "withdrawalAmount",
              "type": "uint256"
            },
            {
              "internalType": "uint256",
              "name": "withdrawalInterval",
              "type": "uint256"
            }
          ],
          "internalType": "struct AtiumPlan.TrustFundList[]",
          "name": "",
          "type": "tuple[]"
        }
      ],
      "stateMutability": "view",
      "type": "function"
    },
    {
      "inputs": [
        {
          "internalType": "uint256",
          "name": "_id",
          "type": "uint256"
        }
      ],
      "name": "getAllowance",
      "outputs": [
        {
          "components": [
            {
              "internalType": "uint256",
              "name": "id",
              "type": "uint256"
            },
            {
              "internalType": "address",
              "name": "sender",
              "type": "address"
            },
            {
              "internalType": "address",
              "name": "receiver",
              "type": "address"
            },
            {
              "internalType": "uint256",
              "name": "deposit",
              "type": "uint256"
            },
            {
              "internalType": "uint256",
              "name": "startDate",
              "type": "uint256"
            },
            {
              "internalType": "uint256",
              "name": "withdrawalAmount",
              "type": "uint256"
            },
            {
              "internalType": "uint256",
              "name": "withdrawalInterval",
              "type": "uint256"
            }
          ],
          "internalType": "struct AtiumPlan.AllowanceList",
          "name": "",
          "type": "tuple"
        }
      ],
      "stateMutability": "view",
      "type": "function"
    },
    {
      "inputs": [
        {
          "internalType": "uint256",
          "name": "_id",
          "type": "uint256"
        }
      ],
      "name": "getAllowanceBalance",
      "outputs": [
        {
          "internalType": "uint256",
          "name": "",
          "type": "uint256"
        }
      ],
      "stateMutability": "view",
      "type": "function"
    },
    {
      "inputs": [
        {
          "internalType": "uint256",
          "name": "_id",
          "type": "uint256"
        }
      ],
      "name": "getAtium",
      "outputs": [
        {
          "components": [
            {
              "internalType": "uint256",
              "name": "id",
              "type": "uint256"
            },
            {
              "internalType": "address",
              "name": "user",
              "type": "address"
            },
            {
              "internalType": "enum AtiumPlan.Select",
              "name": "select",
              "type": "uint8"
            }
          ],
          "internalType": "struct AtiumPlan.AtiumList",
          "name": "",
          "type": "tuple"
        }
      ],
      "stateMutability": "view",
      "type": "function"
    },
    {
      "inputs": [
        {
          "internalType": "uint256",
          "name": "_id",
          "type": "uint256"
        }
      ],
      "name": "getGift",
      "outputs": [
        {
          "components": [
            {
              "internalType": "uint256",
              "name": "id",
              "type": "uint256"
            },
            {
              "internalType": "address",
              "name": "sender",
              "type": "address"
            },
            {
              "internalType": "address",
              "name": "receiver",
              "type": "address"
            },
            {
              "internalType": "uint256",
              "name": "date",
              "type": "uint256"
            },
            {
              "internalType": "uint256",
              "name": "amount",
              "type": "uint256"
            }
          ],
          "internalType": "struct AtiumPlan.GiftList",
          "name": "",
          "type": "tuple"
        }
      ],
      "stateMutability": "view",
      "type": "function"
    },
    {
      "inputs": [
        {
          "internalType": "uint256",
          "name": "_id",
          "type": "uint256"
        }
      ],
      "name": "getGiftBalance",
      "outputs": [
        {
          "internalType": "uint256",
          "name": "",
          "type": "uint256"
        }
      ],
      "stateMutability": "view",
      "type": "function"
    },
    {
      "inputs": [
        {
          "internalType": "uint256",
          "name": "_id",
          "type": "uint256"
        }
      ],
      "name": "getSavings",
      "outputs": [
        {
          "components": [
            {
              "internalType": "uint256",
              "name": "id",
              "type": "uint256"
            },
            {
              "internalType": "address",
              "name": "user",
              "type": "address"
            },
            {
              "internalType": "uint256",
              "name": "amount",
              "type": "uint256"
            },
            {
              "internalType": "uint256",
              "name": "goal",
              "type": "uint256"
            },
            {
              "internalType": "uint256",
              "name": "time",
              "type": "uint256"
            }
          ],
          "internalType": "struct AtiumPlan.SavingsList",
          "name": "",
          "type": "tuple"
        }
      ],
      "stateMutability": "view",
      "type": "function"
    },
    {
      "inputs": [
        {
          "internalType": "uint256",
          "name": "_id",
          "type": "uint256"
        }
      ],
      "name": "getSavingsBalance",
      "outputs": [
        {
          "internalType": "uint256",
          "name": "",
          "type": "uint256"
        }
      ],
      "stateMutability": "view",
      "type": "function"
    },
    {
      "inputs": [
        {
          "internalType": "uint256",
          "name": "_id",
          "type": "uint256"
        }
      ],
      "name": "getTrustfund",
      "outputs": [
        {
          "components": [
            {
              "internalType": "uint256",
              "name": "id",
              "type": "uint256"
            },
            {
              "internalType": "address",
              "name": "sender",
              "type": "address"
            },
            {
              "internalType": "address",
              "name": "receiver",
              "type": "address"
            },
            {
              "internalType": "uint256",
              "name": "amount",
              "type": "uint256"
            },
            {
              "internalType": "uint256",
              "name": "startDate",
              "type": "uint256"
            },
            {
              "internalType": "uint256",
              "name": "withdrawalAmount",
              "type": "uint256"
            },
            {
              "internalType": "uint256",
              "name": "withdrawalInterval",
              "type": "uint256"
            }
          ],
          "internalType": "struct AtiumPlan.TrustFundList",
          "name": "",
          "type": "tuple"
        }
      ],
      "stateMutability": "view",
      "type": "function"
    },
    {
      "inputs": [
        {
          "internalType": "uint256",
          "name": "_id",
          "type": "uint256"
        }
      ],
      "name": "getTrustfundBalance",
      "outputs": [
        {
          "internalType": "uint256",
          "name": "",
          "type": "uint256"
        }
      ],
      "stateMutability": "view",
      "type": "function"
    },
    {
      "inputs": [
        {
          "internalType": "uint256",
          "name": "_id",
          "type": "uint256"
        },
        {
          "internalType": "uint256",
          "name": "_amount",
          "type": "uint256"
        }
      ],
      "name": "gift",
      "outputs": [],
      "stateMutability": "payable",
      "type": "function"
    },
    {
      "inputs": [
        {
          "internalType": "address",
          "name": "_receiver",
          "type": "address"
        },
        {
          "internalType": "uint256",
          "name": "_date",
          "type": "uint256"
        }
      ],
      "name": "giftPlan",
      "outputs": [],
      "stateMutability": "nonpayable",
      "type": "function"
    },
    {
      "inputs": [
        {
          "internalType": "uint256",
          "name": "_id",
          "type": "uint256"
        },
        {
          "internalType": "uint256",
          "name": "_amount",
          "type": "uint256"
        }
      ],
      "name": "save",
      "outputs": [],
      "stateMutability": "payable",
      "type": "function"
    },
    {
      "inputs": [
        {
          "internalType": "uint256",
          "name": "_goal",
          "type": "uint256"
        }
      ],
      "name": "savingsPlanGoal",
      "outputs": [],
      "stateMutability": "nonpayable",
      "type": "function"
    },
    {
      "inputs": [
        {
          "internalType": "uint256",
          "name": "_time",
          "type": "uint256"
        }
      ],
      "name": "savingsPlanTime",
      "outputs": [],
      "stateMutability": "nonpayable",
      "type": "function"
    },
    {
      "inputs": [
        {
          "internalType": "uint256",
          "name": "_id",
          "type": "uint256"
        },
        {
          "internalType": "uint256",
          "name": "_amount",
          "type": "uint256"
        }
      ],
      "name": "trustfund",
      "outputs": [],
      "stateMutability": "payable",
      "type": "function"
    },
    {
      "inputs": [
        {
          "internalType": "address",
          "name": "_receiver",
          "type": "address"
        },
        {
          "internalType": "uint256",
          "name": "_startDate",
          "type": "uint256"
        },
        {
          "internalType": "uint256",
          "name": "_amount",
          "type": "uint256"
        },
        {
          "internalType": "uint256",
          "name": "_interval",
          "type": "uint256"
        }
      ],
      "name": "trustfundPlan",
      "outputs": [],
      "stateMutability": "nonpayable",
      "type": "function"
    },
    {
      "inputs": [
        {
          "internalType": "uint256",
          "name": "_id",
          "type": "uint256"
        }
      ],
      "name": "w_allowance",
      "outputs": [],
      "stateMutability": "nonpayable",
      "type": "function"
    },
    {
      "inputs": [
        {
          "internalType": "uint256",
          "name": "_id",
          "type": "uint256"
        }
      ],
      "name": "w_gift",
      "outputs": [],
      "stateMutability": "nonpayable",
      "type": "function"
    },
    {
      "inputs": [
        {
          "internalType": "uint256",
          "name": "_id",
          "type": "uint256"
        }
      ],
      "name": "w_save",
      "outputs": [],
      "stateMutability": "nonpayable",
      "type": "function"
    },
    {
      "inputs": [
        {
          "internalType": "uint256",
          "name": "_id",
          "type": "uint256"
        }
      ],
      "name": "w_trustfund",
      "outputs": [],
      "stateMutability": "nonpayable",
      "type": "function"
    },
    {
      "stateMutability": "payable",
      "type": "receive"
    }
  ],
  "bytecode": "0x608060405234801561001057600080fd5b50615f0a80620000216000396000f3fe6080604052600436106101dc5760003560e01c80638207d0f911610102578063c960174e11610095578063eb51490011610064578063eb5149001461069b578063ed5579fc146106c4578063f7b05eea146106ed578063fa278ae61461072a576101e3565b8063c960174e146105f0578063cca16fa81461062d578063d14fb6db14610649578063d67d10dc14610672576101e3565b8063aca9d54c116100d1578063aca9d54c14610538578063ad31cc9f14610561578063bf6713f61461058a578063c315d635146105c7576101e3565b80638207d0f91461048d57806383a74acc146104ca578063872c6095146104e6578063a07813991461050f576101e3565b80633e346eeb1161017a57806367b452141161014957806367b45214146103bf5780636c45bdc4146103fc5780636c793fc91461042757806381acffe814610450576101e3565b80633e346eeb146103215780635029919b1461035e57806357fc036314610387578063640117be146103a3576101e3565b806313bfb182116101b657806313bfb182146102675780631f7525d0146102a45780632bb59145146102cd5780633d53316b146102f8576101e3565b8063024025f4146101e857806308339b931461021157806312cc19e71461023c576101e3565b366101e357005b600080fd5b3480156101f457600080fd5b5061020f600480360381019061020a9190615196565b610767565b005b34801561021d57600080fd5b50610226610a34565b6040516102339190615346565b60405180910390f35b34801561024857600080fd5b50610251610c66565b60405161025e91906154a5565b60405180910390f35b34801561027357600080fd5b5061028e600480360381019061028991906154c7565b610eac565b60405161029b919061555c565b60405180910390f35b3480156102b057600080fd5b506102cb60048036038101906102c691906154c7565b610f57565b005b3480156102d957600080fd5b506102e26112fd565b6040516102ef919061568e565b60405180910390f35b34801561030457600080fd5b5061031f600480360381019061031a91906156b0565b6114e3565b005b34801561032d57600080fd5b50610348600480360381019061034391906154c7565b611768565b60405161035591906157bc565b60405180910390f35b34801561036a57600080fd5b5061038560048036038101906103809190615196565b611830565b005b6103a1600480360381019061039c91906157d7565b611aef565b005b6103bd60048036038101906103b891906157d7565b611e4f565b005b3480156103cb57600080fd5b506103e660048036038101906103e191906154c7565b61210e565b6040516103f39190615826565b60405180910390f35b34801561040857600080fd5b5061041161212e565b60405161041e919061597e565b60405180910390f35b34801561043357600080fd5b5061044e600480360381019061044991906154c7565b612374565b005b34801561045c57600080fd5b50610477600480360381019061047291906154c7565b612749565b6040516104849190615826565b60405180910390f35b34801561049957600080fd5b506104b460048036038101906104af91906154c7565b612766565b6040516104c19190615826565b60405180910390f35b6104e460048036038101906104df91906157d7565b612783565b005b3480156104f257600080fd5b5061050d600480360381019061050891906157d7565b612a18565b005b34801561051b57600080fd5b50610536600480360381019061053191906154c7565b612c4a565b005b34801561054457600080fd5b5061055f600480360381019061055a91906154c7565b612e78565b005b34801561056d57600080fd5b50610588600480360381019061058391906154c7565b613184565b005b34801561059657600080fd5b506105b160048036038101906105ac91906154c7565b613488565b6040516105be9190615a08565b60405180910390f35b3480156105d357600080fd5b506105ee60048036038101906105e991906154c7565b61357f565b005b3480156105fc57600080fd5b50610617600480360381019061061291906154c7565b613891565b6040516106249190615ab1565b60405180910390f35b610647600480360381019061064291906157d7565b61399c565b005b34801561065557600080fd5b50610670600480360381019061066b9190615acc565b613c5b565b005b34801561067e57600080fd5b5061069960048036038101906106949190615b0c565b614065565b005b3480156106a757600080fd5b506106c260048036038101906106bd91906157d7565b6144c9565b005b3480156106d057600080fd5b506106eb60048036038101906106e69190615b0c565b6146ed565b005b3480156106f957600080fd5b50610714600480360381019061070f91906154c7565b614b51565b6040516107219190615826565b60405180910390f35b34801561073657600080fd5b50610751600480360381019061074c91906154c7565b614b71565b60405161075e9190615c01565b60405180910390f35b843373ffffffffffffffffffffffffffffffffffffffff166007600083815260200190815260200160002060010160009054906101000a900473ffffffffffffffffffffffffffffffffffffffff1673ffffffffffffffffffffffffffffffffffffffff1614610803576040517f0d9ff29600000000000000000000000000000000000000000000000000000000815260040160405180910390fd5b428461080f9190615c4b565b935060006040518060e001604052808881526020013373ffffffffffffffffffffffffffffffffffffffff1681526020018773ffffffffffffffffffffffffffffffffffffffff168152602001600760008a815260200190815260200160002060030154815260200142876108849190615c4b565b965086815260200185815260200184815250905080600760008981526020019081526020016000206000820151816000015560208201518160010160006101000a81548173ffffffffffffffffffffffffffffffffffffffff021916908373ffffffffffffffffffffffffffffffffffffffff16021790555060408201518160020160006101000a81548173ffffffffffffffffffffffffffffffffffffffff021916908373ffffffffffffffffffffffffffffffffffffffff160217905550606082015181600301556080820151816004015560a0820151816005015560c082015181600601559050508460156000898152602001908152602001600020819055506109d887600f60003373ffffffffffffffffffffffffffffffffffffffff1673ffffffffffffffffffffffffffffffffffffffff168152602001908152602001600020614c7c90919063ffffffff16565b50610a2a87600f60003373ffffffffffffffffffffffffffffffffffffffff1673ffffffffffffffffffffffffffffffffffffffff168152602001908152602001600020614c9690919063ffffffff16565b5050505050505050565b60606000600d60003373ffffffffffffffffffffffffffffffffffffffff1673ffffffffffffffffffffffffffffffffffffffff168152602001908152602001600020805480602002602001604051908101604052809291908181526020018280548015610ac157602002820191906000526020600020905b815481526020019060010190808311610aad575b5050505050905060008151905060008167ffffffffffffffff811115610aea57610ae9615ca1565b5b604051908082528060200260200182016040528015610b2357816020015b610b10614f42565b815260200190600190039081610b085790505b50905060005b82811015610c5c5760096000858381518110610b4857610b47615cd0565b5b602002602001015181526020019081526020016000206040518060a0016040529081600082015481526020016001820160009054906101000a900473ffffffffffffffffffffffffffffffffffffffff1673ffffffffffffffffffffffffffffffffffffffff1673ffffffffffffffffffffffffffffffffffffffff1681526020016002820160009054906101000a900473ffffffffffffffffffffffffffffffffffffffff1673ffffffffffffffffffffffffffffffffffffffff1673ffffffffffffffffffffffffffffffffffffffff16815260200160038201548152602001600482015481525050828281518110610c4657610c45615cd0565b5b6020026020010181905250806001019050610b29565b5080935050505090565b60606000600b60003373ffffffffffffffffffffffffffffffffffffffff1673ffffffffffffffffffffffffffffffffffffffff168152602001908152602001600020805480602002602001604051908101604052809291908181526020018280548015610cf357602002820191906000526020600020905b815481526020019060010190808311610cdf575b5050505050905060008151905060008167ffffffffffffffff811115610d1c57610d1b615ca1565b5b604051908082528060200260200182016040528015610d5557816020015b610d42614f9d565b815260200190600190039081610d3a5790505b50905060005b82811015610ea25760076000858381518110610d7a57610d79615cd0565b5b602002602001015181526020019081526020016000206040518060e0016040529081600082015481526020016001820160009054906101000a900473ffffffffffffffffffffffffffffffffffffffff1673ffffffffffffffffffffffffffffffffffffffff1673ffffffffffffffffffffffffffffffffffffffff1681526020016002820160009054906101000a900473ffffffffffffffffffffffffffffffffffffffff1673ffffffffffffffffffffffffffffffffffffffff1673ffffffffffffffffffffffffffffffffffffffff168152602001600382015481526020016004820154815260200160058201548152602001600682015481525050828281518110610e8c57610e8b615cd0565b5b6020026020010181905250806001019050610d5b565b5080935050505090565b610eb4615006565b600660008381526020019081526020016000206040518060a0016040529081600082015481526020016001820160009054906101000a900473ffffffffffffffffffffffffffffffffffffffff1673ffffffffffffffffffffffffffffffffffffffff1673ffffffffffffffffffffffffffffffffffffffff16815260200160028201548152602001600382015481526020016004820154815250509050919050565b600080601c6000848152602001908152602001600020541415610fa6576040517fcd672d5d00000000000000000000000000000000000000000000000000000000815260040160405180910390fd5b60006008600084815260200190815260200160002060040154905060006016600085815260200190815260200160002054905060006008600086815260200190815260200160002060060154905060008183856110039190615cff565b61100d9190615d62565b9050818161101b9190615d93565b60166000888152602001908152602001600020600082825461103d9190615c4b565b925050819055506008600087815260200190815260200160002060050154601c600088815260200190815260200160002054101561108c57601c60008781526020019081526020016000205494505b6008600087815260200190815260200160002060050154601c600088815260200190815260200160002054106110e1576008600087815260200190815260200160002060050154816110de9190615d93565b94505b84601c600088815260200190815260200160002060008282546111049190615cff565b925050819055506111928660106000600860008b815260200190815260200160002060020160009054906101000a900473ffffffffffffffffffffffffffffffffffffffff1673ffffffffffffffffffffffffffffffffffffffff1673ffffffffffffffffffffffffffffffffffffffff168152602001908152602001600020614c7c90919063ffffffff16565b5061121a8660106000600860008b815260200190815260200160002060020160009054906101000a900473ffffffffffffffffffffffffffffffffffffffff1673ffffffffffffffffffffffffffffffffffffffff1673ffffffffffffffffffffffffffffffffffffffff168152602001908152602001600020614c9690919063ffffffff16565b5060006008600088815260200190815260200160002060020160009054906101000a900473ffffffffffffffffffffffffffffffffffffffff1673ffffffffffffffffffffffffffffffffffffffff168660405161127790615e1e565b60006040518083038185875af1925050503d80600081146112b4576040519150601f19603f3d011682016040523d82523d6000602084013e6112b9565b606091505b50509050806112f4576040517f75a8758900000000000000000000000000000000000000000000000000000000815260040160405180910390fd5b50505050505050565b60606000600a60003373ffffffffffffffffffffffffffffffffffffffff1673ffffffffffffffffffffffffffffffffffffffff16815260200190815260200160002080548060200260200160405190810160405280929190818152602001828054801561138a57602002820191906000526020600020905b815481526020019060010190808311611376575b5050505050905060008151905060008167ffffffffffffffff8111156113b3576113b2615ca1565b5b6040519080825280602002602001820160405280156113ec57816020015b6113d9615006565b8152602001906001900390816113d15790505b50905060005b828110156114d9576006600085838151811061141157611410615cd0565b5b602002602001015181526020019081526020016000206040518060a0016040529081600082015481526020016001820160009054906101000a900473ffffffffffffffffffffffffffffffffffffffff1673ffffffffffffffffffffffffffffffffffffffff1673ffffffffffffffffffffffffffffffffffffffff16815260200160028201548152602001600382015481526020016004820154815250508282815181106114c3576114c2615cd0565b5b60200260200101819052508060010190506113f2565b5080935050505090565b823373ffffffffffffffffffffffffffffffffffffffff166009600083815260200190815260200160002060010160009054906101000a900473ffffffffffffffffffffffffffffffffffffffff1673ffffffffffffffffffffffffffffffffffffffff161461157f576040517f0d9ff29600000000000000000000000000000000000000000000000000000000815260040160405180910390fd5b428261158b9190615c4b565b915060006040518060a001604052808681526020013373ffffffffffffffffffffffffffffffffffffffff1681526020018573ffffffffffffffffffffffffffffffffffffffff1681526020018481526020016009600088815260200190815260200160002060040154815250905080600960008781526020019081526020016000206000820151816000015560208201518160010160006101000a81548173ffffffffffffffffffffffffffffffffffffffff021916908373ffffffffffffffffffffffffffffffffffffffff16021790555060408201518160020160006101000a81548173ffffffffffffffffffffffffffffffffffffffff021916908373ffffffffffffffffffffffffffffffffffffffff160217905550606082015181600301556080820151816004015590505061170e85601160003373ffffffffffffffffffffffffffffffffffffffff1673ffffffffffffffffffffffffffffffffffffffff168152602001908152602001600020614c7c90919063ffffffff16565b5061176085601160003373ffffffffffffffffffffffffffffffffffffffff1673ffffffffffffffffffffffffffffffffffffffff168152602001908152602001600020614c9690919063ffffffff16565b505050505050565b61177061504b565b60056000838152602001908152602001600020604051806060016040529081600082015481526020016001820160009054906101000a900473ffffffffffffffffffffffffffffffffffffffff1673ffffffffffffffffffffffffffffffffffffffff1673ffffffffffffffffffffffffffffffffffffffff1681526020016001820160149054906101000a900460ff16600381111561181357611812615703565b5b600381111561182557611824615703565b5b815250509050919050565b843373ffffffffffffffffffffffffffffffffffffffff166008600083815260200190815260200160002060010160009054906101000a900473ffffffffffffffffffffffffffffffffffffffff1673ffffffffffffffffffffffffffffffffffffffff16146118cc576040517f0d9ff29600000000000000000000000000000000000000000000000000000000815260040160405180910390fd5b42846118d89190615c4b565b935060006040518060e001604052808881526020013373ffffffffffffffffffffffffffffffffffffffff1681526020018773ffffffffffffffffffffffffffffffffffffffff168152602001600860008a815260200190815260200160002060030154815260200186815260200185815260200184815250905080600860008981526020019081526020016000206000820151816000015560208201518160010160006101000a81548173ffffffffffffffffffffffffffffffffffffffff021916908373ffffffffffffffffffffffffffffffffffffffff16021790555060408201518160020160006101000a81548173ffffffffffffffffffffffffffffffffffffffff021916908373ffffffffffffffffffffffffffffffffffffffff160217905550606082015181600301556080820151816004015560a0820151816005015560c08201518160060155905050846016600089815260200190815260200160002081905550611a9387601060003373ffffffffffffffffffffffffffffffffffffffff1673ffffffffffffffffffffffffffffffffffffffff168152602001908152602001600020614c7c90919063ffffffff16565b50611ae587601060003373ffffffffffffffffffffffffffffffffffffffff1673ffffffffffffffffffffffffffffffffffffffff168152602001908152602001600020614c9690919063ffffffff16565b5050505050505050565b813373ffffffffffffffffffffffffffffffffffffffff166006600083815260200190815260200160002060010160009054906101000a900473ffffffffffffffffffffffffffffffffffffffff1673ffffffffffffffffffffffffffffffffffffffff1614611b8b576040517f0d9ff29600000000000000000000000000000000000000000000000000000000815260040160405180910390fd5b6000831480611b9a5750600082145b15611bd1576040517f8e277c2c00000000000000000000000000000000000000000000000000000000815260040160405180910390fd5b813414611c0a576040517f055932c300000000000000000000000000000000000000000000000000000000815260040160405180910390fd5b6006600084815260200190815260200160002060030154600660008581526020019081526020016000206002015483611c439190615c4b565b1115611cd557600660008481526020019081526020016000206003015460066000858152602001908152602001600020600201546006600086815260200190815260200160002060030154611c989190615cff565b6040517ff6f09cc8000000000000000000000000000000000000000000000000000000008152600401611ccc929190615e33565b60405180910390fd5b81600660008581526020019081526020016000206002016000828254611cfb9190615c4b565b92505081905550611d5383600f60003373ffffffffffffffffffffffffffffffffffffffff1673ffffffffffffffffffffffffffffffffffffffff168152602001908152602001600020614c7c90919063ffffffff16565b50611da583600f60003373ffffffffffffffffffffffffffffffffffffffff1673ffffffffffffffffffffffffffffffffffffffff168152602001908152602001600020614c9690919063ffffffff16565b5060003073ffffffffffffffffffffffffffffffffffffffff1634604051611dcc90615e1e565b60006040518083038185875af1925050503d8060008114611e09576040519150601f19603f3d011682016040523d82523d6000602084013e611e0e565b606091505b5050905080611e49576040517f75a8758900000000000000000000000000000000000000000000000000000000815260040160405180910390fd5b50505050565b813373ffffffffffffffffffffffffffffffffffffffff166008600083815260200190815260200160002060010160009054906101000a900473ffffffffffffffffffffffffffffffffffffffff1673ffffffffffffffffffffffffffffffffffffffff1614611eeb576040517f0d9ff29600000000000000000000000000000000000000000000000000000000815260040160405180910390fd5b6000831480611efa5750600082145b15611f31576040517f8e277c2c00000000000000000000000000000000000000000000000000000000815260040160405180910390fd5b813414611f6a576040517f055932c300000000000000000000000000000000000000000000000000000000815260040160405180910390fd5b81600860008581526020019081526020016000206003016000828254611f909190615c4b565b9250508190555081601c60008581526020019081526020016000206000828254611fba9190615c4b565b9250508190555061201283601060003373ffffffffffffffffffffffffffffffffffffffff1673ffffffffffffffffffffffffffffffffffffffff168152602001908152602001600020614c7c90919063ffffffff16565b5061206483601060003373ffffffffffffffffffffffffffffffffffffffff1673ffffffffffffffffffffffffffffffffffffffff168152602001908152602001600020614c9690919063ffffffff16565b5060003073ffffffffffffffffffffffffffffffffffffffff163460405161208b90615e1e565b60006040518083038185875af1925050503d80600081146120c8576040519150601f19603f3d011682016040523d82523d6000602084013e6120cd565b606091505b5050905080612108576040517f75a8758900000000000000000000000000000000000000000000000000000000815260040160405180910390fd5b50505050565b600060066000838152602001908152602001600020600201549050919050565b60606000600c60003373ffffffffffffffffffffffffffffffffffffffff1673ffffffffffffffffffffffffffffffffffffffff1681526020019081526020016000208054806020026020016040519081016040528092919081815260200182805480156121bb57602002820191906000526020600020905b8154815260200190600101908083116121a7575b5050505050905060008151905060008167ffffffffffffffff8111156121e4576121e3615ca1565b5b60405190808252806020026020018201604052801561221d57816020015b61220a615094565b8152602001906001900390816122025790505b50905060005b8281101561236a576008600085838151811061224257612241615cd0565b5b602002602001015181526020019081526020016000206040518060e0016040529081600082015481526020016001820160009054906101000a900473ffffffffffffffffffffffffffffffffffffffff1673ffffffffffffffffffffffffffffffffffffffff1673ffffffffffffffffffffffffffffffffffffffff1681526020016002820160009054906101000a900473ffffffffffffffffffffffffffffffffffffffff1673ffffffffffffffffffffffffffffffffffffffff1673ffffffffffffffffffffffffffffffffffffffff16815260200160038201548152602001600482015481526020016005820154815260200160068201548152505082828151811061235457612353615cd0565b5b6020026020010181905250806001019050612223565b5080935050505090565b600080601b60008481526020019081526020016000205414156123c3576040517fcd672d5d00000000000000000000000000000000000000000000000000000000815260040160405180910390fd5b60004290506000601560008581526020019081526020016000205490506000600760008681526020019081526020016000206006015490508082846124089190615cff565b1015612440576040517fa839fe5500000000000000000000000000000000000000000000000000000000815260040160405180910390fd5b600081838561244f9190615cff565b6124599190615d62565b905081816124679190615d93565b6015600088815260200190815260200160002060008282546124899190615c4b565b925050819055506007600087815260200190815260200160002060050154601b60008881526020019081526020016000205410156124d857601b60008781526020019081526020016000205494505b6007600087815260200190815260200160002060050154601b6000888152602001908152602001600020541061252d5760076000878152602001908152602001600020600501548161252a9190615d93565b94505b84601b600088815260200190815260200160002060008282546125509190615cff565b925050819055506125de86600f6000600760008b815260200190815260200160002060020160009054906101000a900473ffffffffffffffffffffffffffffffffffffffff1673ffffffffffffffffffffffffffffffffffffffff1673ffffffffffffffffffffffffffffffffffffffff168152602001908152602001600020614c7c90919063ffffffff16565b5061266686600f6000600760008b815260200190815260200160002060020160009054906101000a900473ffffffffffffffffffffffffffffffffffffffff1673ffffffffffffffffffffffffffffffffffffffff1673ffffffffffffffffffffffffffffffffffffffff168152602001908152602001600020614c9690919063ffffffff16565b5060006007600088815260200190815260200160002060020160009054906101000a900473ffffffffffffffffffffffffffffffffffffffff1673ffffffffffffffffffffffffffffffffffffffff16866040516126c390615e1e565b60006040518083038185875af1925050503d8060008114612700576040519150601f19603f3d011682016040523d82523d6000602084013e612705565b606091505b5050905080612740576040517f75a8758900000000000000000000000000000000000000000000000000000000815260040160405180910390fd5b50505050505050565b6000601b6000838152602001908152602001600020549050919050565b6000601c6000838152602001908152602001600020549050919050565b813373ffffffffffffffffffffffffffffffffffffffff166009600083815260200190815260200160002060010160009054906101000a900473ffffffffffffffffffffffffffffffffffffffff1673ffffffffffffffffffffffffffffffffffffffff161461281f576040517f0d9ff29600000000000000000000000000000000000000000000000000000000815260040160405180910390fd5b600083148061282e5750600082145b15612865576040517f8e277c2c00000000000000000000000000000000000000000000000000000000815260040160405180910390fd5b81341461289e576040517f055932c300000000000000000000000000000000000000000000000000000000815260040160405180910390fd5b816009600085815260200190815260200160002060040160008282546128c49190615c4b565b9250508190555061291c83601160003373ffffffffffffffffffffffffffffffffffffffff1673ffffffffffffffffffffffffffffffffffffffff168152602001908152602001600020614c7c90919063ffffffff16565b5061296e83601160003373ffffffffffffffffffffffffffffffffffffffff1673ffffffffffffffffffffffffffffffffffffffff168152602001908152602001600020614c9690919063ffffffff16565b5060003073ffffffffffffffffffffffffffffffffffffffff163460405161299590615e1e565b60006040518083038185875af1925050503d80600081146129d2576040519150601f19603f3d011682016040523d82523d6000602084013e6129d7565b606091505b5050905080612a12576040517f75a8758900000000000000000000000000000000000000000000000000000000815260040160405180910390fd5b50505050565b813373ffffffffffffffffffffffffffffffffffffffff166006600083815260200190815260200160002060010160009054906101000a900473ffffffffffffffffffffffffffffffffffffffff1673ffffffffffffffffffffffffffffffffffffffff1614612ab4576040517f0d9ff29600000000000000000000000000000000000000000000000000000000815260040160405180910390fd5b4282612ac09190615c4b565b915060006040518060a001604052808581526020013373ffffffffffffffffffffffffffffffffffffffff168152602001600660008781526020019081526020016000206002015481526020016000815260200184815250905080600660008681526020019081526020016000206000820151816000015560208201518160010160006101000a81548173ffffffffffffffffffffffffffffffffffffffff021916908373ffffffffffffffffffffffffffffffffffffffff160217905550604082015181600201556060820151816003015560808201518160040155905050612bf184600e60003373ffffffffffffffffffffffffffffffffffffffff1673ffffffffffffffffffffffffffffffffffffffff168152602001908152602001600020614c7c90919063ffffffff16565b50612c4384600e60003373ffffffffffffffffffffffffffffffffffffffff1673ffffffffffffffffffffffffffffffffffffffff168152602001908152602001600020614c9690919063ffffffff16565b5050505050565b612cd181600d60006009600086815260200190815260200160002060020160009054906101000a900473ffffffffffffffffffffffffffffffffffffffff1673ffffffffffffffffffffffffffffffffffffffff1673ffffffffffffffffffffffffffffffffffffffff168152602001908152602001600020614cb090919063ffffffff16565b6001601a600083815260200190815260200160002060006101000a81548160ff021916908315150217905550612d8481601160006009600086815260200190815260200160002060020160009054906101000a900473ffffffffffffffffffffffffffffffffffffffff1673ffffffffffffffffffffffffffffffffffffffff1673ffffffffffffffffffffffffffffffffffffffff168152602001908152602001600020614c7c90919063ffffffff16565b5060006009600083815260200190815260200160002060020160009054906101000a900473ffffffffffffffffffffffffffffffffffffffff1673ffffffffffffffffffffffffffffffffffffffff166009600084815260200190815260200160002060040154604051612df790615e1e565b60006040518083038185875af1925050503d8060008114612e34576040519150601f19603f3d011682016040523d82523d6000602084013e612e39565b606091505b5050905080612e74576040517f75a8758900000000000000000000000000000000000000000000000000000000815260040160405180910390fd5b5050565b600660008281526020019081526020016000206003015460066000838152602001908152602001600020600201541080612ec75750600660008281526020019081526020016000206004015442105b15612efe576040517fa3fc45c600000000000000000000000000000000000000000000000000000000815260040160405180910390fd5b6017600082815260200190815260200160002060009054906101000a900460ff1615612f56576040517f18fbf5ed00000000000000000000000000000000000000000000000000000000815260040160405180910390fd5b612fdd81600a60006006600086815260200190815260200160002060010160009054906101000a900473ffffffffffffffffffffffffffffffffffffffff1673ffffffffffffffffffffffffffffffffffffffff1673ffffffffffffffffffffffffffffffffffffffff168152602001908152602001600020614cb090919063ffffffff16565b60016017600083815260200190815260200160002060006101000a81548160ff02191690831515021790555061309081600f60006006600086815260200190815260200160002060010160009054906101000a900473ffffffffffffffffffffffffffffffffffffffff1673ffffffffffffffffffffffffffffffffffffffff1673ffffffffffffffffffffffffffffffffffffffff168152602001908152602001600020614c7c90919063ffffffff16565b5060006006600083815260200190815260200160002060010160009054906101000a900473ffffffffffffffffffffffffffffffffffffffff1673ffffffffffffffffffffffffffffffffffffffff16600660008481526020019081526020016000206002015460405161310390615e1e565b60006040518083038185875af1925050503d8060008114613140576040519150601f19603f3d011682016040523d82523d6000602084013e613145565b606091505b5050905080613180576040517f75a8758900000000000000000000000000000000000000000000000000000000815260040160405180910390fd5b5050565b60008114156131bf576040517f8e277c2c00000000000000000000000000000000000000000000000000000000815260040160405180910390fd5b6131c96000614d77565b6131d36001614d77565b600060405180606001604052806131ea6000614d8d565b81526020013373ffffffffffffffffffffffffffffffffffffffff1681526020016000600381111561321f5761321e615703565b5b815250905060006040518060a0016040528061323b6001614d8d565b81526020013373ffffffffffffffffffffffffffffffffffffffff1681526020016006600061326a6001614d8d565b815260200190815260200160002060020154815260200184815260200160008152509050816005600061329d6000614d8d565b81526020019081526020016000206000820151816000015560208201518160010160006101000a81548173ffffffffffffffffffffffffffffffffffffffff021916908373ffffffffffffffffffffffffffffffffffffffff16021790555060408201518160010160146101000a81548160ff0219169083600381111561332757613326615703565b5b0217905550905050806006600061333e6001614d8d565b81526020019081526020016000206000820151816000015560208201518160010160006101000a81548173ffffffffffffffffffffffffffffffffffffffff021916908373ffffffffffffffffffffffffffffffffffffffff160217905550604082015181600201556060820151816003015560808201518160040155905050600a60003373ffffffffffffffffffffffffffffffffffffffff1673ffffffffffffffffffffffffffffffffffffffff1681526020019081526020016000206134076001614d8d565b90806001815401808255809150506001900390600052602060002001600090919091909150556134828160000151600e60003373ffffffffffffffffffffffffffffffffffffffff1673ffffffffffffffffffffffffffffffffffffffff168152602001908152602001600020614c9690919063ffffffff16565b50505050565b613490614f42565b600960008381526020019081526020016000206040518060a0016040529081600082015481526020016001820160009054906101000a900473ffffffffffffffffffffffffffffffffffffffff1673ffffffffffffffffffffffffffffffffffffffff1673ffffffffffffffffffffffffffffffffffffffff1681526020016002820160009054906101000a900473ffffffffffffffffffffffffffffffffffffffff1673ffffffffffffffffffffffffffffffffffffffff1673ffffffffffffffffffffffffffffffffffffffff168152602001600382015481526020016004820154815250509050919050565b60008114156135ba576040517f8e277c2c00000000000000000000000000000000000000000000000000000000815260040160405180910390fd5b6135c46000614d77565b6135ce6001614d77565b42816135da9190615c4b565b9050600060405180606001604052806135f36000614d8d565b81526020013373ffffffffffffffffffffffffffffffffffffffff1681526020016000600381111561362857613627615703565b5b815250905060006040518060a001604052806136446001614d8d565b81526020013373ffffffffffffffffffffffffffffffffffffffff168152602001600660006136736001614d8d565b81526020019081526020016000206002015481526020016000815260200184815250905081600560006136a66000614d8d565b81526020019081526020016000206000820151816000015560208201518160010160006101000a81548173ffffffffffffffffffffffffffffffffffffffff021916908373ffffffffffffffffffffffffffffffffffffffff16021790555060408201518160010160146101000a81548160ff021916908360038111156137305761372f615703565b5b021790555090505080600660006137476001614d8d565b81526020019081526020016000206000820151816000015560208201518160010160006101000a81548173ffffffffffffffffffffffffffffffffffffffff021916908373ffffffffffffffffffffffffffffffffffffffff160217905550604082015181600201556060820151816003015560808201518160040155905050600a60003373ffffffffffffffffffffffffffffffffffffffff1673ffffffffffffffffffffffffffffffffffffffff1681526020019081526020016000206138106001614d8d565b908060018154018082558091505060019003906000526020600020016000909190919091505561388b8160000151600e60003373ffffffffffffffffffffffffffffffffffffffff1673ffffffffffffffffffffffffffffffffffffffff168152602001908152602001600020614c9690919063ffffffff16565b50505050565b613899614f9d565b600760008381526020019081526020016000206040518060e0016040529081600082015481526020016001820160009054906101000a900473ffffffffffffffffffffffffffffffffffffffff1673ffffffffffffffffffffffffffffffffffffffff1673ffffffffffffffffffffffffffffffffffffffff1681526020016002820160009054906101000a900473ffffffffffffffffffffffffffffffffffffffff1673ffffffffffffffffffffffffffffffffffffffff1673ffffffffffffffffffffffffffffffffffffffff1681526020016003820154815260200160048201548152602001600582015481526020016006820154815250509050919050565b813373ffffffffffffffffffffffffffffffffffffffff166007600083815260200190815260200160002060010160009054906101000a900473ffffffffffffffffffffffffffffffffffffffff1673ffffffffffffffffffffffffffffffffffffffff1614613a38576040517f0d9ff29600000000000000000000000000000000000000000000000000000000815260040160405180910390fd5b6000831480613a475750600082145b15613a7e576040517f8e277c2c00000000000000000000000000000000000000000000000000000000815260040160405180910390fd5b813414613ab7576040517f055932c300000000000000000000000000000000000000000000000000000000815260040160405180910390fd5b81600760008581526020019081526020016000206003016000828254613add9190615c4b565b9250508190555081601b60008581526020019081526020016000206000828254613b079190615c4b565b92505081905550613b5f83600f60003373ffffffffffffffffffffffffffffffffffffffff1673ffffffffffffffffffffffffffffffffffffffff168152602001908152602001600020614c7c90919063ffffffff16565b50613bb183600f60003373ffffffffffffffffffffffffffffffffffffffff1673ffffffffffffffffffffffffffffffffffffffff168152602001908152602001600020614c9690919063ffffffff16565b5060003073ffffffffffffffffffffffffffffffffffffffff1634604051613bd890615e1e565b60006040518083038185875af1925050503d8060008114613c15576040519150601f19603f3d011682016040523d82523d6000602084013e613c1a565b606091505b5050905080613c55576040517f75a8758900000000000000000000000000000000000000000000000000000000815260040160405180910390fd5b50505050565b600073ffffffffffffffffffffffffffffffffffffffff168273ffffffffffffffffffffffffffffffffffffffff161480613c965750600081145b15613ccd576040517f8e277c2c00000000000000000000000000000000000000000000000000000000815260040160405180910390fd5b613cd76000614d77565b613ce16004614d77565b4281613ced9190615c4b565b905060006040518060600160405280613d066000614d8d565b81526020013373ffffffffffffffffffffffffffffffffffffffff168152602001600380811115613d3a57613d39615703565b5b815250905060006040518060a00160405280613d566004614d8d565b81526020013373ffffffffffffffffffffffffffffffffffffffff1681526020018573ffffffffffffffffffffffffffffffffffffffff16815260200184815260200160096000613da76004614d8d565b81526020019081526020016000206004015481525090508160056000613dcd6000614d8d565b81526020019081526020016000206000820151816000015560208201518160010160006101000a81548173ffffffffffffffffffffffffffffffffffffffff021916908373ffffffffffffffffffffffffffffffffffffffff16021790555060408201518160010160146101000a81548160ff02191690836003811115613e5757613e56615703565b5b02179055509050508060096000613e6e6004614d8d565b81526020019081526020016000206000820151816000015560208201518160010160006101000a81548173ffffffffffffffffffffffffffffffffffffffff021916908373ffffffffffffffffffffffffffffffffffffffff16021790555060408201518160020160006101000a81548173ffffffffffffffffffffffffffffffffffffffff021916908373ffffffffffffffffffffffffffffffffffffffff1602179055506060820151816003015560808201518160040155905050600d60003373ffffffffffffffffffffffffffffffffffffffff1673ffffffffffffffffffffffffffffffffffffffff168152602001908152602001600020613f746004614d8d565b9080600181540180825580915050600190039060005260206000200160009091909190915055601460008573ffffffffffffffffffffffffffffffffffffffff1673ffffffffffffffffffffffffffffffffffffffff168152602001908152602001600020613fe36004614d8d565b908060018154018082558091505060019003906000526020600020016000909190919091505561405e8160000151601160003373ffffffffffffffffffffffffffffffffffffffff1673ffffffffffffffffffffffffffffffffffffffff168152602001908152602001600020614c9690919063ffffffff16565b5050505050565b600073ffffffffffffffffffffffffffffffffffffffff168473ffffffffffffffffffffffffffffffffffffffff1614806140a05750600083145b806140ab5750600082145b806140b65750600081145b156140ed576040517f8e277c2c00000000000000000000000000000000000000000000000000000000815260040160405180910390fd5b6140f76000614d77565b6141016003614d77565b428361410d9190615c4b565b9250600060405180606001604052806141266000614d8d565b81526020013373ffffffffffffffffffffffffffffffffffffffff1681526020016002600381111561415b5761415a615703565b5b815250905060006040518060e001604052806141776003614d8d565b81526020013373ffffffffffffffffffffffffffffffffffffffff1681526020018773ffffffffffffffffffffffffffffffffffffffff168152602001600860006141c26003614d8d565b815260200190815260200160002060030154815260200186815260200185815260200184815250905081600560006141fa6000614d8d565b81526020019081526020016000206000820151816000015560208201518160010160006101000a81548173ffffffffffffffffffffffffffffffffffffffff021916908373ffffffffffffffffffffffffffffffffffffffff16021790555060408201518160010160146101000a81548160ff0219169083600381111561428457614283615703565b5b0217905550905050806008600061429b6003614d8d565b81526020019081526020016000206000820151816000015560208201518160010160006101000a81548173ffffffffffffffffffffffffffffffffffffffff021916908373ffffffffffffffffffffffffffffffffffffffff16021790555060408201518160020160006101000a81548173ffffffffffffffffffffffffffffffffffffffff021916908373ffffffffffffffffffffffffffffffffffffffff160217905550606082015181600301556080820151816004015560a0820151816005015560c08201518160060155905050846016600061437b6003614d8d565b815260200190815260200160002081905550600c60003373ffffffffffffffffffffffffffffffffffffffff1673ffffffffffffffffffffffffffffffffffffffff1681526020019081526020016000206143d66003614d8d565b9080600181540180825580915050600190039060005260206000200160009091909190915055601360008773ffffffffffffffffffffffffffffffffffffffff1673ffffffffffffffffffffffffffffffffffffffff1681526020019081526020016000206144456003614d8d565b90806001815401808255809150506001900390600052602060002001600090919091909150556144c08160000151601060003373ffffffffffffffffffffffffffffffffffffffff1673ffffffffffffffffffffffffffffffffffffffff168152602001908152602001600020614c9690919063ffffffff16565b50505050505050565b813373ffffffffffffffffffffffffffffffffffffffff166006600083815260200190815260200160002060010160009054906101000a900473ffffffffffffffffffffffffffffffffffffffff1673ffffffffffffffffffffffffffffffffffffffff1614614565576040517f0d9ff29600000000000000000000000000000000000000000000000000000000815260040160405180910390fd5b60006040518060a001604052808581526020013373ffffffffffffffffffffffffffffffffffffffff168152602001600660008781526020019081526020016000206002015481526020018481526020016000815250905080600660008681526020019081526020016000206000820151816000015560208201518160010160006101000a81548173ffffffffffffffffffffffffffffffffffffffff021916908373ffffffffffffffffffffffffffffffffffffffff16021790555060408201518160020155606082015181600301556080820151816004015590505061469484600e60003373ffffffffffffffffffffffffffffffffffffffff1673ffffffffffffffffffffffffffffffffffffffff168152602001908152602001600020614c7c90919063ffffffff16565b506146e684600e60003373ffffffffffffffffffffffffffffffffffffffff1673ffffffffffffffffffffffffffffffffffffffff168152602001908152602001600020614c9690919063ffffffff16565b5050505050565b600073ffffffffffffffffffffffffffffffffffffffff168473ffffffffffffffffffffffffffffffffffffffff1614806147285750600083145b806147335750600082145b8061473e5750600081145b15614775576040517f8e277c2c00000000000000000000000000000000000000000000000000000000815260040160405180910390fd5b61477f6000614d77565b6147896002614d77565b42836147959190615c4b565b9250600060405180606001604052806147ae6000614d8d565b81526020013373ffffffffffffffffffffffffffffffffffffffff168152602001600160038111156147e3576147e2615703565b5b815250905060006040518060e001604052806147ff6002614d8d565b81526020013373ffffffffffffffffffffffffffffffffffffffff1681526020018773ffffffffffffffffffffffffffffffffffffffff1681526020016007600061484a6002614d8d565b815260200190815260200160002060030154815260200186815260200185815260200184815250905081600560006148826000614d8d565b81526020019081526020016000206000820151816000015560208201518160010160006101000a81548173ffffffffffffffffffffffffffffffffffffffff021916908373ffffffffffffffffffffffffffffffffffffffff16021790555060408201518160010160146101000a81548160ff0219169083600381111561490c5761490b615703565b5b021790555090505080600760006149236002614d8d565b81526020019081526020016000206000820151816000015560208201518160010160006101000a81548173ffffffffffffffffffffffffffffffffffffffff021916908373ffffffffffffffffffffffffffffffffffffffff16021790555060408201518160020160006101000a81548173ffffffffffffffffffffffffffffffffffffffff021916908373ffffffffffffffffffffffffffffffffffffffff160217905550606082015181600301556080820151816004015560a0820151816005015560c082015181600601559050508460156000614a036002614d8d565b815260200190815260200160002081905550600b60003373ffffffffffffffffffffffffffffffffffffffff1673ffffffffffffffffffffffffffffffffffffffff168152602001908152602001600020614a5e6002614d8d565b9080600181540180825580915050600190039060005260206000200160009091909190915055601260008773ffffffffffffffffffffffffffffffffffffffff1673ffffffffffffffffffffffffffffffffffffffff168152602001908152602001600020614acd6002614d8d565b9080600181540180825580915050600190039060005260206000200160009091909190915055614b488160000151600f60003373ffffffffffffffffffffffffffffffffffffffff1673ffffffffffffffffffffffffffffffffffffffff168152602001908152602001600020614c9690919063ffffffff16565b50505050505050565b600060096000838152602001908152602001600020600401549050919050565b614b79615094565b600860008381526020019081526020016000206040518060e0016040529081600082015481526020016001820160009054906101000a900473ffffffffffffffffffffffffffffffffffffffff1673ffffffffffffffffffffffffffffffffffffffff1673ffffffffffffffffffffffffffffffffffffffff1681526020016002820160009054906101000a900473ffffffffffffffffffffffffffffffffffffffff1673ffffffffffffffffffffffffffffffffffffffff1673ffffffffffffffffffffffffffffffffffffffff1681526020016003820154815260200160048201548152602001600582015481526020016006820154815250509050919050565b6000614c8e836000018360001b614d9b565b905092915050565b6000614ca8836000018360001b614eaf565b905092915050565b60005b8280549050811015614d725781838281548110614cd357614cd2615cd0565b5b90600052602060002001541415614d5f578260018480549050614cf69190615cff565b81548110614d0757614d06615cd0565b5b9060005260206000200154838281548110614d2557614d24615cd0565b5b906000526020600020018190555082805480614d4457614d43615e5c565b5b60019003818190600052602060002001600090559055614d72565b8080614d6a90615e8b565b915050614cb3565b505050565b6001816000016000828254019250508190555050565b600081600001549050919050565b60008083600101600084815260200190815260200160002054905060008114614ea3576000600182614dcd9190615cff565b9050600060018660000180549050614de59190615cff565b9050818114614e54576000866000018281548110614e0657614e05615cd0565b5b9060005260206000200154905080876000018481548110614e2a57614e29615cd0565b5b90600052602060002001819055508387600101600083815260200190815260200160002081905550505b85600001805480614e6857614e67615e5c565b5b600190038181906000526020600020016000905590558560010160008681526020019081526020016000206000905560019350505050614ea9565b60009150505b92915050565b6000614ebb8383614f1f565b614f14578260000182908060018154018082558091505060019003906000526020600020016000909190919091505582600001805490508360010160008481526020019081526020016000208190555060019050614f19565b600090505b92915050565b600080836001016000848152602001908152602001600020541415905092915050565b6040518060a0016040528060008152602001600073ffffffffffffffffffffffffffffffffffffffff168152602001600073ffffffffffffffffffffffffffffffffffffffff16815260200160008152602001600081525090565b6040518060e0016040528060008152602001600073ffffffffffffffffffffffffffffffffffffffff168152602001600073ffffffffffffffffffffffffffffffffffffffff168152602001600081526020016000815260200160008152602001600081525090565b6040518060a0016040528060008152602001600073ffffffffffffffffffffffffffffffffffffffff1681526020016000815260200160008152602001600081525090565b604051806060016040528060008152602001600073ffffffffffffffffffffffffffffffffffffffff1681526020016000600381111561508e5761508d615703565b5b81525090565b6040518060e0016040528060008152602001600073ffffffffffffffffffffffffffffffffffffffff168152602001600073ffffffffffffffffffffffffffffffffffffffff168152602001600081526020016000815260200160008152602001600081525090565b600080fd5b6000819050919050565b61511581615102565b811461512057600080fd5b50565b6000813590506151328161510c565b92915050565b600073ffffffffffffffffffffffffffffffffffffffff82169050919050565b600061516382615138565b9050919050565b61517381615158565b811461517e57600080fd5b50565b6000813590506151908161516a565b92915050565b600080600080600060a086880312156151b2576151b16150fd565b5b60006151c088828901615123565b95505060206151d188828901615181565b94505060406151e288828901615123565b93505060606151f388828901615123565b925050608061520488828901615123565b9150509295509295909350565b600081519050919050565b600082825260208201905092915050565b6000819050602082019050919050565b61524681615102565b82525050565b61525581615158565b82525050565b60a082016000820151615271600085018261523d565b506020820151615284602085018261524c565b506040820151615297604085018261524c565b5060608201516152aa606085018261523d565b5060808201516152bd608085018261523d565b50505050565b60006152cf838361525b565b60a08301905092915050565b6000602082019050919050565b60006152f382615211565b6152fd818561521c565b93506153088361522d565b8060005b8381101561533957815161532088826152c3565b975061532b836152db565b92505060018101905061530c565b5085935050505092915050565b6000602082019050818103600083015261536081846152e8565b905092915050565b600081519050919050565b600082825260208201905092915050565b6000819050602082019050919050565b60e0820160008201516153aa600085018261523d565b5060208201516153bd602085018261524c565b5060408201516153d0604085018261524c565b5060608201516153e3606085018261523d565b5060808201516153f6608085018261523d565b5060a082015161540960a085018261523d565b5060c082015161541c60c085018261523d565b50505050565b600061542e8383615394565b60e08301905092915050565b6000602082019050919050565b600061545282615368565b61545c8185615373565b935061546783615384565b8060005b8381101561549857815161547f8882615422565b975061548a8361543a565b92505060018101905061546b565b5085935050505092915050565b600060208201905081810360008301526154bf8184615447565b905092915050565b6000602082840312156154dd576154dc6150fd565b5b60006154eb84828501615123565b91505092915050565b60a08201600082015161550a600085018261523d565b50602082015161551d602085018261524c565b506040820151615530604085018261523d565b506060820151615543606085018261523d565b506080820151615556608085018261523d565b50505050565b600060a08201905061557160008301846154f4565b92915050565b600081519050919050565b600082825260208201905092915050565b6000819050602082019050919050565b60a0820160008201516155b9600085018261523d565b5060208201516155cc602085018261524c565b5060408201516155df604085018261523d565b5060608201516155f2606085018261523d565b506080820151615605608085018261523d565b50505050565b600061561783836155a3565b60a08301905092915050565b6000602082019050919050565b600061563b82615577565b6156458185615582565b935061565083615593565b8060005b83811015615681578151615668888261560b565b975061567383615623565b925050600181019050615654565b5085935050505092915050565b600060208201905081810360008301526156a88184615630565b905092915050565b6000806000606084860312156156c9576156c86150fd565b5b60006156d786828701615123565b93505060206156e886828701615181565b92505060406156f986828701615123565b9150509250925092565b7f4e487b7100000000000000000000000000000000000000000000000000000000600052602160045260246000fd5b6004811061574357615742615703565b5b50565b600081905061575482615732565b919050565b600061576482615746565b9050919050565b61577481615759565b82525050565b606082016000820151615790600085018261523d565b5060208201516157a3602085018261524c565b5060408201516157b6604085018261576b565b50505050565b60006060820190506157d1600083018461577a565b92915050565b600080604083850312156157ee576157ed6150fd565b5b60006157fc85828601615123565b925050602061580d85828601615123565b9150509250929050565b61582081615102565b82525050565b600060208201905061583b6000830184615817565b92915050565b600081519050919050565b600082825260208201905092915050565b6000819050602082019050919050565b60e082016000820151615883600085018261523d565b506020820151615896602085018261524c565b5060408201516158a9604085018261524c565b5060608201516158bc606085018261523d565b5060808201516158cf608085018261523d565b5060a08201516158e260a085018261523d565b5060c08201516158f560c085018261523d565b50505050565b6000615907838361586d565b60e08301905092915050565b6000602082019050919050565b600061592b82615841565b615935818561584c565b93506159408361585d565b8060005b8381101561597157815161595888826158fb565b975061596383615913565b925050600181019050615944565b5085935050505092915050565b600060208201905081810360008301526159988184615920565b905092915050565b60a0820160008201516159b6600085018261523d565b5060208201516159c9602085018261524c565b5060408201516159dc604085018261524c565b5060608201516159ef606085018261523d565b506080820151615a02608085018261523d565b50505050565b600060a082019050615a1d60008301846159a0565b92915050565b60e082016000820151615a39600085018261523d565b506020820151615a4c602085018261524c565b506040820151615a5f604085018261524c565b506060820151615a72606085018261523d565b506080820151615a85608085018261523d565b5060a0820151615a9860a085018261523d565b5060c0820151615aab60c085018261523d565b50505050565b600060e082019050615ac66000830184615a23565b92915050565b60008060408385031215615ae357615ae26150fd565b5b6000615af185828601615181565b9250506020615b0285828601615123565b9150509250929050565b60008060008060808587031215615b2657615b256150fd565b5b6000615b3487828801615181565b9450506020615b4587828801615123565b9350506040615b5687828801615123565b9250506060615b6787828801615123565b91505092959194509250565b60e082016000820151615b89600085018261523d565b506020820151615b9c602085018261524c565b506040820151615baf604085018261524c565b506060820151615bc2606085018261523d565b506080820151615bd5608085018261523d565b5060a0820151615be860a085018261523d565b5060c0820151615bfb60c085018261523d565b50505050565b600060e082019050615c166000830184615b73565b92915050565b7f4e487b7100000000000000000000000000000000000000000000000000000000600052601160045260246000fd5b6000615c5682615102565b9150615c6183615102565b9250827fffffffffffffffffffffffffffffffffffffffffffffffffffffffffffffffff03821115615c9657615c95615c1c565b5b828201905092915050565b7f4e487b7100000000000000000000000000000000000000000000000000000000600052604160045260246000fd5b7f4e487b7100000000000000000000000000000000000000000000000000000000600052603260045260246000fd5b6000615d0a82615102565b9150615d1583615102565b925082821015615d2857615d27615c1c565b5b828203905092915050565b7f4e487b7100000000000000000000000000000000000000000000000000000000600052601260045260246000fd5b6000615d6d82615102565b9150615d7883615102565b925082615d8857615d87615d33565b5b828204905092915050565b6000615d9e82615102565b9150615da983615102565b9250817fffffffffffffffffffffffffffffffffffffffffffffffffffffffffffffffff0483118215151615615de257615de1615c1c565b5b828202905092915050565b600081905092915050565b50565b6000615e08600083615ded565b9150615e1382615df8565b600082019050919050565b6000615e2982615dfb565b9150819050919050565b6000604082019050615e486000830185615817565b615e556020830184615817565b9392505050565b7f4e487b7100000000000000000000000000000000000000000000000000000000600052603160045260246000fd5b6000615e9682615102565b91507fffffffffffffffffffffffffffffffffffffffffffffffffffffffffffffffff821415615ec957615ec8615c1c565b5b60018201905091905056fea26469706673582212208ce380e52b24927aa0d3bad8f21c3da64911c2eb4dc6a889bf050303c1f63b5c64736f6c63430008090033",
  "linkReferences": {},
  "deployedLinkReferences": {}
}