{
  "_format": "hh-sol-artifact-1",
  "contractName": "Atium",
  "sourceName": "contracts/Atium.sol",
  "abi": [
    {
      "inputs": [],
      "name": "Atium_Cancelled",
      "type": "error"
    },
    {
      "inputs": [],
      "name": "Atium_NotAmount",
      "type": "error"
    },
    {
      "inputs": [],
      "name": "Atium_NotOwnerId",
      "type": "error"
    },
    {
      "inputs": [
        {
          "internalType": "uint256",
          "name": "goal",
          "type": "uint256"
        },
        {
          "internalType": "uint256",
          "name": "rem",
          "type": "uint256"
        }
      ],
      "name": "Atium_SavingsGoal_Exceeded",
      "type": "error"
    },
    {
      "inputs": [],
      "name": "Atium_SavingsGoal_Not_Hit",
      "type": "error"
    },
    {
      "inputs": [],
      "name": "Atium_TransactionFailed",
      "type": "error"
    },
    {
      "inputs": [],
      "name": "Atium_ZeroInput",
      "type": "error"
    },
    {
      "inputs": [
        {
          "internalType": "uint256",
          "name": "_id",
          "type": "uint256"
        },
        {
          "internalType": "uint256",
          "name": "_amount",
          "type": "uint256"
        }
      ],
      "name": "allowance",
      "outputs": [],
      "stateMutability": "payable",
      "type": "function"
    },
    {
      "inputs": [
        {
          "internalType": "address",
          "name": "_receiver",
          "type": "address"
        },
        {
          "internalType": "uint256",
          "name": "_startDate",
          "type": "uint256"
        },
        {
          "internalType": "uint256",
          "name": "_amount",
          "type": "uint256"
        },
        {
          "internalType": "uint256",
          "name": "_interval",
          "type": "uint256"
        }
      ],
      "name": "allowancePlan",
      "outputs": [],
      "stateMutability": "nonpayable",
      "type": "function"
    },
    {
      "inputs": [],
      "name": "allowanceWithdraw",
      "outputs": [],
      "stateMutability": "nonpayable",
      "type": "function"
    },
    {
      "inputs": [
        {
          "internalType": "uint256",
          "name": "_id",
          "type": "uint256"
        }
      ],
      "name": "cancelAllowance",
      "outputs": [],
      "stateMutability": "nonpayable",
      "type": "function"
    },
    {
      "inputs": [
        {
          "internalType": "uint256",
          "name": "_id",
          "type": "uint256"
        }
      ],
      "name": "cancelGift",
      "outputs": [],
      "stateMutability": "nonpayable",
      "type": "function"
    },
    {
      "inputs": [
        {
          "internalType": "uint256",
          "name": "_id",
          "type": "uint256"
        }
      ],
      "name": "cancelSavings",
      "outputs": [],
      "stateMutability": "nonpayable",
      "type": "function"
    },
    {
      "inputs": [
        {
          "internalType": "uint256",
          "name": "_id",
          "type": "uint256"
        }
      ],
      "name": "cancelTrustfund",
      "outputs": [],
      "stateMutability": "nonpayable",
      "type": "function"
    },
    {
      "inputs": [
        {
          "internalType": "address",
          "name": "_user",
          "type": "address"
        }
      ],
      "name": "getAllActiveAllowance",
      "outputs": [
        {
          "components": [
            {
              "internalType": "uint256",
              "name": "id",
              "type": "uint256"
            },
            {
              "internalType": "address",
              "name": "sender",
              "type": "address"
            },
            {
              "internalType": "address",
              "name": "receiver",
              "type": "address"
            },
            {
              "internalType": "uint256",
              "name": "deposit",
              "type": "uint256"
            },
            {
              "internalType": "uint256",
              "name": "startDate",
              "type": "uint256"
            },
            {
              "internalType": "uint256",
              "name": "withdrawalAmount",
              "type": "uint256"
            },
            {
              "internalType": "uint256",
              "name": "withdrawalInterval",
              "type": "uint256"
            }
          ],
          "internalType": "struct AtiumPlan.AllowanceList[]",
          "name": "",
          "type": "tuple[]"
        }
      ],
      "stateMutability": "view",
      "type": "function"
    },
    {
      "inputs": [
        {
          "internalType": "address",
          "name": "_user",
          "type": "address"
        }
      ],
      "name": "getAllActiveGift",
      "outputs": [
        {
          "components": [
            {
              "internalType": "uint256",
              "name": "id",
              "type": "uint256"
            },
            {
              "internalType": "address",
              "name": "sender",
              "type": "address"
            },
            {
              "internalType": "address",
              "name": "receiver",
              "type": "address"
            },
            {
              "internalType": "uint256",
              "name": "date",
              "type": "uint256"
            },
            {
              "internalType": "uint256",
              "name": "amount",
              "type": "uint256"
            }
          ],
          "internalType": "struct AtiumPlan.GiftList[]",
          "name": "",
          "type": "tuple[]"
        }
      ],
      "stateMutability": "view",
      "type": "function"
    },
    {
      "inputs": [
        {
          "internalType": "address",
          "name": "_user",
          "type": "address"
        }
      ],
      "name": "getAllActiveSavings",
      "outputs": [
        {
          "components": [
            {
              "internalType": "uint256",
              "name": "id",
              "type": "uint256"
            },
            {
              "internalType": "address",
              "name": "user",
              "type": "address"
            },
            {
              "internalType": "uint256",
              "name": "amount",
              "type": "uint256"
            },
            {
              "internalType": "uint256",
              "name": "goal",
              "type": "uint256"
            },
            {
              "internalType": "uint256",
              "name": "time",
              "type": "uint256"
            }
          ],
          "internalType": "struct AtiumPlan.SavingsList[]",
          "name": "",
          "type": "tuple[]"
        }
      ],
      "stateMutability": "view",
      "type": "function"
    },
    {
      "inputs": [
        {
          "internalType": "address",
          "name": "_user",
          "type": "address"
        }
      ],
      "name": "getAllActiveTrustfund",
      "outputs": [
        {
          "components": [
            {
              "internalType": "uint256",
              "name": "id",
              "type": "uint256"
            },
            {
              "internalType": "address",
              "name": "sender",
              "type": "address"
            },
            {
              "internalType": "address",
              "name": "receiver",
              "type": "address"
            },
            {
              "internalType": "uint256",
              "name": "amount",
              "type": "uint256"
            },
            {
              "internalType": "uint256",
              "name": "startDate",
              "type": "uint256"
            },
            {
              "internalType": "uint256",
              "name": "withdrawalAmount",
              "type": "uint256"
            },
            {
              "internalType": "uint256",
              "name": "withdrawalInterval",
              "type": "uint256"
            }
          ],
          "internalType": "struct AtiumPlan.TrustFundList[]",
          "name": "",
          "type": "tuple[]"
        }
      ],
      "stateMutability": "view",
      "type": "function"
    },
    {
      "inputs": [
        {
          "internalType": "uint256",
          "name": "_id",
          "type": "uint256"
        }
      ],
      "name": "getAllowance",
      "outputs": [
        {
          "components": [
            {
              "internalType": "uint256",
              "name": "id",
              "type": "uint256"
            },
            {
              "internalType": "address",
              "name": "sender",
              "type": "address"
            },
            {
              "internalType": "address",
              "name": "receiver",
              "type": "address"
            },
            {
              "internalType": "uint256",
              "name": "deposit",
              "type": "uint256"
            },
            {
              "internalType": "uint256",
              "name": "startDate",
              "type": "uint256"
            },
            {
              "internalType": "uint256",
              "name": "withdrawalAmount",
              "type": "uint256"
            },
            {
              "internalType": "uint256",
              "name": "withdrawalInterval",
              "type": "uint256"
            }
          ],
          "internalType": "struct AtiumPlan.AllowanceList",
          "name": "",
          "type": "tuple"
        }
      ],
      "stateMutability": "view",
      "type": "function"
    },
    {
      "inputs": [
        {
          "internalType": "uint256",
          "name": "_id",
          "type": "uint256"
        }
      ],
      "name": "getAllowanceBalance",
      "outputs": [
        {
          "internalType": "uint256",
          "name": "",
          "type": "uint256"
        }
      ],
      "stateMutability": "view",
      "type": "function"
    },
    {
      "inputs": [
        {
          "internalType": "uint256",
          "name": "_id",
          "type": "uint256"
        }
      ],
      "name": "getAtium",
      "outputs": [
        {
          "components": [
            {
              "internalType": "uint256",
              "name": "id",
              "type": "uint256"
            },
            {
              "internalType": "address",
              "name": "user",
              "type": "address"
            },
            {
              "internalType": "enum AtiumPlan.Select",
              "name": "select",
              "type": "uint8"
            }
          ],
          "internalType": "struct AtiumPlan.AtiumList",
          "name": "",
          "type": "tuple"
        }
      ],
      "stateMutability": "view",
      "type": "function"
    },
    {
      "inputs": [
        {
          "internalType": "uint256",
          "name": "_id",
          "type": "uint256"
        }
      ],
      "name": "getGift",
      "outputs": [
        {
          "components": [
            {
              "internalType": "uint256",
              "name": "id",
              "type": "uint256"
            },
            {
              "internalType": "address",
              "name": "sender",
              "type": "address"
            },
            {
              "internalType": "address",
              "name": "receiver",
              "type": "address"
            },
            {
              "internalType": "uint256",
              "name": "date",
              "type": "uint256"
            },
            {
              "internalType": "uint256",
              "name": "amount",
              "type": "uint256"
            }
          ],
          "internalType": "struct AtiumPlan.GiftList",
          "name": "",
          "type": "tuple"
        }
      ],
      "stateMutability": "view",
      "type": "function"
    },
    {
      "inputs": [
        {
          "internalType": "uint256",
          "name": "_id",
          "type": "uint256"
        }
      ],
      "name": "getGiftBalance",
      "outputs": [
        {
          "internalType": "uint256",
          "name": "",
          "type": "uint256"
        }
      ],
      "stateMutability": "view",
      "type": "function"
    },
    {
      "inputs": [
        {
          "internalType": "uint256",
          "name": "_id",
          "type": "uint256"
        }
      ],
      "name": "getSavings",
      "outputs": [
        {
          "components": [
            {
              "internalType": "uint256",
              "name": "id",
              "type": "uint256"
            },
            {
              "internalType": "address",
              "name": "user",
              "type": "address"
            },
            {
              "internalType": "uint256",
              "name": "amount",
              "type": "uint256"
            },
            {
              "internalType": "uint256",
              "name": "goal",
              "type": "uint256"
            },
            {
              "internalType": "uint256",
              "name": "time",
              "type": "uint256"
            }
          ],
          "internalType": "struct AtiumPlan.SavingsList",
          "name": "",
          "type": "tuple"
        }
      ],
      "stateMutability": "view",
      "type": "function"
    },
    {
      "inputs": [
        {
          "internalType": "uint256",
          "name": "_id",
          "type": "uint256"
        }
      ],
      "name": "getSavingsBalance",
      "outputs": [
        {
          "internalType": "uint256",
          "name": "",
          "type": "uint256"
        }
      ],
      "stateMutability": "view",
      "type": "function"
    },
    {
      "inputs": [
        {
          "internalType": "uint256",
          "name": "_id",
          "type": "uint256"
        }
      ],
      "name": "getTrustfund",
      "outputs": [
        {
          "components": [
            {
              "internalType": "uint256",
              "name": "id",
              "type": "uint256"
            },
            {
              "internalType": "address",
              "name": "sender",
              "type": "address"
            },
            {
              "internalType": "address",
              "name": "receiver",
              "type": "address"
            },
            {
              "internalType": "uint256",
              "name": "amount",
              "type": "uint256"
            },
            {
              "internalType": "uint256",
              "name": "startDate",
              "type": "uint256"
            },
            {
              "internalType": "uint256",
              "name": "withdrawalAmount",
              "type": "uint256"
            },
            {
              "internalType": "uint256",
              "name": "withdrawalInterval",
              "type": "uint256"
            }
          ],
          "internalType": "struct AtiumPlan.TrustFundList",
          "name": "",
          "type": "tuple"
        }
      ],
      "stateMutability": "view",
      "type": "function"
    },
    {
      "inputs": [
        {
          "internalType": "uint256",
          "name": "_id",
          "type": "uint256"
        }
      ],
      "name": "getTrustfundBalance",
      "outputs": [
        {
          "internalType": "uint256",
          "name": "",
          "type": "uint256"
        }
      ],
      "stateMutability": "view",
      "type": "function"
    },
    {
      "inputs": [
        {
          "internalType": "uint256",
          "name": "_id",
          "type": "uint256"
        },
        {
          "internalType": "uint256",
          "name": "_amount",
          "type": "uint256"
        }
      ],
      "name": "gift",
      "outputs": [],
      "stateMutability": "payable",
      "type": "function"
    },
    {
      "inputs": [
        {
          "internalType": "address",
          "name": "_receiver",
          "type": "address"
        },
        {
          "internalType": "uint256",
          "name": "_date",
          "type": "uint256"
        }
      ],
      "name": "giftPlan",
      "outputs": [],
      "stateMutability": "nonpayable",
      "type": "function"
    },
    {
      "inputs": [],
      "name": "giftWithdraw",
      "outputs": [],
      "stateMutability": "nonpayable",
      "type": "function"
    },
    {
      "inputs": [
        {
          "internalType": "uint256",
          "name": "_id",
          "type": "uint256"
        },
        {
          "internalType": "uint256",
          "name": "_amount",
          "type": "uint256"
        }
      ],
      "name": "save",
      "outputs": [],
      "stateMutability": "payable",
      "type": "function"
    },
    {
      "inputs": [
        {
          "internalType": "uint256",
          "name": "_goal",
          "type": "uint256"
        }
      ],
      "name": "savingsPlanGoal",
      "outputs": [],
      "stateMutability": "nonpayable",
      "type": "function"
    },
    {
      "inputs": [
        {
          "internalType": "uint256",
          "name": "_time",
          "type": "uint256"
        }
      ],
      "name": "savingsPlanTime",
      "outputs": [],
      "stateMutability": "nonpayable",
      "type": "function"
    },
    {
      "inputs": [
        {
          "internalType": "uint256",
          "name": "_id",
          "type": "uint256"
        },
        {
          "internalType": "uint256",
          "name": "_amount",
          "type": "uint256"
        }
      ],
      "name": "trustfund",
      "outputs": [],
      "stateMutability": "payable",
      "type": "function"
    },
    {
      "inputs": [
        {
          "internalType": "address",
          "name": "_receiver",
          "type": "address"
        },
        {
          "internalType": "uint256",
          "name": "_startDate",
          "type": "uint256"
        },
        {
          "internalType": "uint256",
          "name": "_amount",
          "type": "uint256"
        },
        {
          "internalType": "uint256",
          "name": "_interval",
          "type": "uint256"
        }
      ],
      "name": "trustfundPlan",
      "outputs": [],
      "stateMutability": "nonpayable",
      "type": "function"
    },
    {
      "inputs": [],
      "name": "trustfundWithdraw",
      "outputs": [],
      "stateMutability": "nonpayable",
      "type": "function"
    },
    {
      "inputs": [
        {
          "internalType": "uint256",
          "name": "_id",
          "type": "uint256"
        }
      ],
      "name": "w_save",
      "outputs": [],
      "stateMutability": "nonpayable",
      "type": "function"
    },
    {
      "stateMutability": "payable",
      "type": "receive"
    }
  ],
  "bytecode": "0x608060405234801561001057600080fd5b50615244806100206000396000f3fe6080604052600436106101d15760003560e01c806393ea685b116100f7578063cf6e282711610095578063e4d9fff811610064578063e4d9fff814610679578063ed5579fc146106a2578063f7b05eea146106cb578063fa278ae614610708576101d8565b8063cf6e2827146105d3578063d14fb6db14610610578063d4096aa114610639578063d67d10dc14610650576101d8565b8063bf6713f6116100d1578063bf6713f614610514578063c315d63514610551578063c960174e1461057a578063cca16fa8146105b7576101d8565b806393ea685b14610485578063aca9d54c146104c2578063ad31cc9f146104eb576101d8565b8063640117be1161016f57806383a74acc1161013e57806383a74acc146103da57806384c8d490146103f65780638ee69ae8146104335780639378d65a1461045c576101d8565b8063640117be1461030757806367b452141461032357806381acffe8146103605780638207d0f91461039d576101d8565b806339d502fd116101ab57806339d502fd146102805780633e346eeb14610297578063517e4b67146102d457806357fc0363146102eb576101d8565b80631072354b146101dd57806313bfb1821461020657806316aa223414610243576101d8565b366101d857005b600080fd5b3480156101e957600080fd5b5061020460048036038101906101ff9190614513565b610745565b005b34801561021257600080fd5b5061022d60048036038101906102289190614513565b610971565b60405161023a91906145f8565b60405180910390f35b34801561024f57600080fd5b5061026a6004803603810190610265919061463f565b610a1c565b60405161027791906147a9565b60405180910390f35b34801561028c57600080fd5b50610295610c64565b005b3480156102a357600080fd5b506102be60048036038101906102b99190614513565b610cb8565b6040516102cb9190614884565b60405180910390f35b3480156102e057600080fd5b506102e9610d80565b005b6103056004803603810190610300919061489f565b610dee565b005b610321600480360381019061031c919061489f565b6110aa565b005b34801561032f57600080fd5b5061034a60048036038101906103459190614513565b6112f3565b60405161035791906148ee565b60405180910390f35b34801561036c57600080fd5b5061038760048036038101906103829190614513565b611313565b60405161039491906148ee565b60405180910390f35b3480156103a957600080fd5b506103c460048036038101906103bf9190614513565b611330565b6040516103d191906148ee565b60405180910390f35b6103f460048036038101906103ef919061489f565b61134d565b005b34801561040257600080fd5b5061041d6004803603810190610418919061463f565b61153e565b60405161042a9190614a20565b60405180910390f35b34801561043f57600080fd5b5061045a60048036038101906104559190614513565b611772565b005b34801561046857600080fd5b50610483600480360381019061047e9190614513565b6119a1565b005b34801561049157600080fd5b506104ac60048036038101906104a7919061463f565b611bd0565b6040516104b99190614b7f565b60405180910390f35b3480156104ce57600080fd5b506104e960048036038101906104e49190614513565b611e18565b005b3480156104f757600080fd5b50610512600480360381019061050d9190614513565b61209c565b005b34801561052057600080fd5b5061053b60048036038101906105369190614513565b61234a565b6040516105489190614c09565b60405180910390f35b34801561055d57600080fd5b5061057860048036038101906105739190614513565b612441565b005b34801561058657600080fd5b506105a1600480360381019061059c9190614513565b6126ef565b6040516105ae9190614cb2565b60405180910390f35b6105d160048036038101906105cc919061489f565b6127fa565b005b3480156105df57600080fd5b506105fa60048036038101906105f5919061463f565b612a43565b6040516106079190614de4565b60405180910390f35b34801561061c57600080fd5b5061063760048036038101906106329190614e06565b612c2b565b005b34801561064557600080fd5b5061064e612fd1565b005b34801561065c57600080fd5b5061067760048036038101906106729190614e46565b61303f565b005b34801561068557600080fd5b506106a0600480360381019061069b9190614513565b61343f565b005b3480156106ae57600080fd5b506106c960048036038101906106c49190614e46565b61366b565b005b3480156106d757600080fd5b506106f260048036038101906106ed9190614513565b613a6b565b6040516106ff91906148ee565b60405180910390f35b34801561071457600080fd5b5061072f600480360381019061072a9190614513565b613a8b565b60405161073c9190614f3b565b60405180910390f35b803373ffffffffffffffffffffffffffffffffffffffff166008600083815260200190815260200160002060010160009054906101000a900473ffffffffffffffffffffffffffffffffffffffff1673ffffffffffffffffffffffffffffffffffffffff16146107e1576040517f0d9ff29600000000000000000000000000000000000000000000000000000000815260040160405180910390fd5b6015600083815260200190815260200160002060009054906101000a900460ff1615610839576040517f18fbf5ed00000000000000000000000000000000000000000000000000000000815260040160405180910390fd5b61088a82600c60003373ffffffffffffffffffffffffffffffffffffffff1673ffffffffffffffffffffffffffffffffffffffff168152602001908152602001600020613b9690919063ffffffff16565b60016015600084815260200190815260200160002060006101000a81548160ff02191690831515021790555060003373ffffffffffffffffffffffffffffffffffffffff1660186000858152602001908152602001600020546040516108ef90614f87565b60006040518083038185875af1925050503d806000811461092c576040519150601f19603f3d011682016040523d82523d6000602084013e610931565b606091505b505090508061096c576040517f75a8758900000000000000000000000000000000000000000000000000000000815260040160405180910390fd5b505050565b61097961431d565b600660008381526020019081526020016000206040518060a0016040529081600082015481526020016001820160009054906101000a900473ffffffffffffffffffffffffffffffffffffffff1673ffffffffffffffffffffffffffffffffffffffff1673ffffffffffffffffffffffffffffffffffffffff16815260200160028201548152602001600382015481526020016004820154815250509050919050565b60606000600b60008473ffffffffffffffffffffffffffffffffffffffff1673ffffffffffffffffffffffffffffffffffffffff168152602001908152602001600020805480602002602001604051908101604052809291908181526020018280548015610aa957602002820191906000526020600020905b815481526020019060010190808311610a95575b5050505050905060008151905060008167ffffffffffffffff811115610ad257610ad1614f9c565b5b604051908082528060200260200182016040528015610b0b57816020015b610af8614362565b815260200190600190039081610af05790505b50905060005b82811015610c585760076000858381518110610b3057610b2f614fcb565b5b602002602001015181526020019081526020016000206040518060e0016040529081600082015481526020016001820160009054906101000a900473ffffffffffffffffffffffffffffffffffffffff1673ffffffffffffffffffffffffffffffffffffffff1673ffffffffffffffffffffffffffffffffffffffff1681526020016002820160009054906101000a900473ffffffffffffffffffffffffffffffffffffffff1673ffffffffffffffffffffffffffffffffffffffff1673ffffffffffffffffffffffffffffffffffffffff168152602001600382015481526020016004820154815260200160058201548152602001600682015481525050828281518110610c4257610c41614fcb565b5b6020026020010181905250806001019050610b11565b50809350505050919050565b6000600190505b610c756004613c5d565b8111610cb55760096000828152602001908152602001600020600301544210610ca257610ca181613c6b565b5b8080610cad90615029565b915050610c6b565b50565b610cc06143cb565b60056000838152602001908152602001600020604051806060016040529081600082015481526020016001820160009054906101000a900473ffffffffffffffffffffffffffffffffffffffff1673ffffffffffffffffffffffffffffffffffffffff1673ffffffffffffffffffffffffffffffffffffffff1681526020016001820160149054906101000a900460ff166003811115610d6357610d626147cb565b5b6003811115610d7557610d746147cb565b5b815250509050919050565b6000600190505b610d916002613c5d565b8111610deb57600060176000838152602001908152602001600020541115610dd85760116000828152602001908152602001600020544210610dd757610dd681613e11565b5b5b8080610de390615029565b915050610d87565b50565b813373ffffffffffffffffffffffffffffffffffffffff166006600083815260200190815260200160002060010160009054906101000a900473ffffffffffffffffffffffffffffffffffffffff1673ffffffffffffffffffffffffffffffffffffffff1614610e8a576040517f0d9ff29600000000000000000000000000000000000000000000000000000000815260040160405180910390fd5b6000831480610e995750600082145b15610ed0576040517f8e277c2c00000000000000000000000000000000000000000000000000000000815260040160405180910390fd5b813414610f09576040517f055932c300000000000000000000000000000000000000000000000000000000815260040160405180910390fd5b6006600084815260200190815260200160002060030154600660008581526020019081526020016000206002015483610f429190615072565b1115610fd457600660008481526020019081526020016000206003015460066000858152602001908152602001600020600201546006600086815260200190815260200160002060030154610f9791906150c8565b6040517ff6f09cc8000000000000000000000000000000000000000000000000000000008152600401610fcb9291906150fc565b60405180910390fd5b81600660008581526020019081526020016000206002016000828254610ffa9190615072565b9250508190555060003073ffffffffffffffffffffffffffffffffffffffff163460405161102790614f87565b60006040518083038185875af1925050503d8060008114611064576040519150601f19603f3d011682016040523d82523d6000602084013e611069565b606091505b50509050806110a4576040517f75a8758900000000000000000000000000000000000000000000000000000000815260040160405180910390fd5b50505050565b813373ffffffffffffffffffffffffffffffffffffffff166008600083815260200190815260200160002060010160009054906101000a900473ffffffffffffffffffffffffffffffffffffffff1673ffffffffffffffffffffffffffffffffffffffff1614611146576040517f0d9ff29600000000000000000000000000000000000000000000000000000000815260040160405180910390fd5b60008314806111555750600082145b1561118c576040517f8e277c2c00000000000000000000000000000000000000000000000000000000815260040160405180910390fd5b8134146111c5576040517f055932c300000000000000000000000000000000000000000000000000000000815260040160405180910390fd5b60086000848152602001908152602001600020600401546012600085815260200190815260200160002081905550816008600085815260200190815260200160002060030160008282546112199190615072565b92505081905550816018600085815260200190815260200160002060008282546112439190615072565b9250508190555060003073ffffffffffffffffffffffffffffffffffffffff163460405161127090614f87565b60006040518083038185875af1925050503d80600081146112ad576040519150601f19603f3d011682016040523d82523d6000602084013e6112b2565b606091505b50509050806112ed576040517f75a8758900000000000000000000000000000000000000000000000000000000815260040160405180910390fd5b50505050565b600060066000838152602001908152602001600020600201549050919050565b600060176000838152602001908152602001600020549050919050565b600060186000838152602001908152602001600020549050919050565b813373ffffffffffffffffffffffffffffffffffffffff166009600083815260200190815260200160002060010160009054906101000a900473ffffffffffffffffffffffffffffffffffffffff1673ffffffffffffffffffffffffffffffffffffffff16146113e9576040517f0d9ff29600000000000000000000000000000000000000000000000000000000815260040160405180910390fd5b60008314806113f85750600082145b1561142f576040517f8e277c2c00000000000000000000000000000000000000000000000000000000815260040160405180910390fd5b813414611468576040517f055932c300000000000000000000000000000000000000000000000000000000815260040160405180910390fd5b8160096000858152602001908152602001600020600401600082825461148e9190615072565b9250508190555060003073ffffffffffffffffffffffffffffffffffffffff16346040516114bb90614f87565b60006040518083038185875af1925050503d80600081146114f8576040519150601f19603f3d011682016040523d82523d6000602084013e6114fd565b606091505b5050905080611538576040517f75a8758900000000000000000000000000000000000000000000000000000000815260040160405180910390fd5b50505050565b60606000600d60008473ffffffffffffffffffffffffffffffffffffffff1673ffffffffffffffffffffffffffffffffffffffff1681526020019081526020016000208054806020026020016040519081016040528092919081815260200182805480156115cb57602002820191906000526020600020905b8154815260200190600101908083116115b7575b5050505050905060008151905060008167ffffffffffffffff8111156115f4576115f3614f9c565b5b60405190808252806020026020018201604052801561162d57816020015b61161a614414565b8152602001906001900390816116125790505b50905060005b82811015611766576009600085838151811061165257611651614fcb565b5b602002602001015181526020019081526020016000206040518060a0016040529081600082015481526020016001820160009054906101000a900473ffffffffffffffffffffffffffffffffffffffff1673ffffffffffffffffffffffffffffffffffffffff1673ffffffffffffffffffffffffffffffffffffffff1681526020016002820160009054906101000a900473ffffffffffffffffffffffffffffffffffffffff1673ffffffffffffffffffffffffffffffffffffffff1673ffffffffffffffffffffffffffffffffffffffff168152602001600382015481526020016004820154815250508282815181106117505761174f614fcb565b5b6020026020010181905250806001019050611633565b50809350505050919050565b803373ffffffffffffffffffffffffffffffffffffffff166009600083815260200190815260200160002060010160009054906101000a900473ffffffffffffffffffffffffffffffffffffffff1673ffffffffffffffffffffffffffffffffffffffff161461180e576040517f0d9ff29600000000000000000000000000000000000000000000000000000000815260040160405180910390fd5b6016600083815260200190815260200160002060009054906101000a900460ff1615611866576040517f18fbf5ed00000000000000000000000000000000000000000000000000000000815260040160405180910390fd5b6118b782600d60003373ffffffffffffffffffffffffffffffffffffffff1673ffffffffffffffffffffffffffffffffffffffff168152602001908152602001600020613b9690919063ffffffff16565b60016016600084815260200190815260200160002060006101000a81548160ff02191690831515021790555060003373ffffffffffffffffffffffffffffffffffffffff16600960008581526020019081526020016000206004015460405161191f90614f87565b60006040518083038185875af1925050503d806000811461195c576040519150601f19603f3d011682016040523d82523d6000602084013e611961565b606091505b505090508061199c576040517f75a8758900000000000000000000000000000000000000000000000000000000815260040160405180910390fd5b505050565b803373ffffffffffffffffffffffffffffffffffffffff166006600083815260200190815260200160002060010160009054906101000a900473ffffffffffffffffffffffffffffffffffffffff1673ffffffffffffffffffffffffffffffffffffffff1614611a3d576040517f0d9ff29600000000000000000000000000000000000000000000000000000000815260040160405180910390fd5b6013600083815260200190815260200160002060009054906101000a900460ff1615611a95576040517f18fbf5ed00000000000000000000000000000000000000000000000000000000815260040160405180910390fd5b611ae682600a60003373ffffffffffffffffffffffffffffffffffffffff1673ffffffffffffffffffffffffffffffffffffffff168152602001908152602001600020613b9690919063ffffffff16565b60016013600084815260200190815260200160002060006101000a81548160ff02191690831515021790555060003373ffffffffffffffffffffffffffffffffffffffff166006600085815260200190815260200160002060020154604051611b4e90614f87565b60006040518083038185875af1925050503d8060008114611b8b576040519150601f19603f3d011682016040523d82523d6000602084013e611b90565b606091505b5050905080611bcb576040517f75a8758900000000000000000000000000000000000000000000000000000000815260040160405180910390fd5b505050565b60606000600c60008473ffffffffffffffffffffffffffffffffffffffff1673ffffffffffffffffffffffffffffffffffffffff168152602001908152602001600020805480602002602001604051908101604052809291908181526020018280548015611c5d57602002820191906000526020600020905b815481526020019060010190808311611c49575b5050505050905060008151905060008167ffffffffffffffff811115611c8657611c85614f9c565b5b604051908082528060200260200182016040528015611cbf57816020015b611cac61446f565b815260200190600190039081611ca45790505b50905060005b82811015611e0c5760086000858381518110611ce457611ce3614fcb565b5b602002602001015181526020019081526020016000206040518060e0016040529081600082015481526020016001820160009054906101000a900473ffffffffffffffffffffffffffffffffffffffff1673ffffffffffffffffffffffffffffffffffffffff1673ffffffffffffffffffffffffffffffffffffffff1681526020016002820160009054906101000a900473ffffffffffffffffffffffffffffffffffffffff1673ffffffffffffffffffffffffffffffffffffffff1673ffffffffffffffffffffffffffffffffffffffff168152602001600382015481526020016004820154815260200160058201548152602001600682015481525050828281518110611df657611df5614fcb565b5b6020026020010181905250806001019050611cc5565b50809350505050919050565b600660008281526020019081526020016000206003015460066000838152602001908152602001600020600201541080611e675750600660008281526020019081526020016000206004015442105b15611e9e576040517fa3fc45c600000000000000000000000000000000000000000000000000000000815260040160405180910390fd5b6013600082815260200190815260200160002060009054906101000a900460ff1615611ef6576040517f18fbf5ed00000000000000000000000000000000000000000000000000000000815260040160405180910390fd5b611f7d81600a60006006600086815260200190815260200160002060010160009054906101000a900473ffffffffffffffffffffffffffffffffffffffff1673ffffffffffffffffffffffffffffffffffffffff1673ffffffffffffffffffffffffffffffffffffffff168152602001908152602001600020613b9690919063ffffffff16565b60016013600083815260200190815260200160002060006101000a81548160ff02191690831515021790555060006006600083815260200190815260200160002060010160009054906101000a900473ffffffffffffffffffffffffffffffffffffffff1673ffffffffffffffffffffffffffffffffffffffff16600660008481526020019081526020016000206002015460405161201b90614f87565b60006040518083038185875af1925050503d8060008114612058576040519150601f19603f3d011682016040523d82523d6000602084013e61205d565b606091505b5050905080612098576040517f75a8758900000000000000000000000000000000000000000000000000000000815260040160405180910390fd5b5050565b60008114156120d7576040517f8e277c2c00000000000000000000000000000000000000000000000000000000815260040160405180910390fd5b6120e16000614081565b6120eb6001614081565b600060405180606001604052806121026000613c5d565b81526020013373ffffffffffffffffffffffffffffffffffffffff16815260200160006003811115612137576121366147cb565b5b815250905060006040518060a001604052806121536001613c5d565b81526020013373ffffffffffffffffffffffffffffffffffffffff168152602001600660006121826001613c5d565b81526020019081526020016000206002015481526020018481526020016000815250905081600560006121b56000613c5d565b81526020019081526020016000206000820151816000015560208201518160010160006101000a81548173ffffffffffffffffffffffffffffffffffffffff021916908373ffffffffffffffffffffffffffffffffffffffff16021790555060408201518160010160146101000a81548160ff0219169083600381111561223f5761223e6147cb565b5b021790555090505080600660006122566001613c5d565b81526020019081526020016000206000820151816000015560208201518160010160006101000a81548173ffffffffffffffffffffffffffffffffffffffff021916908373ffffffffffffffffffffffffffffffffffffffff160217905550604082015181600201556060820151816003015560808201518160040155905050600a60003373ffffffffffffffffffffffffffffffffffffffff1673ffffffffffffffffffffffffffffffffffffffff16815260200190815260200160002061231f6001613c5d565b9080600181540180825580915050600190039060005260206000200160009091909190915055505050565b612352614414565b600960008381526020019081526020016000206040518060a0016040529081600082015481526020016001820160009054906101000a900473ffffffffffffffffffffffffffffffffffffffff1673ffffffffffffffffffffffffffffffffffffffff1673ffffffffffffffffffffffffffffffffffffffff1681526020016002820160009054906101000a900473ffffffffffffffffffffffffffffffffffffffff1673ffffffffffffffffffffffffffffffffffffffff1673ffffffffffffffffffffffffffffffffffffffff168152602001600382015481526020016004820154815250509050919050565b600081141561247c576040517f8e277c2c00000000000000000000000000000000000000000000000000000000815260040160405180910390fd5b6124866000614081565b6124906001614081565b600060405180606001604052806124a76000613c5d565b81526020013373ffffffffffffffffffffffffffffffffffffffff168152602001600060038111156124dc576124db6147cb565b5b815250905060006040518060a001604052806124f86001613c5d565b81526020013373ffffffffffffffffffffffffffffffffffffffff168152602001600660006125276001613c5d565b815260200190815260200160002060020154815260200160008152602001848152509050816005600061255a6000613c5d565b81526020019081526020016000206000820151816000015560208201518160010160006101000a81548173ffffffffffffffffffffffffffffffffffffffff021916908373ffffffffffffffffffffffffffffffffffffffff16021790555060408201518160010160146101000a81548160ff021916908360038111156125e4576125e36147cb565b5b021790555090505080600660006125fb6001613c5d565b81526020019081526020016000206000820151816000015560208201518160010160006101000a81548173ffffffffffffffffffffffffffffffffffffffff021916908373ffffffffffffffffffffffffffffffffffffffff160217905550604082015181600201556060820151816003015560808201518160040155905050600a60003373ffffffffffffffffffffffffffffffffffffffff1673ffffffffffffffffffffffffffffffffffffffff1681526020019081526020016000206126c46001613c5d565b9080600181540180825580915050600190039060005260206000200160009091909190915055505050565b6126f7614362565b600760008381526020019081526020016000206040518060e0016040529081600082015481526020016001820160009054906101000a900473ffffffffffffffffffffffffffffffffffffffff1673ffffffffffffffffffffffffffffffffffffffff1673ffffffffffffffffffffffffffffffffffffffff1681526020016002820160009054906101000a900473ffffffffffffffffffffffffffffffffffffffff1673ffffffffffffffffffffffffffffffffffffffff1673ffffffffffffffffffffffffffffffffffffffff1681526020016003820154815260200160048201548152602001600582015481526020016006820154815250509050919050565b813373ffffffffffffffffffffffffffffffffffffffff166007600083815260200190815260200160002060010160009054906101000a900473ffffffffffffffffffffffffffffffffffffffff1673ffffffffffffffffffffffffffffffffffffffff1614612896576040517f0d9ff29600000000000000000000000000000000000000000000000000000000815260040160405180910390fd5b60008314806128a55750600082145b156128dc576040517f8e277c2c00000000000000000000000000000000000000000000000000000000815260040160405180910390fd5b813414612915576040517f055932c300000000000000000000000000000000000000000000000000000000815260040160405180910390fd5b60076000848152602001908152602001600020600401546011600085815260200190815260200160002081905550816007600085815260200190815260200160002060030160008282546129699190615072565b92505081905550816017600085815260200190815260200160002060008282546129939190615072565b9250508190555060003073ffffffffffffffffffffffffffffffffffffffff16346040516129c090614f87565b60006040518083038185875af1925050503d80600081146129fd576040519150601f19603f3d011682016040523d82523d6000602084013e612a02565b606091505b5050905080612a3d576040517f75a8758900000000000000000000000000000000000000000000000000000000815260040160405180910390fd5b50505050565b60606000600a60008473ffffffffffffffffffffffffffffffffffffffff1673ffffffffffffffffffffffffffffffffffffffff168152602001908152602001600020805480602002602001604051908101604052809291908181526020018280548015612ad057602002820191906000526020600020905b815481526020019060010190808311612abc575b5050505050905060008151905060008167ffffffffffffffff811115612af957612af8614f9c565b5b604051908082528060200260200182016040528015612b3257816020015b612b1f61431d565b815260200190600190039081612b175790505b50905060005b82811015612c1f5760066000858381518110612b5757612b56614fcb565b5b602002602001015181526020019081526020016000206040518060a0016040529081600082015481526020016001820160009054906101000a900473ffffffffffffffffffffffffffffffffffffffff1673ffffffffffffffffffffffffffffffffffffffff1673ffffffffffffffffffffffffffffffffffffffff1681526020016002820154815260200160038201548152602001600482015481525050828281518110612c0957612c08614fcb565b5b6020026020010181905250806001019050612b38565b50809350505050919050565b600073ffffffffffffffffffffffffffffffffffffffff168273ffffffffffffffffffffffffffffffffffffffff161480612c665750600081145b15612c9d576040517f8e277c2c00000000000000000000000000000000000000000000000000000000815260040160405180910390fd5b612ca76000614081565b612cb16004614081565b60006040518060600160405280612cc86000613c5d565b81526020013373ffffffffffffffffffffffffffffffffffffffff168152602001600380811115612cfc57612cfb6147cb565b5b815250905060006040518060a00160405280612d186004613c5d565b81526020013373ffffffffffffffffffffffffffffffffffffffff1681526020018573ffffffffffffffffffffffffffffffffffffffff16815260200184815260200160096000612d696004613c5d565b81526020019081526020016000206004015481525090508160056000612d8f6000613c5d565b81526020019081526020016000206000820151816000015560208201518160010160006101000a81548173ffffffffffffffffffffffffffffffffffffffff021916908373ffffffffffffffffffffffffffffffffffffffff16021790555060408201518160010160146101000a81548160ff02191690836003811115612e1957612e186147cb565b5b02179055509050508060096000612e306004613c5d565b81526020019081526020016000206000820151816000015560208201518160010160006101000a81548173ffffffffffffffffffffffffffffffffffffffff021916908373ffffffffffffffffffffffffffffffffffffffff16021790555060408201518160020160006101000a81548173ffffffffffffffffffffffffffffffffffffffff021916908373ffffffffffffffffffffffffffffffffffffffff1602179055506060820151816003015560808201518160040155905050600d60003373ffffffffffffffffffffffffffffffffffffffff1673ffffffffffffffffffffffffffffffffffffffff168152602001908152602001600020612f366004613c5d565b9080600181540180825580915050600190039060005260206000200160009091909190915055601060008573ffffffffffffffffffffffffffffffffffffffff1673ffffffffffffffffffffffffffffffffffffffff168152602001908152602001600020612fa56004613c5d565b908060018154018082558091505060019003906000526020600020016000909190919091505550505050565b6000600190505b612fe26003613c5d565b811161303c5760006018600083815260200190815260200160002054111561302957601260008281526020019081526020016000205442106130285761302781614097565b5b5b808061303490615029565b915050612fd8565b50565b600073ffffffffffffffffffffffffffffffffffffffff168473ffffffffffffffffffffffffffffffffffffffff16148061307a5750600083145b806130855750600082145b806130905750600081145b156130c7576040517f8e277c2c00000000000000000000000000000000000000000000000000000000815260040160405180910390fd5b6130d16000614081565b6130db6003614081565b600060405180606001604052806130f26000613c5d565b81526020013373ffffffffffffffffffffffffffffffffffffffff16815260200160026003811115613127576131266147cb565b5b815250905060006040518060e001604052806131436003613c5d565b81526020013373ffffffffffffffffffffffffffffffffffffffff1681526020018773ffffffffffffffffffffffffffffffffffffffff1681526020016008600061318e6003613c5d565b815260200190815260200160002060030154815260200186815260200185815260200184815250905081600560006131c66000613c5d565b81526020019081526020016000206000820151816000015560208201518160010160006101000a81548173ffffffffffffffffffffffffffffffffffffffff021916908373ffffffffffffffffffffffffffffffffffffffff16021790555060408201518160010160146101000a81548160ff021916908360038111156132505761324f6147cb565b5b021790555090505080600860006132676003613c5d565b81526020019081526020016000206000820151816000015560208201518160010160006101000a81548173ffffffffffffffffffffffffffffffffffffffff021916908373ffffffffffffffffffffffffffffffffffffffff16021790555060408201518160020160006101000a81548173ffffffffffffffffffffffffffffffffffffffff021916908373ffffffffffffffffffffffffffffffffffffffff160217905550606082015181600301556080820151816004015560a0820151816005015560c0820151816006015590505084601260006133476003613c5d565b815260200190815260200160002081905550600c60003373ffffffffffffffffffffffffffffffffffffffff1673ffffffffffffffffffffffffffffffffffffffff1681526020019081526020016000206133a26003613c5d565b9080600181540180825580915050600190039060005260206000200160009091909190915055600f60008773ffffffffffffffffffffffffffffffffffffffff1673ffffffffffffffffffffffffffffffffffffffff1681526020019081526020016000206134116003613c5d565b9080600181540180825580915050600190039060005260206000200160009091909190915055505050505050565b803373ffffffffffffffffffffffffffffffffffffffff166007600083815260200190815260200160002060010160009054906101000a900473ffffffffffffffffffffffffffffffffffffffff1673ffffffffffffffffffffffffffffffffffffffff16146134db576040517f0d9ff29600000000000000000000000000000000000000000000000000000000815260040160405180910390fd5b6014600083815260200190815260200160002060009054906101000a900460ff1615613533576040517f18fbf5ed00000000000000000000000000000000000000000000000000000000815260040160405180910390fd5b61358482600b60003373ffffffffffffffffffffffffffffffffffffffff1673ffffffffffffffffffffffffffffffffffffffff168152602001908152602001600020613b9690919063ffffffff16565b60016014600084815260200190815260200160002060006101000a81548160ff02191690831515021790555060003373ffffffffffffffffffffffffffffffffffffffff1660176000858152602001908152602001600020546040516135e990614f87565b60006040518083038185875af1925050503d8060008114613626576040519150601f19603f3d011682016040523d82523d6000602084013e61362b565b606091505b5050905080613666576040517f75a8758900000000000000000000000000000000000000000000000000000000815260040160405180910390fd5b505050565b600073ffffffffffffffffffffffffffffffffffffffff168473ffffffffffffffffffffffffffffffffffffffff1614806136a65750600083145b806136b15750600082145b806136bc5750600081145b156136f3576040517f8e277c2c00000000000000000000000000000000000000000000000000000000815260040160405180910390fd5b6136fd6000614081565b6137076002614081565b6000604051806060016040528061371e6000613c5d565b81526020013373ffffffffffffffffffffffffffffffffffffffff16815260200160016003811115613753576137526147cb565b5b815250905060006040518060e0016040528061376f6002613c5d565b81526020013373ffffffffffffffffffffffffffffffffffffffff1681526020018773ffffffffffffffffffffffffffffffffffffffff168152602001600760006137ba6002613c5d565b815260200190815260200160002060030154815260200186815260200185815260200184815250905081600560006137f26000613c5d565b81526020019081526020016000206000820151816000015560208201518160010160006101000a81548173ffffffffffffffffffffffffffffffffffffffff021916908373ffffffffffffffffffffffffffffffffffffffff16021790555060408201518160010160146101000a81548160ff0219169083600381111561387c5761387b6147cb565b5b021790555090505080600760006138936002613c5d565b81526020019081526020016000206000820151816000015560208201518160010160006101000a81548173ffffffffffffffffffffffffffffffffffffffff021916908373ffffffffffffffffffffffffffffffffffffffff16021790555060408201518160020160006101000a81548173ffffffffffffffffffffffffffffffffffffffff021916908373ffffffffffffffffffffffffffffffffffffffff160217905550606082015181600301556080820151816004015560a0820151816005015560c0820151816006015590505084601160006139736002613c5d565b815260200190815260200160002081905550600b60003373ffffffffffffffffffffffffffffffffffffffff1673ffffffffffffffffffffffffffffffffffffffff1681526020019081526020016000206139ce6002613c5d565b9080600181540180825580915050600190039060005260206000200160009091909190915055600e60008773ffffffffffffffffffffffffffffffffffffffff1673ffffffffffffffffffffffffffffffffffffffff168152602001908152602001600020613a3d6002613c5d565b9080600181540180825580915050600190039060005260206000200160009091909190915055505050505050565b600060096000838152602001908152602001600020600401549050919050565b613a9361446f565b600860008381526020019081526020016000206040518060e0016040529081600082015481526020016001820160009054906101000a900473ffffffffffffffffffffffffffffffffffffffff1673ffffffffffffffffffffffffffffffffffffffff1673ffffffffffffffffffffffffffffffffffffffff1681526020016002820160009054906101000a900473ffffffffffffffffffffffffffffffffffffffff1673ffffffffffffffffffffffffffffffffffffffff1673ffffffffffffffffffffffffffffffffffffffff1681526020016003820154815260200160048201548152602001600582015481526020016006820154815250509050919050565b60005b8280549050811015613c585781838281548110613bb957613bb8614fcb565b5b90600052602060002001541415613c45578260018480549050613bdc91906150c8565b81548110613bed57613bec614fcb565b5b9060005260206000200154838281548110613c0b57613c0a614fcb565b5b906000526020600020018190555082805480613c2a57613c29615125565b5b60019003818190600052602060002001600090559055613c58565b8080613c5090615029565b915050613b99565b505050565b600081600001549050919050565b613cf281600d60006009600086815260200190815260200160002060010160009054906101000a900473ffffffffffffffffffffffffffffffffffffffff1673ffffffffffffffffffffffffffffffffffffffff1673ffffffffffffffffffffffffffffffffffffffff168152602001908152602001600020613b9690919063ffffffff16565b60016016600083815260200190815260200160002060006101000a81548160ff02191690831515021790555060006009600083815260200190815260200160002060020160009054906101000a900473ffffffffffffffffffffffffffffffffffffffff1673ffffffffffffffffffffffffffffffffffffffff166009600084815260200190815260200160002060040154604051613d9090614f87565b60006040518083038185875af1925050503d8060008114613dcd576040519150601f19603f3d011682016040523d82523d6000602084013e613dd2565b606091505b5050905080613e0d576040517f75a8758900000000000000000000000000000000000000000000000000000000815260040160405180910390fd5b5050565b60008042905060006011600085815260200190815260200160002054905060006007600086815260200190815260200160002060060154905060006001828486613e5b91906150c8565b613e659190615183565b613e6f9190615072565b90508181613e7d91906151b4565b601160008881526020019081526020016000206000828254613e9f9190615072565b92505081905550600760008781526020019081526020016000206005015460176000888152602001908152602001600020541015613eee57601760008781526020019081526020016000205494505b6007600087815260200190815260200160002060050154601760008881526020019081526020016000205410613f7557600760008781526020019081526020016000206005015481613f4091906151b4565b94506017600087815260200190815260200160002054851115613f7457601760008781526020019081526020016000205494505b5b84601760008881526020019081526020016000206000828254613f9891906150c8565b9250508190555060006007600088815260200190815260200160002060020160009054906101000a900473ffffffffffffffffffffffffffffffffffffffff1673ffffffffffffffffffffffffffffffffffffffff1686604051613ffb90614f87565b60006040518083038185875af1925050503d8060008114614038576040519150601f19603f3d011682016040523d82523d6000602084013e61403d565b606091505b5050905080614078576040517f75a8758900000000000000000000000000000000000000000000000000000000815260040160405180910390fd5b50505050505050565b6001816000016000828254019250508190555050565b60008060086000848152602001908152602001600020600401549050600060126000858152602001908152602001600020549050600060086000868152602001908152602001600020600601549050600060018284866140f791906150c8565b6141019190615183565b61410b9190615072565b9050818161411991906151b4565b60126000888152602001908152602001600020600082825461413b9190615072565b9250508190555060086000878152602001908152602001600020600501546018600088815260200190815260200160002054101561418a57601860008781526020019081526020016000205494505b6008600087815260200190815260200160002060050154601860008881526020019081526020016000205410614211576008600087815260200190815260200160002060050154816141dc91906151b4565b9450601860008781526020019081526020016000205485111561421057601860008781526020019081526020016000205494505b5b8460186000888152602001908152602001600020600082825461423491906150c8565b9250508190555060006008600088815260200190815260200160002060020160009054906101000a900473ffffffffffffffffffffffffffffffffffffffff1673ffffffffffffffffffffffffffffffffffffffff168660405161429790614f87565b60006040518083038185875af1925050503d80600081146142d4576040519150601f19603f3d011682016040523d82523d6000602084013e6142d9565b606091505b5050905080614314576040517f75a8758900000000000000000000000000000000000000000000000000000000815260040160405180910390fd5b50505050505050565b6040518060a0016040528060008152602001600073ffffffffffffffffffffffffffffffffffffffff1681526020016000815260200160008152602001600081525090565b6040518060e0016040528060008152602001600073ffffffffffffffffffffffffffffffffffffffff168152602001600073ffffffffffffffffffffffffffffffffffffffff168152602001600081526020016000815260200160008152602001600081525090565b604051806060016040528060008152602001600073ffffffffffffffffffffffffffffffffffffffff1681526020016000600381111561440e5761440d6147cb565b5b81525090565b6040518060a0016040528060008152602001600073ffffffffffffffffffffffffffffffffffffffff168152602001600073ffffffffffffffffffffffffffffffffffffffff16815260200160008152602001600081525090565b6040518060e0016040528060008152602001600073ffffffffffffffffffffffffffffffffffffffff168152602001600073ffffffffffffffffffffffffffffffffffffffff168152602001600081526020016000815260200160008152602001600081525090565b600080fd5b6000819050919050565b6144f0816144dd565b81146144fb57600080fd5b50565b60008135905061450d816144e7565b92915050565b600060208284031215614529576145286144d8565b5b6000614537848285016144fe565b91505092915050565b614549816144dd565b82525050565b600073ffffffffffffffffffffffffffffffffffffffff82169050919050565b600061457a8261454f565b9050919050565b61458a8161456f565b82525050565b60a0820160008201516145a66000850182614540565b5060208201516145b96020850182614581565b5060408201516145cc6040850182614540565b5060608201516145df6060850182614540565b5060808201516145f26080850182614540565b50505050565b600060a08201905061460d6000830184614590565b92915050565b61461c8161456f565b811461462757600080fd5b50565b60008135905061463981614613565b92915050565b600060208284031215614655576146546144d8565b5b60006146638482850161462a565b91505092915050565b600081519050919050565b600082825260208201905092915050565b6000819050602082019050919050565b60e0820160008201516146ae6000850182614540565b5060208201516146c16020850182614581565b5060408201516146d46040850182614581565b5060608201516146e76060850182614540565b5060808201516146fa6080850182614540565b5060a082015161470d60a0850182614540565b5060c082015161472060c0850182614540565b50505050565b60006147328383614698565b60e08301905092915050565b6000602082019050919050565b60006147568261466c565b6147608185614677565b935061476b83614688565b8060005b8381101561479c5781516147838882614726565b975061478e8361473e565b92505060018101905061476f565b5085935050505092915050565b600060208201905081810360008301526147c3818461474b565b905092915050565b7f4e487b7100000000000000000000000000000000000000000000000000000000600052602160045260246000fd5b6004811061480b5761480a6147cb565b5b50565b600081905061481c826147fa565b919050565b600061482c8261480e565b9050919050565b61483c81614821565b82525050565b6060820160008201516148586000850182614540565b50602082015161486b6020850182614581565b50604082015161487e6040850182614833565b50505050565b60006060820190506148996000830184614842565b92915050565b600080604083850312156148b6576148b56144d8565b5b60006148c4858286016144fe565b92505060206148d5858286016144fe565b9150509250929050565b6148e8816144dd565b82525050565b600060208201905061490360008301846148df565b92915050565b600081519050919050565b600082825260208201905092915050565b6000819050602082019050919050565b60a08201600082015161494b6000850182614540565b50602082015161495e6020850182614581565b5060408201516149716040850182614581565b5060608201516149846060850182614540565b5060808201516149976080850182614540565b50505050565b60006149a98383614935565b60a08301905092915050565b6000602082019050919050565b60006149cd82614909565b6149d78185614914565b93506149e283614925565b8060005b83811015614a135781516149fa888261499d565b9750614a05836149b5565b9250506001810190506149e6565b5085935050505092915050565b60006020820190508181036000830152614a3a81846149c2565b905092915050565b600081519050919050565b600082825260208201905092915050565b6000819050602082019050919050565b60e082016000820151614a846000850182614540565b506020820151614a976020850182614581565b506040820151614aaa6040850182614581565b506060820151614abd6060850182614540565b506080820151614ad06080850182614540565b5060a0820151614ae360a0850182614540565b5060c0820151614af660c0850182614540565b50505050565b6000614b088383614a6e565b60e08301905092915050565b6000602082019050919050565b6000614b2c82614a42565b614b368185614a4d565b9350614b4183614a5e565b8060005b83811015614b72578151614b598882614afc565b9750614b6483614b14565b925050600181019050614b45565b5085935050505092915050565b60006020820190508181036000830152614b998184614b21565b905092915050565b60a082016000820151614bb76000850182614540565b506020820151614bca6020850182614581565b506040820151614bdd6040850182614581565b506060820151614bf06060850182614540565b506080820151614c036080850182614540565b50505050565b600060a082019050614c1e6000830184614ba1565b92915050565b60e082016000820151614c3a6000850182614540565b506020820151614c4d6020850182614581565b506040820151614c606040850182614581565b506060820151614c736060850182614540565b506080820151614c866080850182614540565b5060a0820151614c9960a0850182614540565b5060c0820151614cac60c0850182614540565b50505050565b600060e082019050614cc76000830184614c24565b92915050565b600081519050919050565b600082825260208201905092915050565b6000819050602082019050919050565b60a082016000820151614d0f6000850182614540565b506020820151614d226020850182614581565b506040820151614d356040850182614540565b506060820151614d486060850182614540565b506080820151614d5b6080850182614540565b50505050565b6000614d6d8383614cf9565b60a08301905092915050565b6000602082019050919050565b6000614d9182614ccd565b614d9b8185614cd8565b9350614da683614ce9565b8060005b83811015614dd7578151614dbe8882614d61565b9750614dc983614d79565b925050600181019050614daa565b5085935050505092915050565b60006020820190508181036000830152614dfe8184614d86565b905092915050565b60008060408385031215614e1d57614e1c6144d8565b5b6000614e2b8582860161462a565b9250506020614e3c858286016144fe565b9150509250929050565b60008060008060808587031215614e6057614e5f6144d8565b5b6000614e6e8782880161462a565b9450506020614e7f878288016144fe565b9350506040614e90878288016144fe565b9250506060614ea1878288016144fe565b91505092959194509250565b60e082016000820151614ec36000850182614540565b506020820151614ed66020850182614581565b506040820151614ee96040850182614581565b506060820151614efc6060850182614540565b506080820151614f0f6080850182614540565b5060a0820151614f2260a0850182614540565b5060c0820151614f3560c0850182614540565b50505050565b600060e082019050614f506000830184614ead565b92915050565b600081905092915050565b50565b6000614f71600083614f56565b9150614f7c82614f61565b600082019050919050565b6000614f9282614f64565b9150819050919050565b7f4e487b7100000000000000000000000000000000000000000000000000000000600052604160045260246000fd5b7f4e487b7100000000000000000000000000000000000000000000000000000000600052603260045260246000fd5b7f4e487b7100000000000000000000000000000000000000000000000000000000600052601160045260246000fd5b6000615034826144dd565b91507fffffffffffffffffffffffffffffffffffffffffffffffffffffffffffffffff82141561506757615066614ffa565b5b600182019050919050565b600061507d826144dd565b9150615088836144dd565b9250827fffffffffffffffffffffffffffffffffffffffffffffffffffffffffffffffff038211156150bd576150bc614ffa565b5b828201905092915050565b60006150d3826144dd565b91506150de836144dd565b9250828210156150f1576150f0614ffa565b5b828203905092915050565b600060408201905061511160008301856148df565b61511e60208301846148df565b9392505050565b7f4e487b7100000000000000000000000000000000000000000000000000000000600052603160045260246000fd5b7f4e487b7100000000000000000000000000000000000000000000000000000000600052601260045260246000fd5b600061518e826144dd565b9150615199836144dd565b9250826151a9576151a8615154565b5b828204905092915050565b60006151bf826144dd565b91506151ca836144dd565b9250817fffffffffffffffffffffffffffffffffffffffffffffffffffffffffffffffff048311821515161561520357615202614ffa565b5b82820290509291505056fea26469706673582212205ea0df034047d90dceea3f00de5d1c202e7b5155cfab7ce18a556d8b0a0a10b764736f6c63430008090033",
  "linkReferences": {},
  "deployedLinkReferences": {}
}