{
  "_format": "hh-sol-artifact-1",
  "contractName": "Atium",
  "sourceName": "contracts/Atium.sol",
  "abi": [
    {
      "inputs": [],
      "name": "Atium_Cancelled",
      "type": "error"
    },
    {
      "inputs": [],
      "name": "Atium_NoWithdrawal",
      "type": "error"
    },
    {
      "inputs": [],
      "name": "Atium_NotAmount",
      "type": "error"
    },
    {
      "inputs": [],
      "name": "Atium_NotOwnerId",
      "type": "error"
    },
    {
      "inputs": [],
      "name": "Atium_NotReceiverId",
      "type": "error"
    },
    {
      "inputs": [],
      "name": "Atium_OnlyFutureDate",
      "type": "error"
    },
    {
      "inputs": [
        {
          "internalType": "uint256",
          "name": "goal",
          "type": "uint256"
        },
        {
          "internalType": "uint256",
          "name": "rem",
          "type": "uint256"
        }
      ],
      "name": "Atium_SavingsGoal_Exceeded",
      "type": "error"
    },
    {
      "inputs": [],
      "name": "Atium_SavingsGoal_Not_Hit",
      "type": "error"
    },
    {
      "inputs": [],
      "name": "Atium_TransactionFailed",
      "type": "error"
    },
    {
      "inputs": [],
      "name": "Atium_ZeroInput",
      "type": "error"
    },
    {
      "anonymous": false,
      "inputs": [
        {
          "indexed": false,
          "internalType": "uint256",
          "name": "id",
          "type": "uint256"
        },
        {
          "indexed": true,
          "internalType": "address",
          "name": "user",
          "type": "address"
        },
        {
          "indexed": true,
          "internalType": "address",
          "name": "receiver",
          "type": "address"
        },
        {
          "indexed": false,
          "internalType": "uint256",
          "name": "deposit",
          "type": "uint256"
        },
        {
          "indexed": false,
          "internalType": "uint256",
          "name": "startDate",
          "type": "uint256"
        },
        {
          "indexed": false,
          "internalType": "uint256",
          "name": "withdrawal",
          "type": "uint256"
        },
        {
          "indexed": false,
          "internalType": "uint256",
          "name": "interval",
          "type": "uint256"
        }
      ],
      "name": "Allowance",
      "type": "event"
    },
    {
      "anonymous": false,
      "inputs": [
        {
          "indexed": false,
          "internalType": "uint256",
          "name": "id",
          "type": "uint256"
        },
        {
          "indexed": true,
          "internalType": "address",
          "name": "user",
          "type": "address"
        },
        {
          "indexed": true,
          "internalType": "address",
          "name": "receiver",
          "type": "address"
        },
        {
          "indexed": false,
          "internalType": "uint256",
          "name": "deposit",
          "type": "uint256"
        },
        {
          "indexed": false,
          "internalType": "uint256",
          "name": "date",
          "type": "uint256"
        }
      ],
      "name": "Gift",
      "type": "event"
    },
    {
      "anonymous": false,
      "inputs": [
        {
          "indexed": false,
          "internalType": "uint256",
          "name": "id",
          "type": "uint256"
        },
        {
          "indexed": true,
          "internalType": "address",
          "name": "user",
          "type": "address"
        },
        {
          "indexed": false,
          "internalType": "uint256",
          "name": "deposit",
          "type": "uint256"
        },
        {
          "indexed": false,
          "internalType": "uint256",
          "name": "goal",
          "type": "uint256"
        },
        {
          "indexed": false,
          "internalType": "uint256",
          "name": "time",
          "type": "uint256"
        }
      ],
      "name": "Savings",
      "type": "event"
    },
    {
      "anonymous": false,
      "inputs": [
        {
          "indexed": false,
          "internalType": "uint256",
          "name": "id",
          "type": "uint256"
        },
        {
          "indexed": true,
          "internalType": "address",
          "name": "user",
          "type": "address"
        },
        {
          "indexed": true,
          "internalType": "address",
          "name": "receiver",
          "type": "address"
        },
        {
          "indexed": false,
          "internalType": "uint256",
          "name": "deposit",
          "type": "uint256"
        },
        {
          "indexed": false,
          "internalType": "uint256",
          "name": "startDate",
          "type": "uint256"
        },
        {
          "indexed": false,
          "internalType": "uint256",
          "name": "withdrawal",
          "type": "uint256"
        },
        {
          "indexed": false,
          "internalType": "uint256",
          "name": "interval",
          "type": "uint256"
        }
      ],
      "name": "Trustfund",
      "type": "event"
    },
    {
      "anonymous": false,
      "inputs": [
        {
          "indexed": true,
          "internalType": "address",
          "name": "receiver",
          "type": "address"
        },
        {
          "indexed": false,
          "internalType": "uint256",
          "name": "atium",
          "type": "uint256"
        },
        {
          "indexed": false,
          "internalType": "uint256",
          "name": "amount",
          "type": "uint256"
        }
      ],
      "name": "Withdrawn",
      "type": "event"
    },
    {
      "inputs": [
        {
          "internalType": "uint256",
          "name": "_id",
          "type": "uint256"
        },
        {
          "internalType": "uint256",
          "name": "_amount",
          "type": "uint256"
        }
      ],
      "name": "allowance",
      "outputs": [],
      "stateMutability": "payable",
      "type": "function"
    },
    {
      "inputs": [
        {
          "internalType": "address",
          "name": "_receiver",
          "type": "address"
        },
        {
          "internalType": "uint256",
          "name": "_startDate",
          "type": "uint256"
        },
        {
          "internalType": "uint256",
          "name": "_amount",
          "type": "uint256"
        },
        {
          "internalType": "uint256",
          "name": "_interval",
          "type": "uint256"
        }
      ],
      "name": "allowancePlan",
      "outputs": [],
      "stateMutability": "nonpayable",
      "type": "function"
    },
    {
      "inputs": [
        {
          "internalType": "uint256",
          "name": "_id",
          "type": "uint256"
        }
      ],
      "name": "cancelAllowance",
      "outputs": [],
      "stateMutability": "nonpayable",
      "type": "function"
    },
    {
      "inputs": [
        {
          "internalType": "uint256",
          "name": "_id",
          "type": "uint256"
        }
      ],
      "name": "cancelGift",
      "outputs": [],
      "stateMutability": "nonpayable",
      "type": "function"
    },
    {
      "inputs": [
        {
          "internalType": "uint256",
          "name": "_id",
          "type": "uint256"
        }
      ],
      "name": "cancelSavings",
      "outputs": [],
      "stateMutability": "nonpayable",
      "type": "function"
    },
    {
      "inputs": [
        {
          "internalType": "uint256",
          "name": "_id",
          "type": "uint256"
        }
      ],
      "name": "cancelTrustfund",
      "outputs": [],
      "stateMutability": "nonpayable",
      "type": "function"
    },
    {
      "inputs": [
        {
          "internalType": "uint256",
          "name": "_id",
          "type": "uint256"
        },
        {
          "internalType": "address",
          "name": "_receiver",
          "type": "address"
        },
        {
          "internalType": "uint256",
          "name": "_startDate",
          "type": "uint256"
        },
        {
          "internalType": "uint256",
          "name": "_amount",
          "type": "uint256"
        },
        {
          "internalType": "uint256",
          "name": "_interval",
          "type": "uint256"
        }
      ],
      "name": "editAllowancePlan",
      "outputs": [],
      "stateMutability": "nonpayable",
      "type": "function"
    },
    {
      "inputs": [
        {
          "internalType": "uint256",
          "name": "_id",
          "type": "uint256"
        },
        {
          "internalType": "address",
          "name": "_receiver",
          "type": "address"
        },
        {
          "internalType": "uint256",
          "name": "_date",
          "type": "uint256"
        }
      ],
      "name": "editGiftPlan",
      "outputs": [],
      "stateMutability": "nonpayable",
      "type": "function"
    },
    {
      "inputs": [
        {
          "internalType": "uint256",
          "name": "_id",
          "type": "uint256"
        },
        {
          "internalType": "uint256",
          "name": "_goal",
          "type": "uint256"
        }
      ],
      "name": "editSavingsPlanGoal",
      "outputs": [],
      "stateMutability": "nonpayable",
      "type": "function"
    },
    {
      "inputs": [
        {
          "internalType": "uint256",
          "name": "_id",
          "type": "uint256"
        },
        {
          "internalType": "uint256",
          "name": "_time",
          "type": "uint256"
        }
      ],
      "name": "editSavingsPlanTime",
      "outputs": [],
      "stateMutability": "nonpayable",
      "type": "function"
    },
    {
      "inputs": [
        {
          "internalType": "uint256",
          "name": "_id",
          "type": "uint256"
        },
        {
          "internalType": "address",
          "name": "_receiver",
          "type": "address"
        },
        {
          "internalType": "uint256",
          "name": "_startDate",
          "type": "uint256"
        },
        {
          "internalType": "uint256",
          "name": "_amount",
          "type": "uint256"
        },
        {
          "internalType": "uint256",
          "name": "_interval",
          "type": "uint256"
        }
      ],
      "name": "editTrustfundPlan",
      "outputs": [],
      "stateMutability": "nonpayable",
      "type": "function"
    },
    {
      "inputs": [
        {
          "internalType": "uint256",
          "name": "_id",
          "type": "uint256"
        }
      ],
      "name": "getAllowance",
      "outputs": [
        {
          "components": [
            {
              "internalType": "uint256",
              "name": "id",
              "type": "uint256"
            },
            {
              "internalType": "address",
              "name": "sender",
              "type": "address"
            },
            {
              "internalType": "address",
              "name": "receiver",
              "type": "address"
            },
            {
              "internalType": "uint256",
              "name": "deposit",
              "type": "uint256"
            },
            {
              "internalType": "uint256",
              "name": "startDate",
              "type": "uint256"
            },
            {
              "internalType": "uint256",
              "name": "withdrawalAmount",
              "type": "uint256"
            },
            {
              "internalType": "uint256",
              "name": "withdrawalInterval",
              "type": "uint256"
            }
          ],
          "internalType": "struct AtiumPlan.AllowanceList",
          "name": "",
          "type": "tuple"
        }
      ],
      "stateMutability": "view",
      "type": "function"
    },
    {
      "inputs": [
        {
          "internalType": "uint256",
          "name": "_id",
          "type": "uint256"
        }
      ],
      "name": "getAllowanceBalance",
      "outputs": [
        {
          "internalType": "uint256",
          "name": "",
          "type": "uint256"
        }
      ],
      "stateMutability": "view",
      "type": "function"
    },
    {
      "inputs": [
        {
          "internalType": "uint256",
          "name": "_id",
          "type": "uint256"
        }
      ],
      "name": "getAtium",
      "outputs": [
        {
          "components": [
            {
              "internalType": "uint256",
              "name": "id",
              "type": "uint256"
            },
            {
              "internalType": "address",
              "name": "user",
              "type": "address"
            },
            {
              "internalType": "enum AtiumPlan.Select",
              "name": "select",
              "type": "uint8"
            }
          ],
          "internalType": "struct AtiumPlan.AtiumList",
          "name": "",
          "type": "tuple"
        }
      ],
      "stateMutability": "view",
      "type": "function"
    },
    {
      "inputs": [
        {
          "internalType": "uint256",
          "name": "_id",
          "type": "uint256"
        }
      ],
      "name": "getGift",
      "outputs": [
        {
          "components": [
            {
              "internalType": "uint256",
              "name": "id",
              "type": "uint256"
            },
            {
              "internalType": "address",
              "name": "sender",
              "type": "address"
            },
            {
              "internalType": "address",
              "name": "receiver",
              "type": "address"
            },
            {
              "internalType": "uint256",
              "name": "date",
              "type": "uint256"
            },
            {
              "internalType": "uint256",
              "name": "amount",
              "type": "uint256"
            }
          ],
          "internalType": "struct AtiumPlan.GiftList",
          "name": "",
          "type": "tuple"
        }
      ],
      "stateMutability": "view",
      "type": "function"
    },
    {
      "inputs": [
        {
          "internalType": "uint256",
          "name": "_id",
          "type": "uint256"
        }
      ],
      "name": "getGiftBalance",
      "outputs": [
        {
          "internalType": "uint256",
          "name": "",
          "type": "uint256"
        }
      ],
      "stateMutability": "view",
      "type": "function"
    },
    {
      "inputs": [
        {
          "internalType": "uint256",
          "name": "_id",
          "type": "uint256"
        }
      ],
      "name": "getSavings",
      "outputs": [
        {
          "components": [
            {
              "internalType": "uint256",
              "name": "id",
              "type": "uint256"
            },
            {
              "internalType": "address",
              "name": "user",
              "type": "address"
            },
            {
              "internalType": "uint256",
              "name": "amount",
              "type": "uint256"
            },
            {
              "internalType": "uint256",
              "name": "goal",
              "type": "uint256"
            },
            {
              "internalType": "uint256",
              "name": "time",
              "type": "uint256"
            }
          ],
          "internalType": "struct AtiumPlan.SavingsList",
          "name": "",
          "type": "tuple"
        }
      ],
      "stateMutability": "view",
      "type": "function"
    },
    {
      "inputs": [
        {
          "internalType": "uint256",
          "name": "_id",
          "type": "uint256"
        }
      ],
      "name": "getSavingsBalance",
      "outputs": [
        {
          "internalType": "uint256",
          "name": "",
          "type": "uint256"
        }
      ],
      "stateMutability": "view",
      "type": "function"
    },
    {
      "inputs": [
        {
          "internalType": "uint256",
          "name": "_id",
          "type": "uint256"
        }
      ],
      "name": "getTrustfund",
      "outputs": [
        {
          "components": [
            {
              "internalType": "uint256",
              "name": "id",
              "type": "uint256"
            },
            {
              "internalType": "address",
              "name": "sender",
              "type": "address"
            },
            {
              "internalType": "address",
              "name": "receiver",
              "type": "address"
            },
            {
              "internalType": "uint256",
              "name": "amount",
              "type": "uint256"
            },
            {
              "internalType": "uint256",
              "name": "startDate",
              "type": "uint256"
            },
            {
              "internalType": "uint256",
              "name": "withdrawalAmount",
              "type": "uint256"
            },
            {
              "internalType": "uint256",
              "name": "withdrawalInterval",
              "type": "uint256"
            }
          ],
          "internalType": "struct AtiumPlan.TrustFundList",
          "name": "",
          "type": "tuple"
        }
      ],
      "stateMutability": "view",
      "type": "function"
    },
    {
      "inputs": [
        {
          "internalType": "uint256",
          "name": "_id",
          "type": "uint256"
        }
      ],
      "name": "getTrustfundBalance",
      "outputs": [
        {
          "internalType": "uint256",
          "name": "",
          "type": "uint256"
        }
      ],
      "stateMutability": "view",
      "type": "function"
    },
    {
      "inputs": [
        {
          "internalType": "uint256",
          "name": "_id",
          "type": "uint256"
        },
        {
          "internalType": "uint256",
          "name": "_amount",
          "type": "uint256"
        }
      ],
      "name": "gift",
      "outputs": [],
      "stateMutability": "payable",
      "type": "function"
    },
    {
      "inputs": [
        {
          "internalType": "address",
          "name": "_receiver",
          "type": "address"
        },
        {
          "internalType": "uint256",
          "name": "_date",
          "type": "uint256"
        }
      ],
      "name": "giftPlan",
      "outputs": [],
      "stateMutability": "nonpayable",
      "type": "function"
    },
    {
      "inputs": [
        {
          "internalType": "uint256",
          "name": "_id",
          "type": "uint256"
        },
        {
          "internalType": "uint256",
          "name": "_amount",
          "type": "uint256"
        }
      ],
      "name": "save",
      "outputs": [],
      "stateMutability": "payable",
      "type": "function"
    },
    {
      "inputs": [
        {
          "internalType": "uint256",
          "name": "_goal",
          "type": "uint256"
        }
      ],
      "name": "savingsPlanGoal",
      "outputs": [],
      "stateMutability": "nonpayable",
      "type": "function"
    },
    {
      "inputs": [
        {
          "internalType": "uint256",
          "name": "_time",
          "type": "uint256"
        }
      ],
      "name": "savingsPlanTime",
      "outputs": [],
      "stateMutability": "nonpayable",
      "type": "function"
    },
    {
      "inputs": [
        {
          "internalType": "uint256",
          "name": "_id",
          "type": "uint256"
        },
        {
          "internalType": "uint256",
          "name": "_amount",
          "type": "uint256"
        }
      ],
      "name": "trustfund",
      "outputs": [],
      "stateMutability": "payable",
      "type": "function"
    },
    {
      "inputs": [
        {
          "internalType": "address",
          "name": "_receiver",
          "type": "address"
        },
        {
          "internalType": "uint256",
          "name": "_startDate",
          "type": "uint256"
        },
        {
          "internalType": "uint256",
          "name": "_amount",
          "type": "uint256"
        },
        {
          "internalType": "uint256",
          "name": "_interval",
          "type": "uint256"
        }
      ],
      "name": "trustfundPlan",
      "outputs": [],
      "stateMutability": "nonpayable",
      "type": "function"
    },
    {
      "inputs": [
        {
          "internalType": "uint256",
          "name": "_id",
          "type": "uint256"
        }
      ],
      "name": "w_allowance",
      "outputs": [],
      "stateMutability": "nonpayable",
      "type": "function"
    },
    {
      "inputs": [
        {
          "internalType": "uint256",
          "name": "_id",
          "type": "uint256"
        }
      ],
      "name": "w_gift",
      "outputs": [],
      "stateMutability": "nonpayable",
      "type": "function"
    },
    {
      "inputs": [
        {
          "internalType": "uint256",
          "name": "_id",
          "type": "uint256"
        }
      ],
      "name": "w_save",
      "outputs": [],
      "stateMutability": "nonpayable",
      "type": "function"
    },
    {
      "inputs": [
        {
          "internalType": "uint256",
          "name": "_id",
          "type": "uint256"
        }
      ],
      "name": "w_trustfund",
      "outputs": [],
      "stateMutability": "nonpayable",
      "type": "function"
    },
    {
      "stateMutability": "payable",
      "type": "receive"
    }
  ],
  "bytecode": "0x608060405234801561001057600080fd5b50615c1b80620000216000396000f3fe6080604052600436106101dc5760003560e01c80638ee69ae811610102578063cca16fa811610095578063eb51490011610064578063eb51490014610693578063ed5579fc146106bc578063f7b05eea146106e5578063fa278ae614610722576101e3565b8063cca16fa8146105fc578063d14fb6db14610618578063d67d10dc14610641578063e4d9fff81461066a576101e3565b8063ad31cc9f116100d1578063ad31cc9f14610530578063bf6713f614610559578063c315d63514610596578063c960174e146105bf576101e3565b80638ee69ae81461048c5780639378d65a146104b5578063a0781399146104de578063aca9d54c14610507576101e3565b806357fc03631161017a57806381acffe81161014957806381acffe8146103cd5780638207d0f91461040a57806383a74acc14610447578063872c609514610463576101e3565b806357fc03631461032f578063640117be1461034b57806367b45214146103675780636c793fc9146103a4576101e3565b80631f7525d0116101b65780631f7525d0146102775780633d53316b146102a05780633e346eeb146102c95780635029919b14610306576101e3565b8063024025f4146101e85780631072354b1461021157806313bfb1821461023a576101e3565b366101e357005b600080fd5b3480156101f457600080fd5b5061020f600480360381019061020a91906151ba565b61075f565b005b34801561021d57600080fd5b5061023860048036038101906102339190615235565b610a0b565b005b34801561024657600080fd5b50610261600480360381019061025c9190615235565b610c4d565b60405161026e91906152e8565b60405180910390f35b34801561028357600080fd5b5061029e60048036038101906102999190615235565b610cf8565b005b3480156102ac57600080fd5b506102c760048036038101906102c29190615303565b611046565b005b3480156102d557600080fd5b506102f060048036038101906102eb9190615235565b6112a6565b6040516102fd919061540f565b60405180910390f35b34801561031257600080fd5b5061032d600480360381019061032891906151ba565b61136e565b005b6103496004803603810190610344919061542a565b61160c565b005b6103656004803603810190610360919061542a565b611a68565b005b34801561037357600080fd5b5061038e60048036038101906103899190615235565b611f47565b60405161039b9190615479565b60405180910390f35b3480156103b057600080fd5b506103cb60048036038101906103c69190615235565b611f67565b005b3480156103d957600080fd5b506103f460048036038101906103ef9190615235565b6122e4565b6040516104019190615479565b60405180910390f35b34801561041657600080fd5b50610431600480360381019061042c9190615235565b612301565b60405161043e9190615479565b60405180910390f35b610461600480360381019061045c919061542a565b61231e565b005b34801561046f57600080fd5b5061048a6004803603810190610485919061542a565b612757565b005b34801561049857600080fd5b506104b360048036038101906104ae9190615235565b612950565b005b3480156104c157600080fd5b506104dc60048036038101906104d79190615235565b612b95565b005b3480156104ea57600080fd5b5061050560048036038101906105009190615235565b612dda565b005b34801561051357600080fd5b5061052e60048036038101906105299190615235565b612fc7565b005b34801561053c57600080fd5b5061055760048036038101906105529190615235565b613292565b005b34801561056557600080fd5b50610580600480360381019061057b9190615235565b61354e565b60405161058d91906154fc565b60405180910390f35b3480156105a257600080fd5b506105bd60048036038101906105b89190615235565b613645565b005b3480156105cb57600080fd5b506105e660048036038101906105e19190615235565b61390f565b6040516105f391906155a5565b60405180910390f35b6106166004803603810190610611919061542a565b613a1a565b005b34801561062457600080fd5b5061063f600480360381019061063a91906155c0565b613ef9565b005b34801561064d57600080fd5b5061066860048036038101906106639190615600565b614260565b005b34801561067657600080fd5b50610691600480360381019061068c9190615235565b614625565b005b34801561069f57600080fd5b506106ba60048036038101906106b5919061542a565b614867565b005b3480156106c857600080fd5b506106e360048036038101906106de9190615600565b614a52565b005b3480156106f157600080fd5b5061070c60048036038101906107079190615235565b614e17565b6040516107199190615479565b60405180910390f35b34801561072e57600080fd5b5061074960048036038101906107449190615235565b614e37565b60405161075691906156f5565b60405180910390f35b843373ffffffffffffffffffffffffffffffffffffffff166007600083815260200190815260200160002060010160009054906101000a900473ffffffffffffffffffffffffffffffffffffffff1673ffffffffffffffffffffffffffffffffffffffff16146107fb576040517f0d9ff29600000000000000000000000000000000000000000000000000000000815260040160405180910390fd5b4284610807919061573f565b935060006040518060e001604052808881526020013373ffffffffffffffffffffffffffffffffffffffff1681526020018773ffffffffffffffffffffffffffffffffffffffff168152602001600760008a8152602001908152602001600020600301548152602001428761087c919061573f565b965086815260200185815260200184815250905080600760008981526020019081526020016000206000820151816000015560208201518160010160006101000a81548173ffffffffffffffffffffffffffffffffffffffff021916908373ffffffffffffffffffffffffffffffffffffffff16021790555060408201518160020160006101000a81548173ffffffffffffffffffffffffffffffffffffffff021916908373ffffffffffffffffffffffffffffffffffffffff160217905550606082015181600301556080820151816004015560a0820151816005015560c0820151816006015590505084600a6000898152602001908152602001600020819055508573ffffffffffffffffffffffffffffffffffffffff163373ffffffffffffffffffffffffffffffffffffffff167f7ae56fec07023e809c892be62111eb83aa2c212bbc4687da5af1b43048de86e689600760008c8152602001908152602001600020600301548989896040516109fa959493929190615795565b60405180910390a350505050505050565b803373ffffffffffffffffffffffffffffffffffffffff166008600083815260200190815260200160002060010160009054906101000a900473ffffffffffffffffffffffffffffffffffffffff1673ffffffffffffffffffffffffffffffffffffffff1614610aa7576040517f0d9ff29600000000000000000000000000000000000000000000000000000000815260040160405180910390fd5b600f600083815260200190815260200160002060009054906101000a900460ff1615610aff576040517f18fbf5ed00000000000000000000000000000000000000000000000000000000815260040160405180910390fd5b6001600f600084815260200190815260200160002060006101000a81548160ff02191690831515021790555060003373ffffffffffffffffffffffffffffffffffffffff166012600085815260200190815260200160002054604051610b6490615819565b60006040518083038185875af1925050503d8060008114610ba1576040519150601f19603f3d011682016040523d82523d6000602084013e610ba6565b606091505b5050905080610be1576040517f75a8758900000000000000000000000000000000000000000000000000000000815260040160405180910390fd5b3373ffffffffffffffffffffffffffffffffffffffff167f92ccf450a286a957af52509bc1c9939d1a6a481783e142e41e2499f0bb66ebc660026008600087815260200190815260200160002060030154604051610c40929190615873565b60405180910390a2505050565b610c55614f66565b600660008381526020019081526020016000206040518060a0016040529081600082015481526020016001820160009054906101000a900473ffffffffffffffffffffffffffffffffffffffff1673ffffffffffffffffffffffffffffffffffffffff1673ffffffffffffffffffffffffffffffffffffffff16815260200160028201548152602001600382015481526020016004820154815250509050919050565b803373ffffffffffffffffffffffffffffffffffffffff166008600083815260200190815260200160002060020160009054906101000a900473ffffffffffffffffffffffffffffffffffffffff1673ffffffffffffffffffffffffffffffffffffffff1614610d94576040517f1d53a4ad00000000000000000000000000000000000000000000000000000000815260040160405180910390fd5b60008060126000858152602001908152602001600020541415610de3576040517fcd672d5d00000000000000000000000000000000000000000000000000000000815260040160405180910390fd5b6000600860008581526020019081526020016000206004015490506000600b60008681526020019081526020016000205490506000600860008781526020019081526020016000206006015490506000818385610e40919061589c565b610e4a91906158ff565b90508181610e589190615930565b600b60008981526020019081526020016000206000828254610e7a919061573f565b92505081905550600860008881526020019081526020016000206005015460126000898152602001908152602001600020541015610ec957601260008881526020019081526020016000205494505b6008600088815260200190815260200160002060050154601260008981526020019081526020016000205410610f1e57600860008881526020019081526020016000206005015481610f1b9190615930565b94505b84601260008981526020019081526020016000206000828254610f41919061589c565b9250508190555060003373ffffffffffffffffffffffffffffffffffffffff1686604051610f6e90615819565b60006040518083038185875af1925050503d8060008114610fab576040519150601f19603f3d011682016040523d82523d6000602084013e610fb0565b606091505b5050905080610feb576040517f75a8758900000000000000000000000000000000000000000000000000000000815260040160405180910390fd5b3373ffffffffffffffffffffffffffffffffffffffff167f92ccf450a286a957af52509bc1c9939d1a6a481783e142e41e2499f0bb66ebc6600288604051611034929190615873565b60405180910390a25050505050505050565b823373ffffffffffffffffffffffffffffffffffffffff166009600083815260200190815260200160002060010160009054906101000a900473ffffffffffffffffffffffffffffffffffffffff1673ffffffffffffffffffffffffffffffffffffffff16146110e2576040517f0d9ff29600000000000000000000000000000000000000000000000000000000815260040160405180910390fd5b42826110ee919061573f565b915060006040518060a001604052808681526020013373ffffffffffffffffffffffffffffffffffffffff1681526020018573ffffffffffffffffffffffffffffffffffffffff1681526020018481526020016009600088815260200190815260200160002060040154815250905080600960008781526020019081526020016000206000820151816000015560208201518160010160006101000a81548173ffffffffffffffffffffffffffffffffffffffff021916908373ffffffffffffffffffffffffffffffffffffffff16021790555060408201518160020160006101000a81548173ffffffffffffffffffffffffffffffffffffffff021916908373ffffffffffffffffffffffffffffffffffffffff16021790555060608201518160030155608082015181600401559050508373ffffffffffffffffffffffffffffffffffffffff163373ffffffffffffffffffffffffffffffffffffffff167f45c072424520e0f43771406123f773276f0aaea392c03a4c776e8df9b2e90d0c87600960008a815260200190815260200160002060040154876040516112979392919061598a565b60405180910390a35050505050565b6112ae614fab565b60056000838152602001908152602001600020604051806060016040529081600082015481526020016001820160009054906101000a900473ffffffffffffffffffffffffffffffffffffffff1673ffffffffffffffffffffffffffffffffffffffff1673ffffffffffffffffffffffffffffffffffffffff1681526020016001820160149054906101000a900460ff16600381111561135157611350615356565b5b600381111561136357611362615356565b5b815250509050919050565b843373ffffffffffffffffffffffffffffffffffffffff166008600083815260200190815260200160002060010160009054906101000a900473ffffffffffffffffffffffffffffffffffffffff1673ffffffffffffffffffffffffffffffffffffffff161461140a576040517f0d9ff29600000000000000000000000000000000000000000000000000000000815260040160405180910390fd5b4284611416919061573f565b935060006040518060e001604052808881526020013373ffffffffffffffffffffffffffffffffffffffff1681526020018773ffffffffffffffffffffffffffffffffffffffff168152602001600860008a815260200190815260200160002060030154815260200186815260200185815260200184815250905080600860008981526020019081526020016000206000820151816000015560208201518160010160006101000a81548173ffffffffffffffffffffffffffffffffffffffff021916908373ffffffffffffffffffffffffffffffffffffffff16021790555060408201518160020160006101000a81548173ffffffffffffffffffffffffffffffffffffffff021916908373ffffffffffffffffffffffffffffffffffffffff160217905550606082015181600301556080820151816004015560a0820151816005015560c0820151816006015590505084600b6000898152602001908152602001600020819055508573ffffffffffffffffffffffffffffffffffffffff163373ffffffffffffffffffffffffffffffffffffffff167fb74791b0a4c373e84daff7ffcedc5c320f5d43d7e43462f49d938959564b435089600860008c8152602001908152602001600020600301548989896040516115fb959493929190615795565b60405180910390a350505050505050565b813373ffffffffffffffffffffffffffffffffffffffff166006600083815260200190815260200160002060010160009054906101000a900473ffffffffffffffffffffffffffffffffffffffff1673ffffffffffffffffffffffffffffffffffffffff16146116a8576040517f0d9ff29600000000000000000000000000000000000000000000000000000000815260040160405180910390fd5b60008314806116b75750600082145b156116ee576040517f8e277c2c00000000000000000000000000000000000000000000000000000000815260040160405180910390fd5b813414611727576040517f055932c300000000000000000000000000000000000000000000000000000000815260040160405180910390fd5b6006600084815260200190815260200160002060030154600660008581526020019081526020016000206002015483611760919061573f565b11156117f2576006600084815260200190815260200160002060030154600660008581526020019081526020016000206002015460066000868152602001908152602001600020600301546117b5919061589c565b6040517ff6f09cc80000000000000000000000000000000000000000000000000000000081526004016117e99291906159c1565b60405180910390fd5b81600660008581526020019081526020016000206002016000828254611818919061573f565b9250508190555060006040518060a001604052808581526020013373ffffffffffffffffffffffffffffffffffffffff16815260200160066000878152602001908152602001600020600201548152602001600660008781526020019081526020016000206003015481526020016006600087815260200190815260200160002060040154815250905080600660008681526020019081526020016000206000820151816000015560208201518160010160006101000a81548173ffffffffffffffffffffffffffffffffffffffff021916908373ffffffffffffffffffffffffffffffffffffffff16021790555060408201518160020155606082015181600301556080820151816004015590505060003073ffffffffffffffffffffffffffffffffffffffff163460405161194e90615819565b60006040518083038185875af1925050503d806000811461198b576040519150601f19603f3d011682016040523d82523d6000602084013e611990565b606091505b50509050806119cb576040517f75a8758900000000000000000000000000000000000000000000000000000000815260040160405180910390fd5b3373ffffffffffffffffffffffffffffffffffffffff167fad57387c37d180b737321fddef35ced92cc15f70cc699b9b192d3621a2a4fd32866006600089815260200190815260200160002060020154600660008a815260200190815260200160002060030154600660008b815260200190815260200160002060040154604051611a5994939291906159ea565b60405180910390a25050505050565b813373ffffffffffffffffffffffffffffffffffffffff166008600083815260200190815260200160002060010160009054906101000a900473ffffffffffffffffffffffffffffffffffffffff1673ffffffffffffffffffffffffffffffffffffffff1614611b04576040517f0d9ff29600000000000000000000000000000000000000000000000000000000815260040160405180910390fd5b6000831480611b135750600082145b15611b4a576040517f8e277c2c00000000000000000000000000000000000000000000000000000000815260040160405180910390fd5b813414611b83576040517f055932c300000000000000000000000000000000000000000000000000000000815260040160405180910390fd5b81600860008581526020019081526020016000206003016000828254611ba9919061573f565b9250508190555081601260008581526020019081526020016000206000828254611bd3919061573f565b9250508190555060006040518060e001604052808581526020013373ffffffffffffffffffffffffffffffffffffffff1681526020016008600087815260200190815260200160002060020160009054906101000a900473ffffffffffffffffffffffffffffffffffffffff1673ffffffffffffffffffffffffffffffffffffffff1681526020016008600087815260200190815260200160002060030154815260200160086000878152602001908152602001600020600401548152602001600860008781526020019081526020016000206005015481526020016008600087815260200190815260200160002060060154815250905080600860008681526020019081526020016000206000820151816000015560208201518160010160006101000a81548173ffffffffffffffffffffffffffffffffffffffff021916908373ffffffffffffffffffffffffffffffffffffffff16021790555060408201518160020160006101000a81548173ffffffffffffffffffffffffffffffffffffffff021916908373ffffffffffffffffffffffffffffffffffffffff160217905550606082015181600301556080820151816004015560a0820151816005015560c0820151816006015590505060003073ffffffffffffffffffffffffffffffffffffffff1634604051611dc890615819565b60006040518083038185875af1925050503d8060008114611e05576040519150601f19603f3d011682016040523d82523d6000602084013e611e0a565b606091505b5050905080611e45576040517f75a8758900000000000000000000000000000000000000000000000000000000815260040160405180910390fd5b6008600086815260200190815260200160002060020160009054906101000a900473ffffffffffffffffffffffffffffffffffffffff1673ffffffffffffffffffffffffffffffffffffffff163373ffffffffffffffffffffffffffffffffffffffff167fb74791b0a4c373e84daff7ffcedc5c320f5d43d7e43462f49d938959564b435087600860008a815260200190815260200160002060030154600860008b815260200190815260200160002060040154600860008c815260200190815260200160002060050154600860008d815260200190815260200160002060060154604051611f38959493929190615795565b60405180910390a35050505050565b600060066000838152602001908152602001600020600201549050919050565b803373ffffffffffffffffffffffffffffffffffffffff166007600083815260200190815260200160002060020160009054906101000a900473ffffffffffffffffffffffffffffffffffffffff1673ffffffffffffffffffffffffffffffffffffffff1614612003576040517f1d53a4ad00000000000000000000000000000000000000000000000000000000815260040160405180910390fd5b60008060116000858152602001908152602001600020541415612052576040517fcd672d5d00000000000000000000000000000000000000000000000000000000815260040160405180910390fd5b60004290506000600a6000868152602001908152602001600020549050600060076000878152602001908152602001600020600601549050808284612097919061589c565b10156120cf576040517fa839fe5500000000000000000000000000000000000000000000000000000000815260040160405180910390fd5b60008183856120de919061589c565b6120e891906158ff565b905081816120f69190615930565b600a60008981526020019081526020016000206000828254612118919061573f565b9250508190555060076000888152602001908152602001600020600501546011600089815260200190815260200160002054101561216757601160008881526020019081526020016000205494505b60076000888152602001908152602001600020600501546011600089815260200190815260200160002054106121bc576007600088815260200190815260200160002060050154816121b99190615930565b94505b846011600089815260200190815260200160002060008282546121df919061589c565b9250508190555060003373ffffffffffffffffffffffffffffffffffffffff168660405161220c90615819565b60006040518083038185875af1925050503d8060008114612249576040519150601f19603f3d011682016040523d82523d6000602084013e61224e565b606091505b5050905080612289576040517f75a8758900000000000000000000000000000000000000000000000000000000815260040160405180910390fd5b3373ffffffffffffffffffffffffffffffffffffffff167f92ccf450a286a957af52509bc1c9939d1a6a481783e142e41e2499f0bb66ebc66001886040516122d2929190615a6a565b60405180910390a25050505050505050565b600060116000838152602001908152602001600020549050919050565b600060126000838152602001908152602001600020549050919050565b813373ffffffffffffffffffffffffffffffffffffffff166009600083815260200190815260200160002060010160009054906101000a900473ffffffffffffffffffffffffffffffffffffffff1673ffffffffffffffffffffffffffffffffffffffff16146123ba576040517f0d9ff29600000000000000000000000000000000000000000000000000000000815260040160405180910390fd5b60008314806123c95750600082145b15612400576040517f8e277c2c00000000000000000000000000000000000000000000000000000000815260040160405180910390fd5b813414612439576040517f055932c300000000000000000000000000000000000000000000000000000000815260040160405180910390fd5b8160096000858152602001908152602001600020600401600082825461245f919061573f565b9250508190555060006040518060a001604052808581526020013373ffffffffffffffffffffffffffffffffffffffff1681526020016009600087815260200190815260200160002060020160009054906101000a900473ffffffffffffffffffffffffffffffffffffffff1673ffffffffffffffffffffffffffffffffffffffff168152602001600960008781526020019081526020016000206003015481526020016009600087815260200190815260200160002060040154815250905080600960008681526020019081526020016000206000820151816000015560208201518160010160006101000a81548173ffffffffffffffffffffffffffffffffffffffff021916908373ffffffffffffffffffffffffffffffffffffffff16021790555060408201518160020160006101000a81548173ffffffffffffffffffffffffffffffffffffffff021916908373ffffffffffffffffffffffffffffffffffffffff160217905550606082015181600301556080820151816004015590505060003073ffffffffffffffffffffffffffffffffffffffff163460405161260890615819565b60006040518083038185875af1925050503d8060008114612645576040519150601f19603f3d011682016040523d82523d6000602084013e61264a565b606091505b5050905080612685576040517f75a8758900000000000000000000000000000000000000000000000000000000815260040160405180910390fd5b6009600086815260200190815260200160002060020160009054906101000a900473ffffffffffffffffffffffffffffffffffffffff1673ffffffffffffffffffffffffffffffffffffffff163373ffffffffffffffffffffffffffffffffffffffff167f45c072424520e0f43771406123f773276f0aaea392c03a4c776e8df9b2e90d0c87600960008a815260200190815260200160002060040154600960008b8152602001908152602001600020600301546040516127489392919061598a565b60405180910390a35050505050565b813373ffffffffffffffffffffffffffffffffffffffff166006600083815260200190815260200160002060010160009054906101000a900473ffffffffffffffffffffffffffffffffffffffff1673ffffffffffffffffffffffffffffffffffffffff16146127f3576040517f0d9ff29600000000000000000000000000000000000000000000000000000000815260040160405180910390fd5b42826127ff919061573f565b915060006040518060a001604052808581526020013373ffffffffffffffffffffffffffffffffffffffff168152602001600660008781526020019081526020016000206002015481526020016000815260200184815250905080600660008681526020019081526020016000206000820151816000015560208201518160010160006101000a81548173ffffffffffffffffffffffffffffffffffffffff021916908373ffffffffffffffffffffffffffffffffffffffff1602179055506040820151816002015560608201518160030155608082015181600401559050503373ffffffffffffffffffffffffffffffffffffffff167fad57387c37d180b737321fddef35ced92cc15f70cc699b9b192d3621a2a4fd328560066000888152602001908152602001600020600201546000876040516129429493929190615ace565b60405180910390a250505050565b803373ffffffffffffffffffffffffffffffffffffffff166009600083815260200190815260200160002060010160009054906101000a900473ffffffffffffffffffffffffffffffffffffffff1673ffffffffffffffffffffffffffffffffffffffff16146129ec576040517f0d9ff29600000000000000000000000000000000000000000000000000000000815260040160405180910390fd5b6010600083815260200190815260200160002060009054906101000a900460ff1615612a44576040517f18fbf5ed00000000000000000000000000000000000000000000000000000000815260040160405180910390fd5b60016010600084815260200190815260200160002060006101000a81548160ff02191690831515021790555060003373ffffffffffffffffffffffffffffffffffffffff166009600085815260200190815260200160002060040154604051612aac90615819565b60006040518083038185875af1925050503d8060008114612ae9576040519150601f19603f3d011682016040523d82523d6000602084013e612aee565b606091505b5050905080612b29576040517f75a8758900000000000000000000000000000000000000000000000000000000815260040160405180910390fd5b3373ffffffffffffffffffffffffffffffffffffffff167f92ccf450a286a957af52509bc1c9939d1a6a481783e142e41e2499f0bb66ebc660026009600087815260200190815260200160002060040154604051612b88929190615873565b60405180910390a2505050565b803373ffffffffffffffffffffffffffffffffffffffff166006600083815260200190815260200160002060010160009054906101000a900473ffffffffffffffffffffffffffffffffffffffff1673ffffffffffffffffffffffffffffffffffffffff1614612c31576040517f0d9ff29600000000000000000000000000000000000000000000000000000000815260040160405180910390fd5b600d600083815260200190815260200160002060009054906101000a900460ff1615612c89576040517f18fbf5ed00000000000000000000000000000000000000000000000000000000815260040160405180910390fd5b6001600d600084815260200190815260200160002060006101000a81548160ff02191690831515021790555060003373ffffffffffffffffffffffffffffffffffffffff166006600085815260200190815260200160002060020154604051612cf190615819565b60006040518083038185875af1925050503d8060008114612d2e576040519150601f19603f3d011682016040523d82523d6000602084013e612d33565b606091505b5050905080612d6e576040517f75a8758900000000000000000000000000000000000000000000000000000000815260040160405180910390fd5b3373ffffffffffffffffffffffffffffffffffffffff167f92ccf450a286a957af52509bc1c9939d1a6a481783e142e41e2499f0bb66ebc660006006600087815260200190815260200160002060020154604051612dcd929190615b13565b60405180910390a2505050565b803373ffffffffffffffffffffffffffffffffffffffff166009600083815260200190815260200160002060020160009054906101000a900473ffffffffffffffffffffffffffffffffffffffff1673ffffffffffffffffffffffffffffffffffffffff1614612e76576040517f1d53a4ad00000000000000000000000000000000000000000000000000000000815260040160405180910390fd5b60016010600084815260200190815260200160002060006101000a81548160ff02191690831515021790555060003373ffffffffffffffffffffffffffffffffffffffff166009600085815260200190815260200160002060040154604051612ede90615819565b60006040518083038185875af1925050503d8060008114612f1b576040519150601f19603f3d011682016040523d82523d6000602084013e612f20565b606091505b5050905080612f5b576040517f75a8758900000000000000000000000000000000000000000000000000000000815260040160405180910390fd5b3373ffffffffffffffffffffffffffffffffffffffff167f92ccf450a286a957af52509bc1c9939d1a6a481783e142e41e2499f0bb66ebc660036009600087815260200190815260200160002060040154604051612fba929190615b77565b60405180910390a2505050565b803373ffffffffffffffffffffffffffffffffffffffff166006600083815260200190815260200160002060010160009054906101000a900473ffffffffffffffffffffffffffffffffffffffff1673ffffffffffffffffffffffffffffffffffffffff1614613063576040517f0d9ff29600000000000000000000000000000000000000000000000000000000815260040160405180910390fd5b6006600083815260200190815260200160002060030154600660008481526020019081526020016000206002015410806130b25750600660008381526020019081526020016000206004015442105b156130e9576040517fa3fc45c600000000000000000000000000000000000000000000000000000000815260040160405180910390fd5b600d600083815260200190815260200160002060009054906101000a900460ff1615613141576040517f18fbf5ed00000000000000000000000000000000000000000000000000000000815260040160405180910390fd5b6001600d600084815260200190815260200160002060006101000a81548160ff02191690831515021790555060003373ffffffffffffffffffffffffffffffffffffffff1660066000858152602001908152602001600020600201546040516131a990615819565b60006040518083038185875af1925050503d80600081146131e6576040519150601f19603f3d011682016040523d82523d6000602084013e6131eb565b606091505b5050905080613226576040517f75a8758900000000000000000000000000000000000000000000000000000000815260040160405180910390fd5b3373ffffffffffffffffffffffffffffffffffffffff167f92ccf450a286a957af52509bc1c9939d1a6a481783e142e41e2499f0bb66ebc660006006600087815260200190815260200160002060020154604051613285929190615b13565b60405180910390a2505050565b60008114156132cd576040517f8e277c2c00000000000000000000000000000000000000000000000000000000815260040160405180910390fd5b6132d76000614f42565b6132e16001614f42565b600060405180606001604052806132f86000614f58565b81526020013373ffffffffffffffffffffffffffffffffffffffff1681526020016000600381111561332d5761332c615356565b5b815250905060006040518060a001604052806133496001614f58565b81526020013373ffffffffffffffffffffffffffffffffffffffff168152602001600660006133786001614f58565b81526020019081526020016000206002015481526020018481526020016000815250905081600560006133ab6000614f58565b81526020019081526020016000206000820151816000015560208201518160010160006101000a81548173ffffffffffffffffffffffffffffffffffffffff021916908373ffffffffffffffffffffffffffffffffffffffff16021790555060408201518160010160146101000a81548160ff0219169083600381111561343557613434615356565b5b0217905550905050806006600061344c6001614f58565b81526020019081526020016000206000820151816000015560208201518160010160006101000a81548173ffffffffffffffffffffffffffffffffffffffff021916908373ffffffffffffffffffffffffffffffffffffffff1602179055506040820151816002015560608201518160030155608082015181600401559050503373ffffffffffffffffffffffffffffffffffffffff167fad57387c37d180b737321fddef35ced92cc15f70cc699b9b192d3621a2a4fd3261350e6001614f58565b6006600061351c6001614f58565b8152602001908152602001600020600201548660006040516135419493929190615ba0565b60405180910390a2505050565b613556614ff4565b600960008381526020019081526020016000206040518060a0016040529081600082015481526020016001820160009054906101000a900473ffffffffffffffffffffffffffffffffffffffff1673ffffffffffffffffffffffffffffffffffffffff1673ffffffffffffffffffffffffffffffffffffffff1681526020016002820160009054906101000a900473ffffffffffffffffffffffffffffffffffffffff1673ffffffffffffffffffffffffffffffffffffffff1673ffffffffffffffffffffffffffffffffffffffff168152602001600382015481526020016004820154815250509050919050565b6000811415613680576040517f8e277c2c00000000000000000000000000000000000000000000000000000000815260040160405180910390fd5b61368a6000614f42565b6136946001614f42565b42816136a0919061573f565b9050600060405180606001604052806136b96000614f58565b81526020013373ffffffffffffffffffffffffffffffffffffffff168152602001600060038111156136ee576136ed615356565b5b815250905060006040518060a0016040528061370a6001614f58565b81526020013373ffffffffffffffffffffffffffffffffffffffff168152602001600660006137396001614f58565b815260200190815260200160002060020154815260200160008152602001848152509050816005600061376c6000614f58565b81526020019081526020016000206000820151816000015560208201518160010160006101000a81548173ffffffffffffffffffffffffffffffffffffffff021916908373ffffffffffffffffffffffffffffffffffffffff16021790555060408201518160010160146101000a81548160ff021916908360038111156137f6576137f5615356565b5b0217905550905050806006600061380d6001614f58565b81526020019081526020016000206000820151816000015560208201518160010160006101000a81548173ffffffffffffffffffffffffffffffffffffffff021916908373ffffffffffffffffffffffffffffffffffffffff1602179055506040820151816002015560608201518160030155608082015181600401559050503373ffffffffffffffffffffffffffffffffffffffff167fad57387c37d180b737321fddef35ced92cc15f70cc699b9b192d3621a2a4fd326138cf6001614f58565b600660006138dd6001614f58565b8152602001908152602001600020600201546000876040516139029493929190615ace565b60405180910390a2505050565b61391761504f565b600760008381526020019081526020016000206040518060e0016040529081600082015481526020016001820160009054906101000a900473ffffffffffffffffffffffffffffffffffffffff1673ffffffffffffffffffffffffffffffffffffffff1673ffffffffffffffffffffffffffffffffffffffff1681526020016002820160009054906101000a900473ffffffffffffffffffffffffffffffffffffffff1673ffffffffffffffffffffffffffffffffffffffff1673ffffffffffffffffffffffffffffffffffffffff1681526020016003820154815260200160048201548152602001600582015481526020016006820154815250509050919050565b813373ffffffffffffffffffffffffffffffffffffffff166007600083815260200190815260200160002060010160009054906101000a900473ffffffffffffffffffffffffffffffffffffffff1673ffffffffffffffffffffffffffffffffffffffff1614613ab6576040517f0d9ff29600000000000000000000000000000000000000000000000000000000815260040160405180910390fd5b6000831480613ac55750600082145b15613afc576040517f8e277c2c00000000000000000000000000000000000000000000000000000000815260040160405180910390fd5b813414613b35576040517f055932c300000000000000000000000000000000000000000000000000000000815260040160405180910390fd5b81600760008581526020019081526020016000206003016000828254613b5b919061573f565b9250508190555081601160008581526020019081526020016000206000828254613b85919061573f565b9250508190555060006040518060e001604052808581526020013373ffffffffffffffffffffffffffffffffffffffff1681526020016007600087815260200190815260200160002060020160009054906101000a900473ffffffffffffffffffffffffffffffffffffffff1673ffffffffffffffffffffffffffffffffffffffff1681526020016007600087815260200190815260200160002060030154815260200160076000878152602001908152602001600020600401548152602001600760008781526020019081526020016000206005015481526020016007600087815260200190815260200160002060060154815250905080600760008681526020019081526020016000206000820151816000015560208201518160010160006101000a81548173ffffffffffffffffffffffffffffffffffffffff021916908373ffffffffffffffffffffffffffffffffffffffff16021790555060408201518160020160006101000a81548173ffffffffffffffffffffffffffffffffffffffff021916908373ffffffffffffffffffffffffffffffffffffffff160217905550606082015181600301556080820151816004015560a0820151816005015560c0820151816006015590505060003073ffffffffffffffffffffffffffffffffffffffff1634604051613d7a90615819565b60006040518083038185875af1925050503d8060008114613db7576040519150601f19603f3d011682016040523d82523d6000602084013e613dbc565b606091505b5050905080613df7576040517f75a8758900000000000000000000000000000000000000000000000000000000815260040160405180910390fd5b6007600086815260200190815260200160002060020160009054906101000a900473ffffffffffffffffffffffffffffffffffffffff1673ffffffffffffffffffffffffffffffffffffffff163373ffffffffffffffffffffffffffffffffffffffff167f7ae56fec07023e809c892be62111eb83aa2c212bbc4687da5af1b43048de86e687600760008a815260200190815260200160002060030154600760008b815260200190815260200160002060040154600760008c815260200190815260200160002060050154600760008d815260200190815260200160002060060154604051613eea959493929190615795565b60405180910390a35050505050565b600073ffffffffffffffffffffffffffffffffffffffff168273ffffffffffffffffffffffffffffffffffffffff161480613f345750600081145b15613f6b576040517f8e277c2c00000000000000000000000000000000000000000000000000000000815260040160405180910390fd5b613f756000614f42565b613f7f6004614f42565b4281613f8b919061573f565b905060006040518060600160405280613fa46000614f58565b81526020013373ffffffffffffffffffffffffffffffffffffffff168152602001600380811115613fd857613fd7615356565b5b815250905060006040518060a00160405280613ff46004614f58565b81526020013373ffffffffffffffffffffffffffffffffffffffff1681526020018573ffffffffffffffffffffffffffffffffffffffff168152602001848152602001600960006140456004614f58565b8152602001908152602001600020600401548152509050816005600061406b6000614f58565b81526020019081526020016000206000820151816000015560208201518160010160006101000a81548173ffffffffffffffffffffffffffffffffffffffff021916908373ffffffffffffffffffffffffffffffffffffffff16021790555060408201518160010160146101000a81548160ff021916908360038111156140f5576140f4615356565b5b0217905550905050806009600061410c6004614f58565b81526020019081526020016000206000820151816000015560208201518160010160006101000a81548173ffffffffffffffffffffffffffffffffffffffff021916908373ffffffffffffffffffffffffffffffffffffffff16021790555060408201518160020160006101000a81548173ffffffffffffffffffffffffffffffffffffffff021916908373ffffffffffffffffffffffffffffffffffffffff16021790555060608201518160030155608082015181600401559050508373ffffffffffffffffffffffffffffffffffffffff163373ffffffffffffffffffffffffffffffffffffffff167f45c072424520e0f43771406123f773276f0aaea392c03a4c776e8df9b2e90d0c6142226004614f58565b600960006142306004614f58565b815260200190815260200160002060040154876040516142529392919061598a565b60405180910390a350505050565b600073ffffffffffffffffffffffffffffffffffffffff168473ffffffffffffffffffffffffffffffffffffffff16148061429b5750600083145b806142a65750600082145b806142b15750600081145b156142e8576040517f8e277c2c00000000000000000000000000000000000000000000000000000000815260040160405180910390fd5b6142f26000614f42565b6142fc6003614f42565b4283614308919061573f565b9250600060405180606001604052806143216000614f58565b81526020013373ffffffffffffffffffffffffffffffffffffffff1681526020016002600381111561435657614355615356565b5b815250905060006040518060e001604052806143726003614f58565b81526020013373ffffffffffffffffffffffffffffffffffffffff1681526020018773ffffffffffffffffffffffffffffffffffffffff168152602001600860006143bd6003614f58565b815260200190815260200160002060030154815260200186815260200185815260200184815250905081600560006143f56000614f58565b81526020019081526020016000206000820151816000015560208201518160010160006101000a81548173ffffffffffffffffffffffffffffffffffffffff021916908373ffffffffffffffffffffffffffffffffffffffff16021790555060408201518160010160146101000a81548160ff0219169083600381111561447f5761447e615356565b5b021790555090505080600860006144966003614f58565b81526020019081526020016000206000820151816000015560208201518160010160006101000a81548173ffffffffffffffffffffffffffffffffffffffff021916908373ffffffffffffffffffffffffffffffffffffffff16021790555060408201518160020160006101000a81548173ffffffffffffffffffffffffffffffffffffffff021916908373ffffffffffffffffffffffffffffffffffffffff160217905550606082015181600301556080820151816004015560a0820151816005015560c0820151816006015590505084600b60006145766003614f58565b8152602001908152602001600020819055508573ffffffffffffffffffffffffffffffffffffffff163373ffffffffffffffffffffffffffffffffffffffff167fb74791b0a4c373e84daff7ffcedc5c320f5d43d7e43462f49d938959564b43506145e16003614f58565b600860006145ef6003614f58565b815260200190815260200160002060030154898989604051614615959493929190615795565b60405180910390a3505050505050565b803373ffffffffffffffffffffffffffffffffffffffff166007600083815260200190815260200160002060010160009054906101000a900473ffffffffffffffffffffffffffffffffffffffff1673ffffffffffffffffffffffffffffffffffffffff16146146c1576040517f0d9ff29600000000000000000000000000000000000000000000000000000000815260040160405180910390fd5b600e600083815260200190815260200160002060009054906101000a900460ff1615614719576040517f18fbf5ed00000000000000000000000000000000000000000000000000000000815260040160405180910390fd5b6001600e600084815260200190815260200160002060006101000a81548160ff02191690831515021790555060003373ffffffffffffffffffffffffffffffffffffffff16601160008581526020019081526020016000205460405161477e90615819565b60006040518083038185875af1925050503d80600081146147bb576040519150601f19603f3d011682016040523d82523d6000602084013e6147c0565b606091505b50509050806147fb576040517f75a8758900000000000000000000000000000000000000000000000000000000815260040160405180910390fd5b3373ffffffffffffffffffffffffffffffffffffffff167f92ccf450a286a957af52509bc1c9939d1a6a481783e142e41e2499f0bb66ebc66001600760008781526020019081526020016000206003015460405161485a929190615a6a565b60405180910390a2505050565b813373ffffffffffffffffffffffffffffffffffffffff166006600083815260200190815260200160002060010160009054906101000a900473ffffffffffffffffffffffffffffffffffffffff1673ffffffffffffffffffffffffffffffffffffffff1614614903576040517f0d9ff29600000000000000000000000000000000000000000000000000000000815260040160405180910390fd5b60006040518060a001604052808581526020013373ffffffffffffffffffffffffffffffffffffffff168152602001600660008781526020019081526020016000206002015481526020018481526020016000815250905080600660008681526020019081526020016000206000820151816000015560208201518160010160006101000a81548173ffffffffffffffffffffffffffffffffffffffff021916908373ffffffffffffffffffffffffffffffffffffffff1602179055506040820151816002015560608201518160030155608082015181600401559050503373ffffffffffffffffffffffffffffffffffffffff167fad57387c37d180b737321fddef35ced92cc15f70cc699b9b192d3621a2a4fd32856006600088815260200190815260200160002060020154866000604051614a449493929190615ba0565b60405180910390a250505050565b600073ffffffffffffffffffffffffffffffffffffffff168473ffffffffffffffffffffffffffffffffffffffff161480614a8d5750600083145b80614a985750600082145b80614aa35750600081145b15614ada576040517f8e277c2c00000000000000000000000000000000000000000000000000000000815260040160405180910390fd5b614ae46000614f42565b614aee6002614f42565b4283614afa919061573f565b925060006040518060600160405280614b136000614f58565b81526020013373ffffffffffffffffffffffffffffffffffffffff16815260200160016003811115614b4857614b47615356565b5b815250905060006040518060e00160405280614b646002614f58565b81526020013373ffffffffffffffffffffffffffffffffffffffff1681526020018773ffffffffffffffffffffffffffffffffffffffff16815260200160076000614baf6002614f58565b81526020019081526020016000206003015481526020018681526020018581526020018481525090508160056000614be76000614f58565b81526020019081526020016000206000820151816000015560208201518160010160006101000a81548173ffffffffffffffffffffffffffffffffffffffff021916908373ffffffffffffffffffffffffffffffffffffffff16021790555060408201518160010160146101000a81548160ff02191690836003811115614c7157614c70615356565b5b02179055509050508060076000614c886002614f58565b81526020019081526020016000206000820151816000015560208201518160010160006101000a81548173ffffffffffffffffffffffffffffffffffffffff021916908373ffffffffffffffffffffffffffffffffffffffff16021790555060408201518160020160006101000a81548173ffffffffffffffffffffffffffffffffffffffff021916908373ffffffffffffffffffffffffffffffffffffffff160217905550606082015181600301556080820151816004015560a0820151816005015560c0820151816006015590505084600a6000614d686002614f58565b8152602001908152602001600020819055508573ffffffffffffffffffffffffffffffffffffffff163373ffffffffffffffffffffffffffffffffffffffff167f7ae56fec07023e809c892be62111eb83aa2c212bbc4687da5af1b43048de86e6614dd36002614f58565b60076000614de16002614f58565b815260200190815260200160002060030154898989604051614e07959493929190615795565b60405180910390a3505050505050565b600060096000838152602001908152602001600020600401549050919050565b614e3f6150b8565b600860008381526020019081526020016000206040518060e0016040529081600082015481526020016001820160009054906101000a900473ffffffffffffffffffffffffffffffffffffffff1673ffffffffffffffffffffffffffffffffffffffff1673ffffffffffffffffffffffffffffffffffffffff1681526020016002820160009054906101000a900473ffffffffffffffffffffffffffffffffffffffff1673ffffffffffffffffffffffffffffffffffffffff1673ffffffffffffffffffffffffffffffffffffffff1681526020016003820154815260200160048201548152602001600582015481526020016006820154815250509050919050565b6001816000016000828254019250508190555050565b600081600001549050919050565b6040518060a0016040528060008152602001600073ffffffffffffffffffffffffffffffffffffffff1681526020016000815260200160008152602001600081525090565b604051806060016040528060008152602001600073ffffffffffffffffffffffffffffffffffffffff16815260200160006003811115614fee57614fed615356565b5b81525090565b6040518060a0016040528060008152602001600073ffffffffffffffffffffffffffffffffffffffff168152602001600073ffffffffffffffffffffffffffffffffffffffff16815260200160008152602001600081525090565b6040518060e0016040528060008152602001600073ffffffffffffffffffffffffffffffffffffffff168152602001600073ffffffffffffffffffffffffffffffffffffffff168152602001600081526020016000815260200160008152602001600081525090565b6040518060e0016040528060008152602001600073ffffffffffffffffffffffffffffffffffffffff168152602001600073ffffffffffffffffffffffffffffffffffffffff168152602001600081526020016000815260200160008152602001600081525090565b600080fd5b6000819050919050565b61513981615126565b811461514457600080fd5b50565b60008135905061515681615130565b92915050565b600073ffffffffffffffffffffffffffffffffffffffff82169050919050565b60006151878261515c565b9050919050565b6151978161517c565b81146151a257600080fd5b50565b6000813590506151b48161518e565b92915050565b600080600080600060a086880312156151d6576151d5615121565b5b60006151e488828901615147565b95505060206151f5888289016151a5565b945050604061520688828901615147565b935050606061521788828901615147565b925050608061522888828901615147565b9150509295509295909350565b60006020828403121561524b5761524a615121565b5b600061525984828501615147565b91505092915050565b61526b81615126565b82525050565b61527a8161517c565b82525050565b60a0820160008201516152966000850182615262565b5060208201516152a96020850182615271565b5060408201516152bc6040850182615262565b5060608201516152cf6060850182615262565b5060808201516152e26080850182615262565b50505050565b600060a0820190506152fd6000830184615280565b92915050565b60008060006060848603121561531c5761531b615121565b5b600061532a86828701615147565b935050602061533b868287016151a5565b925050604061534c86828701615147565b9150509250925092565b7f4e487b7100000000000000000000000000000000000000000000000000000000600052602160045260246000fd5b6004811061539657615395615356565b5b50565b60008190506153a782615385565b919050565b60006153b782615399565b9050919050565b6153c7816153ac565b82525050565b6060820160008201516153e36000850182615262565b5060208201516153f66020850182615271565b50604082015161540960408501826153be565b50505050565b600060608201905061542460008301846153cd565b92915050565b6000806040838503121561544157615440615121565b5b600061544f85828601615147565b925050602061546085828601615147565b9150509250929050565b61547381615126565b82525050565b600060208201905061548e600083018461546a565b92915050565b60a0820160008201516154aa6000850182615262565b5060208201516154bd6020850182615271565b5060408201516154d06040850182615271565b5060608201516154e36060850182615262565b5060808201516154f66080850182615262565b50505050565b600060a0820190506155116000830184615494565b92915050565b60e08201600082015161552d6000850182615262565b5060208201516155406020850182615271565b5060408201516155536040850182615271565b5060608201516155666060850182615262565b5060808201516155796080850182615262565b5060a082015161558c60a0850182615262565b5060c082015161559f60c0850182615262565b50505050565b600060e0820190506155ba6000830184615517565b92915050565b600080604083850312156155d7576155d6615121565b5b60006155e5858286016151a5565b92505060206155f685828601615147565b9150509250929050565b6000806000806080858703121561561a57615619615121565b5b6000615628878288016151a5565b945050602061563987828801615147565b935050604061564a87828801615147565b925050606061565b87828801615147565b91505092959194509250565b60e08201600082015161567d6000850182615262565b5060208201516156906020850182615271565b5060408201516156a36040850182615271565b5060608201516156b66060850182615262565b5060808201516156c96080850182615262565b5060a08201516156dc60a0850182615262565b5060c08201516156ef60c0850182615262565b50505050565b600060e08201905061570a6000830184615667565b92915050565b7f4e487b7100000000000000000000000000000000000000000000000000000000600052601160045260246000fd5b600061574a82615126565b915061575583615126565b9250827fffffffffffffffffffffffffffffffffffffffffffffffffffffffffffffffff0382111561578a57615789615710565b5b828201905092915050565b600060a0820190506157aa600083018861546a565b6157b7602083018761546a565b6157c4604083018661546a565b6157d1606083018561546a565b6157de608083018461546a565b9695505050505050565b600081905092915050565b50565b60006158036000836157e8565b915061580e826157f3565b600082019050919050565b6000615824826157f6565b9150819050919050565b6000819050919050565b6000819050919050565b600061585d6158586158538461582e565b615838565b615126565b9050919050565b61586d81615842565b82525050565b60006040820190506158886000830185615864565b615895602083018461546a565b9392505050565b60006158a782615126565b91506158b283615126565b9250828210156158c5576158c4615710565b5b828203905092915050565b7f4e487b7100000000000000000000000000000000000000000000000000000000600052601260045260246000fd5b600061590a82615126565b915061591583615126565b925082615925576159246158d0565b5b828204905092915050565b600061593b82615126565b915061594683615126565b9250817fffffffffffffffffffffffffffffffffffffffffffffffffffffffffffffffff048311821515161561597f5761597e615710565b5b828202905092915050565b600060608201905061599f600083018661546a565b6159ac602083018561546a565b6159b9604083018461546a565b949350505050565b60006040820190506159d6600083018561546a565b6159e3602083018461546a565b9392505050565b60006080820190506159ff600083018761546a565b615a0c602083018661546a565b615a19604083018561546a565b615a26606083018461546a565b95945050505050565b6000819050919050565b6000615a54615a4f615a4a84615a2f565b615838565b615126565b9050919050565b615a6481615a39565b82525050565b6000604082019050615a7f6000830185615a5b565b615a8c602083018461546a565b9392505050565b6000819050919050565b6000615ab8615ab3615aae84615a93565b615838565b615126565b9050919050565b615ac881615a9d565b82525050565b6000608082019050615ae3600083018761546a565b615af0602083018661546a565b615afd6040830185615abf565b615b0a606083018461546a565b95945050505050565b6000604082019050615b286000830185615abf565b615b35602083018461546a565b9392505050565b6000819050919050565b6000615b61615b5c615b5784615b3c565b615838565b615126565b9050919050565b615b7181615b46565b82525050565b6000604082019050615b8c6000830185615b68565b615b99602083018461546a565b9392505050565b6000608082019050615bb5600083018761546a565b615bc2602083018661546a565b615bcf604083018561546a565b615bdc6060830184615abf565b9594505050505056fea264697066735822122037ec3053f2ac39f8a6c7c55af3e5aed92b45d9ae2bc01190ed3e5ce655092ade64736f6c63430008090033",
  "linkReferences": {},
  "deployedLinkReferences": {}
}