{
  "_format": "hh-sol-artifact-1",
  "contractName": "Atium",
  "sourceName": "contracts/Atium.sol",
  "abi": [
    {
      "inputs": [],
      "name": "Atium_Cancelled",
      "type": "error"
    },
    {
      "inputs": [],
      "name": "Atium_NotAmount",
      "type": "error"
    },
    {
      "inputs": [],
      "name": "Atium_NotOwnerId",
      "type": "error"
    },
    {
      "inputs": [
        {
          "internalType": "uint256",
          "name": "goal",
          "type": "uint256"
        },
        {
          "internalType": "uint256",
          "name": "rem",
          "type": "uint256"
        }
      ],
      "name": "Atium_SavingsGoal_Exceeded",
      "type": "error"
    },
    {
      "inputs": [],
      "name": "Atium_SavingsGoal_Not_Hit",
      "type": "error"
    },
    {
      "inputs": [],
      "name": "Atium_TransactionFailed",
      "type": "error"
    },
    {
      "inputs": [],
      "name": "Atium_ZeroInput",
      "type": "error"
    },
    {
      "inputs": [
        {
          "internalType": "uint256",
          "name": "_id",
          "type": "uint256"
        },
        {
          "internalType": "uint256",
          "name": "_amount",
          "type": "uint256"
        }
      ],
      "name": "allowance",
      "outputs": [],
      "stateMutability": "payable",
      "type": "function"
    },
    {
      "inputs": [
        {
          "internalType": "address",
          "name": "_receiver",
          "type": "address"
        },
        {
          "internalType": "uint256",
          "name": "_startDate",
          "type": "uint256"
        },
        {
          "internalType": "uint256",
          "name": "_amount",
          "type": "uint256"
        },
        {
          "internalType": "uint256",
          "name": "_interval",
          "type": "uint256"
        }
      ],
      "name": "allowancePlan",
      "outputs": [],
      "stateMutability": "nonpayable",
      "type": "function"
    },
    {
      "inputs": [],
      "name": "allowanceWithdraw",
      "outputs": [],
      "stateMutability": "nonpayable",
      "type": "function"
    },
    {
      "inputs": [
        {
          "internalType": "uint256",
          "name": "_id",
          "type": "uint256"
        }
      ],
      "name": "cancelAllowance",
      "outputs": [],
      "stateMutability": "nonpayable",
      "type": "function"
    },
    {
      "inputs": [
        {
          "internalType": "uint256",
          "name": "_id",
          "type": "uint256"
        }
      ],
      "name": "cancelGift",
      "outputs": [],
      "stateMutability": "nonpayable",
      "type": "function"
    },
    {
      "inputs": [
        {
          "internalType": "uint256",
          "name": "_id",
          "type": "uint256"
        }
      ],
      "name": "cancelSavings",
      "outputs": [],
      "stateMutability": "nonpayable",
      "type": "function"
    },
    {
      "inputs": [
        {
          "internalType": "uint256",
          "name": "_id",
          "type": "uint256"
        }
      ],
      "name": "cancelTrustfund",
      "outputs": [],
      "stateMutability": "nonpayable",
      "type": "function"
    },
    {
      "inputs": [
        {
          "internalType": "address",
          "name": "_user",
          "type": "address"
        }
      ],
      "name": "getAllActiveAllowance",
      "outputs": [
        {
          "components": [
            {
              "internalType": "uint256",
              "name": "id",
              "type": "uint256"
            },
            {
              "internalType": "address",
              "name": "sender",
              "type": "address"
            },
            {
              "internalType": "address",
              "name": "receiver",
              "type": "address"
            },
            {
              "internalType": "uint256",
              "name": "deposit",
              "type": "uint256"
            },
            {
              "internalType": "uint256",
              "name": "startDate",
              "type": "uint256"
            },
            {
              "internalType": "uint256",
              "name": "withdrawalAmount",
              "type": "uint256"
            },
            {
              "internalType": "uint256",
              "name": "withdrawalInterval",
              "type": "uint256"
            }
          ],
          "internalType": "struct AtiumPlan.AllowanceList[]",
          "name": "",
          "type": "tuple[]"
        }
      ],
      "stateMutability": "view",
      "type": "function"
    },
    {
      "inputs": [
        {
          "internalType": "address",
          "name": "_user",
          "type": "address"
        }
      ],
      "name": "getAllActiveGift",
      "outputs": [
        {
          "components": [
            {
              "internalType": "uint256",
              "name": "id",
              "type": "uint256"
            },
            {
              "internalType": "address",
              "name": "sender",
              "type": "address"
            },
            {
              "internalType": "address",
              "name": "receiver",
              "type": "address"
            },
            {
              "internalType": "uint256",
              "name": "date",
              "type": "uint256"
            },
            {
              "internalType": "uint256",
              "name": "amount",
              "type": "uint256"
            }
          ],
          "internalType": "struct AtiumPlan.GiftList[]",
          "name": "",
          "type": "tuple[]"
        }
      ],
      "stateMutability": "view",
      "type": "function"
    },
    {
      "inputs": [
        {
          "internalType": "address",
          "name": "_user",
          "type": "address"
        }
      ],
      "name": "getAllActiveSavings",
      "outputs": [
        {
          "components": [
            {
              "internalType": "uint256",
              "name": "id",
              "type": "uint256"
            },
            {
              "internalType": "address",
              "name": "user",
              "type": "address"
            },
            {
              "internalType": "uint256",
              "name": "amount",
              "type": "uint256"
            },
            {
              "internalType": "uint256",
              "name": "goal",
              "type": "uint256"
            },
            {
              "internalType": "uint256",
              "name": "time",
              "type": "uint256"
            }
          ],
          "internalType": "struct AtiumPlan.SavingsList[]",
          "name": "",
          "type": "tuple[]"
        }
      ],
      "stateMutability": "view",
      "type": "function"
    },
    {
      "inputs": [
        {
          "internalType": "address",
          "name": "_user",
          "type": "address"
        }
      ],
      "name": "getAllActiveTrustfund",
      "outputs": [
        {
          "components": [
            {
              "internalType": "uint256",
              "name": "id",
              "type": "uint256"
            },
            {
              "internalType": "address",
              "name": "sender",
              "type": "address"
            },
            {
              "internalType": "address",
              "name": "receiver",
              "type": "address"
            },
            {
              "internalType": "uint256",
              "name": "amount",
              "type": "uint256"
            },
            {
              "internalType": "uint256",
              "name": "startDate",
              "type": "uint256"
            },
            {
              "internalType": "uint256",
              "name": "withdrawalAmount",
              "type": "uint256"
            },
            {
              "internalType": "uint256",
              "name": "withdrawalInterval",
              "type": "uint256"
            }
          ],
          "internalType": "struct AtiumPlan.TrustFundList[]",
          "name": "",
          "type": "tuple[]"
        }
      ],
      "stateMutability": "view",
      "type": "function"
    },
    {
      "inputs": [
        {
          "internalType": "uint256",
          "name": "_id",
          "type": "uint256"
        }
      ],
      "name": "getAllowance",
      "outputs": [
        {
          "components": [
            {
              "internalType": "uint256",
              "name": "id",
              "type": "uint256"
            },
            {
              "internalType": "address",
              "name": "sender",
              "type": "address"
            },
            {
              "internalType": "address",
              "name": "receiver",
              "type": "address"
            },
            {
              "internalType": "uint256",
              "name": "deposit",
              "type": "uint256"
            },
            {
              "internalType": "uint256",
              "name": "startDate",
              "type": "uint256"
            },
            {
              "internalType": "uint256",
              "name": "withdrawalAmount",
              "type": "uint256"
            },
            {
              "internalType": "uint256",
              "name": "withdrawalInterval",
              "type": "uint256"
            }
          ],
          "internalType": "struct AtiumPlan.AllowanceList",
          "name": "",
          "type": "tuple"
        }
      ],
      "stateMutability": "view",
      "type": "function"
    },
    {
      "inputs": [
        {
          "internalType": "uint256",
          "name": "_id",
          "type": "uint256"
        }
      ],
      "name": "getAllowanceBalance",
      "outputs": [
        {
          "internalType": "uint256",
          "name": "",
          "type": "uint256"
        }
      ],
      "stateMutability": "view",
      "type": "function"
    },
    {
      "inputs": [
        {
          "internalType": "uint256",
          "name": "_id",
          "type": "uint256"
        }
      ],
      "name": "getAtium",
      "outputs": [
        {
          "components": [
            {
              "internalType": "uint256",
              "name": "id",
              "type": "uint256"
            },
            {
              "internalType": "address",
              "name": "user",
              "type": "address"
            },
            {
              "internalType": "enum AtiumPlan.Select",
              "name": "select",
              "type": "uint8"
            }
          ],
          "internalType": "struct AtiumPlan.AtiumList",
          "name": "",
          "type": "tuple"
        }
      ],
      "stateMutability": "view",
      "type": "function"
    },
    {
      "inputs": [
        {
          "internalType": "uint256",
          "name": "_id",
          "type": "uint256"
        }
      ],
      "name": "getGift",
      "outputs": [
        {
          "components": [
            {
              "internalType": "uint256",
              "name": "id",
              "type": "uint256"
            },
            {
              "internalType": "address",
              "name": "sender",
              "type": "address"
            },
            {
              "internalType": "address",
              "name": "receiver",
              "type": "address"
            },
            {
              "internalType": "uint256",
              "name": "date",
              "type": "uint256"
            },
            {
              "internalType": "uint256",
              "name": "amount",
              "type": "uint256"
            }
          ],
          "internalType": "struct AtiumPlan.GiftList",
          "name": "",
          "type": "tuple"
        }
      ],
      "stateMutability": "view",
      "type": "function"
    },
    {
      "inputs": [
        {
          "internalType": "uint256",
          "name": "_id",
          "type": "uint256"
        }
      ],
      "name": "getGiftBalance",
      "outputs": [
        {
          "internalType": "uint256",
          "name": "",
          "type": "uint256"
        }
      ],
      "stateMutability": "view",
      "type": "function"
    },
    {
      "inputs": [
        {
          "internalType": "uint256",
          "name": "_id",
          "type": "uint256"
        }
      ],
      "name": "getSavings",
      "outputs": [
        {
          "components": [
            {
              "internalType": "uint256",
              "name": "id",
              "type": "uint256"
            },
            {
              "internalType": "address",
              "name": "user",
              "type": "address"
            },
            {
              "internalType": "uint256",
              "name": "amount",
              "type": "uint256"
            },
            {
              "internalType": "uint256",
              "name": "goal",
              "type": "uint256"
            },
            {
              "internalType": "uint256",
              "name": "time",
              "type": "uint256"
            }
          ],
          "internalType": "struct AtiumPlan.SavingsList",
          "name": "",
          "type": "tuple"
        }
      ],
      "stateMutability": "view",
      "type": "function"
    },
    {
      "inputs": [
        {
          "internalType": "uint256",
          "name": "_id",
          "type": "uint256"
        }
      ],
      "name": "getSavingsBalance",
      "outputs": [
        {
          "internalType": "uint256",
          "name": "",
          "type": "uint256"
        }
      ],
      "stateMutability": "view",
      "type": "function"
    },
    {
      "inputs": [
        {
          "internalType": "uint256",
          "name": "_id",
          "type": "uint256"
        }
      ],
      "name": "getTrustfund",
      "outputs": [
        {
          "components": [
            {
              "internalType": "uint256",
              "name": "id",
              "type": "uint256"
            },
            {
              "internalType": "address",
              "name": "sender",
              "type": "address"
            },
            {
              "internalType": "address",
              "name": "receiver",
              "type": "address"
            },
            {
              "internalType": "uint256",
              "name": "amount",
              "type": "uint256"
            },
            {
              "internalType": "uint256",
              "name": "startDate",
              "type": "uint256"
            },
            {
              "internalType": "uint256",
              "name": "withdrawalAmount",
              "type": "uint256"
            },
            {
              "internalType": "uint256",
              "name": "withdrawalInterval",
              "type": "uint256"
            }
          ],
          "internalType": "struct AtiumPlan.TrustFundList",
          "name": "",
          "type": "tuple"
        }
      ],
      "stateMutability": "view",
      "type": "function"
    },
    {
      "inputs": [
        {
          "internalType": "uint256",
          "name": "_id",
          "type": "uint256"
        }
      ],
      "name": "getTrustfundBalance",
      "outputs": [
        {
          "internalType": "uint256",
          "name": "",
          "type": "uint256"
        }
      ],
      "stateMutability": "view",
      "type": "function"
    },
    {
      "inputs": [
        {
          "internalType": "uint256",
          "name": "_id",
          "type": "uint256"
        },
        {
          "internalType": "uint256",
          "name": "_amount",
          "type": "uint256"
        }
      ],
      "name": "gift",
      "outputs": [],
      "stateMutability": "payable",
      "type": "function"
    },
    {
      "inputs": [
        {
          "internalType": "address",
          "name": "_receiver",
          "type": "address"
        },
        {
          "internalType": "uint256",
          "name": "_date",
          "type": "uint256"
        }
      ],
      "name": "giftPlan",
      "outputs": [],
      "stateMutability": "nonpayable",
      "type": "function"
    },
    {
      "inputs": [],
      "name": "giftWithdraw",
      "outputs": [],
      "stateMutability": "nonpayable",
      "type": "function"
    },
    {
      "inputs": [
        {
          "internalType": "uint256",
          "name": "_id",
          "type": "uint256"
        },
        {
          "internalType": "uint256",
          "name": "_amount",
          "type": "uint256"
        }
      ],
      "name": "save",
      "outputs": [],
      "stateMutability": "payable",
      "type": "function"
    },
    {
      "inputs": [
        {
          "internalType": "uint256",
          "name": "_goal",
          "type": "uint256"
        }
      ],
      "name": "savingsPlanGoal",
      "outputs": [],
      "stateMutability": "nonpayable",
      "type": "function"
    },
    {
      "inputs": [
        {
          "internalType": "uint256",
          "name": "_time",
          "type": "uint256"
        }
      ],
      "name": "savingsPlanTime",
      "outputs": [],
      "stateMutability": "nonpayable",
      "type": "function"
    },
    {
      "inputs": [
        {
          "internalType": "uint256",
          "name": "_id",
          "type": "uint256"
        },
        {
          "internalType": "uint256",
          "name": "_amount",
          "type": "uint256"
        }
      ],
      "name": "trustfund",
      "outputs": [],
      "stateMutability": "payable",
      "type": "function"
    },
    {
      "inputs": [
        {
          "internalType": "address",
          "name": "_receiver",
          "type": "address"
        },
        {
          "internalType": "uint256",
          "name": "_startDate",
          "type": "uint256"
        },
        {
          "internalType": "uint256",
          "name": "_amount",
          "type": "uint256"
        },
        {
          "internalType": "uint256",
          "name": "_interval",
          "type": "uint256"
        }
      ],
      "name": "trustfundPlan",
      "outputs": [],
      "stateMutability": "nonpayable",
      "type": "function"
    },
    {
      "inputs": [],
      "name": "trustfundWithdraw",
      "outputs": [],
      "stateMutability": "nonpayable",
      "type": "function"
    },
    {
      "inputs": [
        {
          "internalType": "uint256",
          "name": "_id",
          "type": "uint256"
        }
      ],
      "name": "w_save",
      "outputs": [],
      "stateMutability": "nonpayable",
      "type": "function"
    },
    {
      "stateMutability": "payable",
      "type": "receive"
    }
  ],
  "bytecode": "0x608060405234801561001057600080fd5b5061527c806100206000396000f3fe6080604052600436106101d15760003560e01c806393ea685b116100f7578063cf6e282711610095578063e4d9fff811610064578063e4d9fff814610679578063ed5579fc146106a2578063f7b05eea146106cb578063fa278ae614610708576101d8565b8063cf6e2827146105d3578063d14fb6db14610610578063d4096aa114610639578063d67d10dc14610650576101d8565b8063bf6713f6116100d1578063bf6713f614610514578063c315d63514610551578063c960174e1461057a578063cca16fa8146105b7576101d8565b806393ea685b14610485578063aca9d54c146104c2578063ad31cc9f146104eb576101d8565b8063640117be1161016f57806383a74acc1161013e57806383a74acc146103da57806384c8d490146103f65780638ee69ae8146104335780639378d65a1461045c576101d8565b8063640117be1461030757806367b452141461032357806381acffe8146103605780638207d0f91461039d576101d8565b806339d502fd116101ab57806339d502fd146102805780633e346eeb14610297578063517e4b67146102d457806357fc0363146102eb576101d8565b80631072354b146101dd57806313bfb1821461020657806316aa223414610243576101d8565b366101d857005b600080fd5b3480156101e957600080fd5b5061020460048036038101906101ff919061454b565b610745565b005b34801561021257600080fd5b5061022d6004803603810190610228919061454b565b610971565b60405161023a9190614630565b60405180910390f35b34801561024f57600080fd5b5061026a60048036038101906102659190614677565b610a1c565b60405161027791906147e1565b60405180910390f35b34801561028c57600080fd5b50610295610c64565b005b3480156102a357600080fd5b506102be60048036038101906102b9919061454b565b610cb8565b6040516102cb91906148bc565b60405180910390f35b3480156102e057600080fd5b506102e9610d80565b005b610305600480360381019061030091906148d7565b610dee565b005b610321600480360381019061031c91906148d7565b6110aa565b005b34801561032f57600080fd5b5061034a6004803603810190610345919061454b565b6112f3565b6040516103579190614926565b60405180910390f35b34801561036c57600080fd5b506103876004803603810190610382919061454b565b611313565b6040516103949190614926565b60405180910390f35b3480156103a957600080fd5b506103c460048036038101906103bf919061454b565b611330565b6040516103d19190614926565b60405180910390f35b6103f460048036038101906103ef91906148d7565b61134d565b005b34801561040257600080fd5b5061041d60048036038101906104189190614677565b61153e565b60405161042a9190614a58565b60405180910390f35b34801561043f57600080fd5b5061045a6004803603810190610455919061454b565b611772565b005b34801561046857600080fd5b50610483600480360381019061047e919061454b565b6119a1565b005b34801561049157600080fd5b506104ac60048036038101906104a79190614677565b611bd0565b6040516104b99190614bb7565b60405180910390f35b3480156104ce57600080fd5b506104e960048036038101906104e4919061454b565b611e18565b005b3480156104f757600080fd5b50610512600480360381019061050d919061454b565b61209c565b005b34801561052057600080fd5b5061053b6004803603810190610536919061454b565b61234a565b6040516105489190614c41565b60405180910390f35b34801561055d57600080fd5b506105786004803603810190610573919061454b565b612441565b005b34801561058657600080fd5b506105a1600480360381019061059c919061454b565b6126fd565b6040516105ae9190614cea565b60405180910390f35b6105d160048036038101906105cc91906148d7565b612808565b005b3480156105df57600080fd5b506105fa60048036038101906105f59190614677565b612a51565b6040516106079190614e1c565b60405180910390f35b34801561061c57600080fd5b5061063760048036038101906106329190614e3e565b612c39565b005b34801561064557600080fd5b5061064e612fed565b005b34801561065c57600080fd5b5061067760048036038101906106729190614e7e565b61305b565b005b34801561068557600080fd5b506106a0600480360381019061069b919061454b565b613469565b005b3480156106ae57600080fd5b506106c960048036038101906106c49190614e7e565b613695565b005b3480156106d757600080fd5b506106f260048036038101906106ed919061454b565b613aa3565b6040516106ff9190614926565b60405180910390f35b34801561071457600080fd5b5061072f600480360381019061072a919061454b565b613ac3565b60405161073c9190614f73565b60405180910390f35b803373ffffffffffffffffffffffffffffffffffffffff166008600083815260200190815260200160002060010160009054906101000a900473ffffffffffffffffffffffffffffffffffffffff1673ffffffffffffffffffffffffffffffffffffffff16146107e1576040517f0d9ff29600000000000000000000000000000000000000000000000000000000815260040160405180910390fd5b6015600083815260200190815260200160002060009054906101000a900460ff1615610839576040517f18fbf5ed00000000000000000000000000000000000000000000000000000000815260040160405180910390fd5b61088a82600c60003373ffffffffffffffffffffffffffffffffffffffff1673ffffffffffffffffffffffffffffffffffffffff168152602001908152602001600020613bce90919063ffffffff16565b60016015600084815260200190815260200160002060006101000a81548160ff02191690831515021790555060003373ffffffffffffffffffffffffffffffffffffffff1660186000858152602001908152602001600020546040516108ef90614fbf565b60006040518083038185875af1925050503d806000811461092c576040519150601f19603f3d011682016040523d82523d6000602084013e610931565b606091505b505090508061096c576040517f75a8758900000000000000000000000000000000000000000000000000000000815260040160405180910390fd5b505050565b610979614355565b600660008381526020019081526020016000206040518060a0016040529081600082015481526020016001820160009054906101000a900473ffffffffffffffffffffffffffffffffffffffff1673ffffffffffffffffffffffffffffffffffffffff1673ffffffffffffffffffffffffffffffffffffffff16815260200160028201548152602001600382015481526020016004820154815250509050919050565b60606000600b60008473ffffffffffffffffffffffffffffffffffffffff1673ffffffffffffffffffffffffffffffffffffffff168152602001908152602001600020805480602002602001604051908101604052809291908181526020018280548015610aa957602002820191906000526020600020905b815481526020019060010190808311610a95575b5050505050905060008151905060008167ffffffffffffffff811115610ad257610ad1614fd4565b5b604051908082528060200260200182016040528015610b0b57816020015b610af861439a565b815260200190600190039081610af05790505b50905060005b82811015610c585760076000858381518110610b3057610b2f615003565b5b602002602001015181526020019081526020016000206040518060e0016040529081600082015481526020016001820160009054906101000a900473ffffffffffffffffffffffffffffffffffffffff1673ffffffffffffffffffffffffffffffffffffffff1673ffffffffffffffffffffffffffffffffffffffff1681526020016002820160009054906101000a900473ffffffffffffffffffffffffffffffffffffffff1673ffffffffffffffffffffffffffffffffffffffff1673ffffffffffffffffffffffffffffffffffffffff168152602001600382015481526020016004820154815260200160058201548152602001600682015481525050828281518110610c4257610c41615003565b5b6020026020010181905250806001019050610b11565b50809350505050919050565b6000600190505b610c756004613c95565b8111610cb55760096000828152602001908152602001600020600301544210610ca257610ca181613ca3565b5b8080610cad90615061565b915050610c6b565b50565b610cc0614403565b60056000838152602001908152602001600020604051806060016040529081600082015481526020016001820160009054906101000a900473ffffffffffffffffffffffffffffffffffffffff1673ffffffffffffffffffffffffffffffffffffffff1673ffffffffffffffffffffffffffffffffffffffff1681526020016001820160149054906101000a900460ff166003811115610d6357610d62614803565b5b6003811115610d7557610d74614803565b5b815250509050919050565b6000600190505b610d916002613c95565b8111610deb57600060176000838152602001908152602001600020541115610dd85760116000828152602001908152602001600020544210610dd757610dd681613e49565b5b5b8080610de390615061565b915050610d87565b50565b813373ffffffffffffffffffffffffffffffffffffffff166006600083815260200190815260200160002060010160009054906101000a900473ffffffffffffffffffffffffffffffffffffffff1673ffffffffffffffffffffffffffffffffffffffff1614610e8a576040517f0d9ff29600000000000000000000000000000000000000000000000000000000815260040160405180910390fd5b6000831480610e995750600082145b15610ed0576040517f8e277c2c00000000000000000000000000000000000000000000000000000000815260040160405180910390fd5b813414610f09576040517f055932c300000000000000000000000000000000000000000000000000000000815260040160405180910390fd5b6006600084815260200190815260200160002060030154600660008581526020019081526020016000206002015483610f4291906150aa565b1115610fd457600660008481526020019081526020016000206003015460066000858152602001908152602001600020600201546006600086815260200190815260200160002060030154610f979190615100565b6040517ff6f09cc8000000000000000000000000000000000000000000000000000000008152600401610fcb929190615134565b60405180910390fd5b81600660008581526020019081526020016000206002016000828254610ffa91906150aa565b9250508190555060003073ffffffffffffffffffffffffffffffffffffffff163460405161102790614fbf565b60006040518083038185875af1925050503d8060008114611064576040519150601f19603f3d011682016040523d82523d6000602084013e611069565b606091505b50509050806110a4576040517f75a8758900000000000000000000000000000000000000000000000000000000815260040160405180910390fd5b50505050565b813373ffffffffffffffffffffffffffffffffffffffff166008600083815260200190815260200160002060010160009054906101000a900473ffffffffffffffffffffffffffffffffffffffff1673ffffffffffffffffffffffffffffffffffffffff1614611146576040517f0d9ff29600000000000000000000000000000000000000000000000000000000815260040160405180910390fd5b60008314806111555750600082145b1561118c576040517f8e277c2c00000000000000000000000000000000000000000000000000000000815260040160405180910390fd5b8134146111c5576040517f055932c300000000000000000000000000000000000000000000000000000000815260040160405180910390fd5b600860008481526020019081526020016000206004015460126000858152602001908152602001600020819055508160086000858152602001908152602001600020600301600082825461121991906150aa565b925050819055508160186000858152602001908152602001600020600082825461124391906150aa565b9250508190555060003073ffffffffffffffffffffffffffffffffffffffff163460405161127090614fbf565b60006040518083038185875af1925050503d80600081146112ad576040519150601f19603f3d011682016040523d82523d6000602084013e6112b2565b606091505b50509050806112ed576040517f75a8758900000000000000000000000000000000000000000000000000000000815260040160405180910390fd5b50505050565b600060066000838152602001908152602001600020600201549050919050565b600060176000838152602001908152602001600020549050919050565b600060186000838152602001908152602001600020549050919050565b813373ffffffffffffffffffffffffffffffffffffffff166009600083815260200190815260200160002060010160009054906101000a900473ffffffffffffffffffffffffffffffffffffffff1673ffffffffffffffffffffffffffffffffffffffff16146113e9576040517f0d9ff29600000000000000000000000000000000000000000000000000000000815260040160405180910390fd5b60008314806113f85750600082145b1561142f576040517f8e277c2c00000000000000000000000000000000000000000000000000000000815260040160405180910390fd5b813414611468576040517f055932c300000000000000000000000000000000000000000000000000000000815260040160405180910390fd5b8160096000858152602001908152602001600020600401600082825461148e91906150aa565b9250508190555060003073ffffffffffffffffffffffffffffffffffffffff16346040516114bb90614fbf565b60006040518083038185875af1925050503d80600081146114f8576040519150601f19603f3d011682016040523d82523d6000602084013e6114fd565b606091505b5050905080611538576040517f75a8758900000000000000000000000000000000000000000000000000000000815260040160405180910390fd5b50505050565b60606000600d60008473ffffffffffffffffffffffffffffffffffffffff1673ffffffffffffffffffffffffffffffffffffffff1681526020019081526020016000208054806020026020016040519081016040528092919081815260200182805480156115cb57602002820191906000526020600020905b8154815260200190600101908083116115b7575b5050505050905060008151905060008167ffffffffffffffff8111156115f4576115f3614fd4565b5b60405190808252806020026020018201604052801561162d57816020015b61161a61444c565b8152602001906001900390816116125790505b50905060005b82811015611766576009600085838151811061165257611651615003565b5b602002602001015181526020019081526020016000206040518060a0016040529081600082015481526020016001820160009054906101000a900473ffffffffffffffffffffffffffffffffffffffff1673ffffffffffffffffffffffffffffffffffffffff1673ffffffffffffffffffffffffffffffffffffffff1681526020016002820160009054906101000a900473ffffffffffffffffffffffffffffffffffffffff1673ffffffffffffffffffffffffffffffffffffffff1673ffffffffffffffffffffffffffffffffffffffff168152602001600382015481526020016004820154815250508282815181106117505761174f615003565b5b6020026020010181905250806001019050611633565b50809350505050919050565b803373ffffffffffffffffffffffffffffffffffffffff166009600083815260200190815260200160002060010160009054906101000a900473ffffffffffffffffffffffffffffffffffffffff1673ffffffffffffffffffffffffffffffffffffffff161461180e576040517f0d9ff29600000000000000000000000000000000000000000000000000000000815260040160405180910390fd5b6016600083815260200190815260200160002060009054906101000a900460ff1615611866576040517f18fbf5ed00000000000000000000000000000000000000000000000000000000815260040160405180910390fd5b6118b782600d60003373ffffffffffffffffffffffffffffffffffffffff1673ffffffffffffffffffffffffffffffffffffffff168152602001908152602001600020613bce90919063ffffffff16565b60016016600084815260200190815260200160002060006101000a81548160ff02191690831515021790555060003373ffffffffffffffffffffffffffffffffffffffff16600960008581526020019081526020016000206004015460405161191f90614fbf565b60006040518083038185875af1925050503d806000811461195c576040519150601f19603f3d011682016040523d82523d6000602084013e611961565b606091505b505090508061199c576040517f75a8758900000000000000000000000000000000000000000000000000000000815260040160405180910390fd5b505050565b803373ffffffffffffffffffffffffffffffffffffffff166006600083815260200190815260200160002060010160009054906101000a900473ffffffffffffffffffffffffffffffffffffffff1673ffffffffffffffffffffffffffffffffffffffff1614611a3d576040517f0d9ff29600000000000000000000000000000000000000000000000000000000815260040160405180910390fd5b6013600083815260200190815260200160002060009054906101000a900460ff1615611a95576040517f18fbf5ed00000000000000000000000000000000000000000000000000000000815260040160405180910390fd5b611ae682600a60003373ffffffffffffffffffffffffffffffffffffffff1673ffffffffffffffffffffffffffffffffffffffff168152602001908152602001600020613bce90919063ffffffff16565b60016013600084815260200190815260200160002060006101000a81548160ff02191690831515021790555060003373ffffffffffffffffffffffffffffffffffffffff166006600085815260200190815260200160002060020154604051611b4e90614fbf565b60006040518083038185875af1925050503d8060008114611b8b576040519150601f19603f3d011682016040523d82523d6000602084013e611b90565b606091505b5050905080611bcb576040517f75a8758900000000000000000000000000000000000000000000000000000000815260040160405180910390fd5b505050565b60606000600c60008473ffffffffffffffffffffffffffffffffffffffff1673ffffffffffffffffffffffffffffffffffffffff168152602001908152602001600020805480602002602001604051908101604052809291908181526020018280548015611c5d57602002820191906000526020600020905b815481526020019060010190808311611c49575b5050505050905060008151905060008167ffffffffffffffff811115611c8657611c85614fd4565b5b604051908082528060200260200182016040528015611cbf57816020015b611cac6144a7565b815260200190600190039081611ca45790505b50905060005b82811015611e0c5760086000858381518110611ce457611ce3615003565b5b602002602001015181526020019081526020016000206040518060e0016040529081600082015481526020016001820160009054906101000a900473ffffffffffffffffffffffffffffffffffffffff1673ffffffffffffffffffffffffffffffffffffffff1673ffffffffffffffffffffffffffffffffffffffff1681526020016002820160009054906101000a900473ffffffffffffffffffffffffffffffffffffffff1673ffffffffffffffffffffffffffffffffffffffff1673ffffffffffffffffffffffffffffffffffffffff168152602001600382015481526020016004820154815260200160058201548152602001600682015481525050828281518110611df657611df5615003565b5b6020026020010181905250806001019050611cc5565b50809350505050919050565b600660008281526020019081526020016000206003015460066000838152602001908152602001600020600201541080611e675750600660008281526020019081526020016000206004015442105b15611e9e576040517fa3fc45c600000000000000000000000000000000000000000000000000000000815260040160405180910390fd5b6013600082815260200190815260200160002060009054906101000a900460ff1615611ef6576040517f18fbf5ed00000000000000000000000000000000000000000000000000000000815260040160405180910390fd5b611f7d81600a60006006600086815260200190815260200160002060010160009054906101000a900473ffffffffffffffffffffffffffffffffffffffff1673ffffffffffffffffffffffffffffffffffffffff1673ffffffffffffffffffffffffffffffffffffffff168152602001908152602001600020613bce90919063ffffffff16565b60016013600083815260200190815260200160002060006101000a81548160ff02191690831515021790555060006006600083815260200190815260200160002060010160009054906101000a900473ffffffffffffffffffffffffffffffffffffffff1673ffffffffffffffffffffffffffffffffffffffff16600660008481526020019081526020016000206002015460405161201b90614fbf565b60006040518083038185875af1925050503d8060008114612058576040519150601f19603f3d011682016040523d82523d6000602084013e61205d565b606091505b5050905080612098576040517f75a8758900000000000000000000000000000000000000000000000000000000815260040160405180910390fd5b5050565b60008114156120d7576040517f8e277c2c00000000000000000000000000000000000000000000000000000000815260040160405180910390fd5b6120e160006140b9565b6120eb60016140b9565b600060405180606001604052806121026000613c95565b81526020013373ffffffffffffffffffffffffffffffffffffffff1681526020016000600381111561213757612136614803565b5b815250905060006040518060a001604052806121536001613c95565b81526020013373ffffffffffffffffffffffffffffffffffffffff168152602001600660006121826001613c95565b81526020019081526020016000206002015481526020018481526020016000815250905081600560006121b56000613c95565b81526020019081526020016000206000820151816000015560208201518160010160006101000a81548173ffffffffffffffffffffffffffffffffffffffff021916908373ffffffffffffffffffffffffffffffffffffffff16021790555060408201518160010160146101000a81548160ff0219169083600381111561223f5761223e614803565b5b021790555090505080600660006122566001613c95565b81526020019081526020016000206000820151816000015560208201518160010160006101000a81548173ffffffffffffffffffffffffffffffffffffffff021916908373ffffffffffffffffffffffffffffffffffffffff160217905550604082015181600201556060820151816003015560808201518160040155905050600a60003373ffffffffffffffffffffffffffffffffffffffff1673ffffffffffffffffffffffffffffffffffffffff16815260200190815260200160002061231f6001613c95565b9080600181540180825580915050600190039060005260206000200160009091909190915055505050565b61235261444c565b600960008381526020019081526020016000206040518060a0016040529081600082015481526020016001820160009054906101000a900473ffffffffffffffffffffffffffffffffffffffff1673ffffffffffffffffffffffffffffffffffffffff1673ffffffffffffffffffffffffffffffffffffffff1681526020016002820160009054906101000a900473ffffffffffffffffffffffffffffffffffffffff1673ffffffffffffffffffffffffffffffffffffffff1673ffffffffffffffffffffffffffffffffffffffff168152602001600382015481526020016004820154815250509050919050565b600081141561247c576040517f8e277c2c00000000000000000000000000000000000000000000000000000000815260040160405180910390fd5b61248660006140b9565b61249060016140b9565b428161249c91906150aa565b9050600060405180606001604052806124b56000613c95565b81526020013373ffffffffffffffffffffffffffffffffffffffff168152602001600060038111156124ea576124e9614803565b5b815250905060006040518060a001604052806125066001613c95565b81526020013373ffffffffffffffffffffffffffffffffffffffff168152602001600660006125356001613c95565b81526020019081526020016000206002015481526020016000815260200184815250905081600560006125686000613c95565b81526020019081526020016000206000820151816000015560208201518160010160006101000a81548173ffffffffffffffffffffffffffffffffffffffff021916908373ffffffffffffffffffffffffffffffffffffffff16021790555060408201518160010160146101000a81548160ff021916908360038111156125f2576125f1614803565b5b021790555090505080600660006126096001613c95565b81526020019081526020016000206000820151816000015560208201518160010160006101000a81548173ffffffffffffffffffffffffffffffffffffffff021916908373ffffffffffffffffffffffffffffffffffffffff160217905550604082015181600201556060820151816003015560808201518160040155905050600a60003373ffffffffffffffffffffffffffffffffffffffff1673ffffffffffffffffffffffffffffffffffffffff1681526020019081526020016000206126d26001613c95565b9080600181540180825580915050600190039060005260206000200160009091909190915055505050565b61270561439a565b600760008381526020019081526020016000206040518060e0016040529081600082015481526020016001820160009054906101000a900473ffffffffffffffffffffffffffffffffffffffff1673ffffffffffffffffffffffffffffffffffffffff1673ffffffffffffffffffffffffffffffffffffffff1681526020016002820160009054906101000a900473ffffffffffffffffffffffffffffffffffffffff1673ffffffffffffffffffffffffffffffffffffffff1673ffffffffffffffffffffffffffffffffffffffff1681526020016003820154815260200160048201548152602001600582015481526020016006820154815250509050919050565b813373ffffffffffffffffffffffffffffffffffffffff166007600083815260200190815260200160002060010160009054906101000a900473ffffffffffffffffffffffffffffffffffffffff1673ffffffffffffffffffffffffffffffffffffffff16146128a4576040517f0d9ff29600000000000000000000000000000000000000000000000000000000815260040160405180910390fd5b60008314806128b35750600082145b156128ea576040517f8e277c2c00000000000000000000000000000000000000000000000000000000815260040160405180910390fd5b813414612923576040517f055932c300000000000000000000000000000000000000000000000000000000815260040160405180910390fd5b600760008481526020019081526020016000206004015460116000858152602001908152602001600020819055508160076000858152602001908152602001600020600301600082825461297791906150aa565b92505081905550816017600085815260200190815260200160002060008282546129a191906150aa565b9250508190555060003073ffffffffffffffffffffffffffffffffffffffff16346040516129ce90614fbf565b60006040518083038185875af1925050503d8060008114612a0b576040519150601f19603f3d011682016040523d82523d6000602084013e612a10565b606091505b5050905080612a4b576040517f75a8758900000000000000000000000000000000000000000000000000000000815260040160405180910390fd5b50505050565b60606000600a60008473ffffffffffffffffffffffffffffffffffffffff1673ffffffffffffffffffffffffffffffffffffffff168152602001908152602001600020805480602002602001604051908101604052809291908181526020018280548015612ade57602002820191906000526020600020905b815481526020019060010190808311612aca575b5050505050905060008151905060008167ffffffffffffffff811115612b0757612b06614fd4565b5b604051908082528060200260200182016040528015612b4057816020015b612b2d614355565b815260200190600190039081612b255790505b50905060005b82811015612c2d5760066000858381518110612b6557612b64615003565b5b602002602001015181526020019081526020016000206040518060a0016040529081600082015481526020016001820160009054906101000a900473ffffffffffffffffffffffffffffffffffffffff1673ffffffffffffffffffffffffffffffffffffffff1673ffffffffffffffffffffffffffffffffffffffff1681526020016002820154815260200160038201548152602001600482015481525050828281518110612c1757612c16615003565b5b6020026020010181905250806001019050612b46565b50809350505050919050565b600073ffffffffffffffffffffffffffffffffffffffff168273ffffffffffffffffffffffffffffffffffffffff161480612c745750600081145b15612cab576040517f8e277c2c00000000000000000000000000000000000000000000000000000000815260040160405180910390fd5b612cb560006140b9565b612cbf60046140b9565b4281612ccb91906150aa565b905060006040518060600160405280612ce46000613c95565b81526020013373ffffffffffffffffffffffffffffffffffffffff168152602001600380811115612d1857612d17614803565b5b815250905060006040518060a00160405280612d346004613c95565b81526020013373ffffffffffffffffffffffffffffffffffffffff1681526020018573ffffffffffffffffffffffffffffffffffffffff16815260200184815260200160096000612d856004613c95565b81526020019081526020016000206004015481525090508160056000612dab6000613c95565b81526020019081526020016000206000820151816000015560208201518160010160006101000a81548173ffffffffffffffffffffffffffffffffffffffff021916908373ffffffffffffffffffffffffffffffffffffffff16021790555060408201518160010160146101000a81548160ff02191690836003811115612e3557612e34614803565b5b02179055509050508060096000612e4c6004613c95565b81526020019081526020016000206000820151816000015560208201518160010160006101000a81548173ffffffffffffffffffffffffffffffffffffffff021916908373ffffffffffffffffffffffffffffffffffffffff16021790555060408201518160020160006101000a81548173ffffffffffffffffffffffffffffffffffffffff021916908373ffffffffffffffffffffffffffffffffffffffff1602179055506060820151816003015560808201518160040155905050600d60003373ffffffffffffffffffffffffffffffffffffffff1673ffffffffffffffffffffffffffffffffffffffff168152602001908152602001600020612f526004613c95565b9080600181540180825580915050600190039060005260206000200160009091909190915055601060008573ffffffffffffffffffffffffffffffffffffffff1673ffffffffffffffffffffffffffffffffffffffff168152602001908152602001600020612fc16004613c95565b908060018154018082558091505060019003906000526020600020016000909190919091505550505050565b6000600190505b612ffe6003613c95565b811161305857600060186000838152602001908152602001600020541115613045576012600082815260200190815260200160002054421061304457613043816140cf565b5b5b808061305090615061565b915050612ff4565b50565b600073ffffffffffffffffffffffffffffffffffffffff168473ffffffffffffffffffffffffffffffffffffffff1614806130965750600083145b806130a15750600082145b806130ac5750600081145b156130e3576040517f8e277c2c00000000000000000000000000000000000000000000000000000000815260040160405180910390fd5b6130ed60006140b9565b6130f760036140b9565b428361310391906150aa565b92506000604051806060016040528061311c6000613c95565b81526020013373ffffffffffffffffffffffffffffffffffffffff1681526020016002600381111561315157613150614803565b5b815250905060006040518060e0016040528061316d6003613c95565b81526020013373ffffffffffffffffffffffffffffffffffffffff1681526020018773ffffffffffffffffffffffffffffffffffffffff168152602001600860006131b86003613c95565b815260200190815260200160002060030154815260200186815260200185815260200184815250905081600560006131f06000613c95565b81526020019081526020016000206000820151816000015560208201518160010160006101000a81548173ffffffffffffffffffffffffffffffffffffffff021916908373ffffffffffffffffffffffffffffffffffffffff16021790555060408201518160010160146101000a81548160ff0219169083600381111561327a57613279614803565b5b021790555090505080600860006132916003613c95565b81526020019081526020016000206000820151816000015560208201518160010160006101000a81548173ffffffffffffffffffffffffffffffffffffffff021916908373ffffffffffffffffffffffffffffffffffffffff16021790555060408201518160020160006101000a81548173ffffffffffffffffffffffffffffffffffffffff021916908373ffffffffffffffffffffffffffffffffffffffff160217905550606082015181600301556080820151816004015560a0820151816005015560c0820151816006015590505084601260006133716003613c95565b815260200190815260200160002081905550600c60003373ffffffffffffffffffffffffffffffffffffffff1673ffffffffffffffffffffffffffffffffffffffff1681526020019081526020016000206133cc6003613c95565b9080600181540180825580915050600190039060005260206000200160009091909190915055600f60008773ffffffffffffffffffffffffffffffffffffffff1673ffffffffffffffffffffffffffffffffffffffff16815260200190815260200160002061343b6003613c95565b9080600181540180825580915050600190039060005260206000200160009091909190915055505050505050565b803373ffffffffffffffffffffffffffffffffffffffff166007600083815260200190815260200160002060010160009054906101000a900473ffffffffffffffffffffffffffffffffffffffff1673ffffffffffffffffffffffffffffffffffffffff1614613505576040517f0d9ff29600000000000000000000000000000000000000000000000000000000815260040160405180910390fd5b6014600083815260200190815260200160002060009054906101000a900460ff161561355d576040517f18fbf5ed00000000000000000000000000000000000000000000000000000000815260040160405180910390fd5b6135ae82600b60003373ffffffffffffffffffffffffffffffffffffffff1673ffffffffffffffffffffffffffffffffffffffff168152602001908152602001600020613bce90919063ffffffff16565b60016014600084815260200190815260200160002060006101000a81548160ff02191690831515021790555060003373ffffffffffffffffffffffffffffffffffffffff16601760008581526020019081526020016000205460405161361390614fbf565b60006040518083038185875af1925050503d8060008114613650576040519150601f19603f3d011682016040523d82523d6000602084013e613655565b606091505b5050905080613690576040517f75a8758900000000000000000000000000000000000000000000000000000000815260040160405180910390fd5b505050565b600073ffffffffffffffffffffffffffffffffffffffff168473ffffffffffffffffffffffffffffffffffffffff1614806136d05750600083145b806136db5750600082145b806136e65750600081145b1561371d576040517f8e277c2c00000000000000000000000000000000000000000000000000000000815260040160405180910390fd5b61372760006140b9565b61373160026140b9565b428361373d91906150aa565b9250600060405180606001604052806137566000613c95565b81526020013373ffffffffffffffffffffffffffffffffffffffff1681526020016001600381111561378b5761378a614803565b5b815250905060006040518060e001604052806137a76002613c95565b81526020013373ffffffffffffffffffffffffffffffffffffffff1681526020018773ffffffffffffffffffffffffffffffffffffffff168152602001600760006137f26002613c95565b8152602001908152602001600020600301548152602001868152602001858152602001848152509050816005600061382a6000613c95565b81526020019081526020016000206000820151816000015560208201518160010160006101000a81548173ffffffffffffffffffffffffffffffffffffffff021916908373ffffffffffffffffffffffffffffffffffffffff16021790555060408201518160010160146101000a81548160ff021916908360038111156138b4576138b3614803565b5b021790555090505080600760006138cb6002613c95565b81526020019081526020016000206000820151816000015560208201518160010160006101000a81548173ffffffffffffffffffffffffffffffffffffffff021916908373ffffffffffffffffffffffffffffffffffffffff16021790555060408201518160020160006101000a81548173ffffffffffffffffffffffffffffffffffffffff021916908373ffffffffffffffffffffffffffffffffffffffff160217905550606082015181600301556080820151816004015560a0820151816005015560c0820151816006015590505084601160006139ab6002613c95565b815260200190815260200160002081905550600b60003373ffffffffffffffffffffffffffffffffffffffff1673ffffffffffffffffffffffffffffffffffffffff168152602001908152602001600020613a066002613c95565b9080600181540180825580915050600190039060005260206000200160009091909190915055600e60008773ffffffffffffffffffffffffffffffffffffffff1673ffffffffffffffffffffffffffffffffffffffff168152602001908152602001600020613a756002613c95565b9080600181540180825580915050600190039060005260206000200160009091909190915055505050505050565b600060096000838152602001908152602001600020600401549050919050565b613acb6144a7565b600860008381526020019081526020016000206040518060e0016040529081600082015481526020016001820160009054906101000a900473ffffffffffffffffffffffffffffffffffffffff1673ffffffffffffffffffffffffffffffffffffffff1673ffffffffffffffffffffffffffffffffffffffff1681526020016002820160009054906101000a900473ffffffffffffffffffffffffffffffffffffffff1673ffffffffffffffffffffffffffffffffffffffff1673ffffffffffffffffffffffffffffffffffffffff1681526020016003820154815260200160048201548152602001600582015481526020016006820154815250509050919050565b60005b8280549050811015613c905781838281548110613bf157613bf0615003565b5b90600052602060002001541415613c7d578260018480549050613c149190615100565b81548110613c2557613c24615003565b5b9060005260206000200154838281548110613c4357613c42615003565b5b906000526020600020018190555082805480613c6257613c6161515d565b5b60019003818190600052602060002001600090559055613c90565b8080613c8890615061565b915050613bd1565b505050565b600081600001549050919050565b613d2a81600d60006009600086815260200190815260200160002060010160009054906101000a900473ffffffffffffffffffffffffffffffffffffffff1673ffffffffffffffffffffffffffffffffffffffff1673ffffffffffffffffffffffffffffffffffffffff168152602001908152602001600020613bce90919063ffffffff16565b60016016600083815260200190815260200160002060006101000a81548160ff02191690831515021790555060006009600083815260200190815260200160002060020160009054906101000a900473ffffffffffffffffffffffffffffffffffffffff1673ffffffffffffffffffffffffffffffffffffffff166009600084815260200190815260200160002060040154604051613dc890614fbf565b60006040518083038185875af1925050503d8060008114613e05576040519150601f19603f3d011682016040523d82523d6000602084013e613e0a565b606091505b5050905080613e45576040517f75a8758900000000000000000000000000000000000000000000000000000000815260040160405180910390fd5b5050565b60008042905060006011600085815260200190815260200160002054905060006007600086815260200190815260200160002060060154905060006001828486613e939190615100565b613e9d91906151bb565b613ea791906150aa565b90508181613eb591906151ec565b601160008881526020019081526020016000206000828254613ed791906150aa565b92505081905550600760008781526020019081526020016000206005015460176000888152602001908152602001600020541015613f2657601760008781526020019081526020016000205494505b6007600087815260200190815260200160002060050154601760008881526020019081526020016000205410613fad57600760008781526020019081526020016000206005015481613f7891906151ec565b94506017600087815260200190815260200160002054851115613fac57601760008781526020019081526020016000205494505b5b84601760008881526020019081526020016000206000828254613fd09190615100565b9250508190555060006007600088815260200190815260200160002060020160009054906101000a900473ffffffffffffffffffffffffffffffffffffffff1673ffffffffffffffffffffffffffffffffffffffff168660405161403390614fbf565b60006040518083038185875af1925050503d8060008114614070576040519150601f19603f3d011682016040523d82523d6000602084013e614075565b606091505b50509050806140b0576040517f75a8758900000000000000000000000000000000000000000000000000000000815260040160405180910390fd5b50505050505050565b6001816000016000828254019250508190555050565b600080600860008481526020019081526020016000206004015490506000601260008581526020019081526020016000205490506000600860008681526020019081526020016000206006015490506000600182848661412f9190615100565b61413991906151bb565b61414391906150aa565b9050818161415191906151ec565b60126000888152602001908152602001600020600082825461417391906150aa565b925050819055506008600087815260200190815260200160002060050154601860008881526020019081526020016000205410156141c257601860008781526020019081526020016000205494505b60086000878152602001908152602001600020600501546018600088815260200190815260200160002054106142495760086000878152602001908152602001600020600501548161421491906151ec565b9450601860008781526020019081526020016000205485111561424857601860008781526020019081526020016000205494505b5b8460186000888152602001908152602001600020600082825461426c9190615100565b9250508190555060006008600088815260200190815260200160002060020160009054906101000a900473ffffffffffffffffffffffffffffffffffffffff1673ffffffffffffffffffffffffffffffffffffffff16866040516142cf90614fbf565b60006040518083038185875af1925050503d806000811461430c576040519150601f19603f3d011682016040523d82523d6000602084013e614311565b606091505b505090508061434c576040517f75a8758900000000000000000000000000000000000000000000000000000000815260040160405180910390fd5b50505050505050565b6040518060a0016040528060008152602001600073ffffffffffffffffffffffffffffffffffffffff1681526020016000815260200160008152602001600081525090565b6040518060e0016040528060008152602001600073ffffffffffffffffffffffffffffffffffffffff168152602001600073ffffffffffffffffffffffffffffffffffffffff168152602001600081526020016000815260200160008152602001600081525090565b604051806060016040528060008152602001600073ffffffffffffffffffffffffffffffffffffffff1681526020016000600381111561444657614445614803565b5b81525090565b6040518060a0016040528060008152602001600073ffffffffffffffffffffffffffffffffffffffff168152602001600073ffffffffffffffffffffffffffffffffffffffff16815260200160008152602001600081525090565b6040518060e0016040528060008152602001600073ffffffffffffffffffffffffffffffffffffffff168152602001600073ffffffffffffffffffffffffffffffffffffffff168152602001600081526020016000815260200160008152602001600081525090565b600080fd5b6000819050919050565b61452881614515565b811461453357600080fd5b50565b6000813590506145458161451f565b92915050565b60006020828403121561456157614560614510565b5b600061456f84828501614536565b91505092915050565b61458181614515565b82525050565b600073ffffffffffffffffffffffffffffffffffffffff82169050919050565b60006145b282614587565b9050919050565b6145c2816145a7565b82525050565b60a0820160008201516145de6000850182614578565b5060208201516145f160208501826145b9565b5060408201516146046040850182614578565b5060608201516146176060850182614578565b50608082015161462a6080850182614578565b50505050565b600060a08201905061464560008301846145c8565b92915050565b614654816145a7565b811461465f57600080fd5b50565b6000813590506146718161464b565b92915050565b60006020828403121561468d5761468c614510565b5b600061469b84828501614662565b91505092915050565b600081519050919050565b600082825260208201905092915050565b6000819050602082019050919050565b60e0820160008201516146e66000850182614578565b5060208201516146f960208501826145b9565b50604082015161470c60408501826145b9565b50606082015161471f6060850182614578565b5060808201516147326080850182614578565b5060a082015161474560a0850182614578565b5060c082015161475860c0850182614578565b50505050565b600061476a83836146d0565b60e08301905092915050565b6000602082019050919050565b600061478e826146a4565b61479881856146af565b93506147a3836146c0565b8060005b838110156147d45781516147bb888261475e565b97506147c683614776565b9250506001810190506147a7565b5085935050505092915050565b600060208201905081810360008301526147fb8184614783565b905092915050565b7f4e487b7100000000000000000000000000000000000000000000000000000000600052602160045260246000fd5b6004811061484357614842614803565b5b50565b600081905061485482614832565b919050565b600061486482614846565b9050919050565b61487481614859565b82525050565b6060820160008201516148906000850182614578565b5060208201516148a360208501826145b9565b5060408201516148b6604085018261486b565b50505050565b60006060820190506148d1600083018461487a565b92915050565b600080604083850312156148ee576148ed614510565b5b60006148fc85828601614536565b925050602061490d85828601614536565b9150509250929050565b61492081614515565b82525050565b600060208201905061493b6000830184614917565b92915050565b600081519050919050565b600082825260208201905092915050565b6000819050602082019050919050565b60a0820160008201516149836000850182614578565b50602082015161499660208501826145b9565b5060408201516149a960408501826145b9565b5060608201516149bc6060850182614578565b5060808201516149cf6080850182614578565b50505050565b60006149e1838361496d565b60a08301905092915050565b6000602082019050919050565b6000614a0582614941565b614a0f818561494c565b9350614a1a8361495d565b8060005b83811015614a4b578151614a3288826149d5565b9750614a3d836149ed565b925050600181019050614a1e565b5085935050505092915050565b60006020820190508181036000830152614a7281846149fa565b905092915050565b600081519050919050565b600082825260208201905092915050565b6000819050602082019050919050565b60e082016000820151614abc6000850182614578565b506020820151614acf60208501826145b9565b506040820151614ae260408501826145b9565b506060820151614af56060850182614578565b506080820151614b086080850182614578565b5060a0820151614b1b60a0850182614578565b5060c0820151614b2e60c0850182614578565b50505050565b6000614b408383614aa6565b60e08301905092915050565b6000602082019050919050565b6000614b6482614a7a565b614b6e8185614a85565b9350614b7983614a96565b8060005b83811015614baa578151614b918882614b34565b9750614b9c83614b4c565b925050600181019050614b7d565b5085935050505092915050565b60006020820190508181036000830152614bd18184614b59565b905092915050565b60a082016000820151614bef6000850182614578565b506020820151614c0260208501826145b9565b506040820151614c1560408501826145b9565b506060820151614c286060850182614578565b506080820151614c3b6080850182614578565b50505050565b600060a082019050614c566000830184614bd9565b92915050565b60e082016000820151614c726000850182614578565b506020820151614c8560208501826145b9565b506040820151614c9860408501826145b9565b506060820151614cab6060850182614578565b506080820151614cbe6080850182614578565b5060a0820151614cd160a0850182614578565b5060c0820151614ce460c0850182614578565b50505050565b600060e082019050614cff6000830184614c5c565b92915050565b600081519050919050565b600082825260208201905092915050565b6000819050602082019050919050565b60a082016000820151614d476000850182614578565b506020820151614d5a60208501826145b9565b506040820151614d6d6040850182614578565b506060820151614d806060850182614578565b506080820151614d936080850182614578565b50505050565b6000614da58383614d31565b60a08301905092915050565b6000602082019050919050565b6000614dc982614d05565b614dd38185614d10565b9350614dde83614d21565b8060005b83811015614e0f578151614df68882614d99565b9750614e0183614db1565b925050600181019050614de2565b5085935050505092915050565b60006020820190508181036000830152614e368184614dbe565b905092915050565b60008060408385031215614e5557614e54614510565b5b6000614e6385828601614662565b9250506020614e7485828601614536565b9150509250929050565b60008060008060808587031215614e9857614e97614510565b5b6000614ea687828801614662565b9450506020614eb787828801614536565b9350506040614ec887828801614536565b9250506060614ed987828801614536565b91505092959194509250565b60e082016000820151614efb6000850182614578565b506020820151614f0e60208501826145b9565b506040820151614f2160408501826145b9565b506060820151614f346060850182614578565b506080820151614f476080850182614578565b5060a0820151614f5a60a0850182614578565b5060c0820151614f6d60c0850182614578565b50505050565b600060e082019050614f886000830184614ee5565b92915050565b600081905092915050565b50565b6000614fa9600083614f8e565b9150614fb482614f99565b600082019050919050565b6000614fca82614f9c565b9150819050919050565b7f4e487b7100000000000000000000000000000000000000000000000000000000600052604160045260246000fd5b7f4e487b7100000000000000000000000000000000000000000000000000000000600052603260045260246000fd5b7f4e487b7100000000000000000000000000000000000000000000000000000000600052601160045260246000fd5b600061506c82614515565b91507fffffffffffffffffffffffffffffffffffffffffffffffffffffffffffffffff82141561509f5761509e615032565b5b600182019050919050565b60006150b582614515565b91506150c083614515565b9250827fffffffffffffffffffffffffffffffffffffffffffffffffffffffffffffffff038211156150f5576150f4615032565b5b828201905092915050565b600061510b82614515565b915061511683614515565b92508282101561512957615128615032565b5b828203905092915050565b60006040820190506151496000830185614917565b6151566020830184614917565b9392505050565b7f4e487b7100000000000000000000000000000000000000000000000000000000600052603160045260246000fd5b7f4e487b7100000000000000000000000000000000000000000000000000000000600052601260045260246000fd5b60006151c682614515565b91506151d183614515565b9250826151e1576151e061518c565b5b828204905092915050565b60006151f782614515565b915061520283614515565b9250817fffffffffffffffffffffffffffffffffffffffffffffffffffffffffffffffff048311821515161561523b5761523a615032565b5b82820290509291505056fea26469706673582212204ce948804c649f843b2fe2ac039655bf3c595cc4024db0c8a34946689ef104ac64736f6c63430008090033",
  "linkReferences": {},
  "deployedLinkReferences": {}
}