{
  "_format": "hh-sol-artifact-1",
  "contractName": "Atium",
  "sourceName": "contracts/Atium.sol",
  "abi": [
    {
      "inputs": [],
      "name": "Atium_Cancelled",
      "type": "error"
    },
    {
      "inputs": [],
      "name": "Atium_NoWithdrawal",
      "type": "error"
    },
    {
      "inputs": [],
      "name": "Atium_NotAmount",
      "type": "error"
    },
    {
      "inputs": [],
      "name": "Atium_NotOwnerId",
      "type": "error"
    },
    {
      "inputs": [],
      "name": "Atium_NotReceiverId",
      "type": "error"
    },
    {
      "inputs": [],
      "name": "Atium_OnlyFutureDate",
      "type": "error"
    },
    {
      "inputs": [
        {
          "internalType": "uint256",
          "name": "goal",
          "type": "uint256"
        },
        {
          "internalType": "uint256",
          "name": "rem",
          "type": "uint256"
        }
      ],
      "name": "Atium_SavingsGoal_Exceeded",
      "type": "error"
    },
    {
      "inputs": [],
      "name": "Atium_SavingsGoal_Not_Hit",
      "type": "error"
    },
    {
      "inputs": [],
      "name": "Atium_TransactionFailed",
      "type": "error"
    },
    {
      "inputs": [],
      "name": "Atium_ZeroInput",
      "type": "error"
    },
    {
      "inputs": [],
      "name": "Atium__MemberExists",
      "type": "error"
    },
    {
      "inputs": [],
      "name": "Atium__NotMember",
      "type": "error"
    },
    {
      "anonymous": false,
      "inputs": [
        {
          "indexed": false,
          "internalType": "uint256",
          "name": "id",
          "type": "uint256"
        },
        {
          "indexed": true,
          "internalType": "address",
          "name": "user",
          "type": "address"
        },
        {
          "indexed": true,
          "internalType": "address",
          "name": "receiver",
          "type": "address"
        },
        {
          "indexed": false,
          "internalType": "uint256",
          "name": "deposit",
          "type": "uint256"
        },
        {
          "indexed": false,
          "internalType": "uint256",
          "name": "startDate",
          "type": "uint256"
        },
        {
          "indexed": false,
          "internalType": "uint256",
          "name": "withdrawal",
          "type": "uint256"
        },
        {
          "indexed": false,
          "internalType": "uint256",
          "name": "interval",
          "type": "uint256"
        }
      ],
      "name": "Allowance",
      "type": "event"
    },
    {
      "anonymous": false,
      "inputs": [
        {
          "indexed": false,
          "internalType": "uint256",
          "name": "id",
          "type": "uint256"
        },
        {
          "indexed": true,
          "internalType": "address",
          "name": "user",
          "type": "address"
        },
        {
          "indexed": true,
          "internalType": "address",
          "name": "receiver",
          "type": "address"
        },
        {
          "indexed": false,
          "internalType": "uint256",
          "name": "deposit",
          "type": "uint256"
        },
        {
          "indexed": false,
          "internalType": "uint256",
          "name": "date",
          "type": "uint256"
        }
      ],
      "name": "Gift",
      "type": "event"
    },
    {
      "anonymous": false,
      "inputs": [
        {
          "indexed": false,
          "internalType": "uint256",
          "name": "id",
          "type": "uint256"
        },
        {
          "indexed": true,
          "internalType": "address",
          "name": "user",
          "type": "address"
        },
        {
          "indexed": false,
          "internalType": "uint256",
          "name": "deposit",
          "type": "uint256"
        },
        {
          "indexed": false,
          "internalType": "uint256",
          "name": "goal",
          "type": "uint256"
        },
        {
          "indexed": false,
          "internalType": "uint256",
          "name": "time",
          "type": "uint256"
        }
      ],
      "name": "Savings",
      "type": "event"
    },
    {
      "anonymous": false,
      "inputs": [
        {
          "indexed": false,
          "internalType": "uint256",
          "name": "id",
          "type": "uint256"
        },
        {
          "indexed": true,
          "internalType": "address",
          "name": "user",
          "type": "address"
        },
        {
          "indexed": true,
          "internalType": "address",
          "name": "receiver",
          "type": "address"
        },
        {
          "indexed": false,
          "internalType": "uint256",
          "name": "deposit",
          "type": "uint256"
        },
        {
          "indexed": false,
          "internalType": "uint256",
          "name": "startDate",
          "type": "uint256"
        },
        {
          "indexed": false,
          "internalType": "uint256",
          "name": "withdrawal",
          "type": "uint256"
        },
        {
          "indexed": false,
          "internalType": "uint256",
          "name": "interval",
          "type": "uint256"
        }
      ],
      "name": "Trustfund",
      "type": "event"
    },
    {
      "anonymous": false,
      "inputs": [
        {
          "indexed": true,
          "internalType": "address",
          "name": "receiver",
          "type": "address"
        },
        {
          "indexed": false,
          "internalType": "uint256",
          "name": "atium",
          "type": "uint256"
        },
        {
          "indexed": false,
          "internalType": "uint256",
          "name": "amount",
          "type": "uint256"
        }
      ],
      "name": "Withdrawn",
      "type": "event"
    },
    {
      "anonymous": false,
      "inputs": [
        {
          "indexed": false,
          "internalType": "uint256",
          "name": "id",
          "type": "uint256"
        },
        {
          "indexed": false,
          "internalType": "address",
          "name": "userAddress",
          "type": "address"
        }
      ],
      "name": "newArtistJoined",
      "type": "event"
    },
    {
      "inputs": [
        {
          "internalType": "uint256",
          "name": "",
          "type": "uint256"
        }
      ],
      "name": "addressById",
      "outputs": [
        {
          "internalType": "address",
          "name": "",
          "type": "address"
        }
      ],
      "stateMutability": "view",
      "type": "function"
    },
    {
      "inputs": [
        {
          "internalType": "uint256",
          "name": "_id",
          "type": "uint256"
        },
        {
          "internalType": "uint256",
          "name": "_amount",
          "type": "uint256"
        }
      ],
      "name": "allowance",
      "outputs": [],
      "stateMutability": "payable",
      "type": "function"
    },
    {
      "inputs": [
        {
          "internalType": "address",
          "name": "_receiver",
          "type": "address"
        },
        {
          "internalType": "uint256",
          "name": "_startDate",
          "type": "uint256"
        },
        {
          "internalType": "uint256",
          "name": "_amount",
          "type": "uint256"
        },
        {
          "internalType": "uint256",
          "name": "_interval",
          "type": "uint256"
        }
      ],
      "name": "allowancePlan",
      "outputs": [],
      "stateMutability": "nonpayable",
      "type": "function"
    },
    {
      "inputs": [
        {
          "internalType": "uint256",
          "name": "_id",
          "type": "uint256"
        }
      ],
      "name": "cancelAllowance",
      "outputs": [],
      "stateMutability": "nonpayable",
      "type": "function"
    },
    {
      "inputs": [
        {
          "internalType": "uint256",
          "name": "_id",
          "type": "uint256"
        }
      ],
      "name": "cancelGift",
      "outputs": [],
      "stateMutability": "nonpayable",
      "type": "function"
    },
    {
      "inputs": [
        {
          "internalType": "uint256",
          "name": "_id",
          "type": "uint256"
        }
      ],
      "name": "cancelSavings",
      "outputs": [],
      "stateMutability": "nonpayable",
      "type": "function"
    },
    {
      "inputs": [
        {
          "internalType": "uint256",
          "name": "_id",
          "type": "uint256"
        }
      ],
      "name": "cancelTrustfund",
      "outputs": [],
      "stateMutability": "nonpayable",
      "type": "function"
    },
    {
      "inputs": [
        {
          "internalType": "uint256",
          "name": "_id",
          "type": "uint256"
        }
      ],
      "name": "checkLoyaltyId",
      "outputs": [
        {
          "internalType": "address",
          "name": "",
          "type": "address"
        }
      ],
      "stateMutability": "view",
      "type": "function"
    },
    {
      "inputs": [
        {
          "internalType": "address",
          "name": "_user",
          "type": "address"
        }
      ],
      "name": "checkUserLoyaltyPoints",
      "outputs": [
        {
          "internalType": "uint256",
          "name": "",
          "type": "uint256"
        }
      ],
      "stateMutability": "view",
      "type": "function"
    },
    {
      "inputs": [
        {
          "internalType": "uint256",
          "name": "_id",
          "type": "uint256"
        },
        {
          "internalType": "address",
          "name": "_receiver",
          "type": "address"
        },
        {
          "internalType": "uint256",
          "name": "_startDate",
          "type": "uint256"
        },
        {
          "internalType": "uint256",
          "name": "_amount",
          "type": "uint256"
        },
        {
          "internalType": "uint256",
          "name": "_interval",
          "type": "uint256"
        }
      ],
      "name": "editAllowancePlan",
      "outputs": [],
      "stateMutability": "nonpayable",
      "type": "function"
    },
    {
      "inputs": [
        {
          "internalType": "uint256",
          "name": "_id",
          "type": "uint256"
        },
        {
          "internalType": "address",
          "name": "_receiver",
          "type": "address"
        },
        {
          "internalType": "uint256",
          "name": "_date",
          "type": "uint256"
        }
      ],
      "name": "editGiftPlan",
      "outputs": [],
      "stateMutability": "nonpayable",
      "type": "function"
    },
    {
      "inputs": [
        {
          "internalType": "uint256",
          "name": "_id",
          "type": "uint256"
        },
        {
          "internalType": "uint256",
          "name": "_goal",
          "type": "uint256"
        }
      ],
      "name": "editSavingsPlanGoal",
      "outputs": [],
      "stateMutability": "nonpayable",
      "type": "function"
    },
    {
      "inputs": [
        {
          "internalType": "uint256",
          "name": "_id",
          "type": "uint256"
        },
        {
          "internalType": "uint256",
          "name": "_time",
          "type": "uint256"
        }
      ],
      "name": "editSavingsPlanTime",
      "outputs": [],
      "stateMutability": "nonpayable",
      "type": "function"
    },
    {
      "inputs": [
        {
          "internalType": "uint256",
          "name": "_id",
          "type": "uint256"
        },
        {
          "internalType": "address",
          "name": "_receiver",
          "type": "address"
        },
        {
          "internalType": "uint256",
          "name": "_startDate",
          "type": "uint256"
        },
        {
          "internalType": "uint256",
          "name": "_amount",
          "type": "uint256"
        },
        {
          "internalType": "uint256",
          "name": "_interval",
          "type": "uint256"
        }
      ],
      "name": "editTrustfundPlan",
      "outputs": [],
      "stateMutability": "nonpayable",
      "type": "function"
    },
    {
      "inputs": [],
      "name": "getAllMembers",
      "outputs": [
        {
          "components": [
            {
              "internalType": "uint256",
              "name": "id",
              "type": "uint256"
            },
            {
              "internalType": "address",
              "name": "userAddress",
              "type": "address"
            }
          ],
          "internalType": "struct AtiumReg.Member[]",
          "name": "",
          "type": "tuple[]"
        }
      ],
      "stateMutability": "view",
      "type": "function"
    },
    {
      "inputs": [
        {
          "internalType": "uint256",
          "name": "_id",
          "type": "uint256"
        }
      ],
      "name": "getAllowance",
      "outputs": [
        {
          "components": [
            {
              "internalType": "uint256",
              "name": "id",
              "type": "uint256"
            },
            {
              "internalType": "address",
              "name": "sender",
              "type": "address"
            },
            {
              "internalType": "address",
              "name": "receiver",
              "type": "address"
            },
            {
              "internalType": "uint256",
              "name": "deposit",
              "type": "uint256"
            },
            {
              "internalType": "uint256",
              "name": "startDate",
              "type": "uint256"
            },
            {
              "internalType": "uint256",
              "name": "withdrawalAmount",
              "type": "uint256"
            },
            {
              "internalType": "uint256",
              "name": "withdrawalInterval",
              "type": "uint256"
            }
          ],
          "internalType": "struct AtiumPlan.AllowanceList",
          "name": "",
          "type": "tuple"
        }
      ],
      "stateMutability": "view",
      "type": "function"
    },
    {
      "inputs": [
        {
          "internalType": "uint256",
          "name": "_id",
          "type": "uint256"
        }
      ],
      "name": "getAllowanceBalance",
      "outputs": [
        {
          "internalType": "uint256",
          "name": "",
          "type": "uint256"
        }
      ],
      "stateMutability": "view",
      "type": "function"
    },
    {
      "inputs": [
        {
          "internalType": "uint256",
          "name": "_id",
          "type": "uint256"
        }
      ],
      "name": "getAtium",
      "outputs": [
        {
          "components": [
            {
              "internalType": "uint256",
              "name": "id",
              "type": "uint256"
            },
            {
              "internalType": "address",
              "name": "user",
              "type": "address"
            },
            {
              "internalType": "enum AtiumPlan.Select",
              "name": "select",
              "type": "uint8"
            }
          ],
          "internalType": "struct AtiumPlan.AtiumList",
          "name": "",
          "type": "tuple"
        }
      ],
      "stateMutability": "view",
      "type": "function"
    },
    {
      "inputs": [
        {
          "internalType": "uint256",
          "name": "_id",
          "type": "uint256"
        }
      ],
      "name": "getGift",
      "outputs": [
        {
          "components": [
            {
              "internalType": "uint256",
              "name": "id",
              "type": "uint256"
            },
            {
              "internalType": "address",
              "name": "sender",
              "type": "address"
            },
            {
              "internalType": "address",
              "name": "receiver",
              "type": "address"
            },
            {
              "internalType": "uint256",
              "name": "date",
              "type": "uint256"
            },
            {
              "internalType": "uint256",
              "name": "amount",
              "type": "uint256"
            }
          ],
          "internalType": "struct AtiumPlan.GiftList",
          "name": "",
          "type": "tuple"
        }
      ],
      "stateMutability": "view",
      "type": "function"
    },
    {
      "inputs": [
        {
          "internalType": "uint256",
          "name": "_id",
          "type": "uint256"
        }
      ],
      "name": "getGiftBalance",
      "outputs": [
        {
          "internalType": "uint256",
          "name": "",
          "type": "uint256"
        }
      ],
      "stateMutability": "view",
      "type": "function"
    },
    {
      "inputs": [
        {
          "internalType": "uint256",
          "name": "_id",
          "type": "uint256"
        }
      ],
      "name": "getSavings",
      "outputs": [
        {
          "components": [
            {
              "internalType": "uint256",
              "name": "id",
              "type": "uint256"
            },
            {
              "internalType": "address",
              "name": "user",
              "type": "address"
            },
            {
              "internalType": "uint256",
              "name": "amount",
              "type": "uint256"
            },
            {
              "internalType": "uint256",
              "name": "goal",
              "type": "uint256"
            },
            {
              "internalType": "uint256",
              "name": "time",
              "type": "uint256"
            }
          ],
          "internalType": "struct AtiumPlan.SavingsList",
          "name": "",
          "type": "tuple"
        }
      ],
      "stateMutability": "view",
      "type": "function"
    },
    {
      "inputs": [
        {
          "internalType": "uint256",
          "name": "_id",
          "type": "uint256"
        }
      ],
      "name": "getSavingsBalance",
      "outputs": [
        {
          "internalType": "uint256",
          "name": "",
          "type": "uint256"
        }
      ],
      "stateMutability": "view",
      "type": "function"
    },
    {
      "inputs": [
        {
          "internalType": "uint256",
          "name": "_id",
          "type": "uint256"
        }
      ],
      "name": "getTrustfund",
      "outputs": [
        {
          "components": [
            {
              "internalType": "uint256",
              "name": "id",
              "type": "uint256"
            },
            {
              "internalType": "address",
              "name": "sender",
              "type": "address"
            },
            {
              "internalType": "address",
              "name": "receiver",
              "type": "address"
            },
            {
              "internalType": "uint256",
              "name": "amount",
              "type": "uint256"
            },
            {
              "internalType": "uint256",
              "name": "startDate",
              "type": "uint256"
            },
            {
              "internalType": "uint256",
              "name": "withdrawalAmount",
              "type": "uint256"
            },
            {
              "internalType": "uint256",
              "name": "withdrawalInterval",
              "type": "uint256"
            }
          ],
          "internalType": "struct AtiumPlan.TrustFundList",
          "name": "",
          "type": "tuple"
        }
      ],
      "stateMutability": "view",
      "type": "function"
    },
    {
      "inputs": [
        {
          "internalType": "uint256",
          "name": "_id",
          "type": "uint256"
        }
      ],
      "name": "getTrustfundBalance",
      "outputs": [
        {
          "internalType": "uint256",
          "name": "",
          "type": "uint256"
        }
      ],
      "stateMutability": "view",
      "type": "function"
    },
    {
      "inputs": [
        {
          "internalType": "uint256",
          "name": "_id",
          "type": "uint256"
        },
        {
          "internalType": "uint256",
          "name": "_amount",
          "type": "uint256"
        }
      ],
      "name": "gift",
      "outputs": [],
      "stateMutability": "payable",
      "type": "function"
    },
    {
      "inputs": [
        {
          "internalType": "address",
          "name": "_receiver",
          "type": "address"
        },
        {
          "internalType": "uint256",
          "name": "_date",
          "type": "uint256"
        }
      ],
      "name": "giftPlan",
      "outputs": [],
      "stateMutability": "nonpayable",
      "type": "function"
    },
    {
      "inputs": [
        {
          "internalType": "address",
          "name": "",
          "type": "address"
        }
      ],
      "name": "member",
      "outputs": [
        {
          "internalType": "bool",
          "name": "",
          "type": "bool"
        }
      ],
      "stateMutability": "view",
      "type": "function"
    },
    {
      "inputs": [],
      "name": "memberSignUp",
      "outputs": [],
      "stateMutability": "nonpayable",
      "type": "function"
    },
    {
      "inputs": [
        {
          "internalType": "uint256",
          "name": "",
          "type": "uint256"
        }
      ],
      "name": "members",
      "outputs": [
        {
          "internalType": "uint256",
          "name": "id",
          "type": "uint256"
        },
        {
          "internalType": "address",
          "name": "userAddress",
          "type": "address"
        }
      ],
      "stateMutability": "view",
      "type": "function"
    },
    {
      "inputs": [
        {
          "internalType": "uint256",
          "name": "_id",
          "type": "uint256"
        },
        {
          "internalType": "uint256",
          "name": "_amount",
          "type": "uint256"
        }
      ],
      "name": "save",
      "outputs": [],
      "stateMutability": "payable",
      "type": "function"
    },
    {
      "inputs": [
        {
          "internalType": "uint256",
          "name": "_goal",
          "type": "uint256"
        }
      ],
      "name": "savingsPlanGoal",
      "outputs": [],
      "stateMutability": "nonpayable",
      "type": "function"
    },
    {
      "inputs": [
        {
          "internalType": "uint256",
          "name": "_time",
          "type": "uint256"
        }
      ],
      "name": "savingsPlanTime",
      "outputs": [],
      "stateMutability": "nonpayable",
      "type": "function"
    },
    {
      "inputs": [
        {
          "internalType": "uint256",
          "name": "_id",
          "type": "uint256"
        },
        {
          "internalType": "uint256",
          "name": "_amount",
          "type": "uint256"
        }
      ],
      "name": "trustfund",
      "outputs": [],
      "stateMutability": "payable",
      "type": "function"
    },
    {
      "inputs": [
        {
          "internalType": "address",
          "name": "_receiver",
          "type": "address"
        },
        {
          "internalType": "uint256",
          "name": "_startDate",
          "type": "uint256"
        },
        {
          "internalType": "uint256",
          "name": "_amount",
          "type": "uint256"
        },
        {
          "internalType": "uint256",
          "name": "_interval",
          "type": "uint256"
        }
      ],
      "name": "trustfundPlan",
      "outputs": [],
      "stateMutability": "nonpayable",
      "type": "function"
    },
    {
      "inputs": [
        {
          "internalType": "uint256",
          "name": "_id",
          "type": "uint256"
        }
      ],
      "name": "w_allowance",
      "outputs": [],
      "stateMutability": "nonpayable",
      "type": "function"
    },
    {
      "inputs": [
        {
          "internalType": "uint256",
          "name": "_id",
          "type": "uint256"
        }
      ],
      "name": "w_gift",
      "outputs": [],
      "stateMutability": "nonpayable",
      "type": "function"
    },
    {
      "inputs": [
        {
          "internalType": "uint256",
          "name": "_id",
          "type": "uint256"
        }
      ],
      "name": "w_save",
      "outputs": [],
      "stateMutability": "nonpayable",
      "type": "function"
    },
    {
      "inputs": [
        {
          "internalType": "uint256",
          "name": "_id",
          "type": "uint256"
        }
      ],
      "name": "w_trustfund",
      "outputs": [],
      "stateMutability": "nonpayable",
      "type": "function"
    },
    {
      "stateMutability": "payable",
      "type": "receive"
    }
  ],
  "bytecode": "0x608060405234801561001057600080fd5b506168cb80620000216000396000f3fe6080604052600436106102295760003560e01c8063872c609511610123578063c960174e116100ab578063e7d4539e1161006f578063e7d4539e14610817578063eb51490014610854578063ed5579fc1461087d578063f7b05eea146108a6578063fa278ae6146108e357610230565b8063c960174e14610743578063cca16fa814610780578063d14fb6db1461079c578063d67d10dc146107c5578063e4d9fff8146107ee57610230565b8063a0781399116100f2578063a078139914610662578063aca9d54c1461068b578063ad31cc9f146106b4578063bf6713f6146106dd578063c315d6351461071a57610230565b8063872c6095146105aa57806387d3a024146105d35780638ee69ae8146106105780639378d65a1461063957610230565b80635daf08ca116101b15780637c0f6b35116101755780637c0f6b35146104ac5780637c62460f146104d757806381acffe8146105145780638207d0f91461055157806383a74acc1461058e57610230565b80635daf08ca146103d5578063640117be1461041357806367b452141461042f5780636c793fc91461046c5780636e6c7de81461049557610230565b80633a36dafe116101f85780633a36dafe146102ed5780633d53316b1461032a5780633e346eeb146103535780635029919b1461039057806357fc0363146103b957610230565b8063024025f4146102355780631072354b1461025e57806313bfb182146102875780631f7525d0146102c457610230565b3661023057005b600080fd5b34801561024157600080fd5b5061025c60048036038101906102579190615c6b565b610920565b005b34801561026a57600080fd5b5061028560048036038101906102809190615ce6565b610bcc565b005b34801561029357600080fd5b506102ae60048036038101906102a99190615ce6565b610e0e565b6040516102bb9190615d99565b60405180910390f35b3480156102d057600080fd5b506102eb60048036038101906102e69190615ce6565b610eb9565b005b3480156102f957600080fd5b50610314600480360381019061030f9190615ce6565b611207565b6040516103219190615dc3565b60405180910390f35b34801561033657600080fd5b50610351600480360381019061034c9190615dde565b611244565b005b34801561035f57600080fd5b5061037a60048036038101906103759190615ce6565b6114a4565b6040516103879190615eea565b60405180910390f35b34801561039c57600080fd5b506103b760048036038101906103b29190615c6b565b61156c565b005b6103d360048036038101906103ce9190615f05565b61180a565b005b3480156103e157600080fd5b506103fc60048036038101906103f79190615ce6565b611d7a565b60405161040a929190615f54565b60405180910390f35b61042d60048036038101906104289190615f05565b611dce565b005b34801561043b57600080fd5b5061045660048036038101906104519190615ce6565b6123c1565b6040516104639190615f7d565b60405180910390f35b34801561047857600080fd5b50610493600480360381019061048e9190615ce6565b6123e1565b005b3480156104a157600080fd5b506104aa61275e565b005b3480156104b857600080fd5b506104c1612a12565b6040516104ce9190616076565b60405180910390f35b3480156104e357600080fd5b506104fe60048036038101906104f99190616098565b612ad1565b60405161050b9190615f7d565b60405180910390f35b34801561052057600080fd5b5061053b60048036038101906105369190615ce6565b612b1a565b6040516105489190615f7d565b60405180910390f35b34801561055d57600080fd5b5061057860048036038101906105739190615ce6565b612b37565b6040516105859190615f7d565b60405180910390f35b6105a860048036038101906105a39190615f05565b612b54565b005b3480156105b657600080fd5b506105d160048036038101906105cc9190615f05565b6130a1565b005b3480156105df57600080fd5b506105fa60048036038101906105f59190615ce6565b61329a565b6040516106079190615dc3565b60405180910390f35b34801561061c57600080fd5b5061063760048036038101906106329190615ce6565b6132cd565b005b34801561064557600080fd5b50610660600480360381019061065b9190615ce6565b613512565b005b34801561066e57600080fd5b5061068960048036038101906106849190615ce6565b613757565b005b34801561069757600080fd5b506106b260048036038101906106ad9190615ce6565b613944565b005b3480156106c057600080fd5b506106db60048036038101906106d69190615ce6565b613c0f565b005b3480156106e957600080fd5b5061070460048036038101906106ff9190615ce6565b613ecb565b604051610711919061612d565b60405180910390f35b34801561072657600080fd5b50610741600480360381019061073c9190615ce6565b613fc2565b005b34801561074f57600080fd5b5061076a60048036038101906107659190615ce6565b61428c565b60405161077791906161d6565b60405180910390f35b61079a60048036038101906107959190615f05565b614397565b005b3480156107a857600080fd5b506107c360048036038101906107be91906161f1565b61498a565b005b3480156107d157600080fd5b506107ec60048036038101906107e79190616231565b614cf1565b005b3480156107fa57600080fd5b5061081560048036038101906108109190615ce6565b6150b6565b005b34801561082357600080fd5b5061083e60048036038101906108399190616098565b6152f8565b60405161084b91906162b3565b60405180910390f35b34801561086057600080fd5b5061087b60048036038101906108769190615f05565b615318565b005b34801561088957600080fd5b506108a4600480360381019061089f9190616231565b615503565b005b3480156108b257600080fd5b506108cd60048036038101906108c89190615ce6565b6158c8565b6040516108da9190615f7d565b60405180910390f35b3480156108ef57600080fd5b5061090a60048036038101906109059190615ce6565b6158e8565b604051610917919061635c565b60405180910390f35b843373ffffffffffffffffffffffffffffffffffffffff16600c600083815260200190815260200160002060010160009054906101000a900473ffffffffffffffffffffffffffffffffffffffff1673ffffffffffffffffffffffffffffffffffffffff16146109bc576040517f0d9ff29600000000000000000000000000000000000000000000000000000000815260040160405180910390fd5b42846109c891906163a6565b935060006040518060e001604052808881526020013373ffffffffffffffffffffffffffffffffffffffff1681526020018773ffffffffffffffffffffffffffffffffffffffff168152602001600c60008a81526020019081526020016000206003015481526020014287610a3d91906163a6565b965086815260200185815260200184815250905080600c60008981526020019081526020016000206000820151816000015560208201518160010160006101000a81548173ffffffffffffffffffffffffffffffffffffffff021916908373ffffffffffffffffffffffffffffffffffffffff16021790555060408201518160020160006101000a81548173ffffffffffffffffffffffffffffffffffffffff021916908373ffffffffffffffffffffffffffffffffffffffff160217905550606082015181600301556080820151816004015560a0820151816005015560c0820151816006015590505084600f6000898152602001908152602001600020819055508573ffffffffffffffffffffffffffffffffffffffff163373ffffffffffffffffffffffffffffffffffffffff167f7ae56fec07023e809c892be62111eb83aa2c212bbc4687da5af1b43048de86e689600c60008c815260200190815260200160002060030154898989604051610bbb9594939291906163fc565b60405180910390a350505050505050565b803373ffffffffffffffffffffffffffffffffffffffff16600d600083815260200190815260200160002060010160009054906101000a900473ffffffffffffffffffffffffffffffffffffffff1673ffffffffffffffffffffffffffffffffffffffff1614610c68576040517f0d9ff29600000000000000000000000000000000000000000000000000000000815260040160405180910390fd5b6014600083815260200190815260200160002060009054906101000a900460ff1615610cc0576040517f18fbf5ed00000000000000000000000000000000000000000000000000000000815260040160405180910390fd5b60016014600084815260200190815260200160002060006101000a81548160ff02191690831515021790555060003373ffffffffffffffffffffffffffffffffffffffff166017600085815260200190815260200160002054604051610d2590616480565b60006040518083038185875af1925050503d8060008114610d62576040519150601f19603f3d011682016040523d82523d6000602084013e610d67565b606091505b5050905080610da2576040517f75a8758900000000000000000000000000000000000000000000000000000000815260040160405180910390fd5b3373ffffffffffffffffffffffffffffffffffffffff167f92ccf450a286a957af52509bc1c9939d1a6a481783e142e41e2499f0bb66ebc66002600d600087815260200190815260200160002060030154604051610e019291906164da565b60405180910390a2505050565b610e16615a17565b600b60008381526020019081526020016000206040518060a0016040529081600082015481526020016001820160009054906101000a900473ffffffffffffffffffffffffffffffffffffffff1673ffffffffffffffffffffffffffffffffffffffff1673ffffffffffffffffffffffffffffffffffffffff16815260200160028201548152602001600382015481526020016004820154815250509050919050565b803373ffffffffffffffffffffffffffffffffffffffff16600d600083815260200190815260200160002060020160009054906101000a900473ffffffffffffffffffffffffffffffffffffffff1673ffffffffffffffffffffffffffffffffffffffff1614610f55576040517f1d53a4ad00000000000000000000000000000000000000000000000000000000815260040160405180910390fd5b60008060176000858152602001908152602001600020541415610fa4576040517fcd672d5d00000000000000000000000000000000000000000000000000000000815260040160405180910390fd5b6000600d60008581526020019081526020016000206004015490506000601060008681526020019081526020016000205490506000600d600087815260200190815260200160002060060154905060008183856110019190616503565b61100b9190616566565b905081816110199190616597565b60106000898152602001908152602001600020600082825461103b91906163a6565b92505081905550600d6000888152602001908152602001600020600501546017600089815260200190815260200160002054101561108a57601760008881526020019081526020016000205494505b600d6000888152602001908152602001600020600501546017600089815260200190815260200160002054106110df57600d600088815260200190815260200160002060050154816110dc9190616597565b94505b846017600089815260200190815260200160002060008282546111029190616503565b9250508190555060003373ffffffffffffffffffffffffffffffffffffffff168660405161112f90616480565b60006040518083038185875af1925050503d806000811461116c576040519150601f19603f3d011682016040523d82523d6000602084013e611171565b606091505b50509050806111ac576040517f75a8758900000000000000000000000000000000000000000000000000000000815260040160405180910390fd5b3373ffffffffffffffffffffffffffffffffffffffff167f92ccf450a286a957af52509bc1c9939d1a6a481783e142e41e2499f0bb66ebc66002886040516111f59291906164da565b60405180910390a25050505050505050565b60006018600083815260200190815260200160002060009054906101000a900473ffffffffffffffffffffffffffffffffffffffff169050919050565b823373ffffffffffffffffffffffffffffffffffffffff16600e600083815260200190815260200160002060010160009054906101000a900473ffffffffffffffffffffffffffffffffffffffff1673ffffffffffffffffffffffffffffffffffffffff16146112e0576040517f0d9ff29600000000000000000000000000000000000000000000000000000000815260040160405180910390fd5b42826112ec91906163a6565b915060006040518060a001604052808681526020013373ffffffffffffffffffffffffffffffffffffffff1681526020018573ffffffffffffffffffffffffffffffffffffffff168152602001848152602001600e600088815260200190815260200160002060040154815250905080600e60008781526020019081526020016000206000820151816000015560208201518160010160006101000a81548173ffffffffffffffffffffffffffffffffffffffff021916908373ffffffffffffffffffffffffffffffffffffffff16021790555060408201518160020160006101000a81548173ffffffffffffffffffffffffffffffffffffffff021916908373ffffffffffffffffffffffffffffffffffffffff16021790555060608201518160030155608082015181600401559050508373ffffffffffffffffffffffffffffffffffffffff163373ffffffffffffffffffffffffffffffffffffffff167f45c072424520e0f43771406123f773276f0aaea392c03a4c776e8df9b2e90d0c87600e60008a81526020019081526020016000206004015487604051611495939291906165f1565b60405180910390a35050505050565b6114ac615a5c565b600a6000838152602001908152602001600020604051806060016040529081600082015481526020016001820160009054906101000a900473ffffffffffffffffffffffffffffffffffffffff1673ffffffffffffffffffffffffffffffffffffffff1673ffffffffffffffffffffffffffffffffffffffff1681526020016001820160149054906101000a900460ff16600381111561154f5761154e615e31565b5b600381111561156157611560615e31565b5b815250509050919050565b843373ffffffffffffffffffffffffffffffffffffffff16600d600083815260200190815260200160002060010160009054906101000a900473ffffffffffffffffffffffffffffffffffffffff1673ffffffffffffffffffffffffffffffffffffffff1614611608576040517f0d9ff29600000000000000000000000000000000000000000000000000000000815260040160405180910390fd5b428461161491906163a6565b935060006040518060e001604052808881526020013373ffffffffffffffffffffffffffffffffffffffff1681526020018773ffffffffffffffffffffffffffffffffffffffff168152602001600d60008a815260200190815260200160002060030154815260200186815260200185815260200184815250905080600d60008981526020019081526020016000206000820151816000015560208201518160010160006101000a81548173ffffffffffffffffffffffffffffffffffffffff021916908373ffffffffffffffffffffffffffffffffffffffff16021790555060408201518160020160006101000a81548173ffffffffffffffffffffffffffffffffffffffff021916908373ffffffffffffffffffffffffffffffffffffffff160217905550606082015181600301556080820151816004015560a0820151816005015560c082015181600601559050508460106000898152602001908152602001600020819055508573ffffffffffffffffffffffffffffffffffffffff163373ffffffffffffffffffffffffffffffffffffffff167fb74791b0a4c373e84daff7ffcedc5c320f5d43d7e43462f49d938959564b435089600d60008c8152602001908152602001600020600301548989896040516117f99594939291906163fc565b60405180910390a350505050505050565b813373ffffffffffffffffffffffffffffffffffffffff16600b600083815260200190815260200160002060010160009054906101000a900473ffffffffffffffffffffffffffffffffffffffff1673ffffffffffffffffffffffffffffffffffffffff16146118a6576040517f0d9ff29600000000000000000000000000000000000000000000000000000000815260040160405180910390fd5b60008314806118b55750600082145b156118ec576040517f8e277c2c00000000000000000000000000000000000000000000000000000000815260040160405180910390fd5b813414611925576040517f055932c300000000000000000000000000000000000000000000000000000000815260040160405180910390fd5b600b600084815260200190815260200160002060030154600b6000858152602001908152602001600020600201548361195e91906163a6565b11156119f057600b600084815260200190815260200160002060030154600b600085815260200190815260200160002060020154600b6000868152602001908152602001600020600301546119b39190616503565b6040517ff6f09cc80000000000000000000000000000000000000000000000000000000081526004016119e7929190616628565b60405180910390fd5b6119fa60116159f3565b60011515600160003373ffffffffffffffffffffffffffffffffffffffff1673ffffffffffffffffffffffffffffffffffffffff16815260200190815260200160002060009054906101000a900460ff1615151415611b04573360186000611a626011615a09565b815260200190815260200160002060006101000a81548173ffffffffffffffffffffffffffffffffffffffff021916908373ffffffffffffffffffffffffffffffffffffffff160217905550601960003373ffffffffffffffffffffffffffffffffffffffff1673ffffffffffffffffffffffffffffffffffffffff1681526020019081526020016000206000815480929190611afe90616651565b91905055505b81600b60008581526020019081526020016000206002016000828254611b2a91906163a6565b9250508190555060006040518060a001604052808581526020013373ffffffffffffffffffffffffffffffffffffffff168152602001600b6000878152602001908152602001600020600201548152602001600b6000878152602001908152602001600020600301548152602001600b600087815260200190815260200160002060040154815250905080600b60008681526020019081526020016000206000820151816000015560208201518160010160006101000a81548173ffffffffffffffffffffffffffffffffffffffff021916908373ffffffffffffffffffffffffffffffffffffffff16021790555060408201518160020155606082015181600301556080820151816004015590505060003073ffffffffffffffffffffffffffffffffffffffff1634604051611c6090616480565b60006040518083038185875af1925050503d8060008114611c9d576040519150601f19603f3d011682016040523d82523d6000602084013e611ca2565b606091505b5050905080611cdd576040517f75a8758900000000000000000000000000000000000000000000000000000000815260040160405180910390fd5b3373ffffffffffffffffffffffffffffffffffffffff167fad57387c37d180b737321fddef35ced92cc15f70cc699b9b192d3621a2a4fd3286600b600089815260200190815260200160002060020154600b60008a815260200190815260200160002060030154600b60008b815260200190815260200160002060040154604051611d6b949392919061669a565b60405180910390a25050505050565b60048181548110611d8a57600080fd5b90600052602060002090600202016000915090508060000154908060010160009054906101000a900473ffffffffffffffffffffffffffffffffffffffff16905082565b813373ffffffffffffffffffffffffffffffffffffffff16600d600083815260200190815260200160002060010160009054906101000a900473ffffffffffffffffffffffffffffffffffffffff1673ffffffffffffffffffffffffffffffffffffffff1614611e6a576040517f0d9ff29600000000000000000000000000000000000000000000000000000000815260040160405180910390fd5b6000831480611e795750600082145b15611eb0576040517f8e277c2c00000000000000000000000000000000000000000000000000000000815260040160405180910390fd5b813414611ee9576040517f055932c300000000000000000000000000000000000000000000000000000000815260040160405180910390fd5b611ef360116159f3565b60011515600160003373ffffffffffffffffffffffffffffffffffffffff1673ffffffffffffffffffffffffffffffffffffffff16815260200190815260200160002060009054906101000a900460ff1615151415611ffd573360186000611f5b6011615a09565b815260200190815260200160002060006101000a81548173ffffffffffffffffffffffffffffffffffffffff021916908373ffffffffffffffffffffffffffffffffffffffff160217905550601960003373ffffffffffffffffffffffffffffffffffffffff1673ffffffffffffffffffffffffffffffffffffffff1681526020019081526020016000206000815480929190611ff790616651565b91905055505b81600d6000858152602001908152602001600020600301600082825461202391906163a6565b925050819055508160176000858152602001908152602001600020600082825461204d91906163a6565b9250508190555060006040518060e001604052808581526020013373ffffffffffffffffffffffffffffffffffffffff168152602001600d600087815260200190815260200160002060020160009054906101000a900473ffffffffffffffffffffffffffffffffffffffff1673ffffffffffffffffffffffffffffffffffffffff168152602001600d6000878152602001908152602001600020600301548152602001600d6000878152602001908152602001600020600401548152602001600d6000878152602001908152602001600020600501548152602001600d600087815260200190815260200160002060060154815250905080600d60008681526020019081526020016000206000820151816000015560208201518160010160006101000a81548173ffffffffffffffffffffffffffffffffffffffff021916908373ffffffffffffffffffffffffffffffffffffffff16021790555060408201518160020160006101000a81548173ffffffffffffffffffffffffffffffffffffffff021916908373ffffffffffffffffffffffffffffffffffffffff160217905550606082015181600301556080820151816004015560a0820151816005015560c0820151816006015590505060003073ffffffffffffffffffffffffffffffffffffffff163460405161224290616480565b60006040518083038185875af1925050503d806000811461227f576040519150601f19603f3d011682016040523d82523d6000602084013e612284565b606091505b50509050806122bf576040517f75a8758900000000000000000000000000000000000000000000000000000000815260040160405180910390fd5b600d600086815260200190815260200160002060020160009054906101000a900473ffffffffffffffffffffffffffffffffffffffff1673ffffffffffffffffffffffffffffffffffffffff163373ffffffffffffffffffffffffffffffffffffffff167fb74791b0a4c373e84daff7ffcedc5c320f5d43d7e43462f49d938959564b435087600d60008a815260200190815260200160002060030154600d60008b815260200190815260200160002060040154600d60008c815260200190815260200160002060050154600d60008d8152602001908152602001600020600601546040516123b29594939291906163fc565b60405180910390a35050505050565b6000600b6000838152602001908152602001600020600201549050919050565b803373ffffffffffffffffffffffffffffffffffffffff16600c600083815260200190815260200160002060020160009054906101000a900473ffffffffffffffffffffffffffffffffffffffff1673ffffffffffffffffffffffffffffffffffffffff161461247d576040517f1d53a4ad00000000000000000000000000000000000000000000000000000000815260040160405180910390fd5b600080601660008581526020019081526020016000205414156124cc576040517fcd672d5d00000000000000000000000000000000000000000000000000000000815260040160405180910390fd5b60004290506000600f60008681526020019081526020016000205490506000600c60008781526020019081526020016000206006015490508082846125119190616503565b1015612549576040517fa839fe5500000000000000000000000000000000000000000000000000000000815260040160405180910390fd5b60008183856125589190616503565b6125629190616566565b905081816125709190616597565b600f6000898152602001908152602001600020600082825461259291906163a6565b92505081905550600c600088815260200190815260200160002060050154601660008981526020019081526020016000205410156125e157601660008881526020019081526020016000205494505b600c60008881526020019081526020016000206005015460166000898152602001908152602001600020541061263657600c600088815260200190815260200160002060050154816126339190616597565b94505b846016600089815260200190815260200160002060008282546126599190616503565b9250508190555060003373ffffffffffffffffffffffffffffffffffffffff168660405161268690616480565b60006040518083038185875af1925050503d80600081146126c3576040519150601f19603f3d011682016040523d82523d6000602084013e6126c8565b606091505b5050905080612703576040517f75a8758900000000000000000000000000000000000000000000000000000000815260040160405180910390fd5b3373ffffffffffffffffffffffffffffffffffffffff167f92ccf450a286a957af52509bc1c9939d1a6a481783e142e41e2499f0bb66ebc660018860405161274c92919061671a565b60405180910390a25050505050505050565b60011515600160003373ffffffffffffffffffffffffffffffffffffffff1673ffffffffffffffffffffffffffffffffffffffff16815260200190815260200160002060009054906101000a900460ff16151514156127e9576040517fe230084300000000000000000000000000000000000000000000000000000000815260040160405180910390fd5b6127f360006159f3565b6000604051806040016040528061280a6000615a09565b81526020013373ffffffffffffffffffffffffffffffffffffffff16815250905060048190806001815401808255809150506001900390600052602060002090600202016000909190919091506000820151816000015560208201518160010160006101000a81548173ffffffffffffffffffffffffffffffffffffffff021916908373ffffffffffffffffffffffffffffffffffffffff160217905550505060018060003373ffffffffffffffffffffffffffffffffffffffff1673ffffffffffffffffffffffffffffffffffffffff16815260200190815260200160002060006101000a81548160ff02191690831515021790555080600260006129106000615a09565b81526020019081526020016000206000820151816000015560208201518160010160006101000a81548173ffffffffffffffffffffffffffffffffffffffff021916908373ffffffffffffffffffffffffffffffffffffffff16021790555090505033600360006129816000615a09565b815260200190815260200160002060006101000a81548173ffffffffffffffffffffffffffffffffffffffff021916908373ffffffffffffffffffffffffffffffffffffffff1602179055507f539d55a78ff1fe52459bfc08d73d937191f192506c35d1fe1962914a228a26116129f86000615a09565b33604051612a07929190615f54565b60405180910390a150565b60606004805480602002602001604051908101604052809291908181526020016000905b82821015612ac85783829060005260206000209060020201604051806040016040529081600082015481526020016001820160009054906101000a900473ffffffffffffffffffffffffffffffffffffffff1673ffffffffffffffffffffffffffffffffffffffff1673ffffffffffffffffffffffffffffffffffffffff168152505081526020019060010190612a36565b50505050905090565b6000601960008373ffffffffffffffffffffffffffffffffffffffff1673ffffffffffffffffffffffffffffffffffffffff168152602001908152602001600020549050919050565b600060166000838152602001908152602001600020549050919050565b600060176000838152602001908152602001600020549050919050565b813373ffffffffffffffffffffffffffffffffffffffff16600e600083815260200190815260200160002060010160009054906101000a900473ffffffffffffffffffffffffffffffffffffffff1673ffffffffffffffffffffffffffffffffffffffff1614612bf0576040517f0d9ff29600000000000000000000000000000000000000000000000000000000815260040160405180910390fd5b6000831480612bff5750600082145b15612c36576040517f8e277c2c00000000000000000000000000000000000000000000000000000000815260040160405180910390fd5b813414612c6f576040517f055932c300000000000000000000000000000000000000000000000000000000815260040160405180910390fd5b612c7960116159f3565b60011515600160003373ffffffffffffffffffffffffffffffffffffffff1673ffffffffffffffffffffffffffffffffffffffff16815260200190815260200160002060009054906101000a900460ff1615151415612d83573360186000612ce16011615a09565b815260200190815260200160002060006101000a81548173ffffffffffffffffffffffffffffffffffffffff021916908373ffffffffffffffffffffffffffffffffffffffff160217905550601960003373ffffffffffffffffffffffffffffffffffffffff1673ffffffffffffffffffffffffffffffffffffffff1681526020019081526020016000206000815480929190612d7d90616651565b91905055505b81600e60008581526020019081526020016000206004016000828254612da991906163a6565b9250508190555060006040518060a001604052808581526020013373ffffffffffffffffffffffffffffffffffffffff168152602001600e600087815260200190815260200160002060020160009054906101000a900473ffffffffffffffffffffffffffffffffffffffff1673ffffffffffffffffffffffffffffffffffffffff168152602001600e6000878152602001908152602001600020600301548152602001600e600087815260200190815260200160002060040154815250905080600e60008681526020019081526020016000206000820151816000015560208201518160010160006101000a81548173ffffffffffffffffffffffffffffffffffffffff021916908373ffffffffffffffffffffffffffffffffffffffff16021790555060408201518160020160006101000a81548173ffffffffffffffffffffffffffffffffffffffff021916908373ffffffffffffffffffffffffffffffffffffffff160217905550606082015181600301556080820151816004015590505060003073ffffffffffffffffffffffffffffffffffffffff1634604051612f5290616480565b60006040518083038185875af1925050503d8060008114612f8f576040519150601f19603f3d011682016040523d82523d6000602084013e612f94565b606091505b5050905080612fcf576040517f75a8758900000000000000000000000000000000000000000000000000000000815260040160405180910390fd5b600e600086815260200190815260200160002060020160009054906101000a900473ffffffffffffffffffffffffffffffffffffffff1673ffffffffffffffffffffffffffffffffffffffff163373ffffffffffffffffffffffffffffffffffffffff167f45c072424520e0f43771406123f773276f0aaea392c03a4c776e8df9b2e90d0c87600e60008a815260200190815260200160002060040154600e60008b815260200190815260200160002060030154604051613092939291906165f1565b60405180910390a35050505050565b813373ffffffffffffffffffffffffffffffffffffffff16600b600083815260200190815260200160002060010160009054906101000a900473ffffffffffffffffffffffffffffffffffffffff1673ffffffffffffffffffffffffffffffffffffffff161461313d576040517f0d9ff29600000000000000000000000000000000000000000000000000000000815260040160405180910390fd5b428261314991906163a6565b915060006040518060a001604052808581526020013373ffffffffffffffffffffffffffffffffffffffff168152602001600b60008781526020019081526020016000206002015481526020016000815260200184815250905080600b60008681526020019081526020016000206000820151816000015560208201518160010160006101000a81548173ffffffffffffffffffffffffffffffffffffffff021916908373ffffffffffffffffffffffffffffffffffffffff1602179055506040820151816002015560608201518160030155608082015181600401559050503373ffffffffffffffffffffffffffffffffffffffff167fad57387c37d180b737321fddef35ced92cc15f70cc699b9b192d3621a2a4fd3285600b60008881526020019081526020016000206002015460008760405161328c949392919061677e565b60405180910390a250505050565b60036020528060005260406000206000915054906101000a900473ffffffffffffffffffffffffffffffffffffffff1681565b803373ffffffffffffffffffffffffffffffffffffffff16600e600083815260200190815260200160002060010160009054906101000a900473ffffffffffffffffffffffffffffffffffffffff1673ffffffffffffffffffffffffffffffffffffffff1614613369576040517f0d9ff29600000000000000000000000000000000000000000000000000000000815260040160405180910390fd5b6015600083815260200190815260200160002060009054906101000a900460ff16156133c1576040517f18fbf5ed00000000000000000000000000000000000000000000000000000000815260040160405180910390fd5b60016015600084815260200190815260200160002060006101000a81548160ff02191690831515021790555060003373ffffffffffffffffffffffffffffffffffffffff16600e60008581526020019081526020016000206004015460405161342990616480565b60006040518083038185875af1925050503d8060008114613466576040519150601f19603f3d011682016040523d82523d6000602084013e61346b565b606091505b50509050806134a6576040517f75a8758900000000000000000000000000000000000000000000000000000000815260040160405180910390fd5b3373ffffffffffffffffffffffffffffffffffffffff167f92ccf450a286a957af52509bc1c9939d1a6a481783e142e41e2499f0bb66ebc66002600e6000878152602001908152602001600020600401546040516135059291906164da565b60405180910390a2505050565b803373ffffffffffffffffffffffffffffffffffffffff16600b600083815260200190815260200160002060010160009054906101000a900473ffffffffffffffffffffffffffffffffffffffff1673ffffffffffffffffffffffffffffffffffffffff16146135ae576040517f0d9ff29600000000000000000000000000000000000000000000000000000000815260040160405180910390fd5b6012600083815260200190815260200160002060009054906101000a900460ff1615613606576040517f18fbf5ed00000000000000000000000000000000000000000000000000000000815260040160405180910390fd5b60016012600084815260200190815260200160002060006101000a81548160ff02191690831515021790555060003373ffffffffffffffffffffffffffffffffffffffff16600b60008581526020019081526020016000206002015460405161366e90616480565b60006040518083038185875af1925050503d80600081146136ab576040519150601f19603f3d011682016040523d82523d6000602084013e6136b0565b606091505b50509050806136eb576040517f75a8758900000000000000000000000000000000000000000000000000000000815260040160405180910390fd5b3373ffffffffffffffffffffffffffffffffffffffff167f92ccf450a286a957af52509bc1c9939d1a6a481783e142e41e2499f0bb66ebc66000600b60008781526020019081526020016000206002015460405161374a9291906167c3565b60405180910390a2505050565b803373ffffffffffffffffffffffffffffffffffffffff16600e600083815260200190815260200160002060020160009054906101000a900473ffffffffffffffffffffffffffffffffffffffff1673ffffffffffffffffffffffffffffffffffffffff16146137f3576040517f1d53a4ad00000000000000000000000000000000000000000000000000000000815260040160405180910390fd5b60016015600084815260200190815260200160002060006101000a81548160ff02191690831515021790555060003373ffffffffffffffffffffffffffffffffffffffff16600e60008581526020019081526020016000206004015460405161385b90616480565b60006040518083038185875af1925050503d8060008114613898576040519150601f19603f3d011682016040523d82523d6000602084013e61389d565b606091505b50509050806138d8576040517f75a8758900000000000000000000000000000000000000000000000000000000815260040160405180910390fd5b3373ffffffffffffffffffffffffffffffffffffffff167f92ccf450a286a957af52509bc1c9939d1a6a481783e142e41e2499f0bb66ebc66003600e600087815260200190815260200160002060040154604051613937929190616827565b60405180910390a2505050565b803373ffffffffffffffffffffffffffffffffffffffff16600b600083815260200190815260200160002060010160009054906101000a900473ffffffffffffffffffffffffffffffffffffffff1673ffffffffffffffffffffffffffffffffffffffff16146139e0576040517f0d9ff29600000000000000000000000000000000000000000000000000000000815260040160405180910390fd5b600b600083815260200190815260200160002060030154600b6000848152602001908152602001600020600201541080613a2f5750600b60008381526020019081526020016000206004015442105b15613a66576040517fa3fc45c600000000000000000000000000000000000000000000000000000000815260040160405180910390fd5b6012600083815260200190815260200160002060009054906101000a900460ff1615613abe576040517f18fbf5ed00000000000000000000000000000000000000000000000000000000815260040160405180910390fd5b60016012600084815260200190815260200160002060006101000a81548160ff02191690831515021790555060003373ffffffffffffffffffffffffffffffffffffffff16600b600085815260200190815260200160002060020154604051613b2690616480565b60006040518083038185875af1925050503d8060008114613b63576040519150601f19603f3d011682016040523d82523d6000602084013e613b68565b606091505b5050905080613ba3576040517f75a8758900000000000000000000000000000000000000000000000000000000815260040160405180910390fd5b3373ffffffffffffffffffffffffffffffffffffffff167f92ccf450a286a957af52509bc1c9939d1a6a481783e142e41e2499f0bb66ebc66000600b600087815260200190815260200160002060020154604051613c029291906167c3565b60405180910390a2505050565b6000811415613c4a576040517f8e277c2c00000000000000000000000000000000000000000000000000000000815260040160405180910390fd5b613c5460056159f3565b613c5e60066159f3565b60006040518060600160405280613c756005615a09565b81526020013373ffffffffffffffffffffffffffffffffffffffff16815260200160006003811115613caa57613ca9615e31565b5b815250905060006040518060a00160405280613cc66006615a09565b81526020013373ffffffffffffffffffffffffffffffffffffffff168152602001600b6000613cf56006615a09565b81526020019081526020016000206002015481526020018481526020016000815250905081600a6000613d286005615a09565b81526020019081526020016000206000820151816000015560208201518160010160006101000a81548173ffffffffffffffffffffffffffffffffffffffff021916908373ffffffffffffffffffffffffffffffffffffffff16021790555060408201518160010160146101000a81548160ff02191690836003811115613db257613db1615e31565b5b021790555090505080600b6000613dc96006615a09565b81526020019081526020016000206000820151816000015560208201518160010160006101000a81548173ffffffffffffffffffffffffffffffffffffffff021916908373ffffffffffffffffffffffffffffffffffffffff1602179055506040820151816002015560608201518160030155608082015181600401559050503373ffffffffffffffffffffffffffffffffffffffff167fad57387c37d180b737321fddef35ced92cc15f70cc699b9b192d3621a2a4fd32613e8b6006615a09565b600b6000613e996006615a09565b815260200190815260200160002060020154866000604051613ebe9493929190616850565b60405180910390a2505050565b613ed3615aa5565b600e60008381526020019081526020016000206040518060a0016040529081600082015481526020016001820160009054906101000a900473ffffffffffffffffffffffffffffffffffffffff1673ffffffffffffffffffffffffffffffffffffffff1673ffffffffffffffffffffffffffffffffffffffff1681526020016002820160009054906101000a900473ffffffffffffffffffffffffffffffffffffffff1673ffffffffffffffffffffffffffffffffffffffff1673ffffffffffffffffffffffffffffffffffffffff168152602001600382015481526020016004820154815250509050919050565b6000811415613ffd576040517f8e277c2c00000000000000000000000000000000000000000000000000000000815260040160405180910390fd5b61400760056159f3565b61401160066159f3565b428161401d91906163a6565b9050600060405180606001604052806140366005615a09565b81526020013373ffffffffffffffffffffffffffffffffffffffff1681526020016000600381111561406b5761406a615e31565b5b815250905060006040518060a001604052806140876006615a09565b81526020013373ffffffffffffffffffffffffffffffffffffffff168152602001600b60006140b66006615a09565b81526020019081526020016000206002015481526020016000815260200184815250905081600a60006140e96005615a09565b81526020019081526020016000206000820151816000015560208201518160010160006101000a81548173ffffffffffffffffffffffffffffffffffffffff021916908373ffffffffffffffffffffffffffffffffffffffff16021790555060408201518160010160146101000a81548160ff0219169083600381111561417357614172615e31565b5b021790555090505080600b600061418a6006615a09565b81526020019081526020016000206000820151816000015560208201518160010160006101000a81548173ffffffffffffffffffffffffffffffffffffffff021916908373ffffffffffffffffffffffffffffffffffffffff1602179055506040820151816002015560608201518160030155608082015181600401559050503373ffffffffffffffffffffffffffffffffffffffff167fad57387c37d180b737321fddef35ced92cc15f70cc699b9b192d3621a2a4fd3261424c6006615a09565b600b600061425a6006615a09565b81526020019081526020016000206002015460008760405161427f949392919061677e565b60405180910390a2505050565b614294615b00565b600c60008381526020019081526020016000206040518060e0016040529081600082015481526020016001820160009054906101000a900473ffffffffffffffffffffffffffffffffffffffff1673ffffffffffffffffffffffffffffffffffffffff1673ffffffffffffffffffffffffffffffffffffffff1681526020016002820160009054906101000a900473ffffffffffffffffffffffffffffffffffffffff1673ffffffffffffffffffffffffffffffffffffffff1673ffffffffffffffffffffffffffffffffffffffff1681526020016003820154815260200160048201548152602001600582015481526020016006820154815250509050919050565b813373ffffffffffffffffffffffffffffffffffffffff16600c600083815260200190815260200160002060010160009054906101000a900473ffffffffffffffffffffffffffffffffffffffff1673ffffffffffffffffffffffffffffffffffffffff1614614433576040517f0d9ff29600000000000000000000000000000000000000000000000000000000815260040160405180910390fd5b60008314806144425750600082145b15614479576040517f8e277c2c00000000000000000000000000000000000000000000000000000000815260040160405180910390fd5b8134146144b2576040517f055932c300000000000000000000000000000000000000000000000000000000815260040160405180910390fd5b6144bc60116159f3565b60011515600160003373ffffffffffffffffffffffffffffffffffffffff1673ffffffffffffffffffffffffffffffffffffffff16815260200190815260200160002060009054906101000a900460ff16151514156145c65733601860006145246011615a09565b815260200190815260200160002060006101000a81548173ffffffffffffffffffffffffffffffffffffffff021916908373ffffffffffffffffffffffffffffffffffffffff160217905550601960003373ffffffffffffffffffffffffffffffffffffffff1673ffffffffffffffffffffffffffffffffffffffff16815260200190815260200160002060008154809291906145c090616651565b91905055505b81600c600085815260200190815260200160002060030160008282546145ec91906163a6565b925050819055508160166000858152602001908152602001600020600082825461461691906163a6565b9250508190555060006040518060e001604052808581526020013373ffffffffffffffffffffffffffffffffffffffff168152602001600c600087815260200190815260200160002060020160009054906101000a900473ffffffffffffffffffffffffffffffffffffffff1673ffffffffffffffffffffffffffffffffffffffff168152602001600c6000878152602001908152602001600020600301548152602001600c6000878152602001908152602001600020600401548152602001600c6000878152602001908152602001600020600501548152602001600c600087815260200190815260200160002060060154815250905080600c60008681526020019081526020016000206000820151816000015560208201518160010160006101000a81548173ffffffffffffffffffffffffffffffffffffffff021916908373ffffffffffffffffffffffffffffffffffffffff16021790555060408201518160020160006101000a81548173ffffffffffffffffffffffffffffffffffffffff021916908373ffffffffffffffffffffffffffffffffffffffff160217905550606082015181600301556080820151816004015560a0820151816005015560c0820151816006015590505060003073ffffffffffffffffffffffffffffffffffffffff163460405161480b90616480565b60006040518083038185875af1925050503d8060008114614848576040519150601f19603f3d011682016040523d82523d6000602084013e61484d565b606091505b5050905080614888576040517f75a8758900000000000000000000000000000000000000000000000000000000815260040160405180910390fd5b600c600086815260200190815260200160002060020160009054906101000a900473ffffffffffffffffffffffffffffffffffffffff1673ffffffffffffffffffffffffffffffffffffffff163373ffffffffffffffffffffffffffffffffffffffff167f7ae56fec07023e809c892be62111eb83aa2c212bbc4687da5af1b43048de86e687600c60008a815260200190815260200160002060030154600c60008b815260200190815260200160002060040154600c60008c815260200190815260200160002060050154600c60008d81526020019081526020016000206006015460405161497b9594939291906163fc565b60405180910390a35050505050565b600073ffffffffffffffffffffffffffffffffffffffff168273ffffffffffffffffffffffffffffffffffffffff1614806149c55750600081145b156149fc576040517f8e277c2c00000000000000000000000000000000000000000000000000000000815260040160405180910390fd5b614a0660056159f3565b614a1060096159f3565b4281614a1c91906163a6565b905060006040518060600160405280614a356005615a09565b81526020013373ffffffffffffffffffffffffffffffffffffffff168152602001600380811115614a6957614a68615e31565b5b815250905060006040518060a00160405280614a856009615a09565b81526020013373ffffffffffffffffffffffffffffffffffffffff1681526020018573ffffffffffffffffffffffffffffffffffffffff168152602001848152602001600e6000614ad66009615a09565b815260200190815260200160002060040154815250905081600a6000614afc6005615a09565b81526020019081526020016000206000820151816000015560208201518160010160006101000a81548173ffffffffffffffffffffffffffffffffffffffff021916908373ffffffffffffffffffffffffffffffffffffffff16021790555060408201518160010160146101000a81548160ff02191690836003811115614b8657614b85615e31565b5b021790555090505080600e6000614b9d6009615a09565b81526020019081526020016000206000820151816000015560208201518160010160006101000a81548173ffffffffffffffffffffffffffffffffffffffff021916908373ffffffffffffffffffffffffffffffffffffffff16021790555060408201518160020160006101000a81548173ffffffffffffffffffffffffffffffffffffffff021916908373ffffffffffffffffffffffffffffffffffffffff16021790555060608201518160030155608082015181600401559050508373ffffffffffffffffffffffffffffffffffffffff163373ffffffffffffffffffffffffffffffffffffffff167f45c072424520e0f43771406123f773276f0aaea392c03a4c776e8df9b2e90d0c614cb36009615a09565b600e6000614cc16009615a09565b81526020019081526020016000206004015487604051614ce3939291906165f1565b60405180910390a350505050565b600073ffffffffffffffffffffffffffffffffffffffff168473ffffffffffffffffffffffffffffffffffffffff161480614d2c5750600083145b80614d375750600082145b80614d425750600081145b15614d79576040517f8e277c2c00000000000000000000000000000000000000000000000000000000815260040160405180910390fd5b614d8360056159f3565b614d8d60086159f3565b4283614d9991906163a6565b925060006040518060600160405280614db26005615a09565b81526020013373ffffffffffffffffffffffffffffffffffffffff16815260200160026003811115614de757614de6615e31565b5b815250905060006040518060e00160405280614e036008615a09565b81526020013373ffffffffffffffffffffffffffffffffffffffff1681526020018773ffffffffffffffffffffffffffffffffffffffff168152602001600d6000614e4e6008615a09565b815260200190815260200160002060030154815260200186815260200185815260200184815250905081600a6000614e866005615a09565b81526020019081526020016000206000820151816000015560208201518160010160006101000a81548173ffffffffffffffffffffffffffffffffffffffff021916908373ffffffffffffffffffffffffffffffffffffffff16021790555060408201518160010160146101000a81548160ff02191690836003811115614f1057614f0f615e31565b5b021790555090505080600d6000614f276008615a09565b81526020019081526020016000206000820151816000015560208201518160010160006101000a81548173ffffffffffffffffffffffffffffffffffffffff021916908373ffffffffffffffffffffffffffffffffffffffff16021790555060408201518160020160006101000a81548173ffffffffffffffffffffffffffffffffffffffff021916908373ffffffffffffffffffffffffffffffffffffffff160217905550606082015181600301556080820151816004015560a0820151816005015560c0820151816006015590505084601060006150076008615a09565b8152602001908152602001600020819055508573ffffffffffffffffffffffffffffffffffffffff163373ffffffffffffffffffffffffffffffffffffffff167fb74791b0a4c373e84daff7ffcedc5c320f5d43d7e43462f49d938959564b43506150726008615a09565b600d60006150806008615a09565b8152602001908152602001600020600301548989896040516150a69594939291906163fc565b60405180910390a3505050505050565b803373ffffffffffffffffffffffffffffffffffffffff16600c600083815260200190815260200160002060010160009054906101000a900473ffffffffffffffffffffffffffffffffffffffff1673ffffffffffffffffffffffffffffffffffffffff1614615152576040517f0d9ff29600000000000000000000000000000000000000000000000000000000815260040160405180910390fd5b6013600083815260200190815260200160002060009054906101000a900460ff16156151aa576040517f18fbf5ed00000000000000000000000000000000000000000000000000000000815260040160405180910390fd5b60016013600084815260200190815260200160002060006101000a81548160ff02191690831515021790555060003373ffffffffffffffffffffffffffffffffffffffff16601660008581526020019081526020016000205460405161520f90616480565b60006040518083038185875af1925050503d806000811461524c576040519150601f19603f3d011682016040523d82523d6000602084013e615251565b606091505b505090508061528c576040517f75a8758900000000000000000000000000000000000000000000000000000000815260040160405180910390fd5b3373ffffffffffffffffffffffffffffffffffffffff167f92ccf450a286a957af52509bc1c9939d1a6a481783e142e41e2499f0bb66ebc66001600c6000878152602001908152602001600020600301546040516152eb92919061671a565b60405180910390a2505050565b60016020528060005260406000206000915054906101000a900460ff1681565b813373ffffffffffffffffffffffffffffffffffffffff16600b600083815260200190815260200160002060010160009054906101000a900473ffffffffffffffffffffffffffffffffffffffff1673ffffffffffffffffffffffffffffffffffffffff16146153b4576040517f0d9ff29600000000000000000000000000000000000000000000000000000000815260040160405180910390fd5b60006040518060a001604052808581526020013373ffffffffffffffffffffffffffffffffffffffff168152602001600b60008781526020019081526020016000206002015481526020018481526020016000815250905080600b60008681526020019081526020016000206000820151816000015560208201518160010160006101000a81548173ffffffffffffffffffffffffffffffffffffffff021916908373ffffffffffffffffffffffffffffffffffffffff1602179055506040820151816002015560608201518160030155608082015181600401559050503373ffffffffffffffffffffffffffffffffffffffff167fad57387c37d180b737321fddef35ced92cc15f70cc699b9b192d3621a2a4fd3285600b6000888152602001908152602001600020600201548660006040516154f59493929190616850565b60405180910390a250505050565b600073ffffffffffffffffffffffffffffffffffffffff168473ffffffffffffffffffffffffffffffffffffffff16148061553e5750600083145b806155495750600082145b806155545750600081145b1561558b576040517f8e277c2c00000000000000000000000000000000000000000000000000000000815260040160405180910390fd5b61559560056159f3565b61559f60076159f3565b42836155ab91906163a6565b9250600060405180606001604052806155c46005615a09565b81526020013373ffffffffffffffffffffffffffffffffffffffff168152602001600160038111156155f9576155f8615e31565b5b815250905060006040518060e001604052806156156007615a09565b81526020013373ffffffffffffffffffffffffffffffffffffffff1681526020018773ffffffffffffffffffffffffffffffffffffffff168152602001600c60006156606007615a09565b815260200190815260200160002060030154815260200186815260200185815260200184815250905081600a60006156986005615a09565b81526020019081526020016000206000820151816000015560208201518160010160006101000a81548173ffffffffffffffffffffffffffffffffffffffff021916908373ffffffffffffffffffffffffffffffffffffffff16021790555060408201518160010160146101000a81548160ff0219169083600381111561572257615721615e31565b5b021790555090505080600c60006157396007615a09565b81526020019081526020016000206000820151816000015560208201518160010160006101000a81548173ffffffffffffffffffffffffffffffffffffffff021916908373ffffffffffffffffffffffffffffffffffffffff16021790555060408201518160020160006101000a81548173ffffffffffffffffffffffffffffffffffffffff021916908373ffffffffffffffffffffffffffffffffffffffff160217905550606082015181600301556080820151816004015560a0820151816005015560c0820151816006015590505084600f60006158196007615a09565b8152602001908152602001600020819055508573ffffffffffffffffffffffffffffffffffffffff163373ffffffffffffffffffffffffffffffffffffffff167f7ae56fec07023e809c892be62111eb83aa2c212bbc4687da5af1b43048de86e66158846007615a09565b600c60006158926007615a09565b8152602001908152602001600020600301548989896040516158b89594939291906163fc565b60405180910390a3505050505050565b6000600e6000838152602001908152602001600020600401549050919050565b6158f0615b69565b600d60008381526020019081526020016000206040518060e0016040529081600082015481526020016001820160009054906101000a900473ffffffffffffffffffffffffffffffffffffffff1673ffffffffffffffffffffffffffffffffffffffff1673ffffffffffffffffffffffffffffffffffffffff1681526020016002820160009054906101000a900473ffffffffffffffffffffffffffffffffffffffff1673ffffffffffffffffffffffffffffffffffffffff1673ffffffffffffffffffffffffffffffffffffffff1681526020016003820154815260200160048201548152602001600582015481526020016006820154815250509050919050565b6001816000016000828254019250508190555050565b600081600001549050919050565b6040518060a0016040528060008152602001600073ffffffffffffffffffffffffffffffffffffffff1681526020016000815260200160008152602001600081525090565b604051806060016040528060008152602001600073ffffffffffffffffffffffffffffffffffffffff16815260200160006003811115615a9f57615a9e615e31565b5b81525090565b6040518060a0016040528060008152602001600073ffffffffffffffffffffffffffffffffffffffff168152602001600073ffffffffffffffffffffffffffffffffffffffff16815260200160008152602001600081525090565b6040518060e0016040528060008152602001600073ffffffffffffffffffffffffffffffffffffffff168152602001600073ffffffffffffffffffffffffffffffffffffffff168152602001600081526020016000815260200160008152602001600081525090565b6040518060e0016040528060008152602001600073ffffffffffffffffffffffffffffffffffffffff168152602001600073ffffffffffffffffffffffffffffffffffffffff168152602001600081526020016000815260200160008152602001600081525090565b600080fd5b6000819050919050565b615bea81615bd7565b8114615bf557600080fd5b50565b600081359050615c0781615be1565b92915050565b600073ffffffffffffffffffffffffffffffffffffffff82169050919050565b6000615c3882615c0d565b9050919050565b615c4881615c2d565b8114615c5357600080fd5b50565b600081359050615c6581615c3f565b92915050565b600080600080600060a08688031215615c8757615c86615bd2565b5b6000615c9588828901615bf8565b9550506020615ca688828901615c56565b9450506040615cb788828901615bf8565b9350506060615cc888828901615bf8565b9250506080615cd988828901615bf8565b9150509295509295909350565b600060208284031215615cfc57615cfb615bd2565b5b6000615d0a84828501615bf8565b91505092915050565b615d1c81615bd7565b82525050565b615d2b81615c2d565b82525050565b60a082016000820151615d476000850182615d13565b506020820151615d5a6020850182615d22565b506040820151615d6d6040850182615d13565b506060820151615d806060850182615d13565b506080820151615d936080850182615d13565b50505050565b600060a082019050615dae6000830184615d31565b92915050565b615dbd81615c2d565b82525050565b6000602082019050615dd86000830184615db4565b92915050565b600080600060608486031215615df757615df6615bd2565b5b6000615e0586828701615bf8565b9350506020615e1686828701615c56565b9250506040615e2786828701615bf8565b9150509250925092565b7f4e487b7100000000000000000000000000000000000000000000000000000000600052602160045260246000fd5b60048110615e7157615e70615e31565b5b50565b6000819050615e8282615e60565b919050565b6000615e9282615e74565b9050919050565b615ea281615e87565b82525050565b606082016000820151615ebe6000850182615d13565b506020820151615ed16020850182615d22565b506040820151615ee46040850182615e99565b50505050565b6000606082019050615eff6000830184615ea8565b92915050565b60008060408385031215615f1c57615f1b615bd2565b5b6000615f2a85828601615bf8565b9250506020615f3b85828601615bf8565b9150509250929050565b615f4e81615bd7565b82525050565b6000604082019050615f696000830185615f45565b615f766020830184615db4565b9392505050565b6000602082019050615f926000830184615f45565b92915050565b600081519050919050565b600082825260208201905092915050565b6000819050602082019050919050565b604082016000820151615fda6000850182615d13565b506020820151615fed6020850182615d22565b50505050565b6000615fff8383615fc4565b60408301905092915050565b6000602082019050919050565b600061602382615f98565b61602d8185615fa3565b935061603883615fb4565b8060005b838110156160695781516160508882615ff3565b975061605b8361600b565b92505060018101905061603c565b5085935050505092915050565b600060208201905081810360008301526160908184616018565b905092915050565b6000602082840312156160ae576160ad615bd2565b5b60006160bc84828501615c56565b91505092915050565b60a0820160008201516160db6000850182615d13565b5060208201516160ee6020850182615d22565b5060408201516161016040850182615d22565b5060608201516161146060850182615d13565b5060808201516161276080850182615d13565b50505050565b600060a08201905061614260008301846160c5565b92915050565b60e08201600082015161615e6000850182615d13565b5060208201516161716020850182615d22565b5060408201516161846040850182615d22565b5060608201516161976060850182615d13565b5060808201516161aa6080850182615d13565b5060a08201516161bd60a0850182615d13565b5060c08201516161d060c0850182615d13565b50505050565b600060e0820190506161eb6000830184616148565b92915050565b6000806040838503121561620857616207615bd2565b5b600061621685828601615c56565b925050602061622785828601615bf8565b9150509250929050565b6000806000806080858703121561624b5761624a615bd2565b5b600061625987828801615c56565b945050602061626a87828801615bf8565b935050604061627b87828801615bf8565b925050606061628c87828801615bf8565b91505092959194509250565b60008115159050919050565b6162ad81616298565b82525050565b60006020820190506162c860008301846162a4565b92915050565b60e0820160008201516162e46000850182615d13565b5060208201516162f76020850182615d22565b50604082015161630a6040850182615d22565b50606082015161631d6060850182615d13565b5060808201516163306080850182615d13565b5060a082015161634360a0850182615d13565b5060c082015161635660c0850182615d13565b50505050565b600060e08201905061637160008301846162ce565b92915050565b7f4e487b7100000000000000000000000000000000000000000000000000000000600052601160045260246000fd5b60006163b182615bd7565b91506163bc83615bd7565b9250827fffffffffffffffffffffffffffffffffffffffffffffffffffffffffffffffff038211156163f1576163f0616377565b5b828201905092915050565b600060a0820190506164116000830188615f45565b61641e6020830187615f45565b61642b6040830186615f45565b6164386060830185615f45565b6164456080830184615f45565b9695505050505050565b600081905092915050565b50565b600061646a60008361644f565b91506164758261645a565b600082019050919050565b600061648b8261645d565b9150819050919050565b6000819050919050565b6000819050919050565b60006164c46164bf6164ba84616495565b61649f565b615bd7565b9050919050565b6164d4816164a9565b82525050565b60006040820190506164ef60008301856164cb565b6164fc6020830184615f45565b9392505050565b600061650e82615bd7565b915061651983615bd7565b92508282101561652c5761652b616377565b5b828203905092915050565b7f4e487b7100000000000000000000000000000000000000000000000000000000600052601260045260246000fd5b600061657182615bd7565b915061657c83615bd7565b92508261658c5761658b616537565b5b828204905092915050565b60006165a282615bd7565b91506165ad83615bd7565b9250817fffffffffffffffffffffffffffffffffffffffffffffffffffffffffffffffff04831182151516156165e6576165e5616377565b5b828202905092915050565b60006060820190506166066000830186615f45565b6166136020830185615f45565b6166206040830184615f45565b949350505050565b600060408201905061663d6000830185615f45565b61664a6020830184615f45565b9392505050565b600061665c82615bd7565b91507fffffffffffffffffffffffffffffffffffffffffffffffffffffffffffffffff82141561668f5761668e616377565b5b600182019050919050565b60006080820190506166af6000830187615f45565b6166bc6020830186615f45565b6166c96040830185615f45565b6166d66060830184615f45565b95945050505050565b6000819050919050565b60006167046166ff6166fa846166df565b61649f565b615bd7565b9050919050565b616714816166e9565b82525050565b600060408201905061672f600083018561670b565b61673c6020830184615f45565b9392505050565b6000819050919050565b600061676861676361675e84616743565b61649f565b615bd7565b9050919050565b6167788161674d565b82525050565b60006080820190506167936000830187615f45565b6167a06020830186615f45565b6167ad604083018561676f565b6167ba6060830184615f45565b95945050505050565b60006040820190506167d8600083018561676f565b6167e56020830184615f45565b9392505050565b6000819050919050565b600061681161680c616807846167ec565b61649f565b615bd7565b9050919050565b616821816167f6565b82525050565b600060408201905061683c6000830185616818565b6168496020830184615f45565b9392505050565b60006080820190506168656000830187615f45565b6168726020830186615f45565b61687f6040830185615f45565b61688c606083018461676f565b9594505050505056fea26469706673582212208a7abb5f25145b500d706c8be39285cfc4f01a882c42d4e5cdcafc66bc27081264736f6c63430008090033",
  "linkReferences": {},
  "deployedLinkReferences": {}
}