{
  "_format": "hh-sol-artifact-1",
  "contractName": "Atium",
  "sourceName": "contracts/Atium.sol",
  "abi": [
    {
      "inputs": [],
      "name": "Atium_Cancelled",
      "type": "error"
    },
    {
      "inputs": [],
      "name": "Atium_NoWithdrawal",
      "type": "error"
    },
    {
      "inputs": [],
      "name": "Atium_NotAmount",
      "type": "error"
    },
    {
      "inputs": [],
      "name": "Atium_NotOwnerId",
      "type": "error"
    },
    {
      "inputs": [],
      "name": "Atium_OnlyFutureDate",
      "type": "error"
    },
    {
      "inputs": [
        {
          "internalType": "uint256",
          "name": "goal",
          "type": "uint256"
        },
        {
          "internalType": "uint256",
          "name": "rem",
          "type": "uint256"
        }
      ],
      "name": "Atium_SavingsGoal_Exceeded",
      "type": "error"
    },
    {
      "inputs": [],
      "name": "Atium_SavingsGoal_Not_Hit",
      "type": "error"
    },
    {
      "inputs": [],
      "name": "Atium_TransactionFailed",
      "type": "error"
    },
    {
      "inputs": [],
      "name": "Atium_ZeroInput",
      "type": "error"
    },
    {
      "inputs": [
        {
          "internalType": "uint256",
          "name": "_id",
          "type": "uint256"
        },
        {
          "internalType": "uint256",
          "name": "_amount",
          "type": "uint256"
        }
      ],
      "name": "allowance",
      "outputs": [],
      "stateMutability": "payable",
      "type": "function"
    },
    {
      "inputs": [
        {
          "internalType": "address",
          "name": "_receiver",
          "type": "address"
        },
        {
          "internalType": "uint256",
          "name": "_startDate",
          "type": "uint256"
        },
        {
          "internalType": "uint256",
          "name": "_amount",
          "type": "uint256"
        },
        {
          "internalType": "uint256",
          "name": "_interval",
          "type": "uint256"
        }
      ],
      "name": "allowancePlan",
      "outputs": [],
      "stateMutability": "nonpayable",
      "type": "function"
    },
    {
      "inputs": [
        {
          "internalType": "uint256",
          "name": "_id",
          "type": "uint256"
        }
      ],
      "name": "cancelAllowance",
      "outputs": [],
      "stateMutability": "nonpayable",
      "type": "function"
    },
    {
      "inputs": [
        {
          "internalType": "uint256",
          "name": "_id",
          "type": "uint256"
        }
      ],
      "name": "cancelGift",
      "outputs": [],
      "stateMutability": "nonpayable",
      "type": "function"
    },
    {
      "inputs": [
        {
          "internalType": "uint256",
          "name": "_id",
          "type": "uint256"
        }
      ],
      "name": "cancelSavings",
      "outputs": [],
      "stateMutability": "nonpayable",
      "type": "function"
    },
    {
      "inputs": [
        {
          "internalType": "uint256",
          "name": "_id",
          "type": "uint256"
        }
      ],
      "name": "cancelTrustfund",
      "outputs": [],
      "stateMutability": "nonpayable",
      "type": "function"
    },
    {
      "inputs": [],
      "name": "getAllActiveAllowance",
      "outputs": [
        {
          "components": [
            {
              "internalType": "uint256",
              "name": "id",
              "type": "uint256"
            },
            {
              "internalType": "address",
              "name": "sender",
              "type": "address"
            },
            {
              "internalType": "address",
              "name": "receiver",
              "type": "address"
            },
            {
              "internalType": "uint256",
              "name": "deposit",
              "type": "uint256"
            },
            {
              "internalType": "uint256",
              "name": "startDate",
              "type": "uint256"
            },
            {
              "internalType": "uint256",
              "name": "withdrawalAmount",
              "type": "uint256"
            },
            {
              "internalType": "uint256",
              "name": "withdrawalInterval",
              "type": "uint256"
            }
          ],
          "internalType": "struct AtiumPlan.AllowanceList[]",
          "name": "",
          "type": "tuple[]"
        }
      ],
      "stateMutability": "view",
      "type": "function"
    },
    {
      "inputs": [],
      "name": "getAllActiveGift",
      "outputs": [
        {
          "components": [
            {
              "internalType": "uint256",
              "name": "id",
              "type": "uint256"
            },
            {
              "internalType": "address",
              "name": "sender",
              "type": "address"
            },
            {
              "internalType": "address",
              "name": "receiver",
              "type": "address"
            },
            {
              "internalType": "uint256",
              "name": "date",
              "type": "uint256"
            },
            {
              "internalType": "uint256",
              "name": "amount",
              "type": "uint256"
            }
          ],
          "internalType": "struct AtiumPlan.GiftList[]",
          "name": "",
          "type": "tuple[]"
        }
      ],
      "stateMutability": "view",
      "type": "function"
    },
    {
      "inputs": [],
      "name": "getAllActiveSavings",
      "outputs": [
        {
          "components": [
            {
              "internalType": "uint256",
              "name": "id",
              "type": "uint256"
            },
            {
              "internalType": "address",
              "name": "user",
              "type": "address"
            },
            {
              "internalType": "uint256",
              "name": "amount",
              "type": "uint256"
            },
            {
              "internalType": "uint256",
              "name": "goal",
              "type": "uint256"
            },
            {
              "internalType": "uint256",
              "name": "time",
              "type": "uint256"
            }
          ],
          "internalType": "struct AtiumPlan.SavingsList[]",
          "name": "",
          "type": "tuple[]"
        }
      ],
      "stateMutability": "view",
      "type": "function"
    },
    {
      "inputs": [],
      "name": "getAllActiveTrustfund",
      "outputs": [
        {
          "components": [
            {
              "internalType": "uint256",
              "name": "id",
              "type": "uint256"
            },
            {
              "internalType": "address",
              "name": "sender",
              "type": "address"
            },
            {
              "internalType": "address",
              "name": "receiver",
              "type": "address"
            },
            {
              "internalType": "uint256",
              "name": "amount",
              "type": "uint256"
            },
            {
              "internalType": "uint256",
              "name": "startDate",
              "type": "uint256"
            },
            {
              "internalType": "uint256",
              "name": "withdrawalAmount",
              "type": "uint256"
            },
            {
              "internalType": "uint256",
              "name": "withdrawalInterval",
              "type": "uint256"
            }
          ],
          "internalType": "struct AtiumPlan.TrustFundList[]",
          "name": "",
          "type": "tuple[]"
        }
      ],
      "stateMutability": "view",
      "type": "function"
    },
    {
      "inputs": [
        {
          "internalType": "uint256",
          "name": "_id",
          "type": "uint256"
        }
      ],
      "name": "getAllowance",
      "outputs": [
        {
          "components": [
            {
              "internalType": "uint256",
              "name": "id",
              "type": "uint256"
            },
            {
              "internalType": "address",
              "name": "sender",
              "type": "address"
            },
            {
              "internalType": "address",
              "name": "receiver",
              "type": "address"
            },
            {
              "internalType": "uint256",
              "name": "deposit",
              "type": "uint256"
            },
            {
              "internalType": "uint256",
              "name": "startDate",
              "type": "uint256"
            },
            {
              "internalType": "uint256",
              "name": "withdrawalAmount",
              "type": "uint256"
            },
            {
              "internalType": "uint256",
              "name": "withdrawalInterval",
              "type": "uint256"
            }
          ],
          "internalType": "struct AtiumPlan.AllowanceList",
          "name": "",
          "type": "tuple"
        }
      ],
      "stateMutability": "view",
      "type": "function"
    },
    {
      "inputs": [
        {
          "internalType": "uint256",
          "name": "_id",
          "type": "uint256"
        }
      ],
      "name": "getAllowanceBalance",
      "outputs": [
        {
          "internalType": "uint256",
          "name": "",
          "type": "uint256"
        }
      ],
      "stateMutability": "view",
      "type": "function"
    },
    {
      "inputs": [
        {
          "internalType": "uint256",
          "name": "_id",
          "type": "uint256"
        }
      ],
      "name": "getAtium",
      "outputs": [
        {
          "components": [
            {
              "internalType": "uint256",
              "name": "id",
              "type": "uint256"
            },
            {
              "internalType": "address",
              "name": "user",
              "type": "address"
            },
            {
              "internalType": "enum AtiumPlan.Select",
              "name": "select",
              "type": "uint8"
            }
          ],
          "internalType": "struct AtiumPlan.AtiumList",
          "name": "",
          "type": "tuple"
        }
      ],
      "stateMutability": "view",
      "type": "function"
    },
    {
      "inputs": [
        {
          "internalType": "uint256",
          "name": "_id",
          "type": "uint256"
        }
      ],
      "name": "getGift",
      "outputs": [
        {
          "components": [
            {
              "internalType": "uint256",
              "name": "id",
              "type": "uint256"
            },
            {
              "internalType": "address",
              "name": "sender",
              "type": "address"
            },
            {
              "internalType": "address",
              "name": "receiver",
              "type": "address"
            },
            {
              "internalType": "uint256",
              "name": "date",
              "type": "uint256"
            },
            {
              "internalType": "uint256",
              "name": "amount",
              "type": "uint256"
            }
          ],
          "internalType": "struct AtiumPlan.GiftList",
          "name": "",
          "type": "tuple"
        }
      ],
      "stateMutability": "view",
      "type": "function"
    },
    {
      "inputs": [
        {
          "internalType": "uint256",
          "name": "_id",
          "type": "uint256"
        }
      ],
      "name": "getGiftBalance",
      "outputs": [
        {
          "internalType": "uint256",
          "name": "",
          "type": "uint256"
        }
      ],
      "stateMutability": "view",
      "type": "function"
    },
    {
      "inputs": [
        {
          "internalType": "uint256",
          "name": "_id",
          "type": "uint256"
        }
      ],
      "name": "getSavings",
      "outputs": [
        {
          "components": [
            {
              "internalType": "uint256",
              "name": "id",
              "type": "uint256"
            },
            {
              "internalType": "address",
              "name": "user",
              "type": "address"
            },
            {
              "internalType": "uint256",
              "name": "amount",
              "type": "uint256"
            },
            {
              "internalType": "uint256",
              "name": "goal",
              "type": "uint256"
            },
            {
              "internalType": "uint256",
              "name": "time",
              "type": "uint256"
            }
          ],
          "internalType": "struct AtiumPlan.SavingsList",
          "name": "",
          "type": "tuple"
        }
      ],
      "stateMutability": "view",
      "type": "function"
    },
    {
      "inputs": [
        {
          "internalType": "uint256",
          "name": "_id",
          "type": "uint256"
        }
      ],
      "name": "getSavingsBalance",
      "outputs": [
        {
          "internalType": "uint256",
          "name": "",
          "type": "uint256"
        }
      ],
      "stateMutability": "view",
      "type": "function"
    },
    {
      "inputs": [
        {
          "internalType": "uint256",
          "name": "_id",
          "type": "uint256"
        }
      ],
      "name": "getTrustfund",
      "outputs": [
        {
          "components": [
            {
              "internalType": "uint256",
              "name": "id",
              "type": "uint256"
            },
            {
              "internalType": "address",
              "name": "sender",
              "type": "address"
            },
            {
              "internalType": "address",
              "name": "receiver",
              "type": "address"
            },
            {
              "internalType": "uint256",
              "name": "amount",
              "type": "uint256"
            },
            {
              "internalType": "uint256",
              "name": "startDate",
              "type": "uint256"
            },
            {
              "internalType": "uint256",
              "name": "withdrawalAmount",
              "type": "uint256"
            },
            {
              "internalType": "uint256",
              "name": "withdrawalInterval",
              "type": "uint256"
            }
          ],
          "internalType": "struct AtiumPlan.TrustFundList",
          "name": "",
          "type": "tuple"
        }
      ],
      "stateMutability": "view",
      "type": "function"
    },
    {
      "inputs": [
        {
          "internalType": "uint256",
          "name": "_id",
          "type": "uint256"
        }
      ],
      "name": "getTrustfundBalance",
      "outputs": [
        {
          "internalType": "uint256",
          "name": "",
          "type": "uint256"
        }
      ],
      "stateMutability": "view",
      "type": "function"
    },
    {
      "inputs": [
        {
          "internalType": "uint256",
          "name": "_id",
          "type": "uint256"
        },
        {
          "internalType": "uint256",
          "name": "_amount",
          "type": "uint256"
        }
      ],
      "name": "gift",
      "outputs": [],
      "stateMutability": "payable",
      "type": "function"
    },
    {
      "inputs": [
        {
          "internalType": "address",
          "name": "_receiver",
          "type": "address"
        },
        {
          "internalType": "uint256",
          "name": "_date",
          "type": "uint256"
        }
      ],
      "name": "giftPlan",
      "outputs": [],
      "stateMutability": "nonpayable",
      "type": "function"
    },
    {
      "inputs": [
        {
          "internalType": "uint256",
          "name": "_id",
          "type": "uint256"
        },
        {
          "internalType": "uint256",
          "name": "_amount",
          "type": "uint256"
        }
      ],
      "name": "save",
      "outputs": [],
      "stateMutability": "payable",
      "type": "function"
    },
    {
      "inputs": [
        {
          "internalType": "uint256",
          "name": "_goal",
          "type": "uint256"
        }
      ],
      "name": "savingsPlanGoal",
      "outputs": [],
      "stateMutability": "nonpayable",
      "type": "function"
    },
    {
      "inputs": [
        {
          "internalType": "uint256",
          "name": "_time",
          "type": "uint256"
        }
      ],
      "name": "savingsPlanTime",
      "outputs": [],
      "stateMutability": "nonpayable",
      "type": "function"
    },
    {
      "inputs": [
        {
          "internalType": "uint256",
          "name": "_id",
          "type": "uint256"
        },
        {
          "internalType": "uint256",
          "name": "_amount",
          "type": "uint256"
        }
      ],
      "name": "trustfund",
      "outputs": [],
      "stateMutability": "payable",
      "type": "function"
    },
    {
      "inputs": [
        {
          "internalType": "address",
          "name": "_receiver",
          "type": "address"
        },
        {
          "internalType": "uint256",
          "name": "_startDate",
          "type": "uint256"
        },
        {
          "internalType": "uint256",
          "name": "_amount",
          "type": "uint256"
        },
        {
          "internalType": "uint256",
          "name": "_interval",
          "type": "uint256"
        }
      ],
      "name": "trustfundPlan",
      "outputs": [],
      "stateMutability": "nonpayable",
      "type": "function"
    },
    {
      "inputs": [
        {
          "internalType": "uint256",
          "name": "_id",
          "type": "uint256"
        }
      ],
      "name": "w_allowance",
      "outputs": [],
      "stateMutability": "nonpayable",
      "type": "function"
    },
    {
      "inputs": [
        {
          "internalType": "uint256",
          "name": "_id",
          "type": "uint256"
        }
      ],
      "name": "w_gift",
      "outputs": [],
      "stateMutability": "nonpayable",
      "type": "function"
    },
    {
      "inputs": [
        {
          "internalType": "uint256",
          "name": "_id",
          "type": "uint256"
        }
      ],
      "name": "w_save",
      "outputs": [],
      "stateMutability": "nonpayable",
      "type": "function"
    },
    {
      "inputs": [
        {
          "internalType": "uint256",
          "name": "_id",
          "type": "uint256"
        }
      ],
      "name": "w_trustfund",
      "outputs": [],
      "stateMutability": "nonpayable",
      "type": "function"
    },
    {
      "stateMutability": "payable",
      "type": "receive"
    }
  ],
  "bytecode": "0x608060405234801561001057600080fd5b50615b9f80620000216000396000f3fe6080604052600436106101d15760003560e01c80638ee69ae8116100f7578063c960174e11610095578063e4d9fff811610064578063e4d9fff814610667578063ed5579fc14610690578063f7b05eea146106b9578063fa278ae6146106f6576101d8565b8063c960174e146105bc578063cca16fa8146105f9578063d14fb6db14610615578063d67d10dc1461063e576101d8565b8063aca9d54c116100d1578063aca9d54c14610504578063ad31cc9f1461052d578063bf6713f614610556578063c315d63514610593576101d8565b80638ee69ae8146104895780639378d65a146104b2578063a0781399146104db576101d8565b806357fc03631161016f5780636c793fc91161013e5780636c793fc9146103ca57806381acffe8146103f35780638207d0f91461043057806383a74acc1461046d576101d8565b806357fc03631461032a578063640117be1461034657806367b45214146103625780636c45bdc41461039f576101d8565b806313bfb182116101ab57806313bfb1821461025c5780631f7525d0146102995780632bb59145146102c25780633e346eeb146102ed576101d8565b806308339b93146101dd5780631072354b1461020857806312cc19e714610231576101d8565b366101d857005b600080fd5b3480156101e957600080fd5b506101f2610733565b6040516101ff9190614fd1565b60405180910390f35b34801561021457600080fd5b5061022f600480360381019061022a9190615024565b610965565b005b34801561023d57600080fd5b50610246610be3565b604051610253919061518e565b60405180910390f35b34801561026857600080fd5b50610283600480360381019061027e9190615024565b610e29565b6040516102909190615218565b60405180910390f35b3480156102a557600080fd5b506102c060048036038101906102bb9190615024565b610ed4565b005b3480156102ce57600080fd5b506102d761127a565b6040516102e4919061534a565b60405180910390f35b3480156102f957600080fd5b50610314600480360381019061030f9190615024565b611460565b6040516103219190615425565b60405180910390f35b610344600480360381019061033f9190615440565b611528565b005b610360600480360381019061035b9190615440565b611888565b005b34801561036e57600080fd5b5061038960048036038101906103849190615024565b611b47565b604051610396919061548f565b60405180910390f35b3480156103ab57600080fd5b506103b4611b67565b6040516103c191906155e7565b60405180910390f35b3480156103d657600080fd5b506103f160048036038101906103ec9190615024565b611dad565b005b3480156103ff57600080fd5b5061041a60048036038101906104159190615024565b612182565b604051610427919061548f565b60405180910390f35b34801561043c57600080fd5b5061045760048036038101906104529190615024565b61219f565b604051610464919061548f565b60405180910390f35b61048760048036038101906104829190615440565b6121bc565b005b34801561049557600080fd5b506104b060048036038101906104ab9190615024565b612451565b005b3480156104be57600080fd5b506104d960048036038101906104d49190615024565b6126d2565b005b3480156104e757600080fd5b5061050260048036038101906104fd9190615024565b612953565b005b34801561051057600080fd5b5061052b60048036038101906105269190615024565b612b81565b005b34801561053957600080fd5b50610554600480360381019061054f9190615024565b612e8d565b005b34801561056257600080fd5b5061057d60048036038101906105789190615024565b613191565b60405161058a9190615671565b60405180910390f35b34801561059f57600080fd5b506105ba60048036038101906105b59190615024565b613288565b005b3480156105c857600080fd5b506105e360048036038101906105de9190615024565b61359a565b6040516105f0919061571a565b60405180910390f35b610613600480360381019061060e9190615440565b6136a5565b005b34801561062157600080fd5b5061063c60048036038101906106379190615761565b613964565b005b34801561064a57600080fd5b50610665600480360381019061066091906157a1565b613d6e565b005b34801561067357600080fd5b5061068e60048036038101906106899190615024565b6141d2565b005b34801561069c57600080fd5b506106b760048036038101906106b291906157a1565b614450565b005b3480156106c557600080fd5b506106e060048036038101906106db9190615024565b6148b4565b6040516106ed919061548f565b60405180910390f35b34801561070257600080fd5b5061071d60048036038101906107189190615024565b6148d4565b60405161072a9190615896565b60405180910390f35b60606000600d60003373ffffffffffffffffffffffffffffffffffffffff1673ffffffffffffffffffffffffffffffffffffffff1681526020019081526020016000208054806020026020016040519081016040528092919081815260200182805480156107c057602002820191906000526020600020905b8154815260200190600101908083116107ac575b5050505050905060008151905060008167ffffffffffffffff8111156107e9576107e86158b1565b5b60405190808252806020026020018201604052801561082257816020015b61080f614ca5565b8152602001906001900390816108075790505b50905060005b8281101561095b5760096000858381518110610847576108466158e0565b5b602002602001015181526020019081526020016000206040518060a0016040529081600082015481526020016001820160009054906101000a900473ffffffffffffffffffffffffffffffffffffffff1673ffffffffffffffffffffffffffffffffffffffff1673ffffffffffffffffffffffffffffffffffffffff1681526020016002820160009054906101000a900473ffffffffffffffffffffffffffffffffffffffff1673ffffffffffffffffffffffffffffffffffffffff1673ffffffffffffffffffffffffffffffffffffffff16815260200160038201548152602001600482015481525050828281518110610945576109446158e0565b5b6020026020010181905250806001019050610828565b5080935050505090565b803373ffffffffffffffffffffffffffffffffffffffff166008600083815260200190815260200160002060010160009054906101000a900473ffffffffffffffffffffffffffffffffffffffff1673ffffffffffffffffffffffffffffffffffffffff1614610a01576040517f0d9ff29600000000000000000000000000000000000000000000000000000000815260040160405180910390fd5b6019600083815260200190815260200160002060009054906101000a900460ff1615610a59576040517f18fbf5ed00000000000000000000000000000000000000000000000000000000815260040160405180910390fd5b610aaa82600c60003373ffffffffffffffffffffffffffffffffffffffff1673ffffffffffffffffffffffffffffffffffffffff1681526020019081526020016000206149df90919063ffffffff16565b60016019600084815260200190815260200160002060006101000a81548160ff021916908315150217905550610b2782601060003373ffffffffffffffffffffffffffffffffffffffff1673ffffffffffffffffffffffffffffffffffffffff168152602001908152602001600020614aa690919063ffffffff16565b5060003373ffffffffffffffffffffffffffffffffffffffff16601c600085815260200190815260200160002054604051610b6190615940565b60006040518083038185875af1925050503d8060008114610b9e576040519150601f19603f3d011682016040523d82523d6000602084013e610ba3565b606091505b5050905080610bde576040517f75a8758900000000000000000000000000000000000000000000000000000000815260040160405180910390fd5b505050565b60606000600b60003373ffffffffffffffffffffffffffffffffffffffff1673ffffffffffffffffffffffffffffffffffffffff168152602001908152602001600020805480602002602001604051908101604052809291908181526020018280548015610c7057602002820191906000526020600020905b815481526020019060010190808311610c5c575b5050505050905060008151905060008167ffffffffffffffff811115610c9957610c986158b1565b5b604051908082528060200260200182016040528015610cd257816020015b610cbf614d00565b815260200190600190039081610cb75790505b50905060005b82811015610e1f5760076000858381518110610cf757610cf66158e0565b5b602002602001015181526020019081526020016000206040518060e0016040529081600082015481526020016001820160009054906101000a900473ffffffffffffffffffffffffffffffffffffffff1673ffffffffffffffffffffffffffffffffffffffff1673ffffffffffffffffffffffffffffffffffffffff1681526020016002820160009054906101000a900473ffffffffffffffffffffffffffffffffffffffff1673ffffffffffffffffffffffffffffffffffffffff1673ffffffffffffffffffffffffffffffffffffffff168152602001600382015481526020016004820154815260200160058201548152602001600682015481525050828281518110610e0957610e086158e0565b5b6020026020010181905250806001019050610cd8565b5080935050505090565b610e31614d69565b600660008381526020019081526020016000206040518060a0016040529081600082015481526020016001820160009054906101000a900473ffffffffffffffffffffffffffffffffffffffff1673ffffffffffffffffffffffffffffffffffffffff1673ffffffffffffffffffffffffffffffffffffffff16815260200160028201548152602001600382015481526020016004820154815250509050919050565b600080601c6000848152602001908152602001600020541415610f23576040517fcd672d5d00000000000000000000000000000000000000000000000000000000815260040160405180910390fd5b6000600860008481526020019081526020016000206004015490506000601660008581526020019081526020016000205490506000600860008681526020019081526020016000206006015490506000818385610f809190615984565b610f8a91906159e7565b90508181610f989190615a18565b601660008881526020019081526020016000206000828254610fba9190615a72565b925050819055506008600087815260200190815260200160002060050154601c600088815260200190815260200160002054101561100957601c60008781526020019081526020016000205494505b6008600087815260200190815260200160002060050154601c6000888152602001908152602001600020541061105e5760086000878152602001908152602001600020600501548161105b9190615a18565b94505b84601c600088815260200190815260200160002060008282546110819190615984565b9250508190555061110f8660106000600860008b815260200190815260200160002060020160009054906101000a900473ffffffffffffffffffffffffffffffffffffffff1673ffffffffffffffffffffffffffffffffffffffff1673ffffffffffffffffffffffffffffffffffffffff168152602001908152602001600020614aa690919063ffffffff16565b506111978660106000600860008b815260200190815260200160002060020160009054906101000a900473ffffffffffffffffffffffffffffffffffffffff1673ffffffffffffffffffffffffffffffffffffffff1673ffffffffffffffffffffffffffffffffffffffff168152602001908152602001600020614ac090919063ffffffff16565b5060006008600088815260200190815260200160002060020160009054906101000a900473ffffffffffffffffffffffffffffffffffffffff1673ffffffffffffffffffffffffffffffffffffffff16866040516111f490615940565b60006040518083038185875af1925050503d8060008114611231576040519150601f19603f3d011682016040523d82523d6000602084013e611236565b606091505b5050905080611271576040517f75a8758900000000000000000000000000000000000000000000000000000000815260040160405180910390fd5b50505050505050565b60606000600a60003373ffffffffffffffffffffffffffffffffffffffff1673ffffffffffffffffffffffffffffffffffffffff16815260200190815260200160002080548060200260200160405190810160405280929190818152602001828054801561130757602002820191906000526020600020905b8154815260200190600101908083116112f3575b5050505050905060008151905060008167ffffffffffffffff8111156113305761132f6158b1565b5b60405190808252806020026020018201604052801561136957816020015b611356614d69565b81526020019060019003908161134e5790505b50905060005b82811015611456576006600085838151811061138e5761138d6158e0565b5b602002602001015181526020019081526020016000206040518060a0016040529081600082015481526020016001820160009054906101000a900473ffffffffffffffffffffffffffffffffffffffff1673ffffffffffffffffffffffffffffffffffffffff1673ffffffffffffffffffffffffffffffffffffffff16815260200160028201548152602001600382015481526020016004820154815250508282815181106114405761143f6158e0565b5b602002602001018190525080600101905061136f565b5080935050505090565b611468614dae565b60056000838152602001908152602001600020604051806060016040529081600082015481526020016001820160009054906101000a900473ffffffffffffffffffffffffffffffffffffffff1673ffffffffffffffffffffffffffffffffffffffff1673ffffffffffffffffffffffffffffffffffffffff1681526020016001820160149054906101000a900460ff16600381111561150b5761150a61536c565b5b600381111561151d5761151c61536c565b5b815250509050919050565b813373ffffffffffffffffffffffffffffffffffffffff166006600083815260200190815260200160002060010160009054906101000a900473ffffffffffffffffffffffffffffffffffffffff1673ffffffffffffffffffffffffffffffffffffffff16146115c4576040517f0d9ff29600000000000000000000000000000000000000000000000000000000815260040160405180910390fd5b60008314806115d35750600082145b1561160a576040517f8e277c2c00000000000000000000000000000000000000000000000000000000815260040160405180910390fd5b813414611643576040517f055932c300000000000000000000000000000000000000000000000000000000815260040160405180910390fd5b600660008481526020019081526020016000206003015460066000858152602001908152602001600020600201548361167c9190615a72565b111561170e576006600084815260200190815260200160002060030154600660008581526020019081526020016000206002015460066000868152602001908152602001600020600301546116d19190615984565b6040517ff6f09cc8000000000000000000000000000000000000000000000000000000008152600401611705929190615ac8565b60405180910390fd5b816006600085815260200190815260200160002060020160008282546117349190615a72565b9250508190555061178c83600f60003373ffffffffffffffffffffffffffffffffffffffff1673ffffffffffffffffffffffffffffffffffffffff168152602001908152602001600020614aa690919063ffffffff16565b506117de83600f60003373ffffffffffffffffffffffffffffffffffffffff1673ffffffffffffffffffffffffffffffffffffffff168152602001908152602001600020614ac090919063ffffffff16565b5060003073ffffffffffffffffffffffffffffffffffffffff163460405161180590615940565b60006040518083038185875af1925050503d8060008114611842576040519150601f19603f3d011682016040523d82523d6000602084013e611847565b606091505b5050905080611882576040517f75a8758900000000000000000000000000000000000000000000000000000000815260040160405180910390fd5b50505050565b813373ffffffffffffffffffffffffffffffffffffffff166008600083815260200190815260200160002060010160009054906101000a900473ffffffffffffffffffffffffffffffffffffffff1673ffffffffffffffffffffffffffffffffffffffff1614611924576040517f0d9ff29600000000000000000000000000000000000000000000000000000000815260040160405180910390fd5b60008314806119335750600082145b1561196a576040517f8e277c2c00000000000000000000000000000000000000000000000000000000815260040160405180910390fd5b8134146119a3576040517f055932c300000000000000000000000000000000000000000000000000000000815260040160405180910390fd5b816008600085815260200190815260200160002060030160008282546119c99190615a72565b9250508190555081601c600085815260200190815260200160002060008282546119f39190615a72565b92505081905550611a4b83601060003373ffffffffffffffffffffffffffffffffffffffff1673ffffffffffffffffffffffffffffffffffffffff168152602001908152602001600020614aa690919063ffffffff16565b50611a9d83601060003373ffffffffffffffffffffffffffffffffffffffff1673ffffffffffffffffffffffffffffffffffffffff168152602001908152602001600020614ac090919063ffffffff16565b5060003073ffffffffffffffffffffffffffffffffffffffff1634604051611ac490615940565b60006040518083038185875af1925050503d8060008114611b01576040519150601f19603f3d011682016040523d82523d6000602084013e611b06565b606091505b5050905080611b41576040517f75a8758900000000000000000000000000000000000000000000000000000000815260040160405180910390fd5b50505050565b600060066000838152602001908152602001600020600201549050919050565b60606000600c60003373ffffffffffffffffffffffffffffffffffffffff1673ffffffffffffffffffffffffffffffffffffffff168152602001908152602001600020805480602002602001604051908101604052809291908181526020018280548015611bf457602002820191906000526020600020905b815481526020019060010190808311611be0575b5050505050905060008151905060008167ffffffffffffffff811115611c1d57611c1c6158b1565b5b604051908082528060200260200182016040528015611c5657816020015b611c43614df7565b815260200190600190039081611c3b5790505b50905060005b82811015611da35760086000858381518110611c7b57611c7a6158e0565b5b602002602001015181526020019081526020016000206040518060e0016040529081600082015481526020016001820160009054906101000a900473ffffffffffffffffffffffffffffffffffffffff1673ffffffffffffffffffffffffffffffffffffffff1673ffffffffffffffffffffffffffffffffffffffff1681526020016002820160009054906101000a900473ffffffffffffffffffffffffffffffffffffffff1673ffffffffffffffffffffffffffffffffffffffff1673ffffffffffffffffffffffffffffffffffffffff168152602001600382015481526020016004820154815260200160058201548152602001600682015481525050828281518110611d8d57611d8c6158e0565b5b6020026020010181905250806001019050611c5c565b5080935050505090565b600080601b6000848152602001908152602001600020541415611dfc576040517fcd672d5d00000000000000000000000000000000000000000000000000000000815260040160405180910390fd5b6000429050600060156000858152602001908152602001600020549050600060076000868152602001908152602001600020600601549050808284611e419190615984565b1015611e79576040517fa839fe5500000000000000000000000000000000000000000000000000000000815260040160405180910390fd5b6000818385611e889190615984565b611e9291906159e7565b90508181611ea09190615a18565b601560008881526020019081526020016000206000828254611ec29190615a72565b925050819055506007600087815260200190815260200160002060050154601b6000888152602001908152602001600020541015611f1157601b60008781526020019081526020016000205494505b6007600087815260200190815260200160002060050154601b60008881526020019081526020016000205410611f6657600760008781526020019081526020016000206005015481611f639190615a18565b94505b84601b60008881526020019081526020016000206000828254611f899190615984565b9250508190555061201786600f6000600760008b815260200190815260200160002060020160009054906101000a900473ffffffffffffffffffffffffffffffffffffffff1673ffffffffffffffffffffffffffffffffffffffff1673ffffffffffffffffffffffffffffffffffffffff168152602001908152602001600020614aa690919063ffffffff16565b5061209f86600f6000600760008b815260200190815260200160002060020160009054906101000a900473ffffffffffffffffffffffffffffffffffffffff1673ffffffffffffffffffffffffffffffffffffffff1673ffffffffffffffffffffffffffffffffffffffff168152602001908152602001600020614ac090919063ffffffff16565b5060006007600088815260200190815260200160002060020160009054906101000a900473ffffffffffffffffffffffffffffffffffffffff1673ffffffffffffffffffffffffffffffffffffffff16866040516120fc90615940565b60006040518083038185875af1925050503d8060008114612139576040519150601f19603f3d011682016040523d82523d6000602084013e61213e565b606091505b5050905080612179576040517f75a8758900000000000000000000000000000000000000000000000000000000815260040160405180910390fd5b50505050505050565b6000601b6000838152602001908152602001600020549050919050565b6000601c6000838152602001908152602001600020549050919050565b813373ffffffffffffffffffffffffffffffffffffffff166009600083815260200190815260200160002060010160009054906101000a900473ffffffffffffffffffffffffffffffffffffffff1673ffffffffffffffffffffffffffffffffffffffff1614612258576040517f0d9ff29600000000000000000000000000000000000000000000000000000000815260040160405180910390fd5b60008314806122675750600082145b1561229e576040517f8e277c2c00000000000000000000000000000000000000000000000000000000815260040160405180910390fd5b8134146122d7576040517f055932c300000000000000000000000000000000000000000000000000000000815260040160405180910390fd5b816009600085815260200190815260200160002060040160008282546122fd9190615a72565b9250508190555061235583601160003373ffffffffffffffffffffffffffffffffffffffff1673ffffffffffffffffffffffffffffffffffffffff168152602001908152602001600020614aa690919063ffffffff16565b506123a783601160003373ffffffffffffffffffffffffffffffffffffffff1673ffffffffffffffffffffffffffffffffffffffff168152602001908152602001600020614ac090919063ffffffff16565b5060003073ffffffffffffffffffffffffffffffffffffffff16346040516123ce90615940565b60006040518083038185875af1925050503d806000811461240b576040519150601f19603f3d011682016040523d82523d6000602084013e612410565b606091505b505090508061244b576040517f75a8758900000000000000000000000000000000000000000000000000000000815260040160405180910390fd5b50505050565b803373ffffffffffffffffffffffffffffffffffffffff166009600083815260200190815260200160002060010160009054906101000a900473ffffffffffffffffffffffffffffffffffffffff1673ffffffffffffffffffffffffffffffffffffffff16146124ed576040517f0d9ff29600000000000000000000000000000000000000000000000000000000815260040160405180910390fd5b601a600083815260200190815260200160002060009054906101000a900460ff1615612545576040517f18fbf5ed00000000000000000000000000000000000000000000000000000000815260040160405180910390fd5b61259682600d60003373ffffffffffffffffffffffffffffffffffffffff1673ffffffffffffffffffffffffffffffffffffffff1681526020019081526020016000206149df90919063ffffffff16565b6001601a600084815260200190815260200160002060006101000a81548160ff02191690831515021790555061261382601160003373ffffffffffffffffffffffffffffffffffffffff1673ffffffffffffffffffffffffffffffffffffffff168152602001908152602001600020614aa690919063ffffffff16565b5060003373ffffffffffffffffffffffffffffffffffffffff16600960008581526020019081526020016000206004015460405161265090615940565b60006040518083038185875af1925050503d806000811461268d576040519150601f19603f3d011682016040523d82523d6000602084013e612692565b606091505b50509050806126cd576040517f75a8758900000000000000000000000000000000000000000000000000000000815260040160405180910390fd5b505050565b803373ffffffffffffffffffffffffffffffffffffffff166006600083815260200190815260200160002060010160009054906101000a900473ffffffffffffffffffffffffffffffffffffffff1673ffffffffffffffffffffffffffffffffffffffff161461276e576040517f0d9ff29600000000000000000000000000000000000000000000000000000000815260040160405180910390fd5b6017600083815260200190815260200160002060009054906101000a900460ff16156127c6576040517f18fbf5ed00000000000000000000000000000000000000000000000000000000815260040160405180910390fd5b61281782600a60003373ffffffffffffffffffffffffffffffffffffffff1673ffffffffffffffffffffffffffffffffffffffff1681526020019081526020016000206149df90919063ffffffff16565b60016017600084815260200190815260200160002060006101000a81548160ff02191690831515021790555061289482600f60003373ffffffffffffffffffffffffffffffffffffffff1673ffffffffffffffffffffffffffffffffffffffff168152602001908152602001600020614aa690919063ffffffff16565b5060003373ffffffffffffffffffffffffffffffffffffffff1660066000858152602001908152602001600020600201546040516128d190615940565b60006040518083038185875af1925050503d806000811461290e576040519150601f19603f3d011682016040523d82523d6000602084013e612913565b606091505b505090508061294e576040517f75a8758900000000000000000000000000000000000000000000000000000000815260040160405180910390fd5b505050565b6129da81600d60006009600086815260200190815260200160002060020160009054906101000a900473ffffffffffffffffffffffffffffffffffffffff1673ffffffffffffffffffffffffffffffffffffffff1673ffffffffffffffffffffffffffffffffffffffff1681526020019081526020016000206149df90919063ffffffff16565b6001601a600083815260200190815260200160002060006101000a81548160ff021916908315150217905550612a8d81601160006009600086815260200190815260200160002060020160009054906101000a900473ffffffffffffffffffffffffffffffffffffffff1673ffffffffffffffffffffffffffffffffffffffff1673ffffffffffffffffffffffffffffffffffffffff168152602001908152602001600020614aa690919063ffffffff16565b5060006009600083815260200190815260200160002060020160009054906101000a900473ffffffffffffffffffffffffffffffffffffffff1673ffffffffffffffffffffffffffffffffffffffff166009600084815260200190815260200160002060040154604051612b0090615940565b60006040518083038185875af1925050503d8060008114612b3d576040519150601f19603f3d011682016040523d82523d6000602084013e612b42565b606091505b5050905080612b7d576040517f75a8758900000000000000000000000000000000000000000000000000000000815260040160405180910390fd5b5050565b600660008281526020019081526020016000206003015460066000838152602001908152602001600020600201541080612bd05750600660008281526020019081526020016000206004015442105b15612c07576040517fa3fc45c600000000000000000000000000000000000000000000000000000000815260040160405180910390fd5b6017600082815260200190815260200160002060009054906101000a900460ff1615612c5f576040517f18fbf5ed00000000000000000000000000000000000000000000000000000000815260040160405180910390fd5b612ce681600a60006006600086815260200190815260200160002060010160009054906101000a900473ffffffffffffffffffffffffffffffffffffffff1673ffffffffffffffffffffffffffffffffffffffff1673ffffffffffffffffffffffffffffffffffffffff1681526020019081526020016000206149df90919063ffffffff16565b60016017600083815260200190815260200160002060006101000a81548160ff021916908315150217905550612d9981600f60006006600086815260200190815260200160002060010160009054906101000a900473ffffffffffffffffffffffffffffffffffffffff1673ffffffffffffffffffffffffffffffffffffffff1673ffffffffffffffffffffffffffffffffffffffff168152602001908152602001600020614aa690919063ffffffff16565b5060006006600083815260200190815260200160002060010160009054906101000a900473ffffffffffffffffffffffffffffffffffffffff1673ffffffffffffffffffffffffffffffffffffffff166006600084815260200190815260200160002060020154604051612e0c90615940565b60006040518083038185875af1925050503d8060008114612e49576040519150601f19603f3d011682016040523d82523d6000602084013e612e4e565b606091505b5050905080612e89576040517f75a8758900000000000000000000000000000000000000000000000000000000815260040160405180910390fd5b5050565b6000811415612ec8576040517f8e277c2c00000000000000000000000000000000000000000000000000000000815260040160405180910390fd5b612ed26000614ada565b612edc6001614ada565b60006040518060600160405280612ef36000614af0565b81526020013373ffffffffffffffffffffffffffffffffffffffff16815260200160006003811115612f2857612f2761536c565b5b815250905060006040518060a00160405280612f446001614af0565b81526020013373ffffffffffffffffffffffffffffffffffffffff16815260200160066000612f736001614af0565b8152602001908152602001600020600201548152602001848152602001600081525090508160056000612fa66000614af0565b81526020019081526020016000206000820151816000015560208201518160010160006101000a81548173ffffffffffffffffffffffffffffffffffffffff021916908373ffffffffffffffffffffffffffffffffffffffff16021790555060408201518160010160146101000a81548160ff021916908360038111156130305761302f61536c565b5b021790555090505080600660006130476001614af0565b81526020019081526020016000206000820151816000015560208201518160010160006101000a81548173ffffffffffffffffffffffffffffffffffffffff021916908373ffffffffffffffffffffffffffffffffffffffff160217905550604082015181600201556060820151816003015560808201518160040155905050600a60003373ffffffffffffffffffffffffffffffffffffffff1673ffffffffffffffffffffffffffffffffffffffff1681526020019081526020016000206131106001614af0565b908060018154018082558091505060019003906000526020600020016000909190919091505561318b8160000151600e60003373ffffffffffffffffffffffffffffffffffffffff1673ffffffffffffffffffffffffffffffffffffffff168152602001908152602001600020614ac090919063ffffffff16565b50505050565b613199614ca5565b600960008381526020019081526020016000206040518060a0016040529081600082015481526020016001820160009054906101000a900473ffffffffffffffffffffffffffffffffffffffff1673ffffffffffffffffffffffffffffffffffffffff1673ffffffffffffffffffffffffffffffffffffffff1681526020016002820160009054906101000a900473ffffffffffffffffffffffffffffffffffffffff1673ffffffffffffffffffffffffffffffffffffffff1673ffffffffffffffffffffffffffffffffffffffff168152602001600382015481526020016004820154815250509050919050565b60008114156132c3576040517f8e277c2c00000000000000000000000000000000000000000000000000000000815260040160405180910390fd5b6132cd6000614ada565b6132d76001614ada565b42816132e39190615a72565b9050600060405180606001604052806132fc6000614af0565b81526020013373ffffffffffffffffffffffffffffffffffffffff168152602001600060038111156133315761333061536c565b5b815250905060006040518060a0016040528061334d6001614af0565b81526020013373ffffffffffffffffffffffffffffffffffffffff1681526020016006600061337c6001614af0565b81526020019081526020016000206002015481526020016000815260200184815250905081600560006133af6000614af0565b81526020019081526020016000206000820151816000015560208201518160010160006101000a81548173ffffffffffffffffffffffffffffffffffffffff021916908373ffffffffffffffffffffffffffffffffffffffff16021790555060408201518160010160146101000a81548160ff021916908360038111156134395761343861536c565b5b021790555090505080600660006134506001614af0565b81526020019081526020016000206000820151816000015560208201518160010160006101000a81548173ffffffffffffffffffffffffffffffffffffffff021916908373ffffffffffffffffffffffffffffffffffffffff160217905550604082015181600201556060820151816003015560808201518160040155905050600a60003373ffffffffffffffffffffffffffffffffffffffff1673ffffffffffffffffffffffffffffffffffffffff1681526020019081526020016000206135196001614af0565b90806001815401808255809150506001900390600052602060002001600090919091909150556135948160000151600e60003373ffffffffffffffffffffffffffffffffffffffff1673ffffffffffffffffffffffffffffffffffffffff168152602001908152602001600020614ac090919063ffffffff16565b50505050565b6135a2614d00565b600760008381526020019081526020016000206040518060e0016040529081600082015481526020016001820160009054906101000a900473ffffffffffffffffffffffffffffffffffffffff1673ffffffffffffffffffffffffffffffffffffffff1673ffffffffffffffffffffffffffffffffffffffff1681526020016002820160009054906101000a900473ffffffffffffffffffffffffffffffffffffffff1673ffffffffffffffffffffffffffffffffffffffff1673ffffffffffffffffffffffffffffffffffffffff1681526020016003820154815260200160048201548152602001600582015481526020016006820154815250509050919050565b813373ffffffffffffffffffffffffffffffffffffffff166007600083815260200190815260200160002060010160009054906101000a900473ffffffffffffffffffffffffffffffffffffffff1673ffffffffffffffffffffffffffffffffffffffff1614613741576040517f0d9ff29600000000000000000000000000000000000000000000000000000000815260040160405180910390fd5b60008314806137505750600082145b15613787576040517f8e277c2c00000000000000000000000000000000000000000000000000000000815260040160405180910390fd5b8134146137c0576040517f055932c300000000000000000000000000000000000000000000000000000000815260040160405180910390fd5b816007600085815260200190815260200160002060030160008282546137e69190615a72565b9250508190555081601b600085815260200190815260200160002060008282546138109190615a72565b9250508190555061386883600f60003373ffffffffffffffffffffffffffffffffffffffff1673ffffffffffffffffffffffffffffffffffffffff168152602001908152602001600020614aa690919063ffffffff16565b506138ba83600f60003373ffffffffffffffffffffffffffffffffffffffff1673ffffffffffffffffffffffffffffffffffffffff168152602001908152602001600020614ac090919063ffffffff16565b5060003073ffffffffffffffffffffffffffffffffffffffff16346040516138e190615940565b60006040518083038185875af1925050503d806000811461391e576040519150601f19603f3d011682016040523d82523d6000602084013e613923565b606091505b505090508061395e576040517f75a8758900000000000000000000000000000000000000000000000000000000815260040160405180910390fd5b50505050565b600073ffffffffffffffffffffffffffffffffffffffff168273ffffffffffffffffffffffffffffffffffffffff16148061399f5750600081145b156139d6576040517f8e277c2c00000000000000000000000000000000000000000000000000000000815260040160405180910390fd5b6139e06000614ada565b6139ea6004614ada565b42816139f69190615a72565b905060006040518060600160405280613a0f6000614af0565b81526020013373ffffffffffffffffffffffffffffffffffffffff168152602001600380811115613a4357613a4261536c565b5b815250905060006040518060a00160405280613a5f6004614af0565b81526020013373ffffffffffffffffffffffffffffffffffffffff1681526020018573ffffffffffffffffffffffffffffffffffffffff16815260200184815260200160096000613ab06004614af0565b81526020019081526020016000206004015481525090508160056000613ad66000614af0565b81526020019081526020016000206000820151816000015560208201518160010160006101000a81548173ffffffffffffffffffffffffffffffffffffffff021916908373ffffffffffffffffffffffffffffffffffffffff16021790555060408201518160010160146101000a81548160ff02191690836003811115613b6057613b5f61536c565b5b02179055509050508060096000613b776004614af0565b81526020019081526020016000206000820151816000015560208201518160010160006101000a81548173ffffffffffffffffffffffffffffffffffffffff021916908373ffffffffffffffffffffffffffffffffffffffff16021790555060408201518160020160006101000a81548173ffffffffffffffffffffffffffffffffffffffff021916908373ffffffffffffffffffffffffffffffffffffffff1602179055506060820151816003015560808201518160040155905050600d60003373ffffffffffffffffffffffffffffffffffffffff1673ffffffffffffffffffffffffffffffffffffffff168152602001908152602001600020613c7d6004614af0565b9080600181540180825580915050600190039060005260206000200160009091909190915055601460008573ffffffffffffffffffffffffffffffffffffffff1673ffffffffffffffffffffffffffffffffffffffff168152602001908152602001600020613cec6004614af0565b9080600181540180825580915050600190039060005260206000200160009091909190915055613d678160000151601160003373ffffffffffffffffffffffffffffffffffffffff1673ffffffffffffffffffffffffffffffffffffffff168152602001908152602001600020614ac090919063ffffffff16565b5050505050565b600073ffffffffffffffffffffffffffffffffffffffff168473ffffffffffffffffffffffffffffffffffffffff161480613da95750600083145b80613db45750600082145b80613dbf5750600081145b15613df6576040517f8e277c2c00000000000000000000000000000000000000000000000000000000815260040160405180910390fd5b613e006000614ada565b613e0a6003614ada565b4283613e169190615a72565b925060006040518060600160405280613e2f6000614af0565b81526020013373ffffffffffffffffffffffffffffffffffffffff16815260200160026003811115613e6457613e6361536c565b5b815250905060006040518060e00160405280613e806003614af0565b81526020013373ffffffffffffffffffffffffffffffffffffffff1681526020018773ffffffffffffffffffffffffffffffffffffffff16815260200160086000613ecb6003614af0565b81526020019081526020016000206003015481526020018681526020018581526020018481525090508160056000613f036000614af0565b81526020019081526020016000206000820151816000015560208201518160010160006101000a81548173ffffffffffffffffffffffffffffffffffffffff021916908373ffffffffffffffffffffffffffffffffffffffff16021790555060408201518160010160146101000a81548160ff02191690836003811115613f8d57613f8c61536c565b5b02179055509050508060086000613fa46003614af0565b81526020019081526020016000206000820151816000015560208201518160010160006101000a81548173ffffffffffffffffffffffffffffffffffffffff021916908373ffffffffffffffffffffffffffffffffffffffff16021790555060408201518160020160006101000a81548173ffffffffffffffffffffffffffffffffffffffff021916908373ffffffffffffffffffffffffffffffffffffffff160217905550606082015181600301556080820151816004015560a0820151816005015560c0820151816006015590505084601660006140846003614af0565b815260200190815260200160002081905550600c60003373ffffffffffffffffffffffffffffffffffffffff1673ffffffffffffffffffffffffffffffffffffffff1681526020019081526020016000206140df6003614af0565b9080600181540180825580915050600190039060005260206000200160009091909190915055601360008773ffffffffffffffffffffffffffffffffffffffff1673ffffffffffffffffffffffffffffffffffffffff16815260200190815260200160002061414e6003614af0565b90806001815401808255809150506001900390600052602060002001600090919091909150556141c98160000151601060003373ffffffffffffffffffffffffffffffffffffffff1673ffffffffffffffffffffffffffffffffffffffff168152602001908152602001600020614ac090919063ffffffff16565b50505050505050565b803373ffffffffffffffffffffffffffffffffffffffff166007600083815260200190815260200160002060010160009054906101000a900473ffffffffffffffffffffffffffffffffffffffff1673ffffffffffffffffffffffffffffffffffffffff161461426e576040517f0d9ff29600000000000000000000000000000000000000000000000000000000815260040160405180910390fd5b6018600083815260200190815260200160002060009054906101000a900460ff16156142c6576040517f18fbf5ed00000000000000000000000000000000000000000000000000000000815260040160405180910390fd5b61431782600b60003373ffffffffffffffffffffffffffffffffffffffff1673ffffffffffffffffffffffffffffffffffffffff1681526020019081526020016000206149df90919063ffffffff16565b60016018600084815260200190815260200160002060006101000a81548160ff02191690831515021790555061439482600f60003373ffffffffffffffffffffffffffffffffffffffff1673ffffffffffffffffffffffffffffffffffffffff168152602001908152602001600020614aa690919063ffffffff16565b5060003373ffffffffffffffffffffffffffffffffffffffff16601b6000858152602001908152602001600020546040516143ce90615940565b60006040518083038185875af1925050503d806000811461440b576040519150601f19603f3d011682016040523d82523d6000602084013e614410565b606091505b505090508061444b576040517f75a8758900000000000000000000000000000000000000000000000000000000815260040160405180910390fd5b505050565b600073ffffffffffffffffffffffffffffffffffffffff168473ffffffffffffffffffffffffffffffffffffffff16148061448b5750600083145b806144965750600082145b806144a15750600081145b156144d8576040517f8e277c2c00000000000000000000000000000000000000000000000000000000815260040160405180910390fd5b6144e26000614ada565b6144ec6002614ada565b42836144f89190615a72565b9250600060405180606001604052806145116000614af0565b81526020013373ffffffffffffffffffffffffffffffffffffffff168152602001600160038111156145465761454561536c565b5b815250905060006040518060e001604052806145626002614af0565b81526020013373ffffffffffffffffffffffffffffffffffffffff1681526020018773ffffffffffffffffffffffffffffffffffffffff168152602001600760006145ad6002614af0565b815260200190815260200160002060030154815260200186815260200185815260200184815250905081600560006145e56000614af0565b81526020019081526020016000206000820151816000015560208201518160010160006101000a81548173ffffffffffffffffffffffffffffffffffffffff021916908373ffffffffffffffffffffffffffffffffffffffff16021790555060408201518160010160146101000a81548160ff0219169083600381111561466f5761466e61536c565b5b021790555090505080600760006146866002614af0565b81526020019081526020016000206000820151816000015560208201518160010160006101000a81548173ffffffffffffffffffffffffffffffffffffffff021916908373ffffffffffffffffffffffffffffffffffffffff16021790555060408201518160020160006101000a81548173ffffffffffffffffffffffffffffffffffffffff021916908373ffffffffffffffffffffffffffffffffffffffff160217905550606082015181600301556080820151816004015560a0820151816005015560c0820151816006015590505084601560006147666002614af0565b815260200190815260200160002081905550600b60003373ffffffffffffffffffffffffffffffffffffffff1673ffffffffffffffffffffffffffffffffffffffff1681526020019081526020016000206147c16002614af0565b9080600181540180825580915050600190039060005260206000200160009091909190915055601260008773ffffffffffffffffffffffffffffffffffffffff1673ffffffffffffffffffffffffffffffffffffffff1681526020019081526020016000206148306002614af0565b90806001815401808255809150506001900390600052602060002001600090919091909150556148ab8160000151600f60003373ffffffffffffffffffffffffffffffffffffffff1673ffffffffffffffffffffffffffffffffffffffff168152602001908152602001600020614ac090919063ffffffff16565b50505050505050565b600060096000838152602001908152602001600020600401549050919050565b6148dc614df7565b600860008381526020019081526020016000206040518060e0016040529081600082015481526020016001820160009054906101000a900473ffffffffffffffffffffffffffffffffffffffff1673ffffffffffffffffffffffffffffffffffffffff1673ffffffffffffffffffffffffffffffffffffffff1681526020016002820160009054906101000a900473ffffffffffffffffffffffffffffffffffffffff1673ffffffffffffffffffffffffffffffffffffffff1673ffffffffffffffffffffffffffffffffffffffff1681526020016003820154815260200160048201548152602001600582015481526020016006820154815250509050919050565b60005b8280549050811015614aa15781838281548110614a0257614a016158e0565b5b90600052602060002001541415614a8e578260018480549050614a259190615984565b81548110614a3657614a356158e0565b5b9060005260206000200154838281548110614a5457614a536158e0565b5b906000526020600020018190555082805480614a7357614a72615af1565b5b60019003818190600052602060002001600090559055614aa1565b8080614a9990615b20565b9150506149e2565b505050565b6000614ab8836000018360001b614afe565b905092915050565b6000614ad2836000018360001b614c12565b905092915050565b6001816000016000828254019250508190555050565b600081600001549050919050565b60008083600101600084815260200190815260200160002054905060008114614c06576000600182614b309190615984565b9050600060018660000180549050614b489190615984565b9050818114614bb7576000866000018281548110614b6957614b686158e0565b5b9060005260206000200154905080876000018481548110614b8d57614b8c6158e0565b5b90600052602060002001819055508387600101600083815260200190815260200160002081905550505b85600001805480614bcb57614bca615af1565b5b600190038181906000526020600020016000905590558560010160008681526020019081526020016000206000905560019350505050614c0c565b60009150505b92915050565b6000614c1e8383614c82565b614c77578260000182908060018154018082558091505060019003906000526020600020016000909190919091505582600001805490508360010160008481526020019081526020016000208190555060019050614c7c565b600090505b92915050565b600080836001016000848152602001908152602001600020541415905092915050565b6040518060a0016040528060008152602001600073ffffffffffffffffffffffffffffffffffffffff168152602001600073ffffffffffffffffffffffffffffffffffffffff16815260200160008152602001600081525090565b6040518060e0016040528060008152602001600073ffffffffffffffffffffffffffffffffffffffff168152602001600073ffffffffffffffffffffffffffffffffffffffff168152602001600081526020016000815260200160008152602001600081525090565b6040518060a0016040528060008152602001600073ffffffffffffffffffffffffffffffffffffffff1681526020016000815260200160008152602001600081525090565b604051806060016040528060008152602001600073ffffffffffffffffffffffffffffffffffffffff16815260200160006003811115614df157614df061536c565b5b81525090565b6040518060e0016040528060008152602001600073ffffffffffffffffffffffffffffffffffffffff168152602001600073ffffffffffffffffffffffffffffffffffffffff168152602001600081526020016000815260200160008152602001600081525090565b600081519050919050565b600082825260208201905092915050565b6000819050602082019050919050565b6000819050919050565b614e9f81614e8c565b82525050565b600073ffffffffffffffffffffffffffffffffffffffff82169050919050565b6000614ed082614ea5565b9050919050565b614ee081614ec5565b82525050565b60a082016000820151614efc6000850182614e96565b506020820151614f0f6020850182614ed7565b506040820151614f226040850182614ed7565b506060820151614f356060850182614e96565b506080820151614f486080850182614e96565b50505050565b6000614f5a8383614ee6565b60a08301905092915050565b6000602082019050919050565b6000614f7e82614e60565b614f888185614e6b565b9350614f9383614e7c565b8060005b83811015614fc4578151614fab8882614f4e565b9750614fb683614f66565b925050600181019050614f97565b5085935050505092915050565b60006020820190508181036000830152614feb8184614f73565b905092915050565b600080fd5b61500181614e8c565b811461500c57600080fd5b50565b60008135905061501e81614ff8565b92915050565b60006020828403121561503a57615039614ff3565b5b60006150488482850161500f565b91505092915050565b600081519050919050565b600082825260208201905092915050565b6000819050602082019050919050565b60e0820160008201516150936000850182614e96565b5060208201516150a66020850182614ed7565b5060408201516150b96040850182614ed7565b5060608201516150cc6060850182614e96565b5060808201516150df6080850182614e96565b5060a08201516150f260a0850182614e96565b5060c082015161510560c0850182614e96565b50505050565b6000615117838361507d565b60e08301905092915050565b6000602082019050919050565b600061513b82615051565b615145818561505c565b93506151508361506d565b8060005b83811015615181578151615168888261510b565b975061517383615123565b925050600181019050615154565b5085935050505092915050565b600060208201905081810360008301526151a88184615130565b905092915050565b60a0820160008201516151c66000850182614e96565b5060208201516151d96020850182614ed7565b5060408201516151ec6040850182614e96565b5060608201516151ff6060850182614e96565b5060808201516152126080850182614e96565b50505050565b600060a08201905061522d60008301846151b0565b92915050565b600081519050919050565b600082825260208201905092915050565b6000819050602082019050919050565b60a0820160008201516152756000850182614e96565b5060208201516152886020850182614ed7565b50604082015161529b6040850182614e96565b5060608201516152ae6060850182614e96565b5060808201516152c16080850182614e96565b50505050565b60006152d3838361525f565b60a08301905092915050565b6000602082019050919050565b60006152f782615233565b615301818561523e565b935061530c8361524f565b8060005b8381101561533d57815161532488826152c7565b975061532f836152df565b925050600181019050615310565b5085935050505092915050565b6000602082019050818103600083015261536481846152ec565b905092915050565b7f4e487b7100000000000000000000000000000000000000000000000000000000600052602160045260246000fd5b600481106153ac576153ab61536c565b5b50565b60008190506153bd8261539b565b919050565b60006153cd826153af565b9050919050565b6153dd816153c2565b82525050565b6060820160008201516153f96000850182614e96565b50602082015161540c6020850182614ed7565b50604082015161541f60408501826153d4565b50505050565b600060608201905061543a60008301846153e3565b92915050565b6000806040838503121561545757615456614ff3565b5b60006154658582860161500f565b92505060206154768582860161500f565b9150509250929050565b61548981614e8c565b82525050565b60006020820190506154a46000830184615480565b92915050565b600081519050919050565b600082825260208201905092915050565b6000819050602082019050919050565b60e0820160008201516154ec6000850182614e96565b5060208201516154ff6020850182614ed7565b5060408201516155126040850182614ed7565b5060608201516155256060850182614e96565b5060808201516155386080850182614e96565b5060a082015161554b60a0850182614e96565b5060c082015161555e60c0850182614e96565b50505050565b600061557083836154d6565b60e08301905092915050565b6000602082019050919050565b6000615594826154aa565b61559e81856154b5565b93506155a9836154c6565b8060005b838110156155da5781516155c18882615564565b97506155cc8361557c565b9250506001810190506155ad565b5085935050505092915050565b600060208201905081810360008301526156018184615589565b905092915050565b60a08201600082015161561f6000850182614e96565b5060208201516156326020850182614ed7565b5060408201516156456040850182614ed7565b5060608201516156586060850182614e96565b50608082015161566b6080850182614e96565b50505050565b600060a0820190506156866000830184615609565b92915050565b60e0820160008201516156a26000850182614e96565b5060208201516156b56020850182614ed7565b5060408201516156c86040850182614ed7565b5060608201516156db6060850182614e96565b5060808201516156ee6080850182614e96565b5060a082015161570160a0850182614e96565b5060c082015161571460c0850182614e96565b50505050565b600060e08201905061572f600083018461568c565b92915050565b61573e81614ec5565b811461574957600080fd5b50565b60008135905061575b81615735565b92915050565b6000806040838503121561577857615777614ff3565b5b60006157868582860161574c565b92505060206157978582860161500f565b9150509250929050565b600080600080608085870312156157bb576157ba614ff3565b5b60006157c98782880161574c565b94505060206157da8782880161500f565b93505060406157eb8782880161500f565b92505060606157fc8782880161500f565b91505092959194509250565b60e08201600082015161581e6000850182614e96565b5060208201516158316020850182614ed7565b5060408201516158446040850182614ed7565b5060608201516158576060850182614e96565b50608082015161586a6080850182614e96565b5060a082015161587d60a0850182614e96565b5060c082015161589060c0850182614e96565b50505050565b600060e0820190506158ab6000830184615808565b92915050565b7f4e487b7100000000000000000000000000000000000000000000000000000000600052604160045260246000fd5b7f4e487b7100000000000000000000000000000000000000000000000000000000600052603260045260246000fd5b600081905092915050565b50565b600061592a60008361590f565b91506159358261591a565b600082019050919050565b600061594b8261591d565b9150819050919050565b7f4e487b7100000000000000000000000000000000000000000000000000000000600052601160045260246000fd5b600061598f82614e8c565b915061599a83614e8c565b9250828210156159ad576159ac615955565b5b828203905092915050565b7f4e487b7100000000000000000000000000000000000000000000000000000000600052601260045260246000fd5b60006159f282614e8c565b91506159fd83614e8c565b925082615a0d57615a0c6159b8565b5b828204905092915050565b6000615a2382614e8c565b9150615a2e83614e8c565b9250817fffffffffffffffffffffffffffffffffffffffffffffffffffffffffffffffff0483118215151615615a6757615a66615955565b5b828202905092915050565b6000615a7d82614e8c565b9150615a8883614e8c565b9250827fffffffffffffffffffffffffffffffffffffffffffffffffffffffffffffffff03821115615abd57615abc615955565b5b828201905092915050565b6000604082019050615add6000830185615480565b615aea6020830184615480565b9392505050565b7f4e487b7100000000000000000000000000000000000000000000000000000000600052603160045260246000fd5b6000615b2b82614e8c565b91507fffffffffffffffffffffffffffffffffffffffffffffffffffffffffffffffff821415615b5e57615b5d615955565b5b60018201905091905056fea2646970667358221220c9672aa496623d5320cfa63a40f5479f073b13536b3f051c60f8629e8b288cff64736f6c63430008090033",
  "linkReferences": {},
  "deployedLinkReferences": {}
}