{
  "_format": "hh-sol-artifact-1",
  "contractName": "Atium",
  "sourceName": "contracts/Atium.sol",
  "abi": [
    {
      "inputs": [],
      "name": "Atium_Cancelled",
      "type": "error"
    },
    {
      "inputs": [],
      "name": "Atium_NotOwnerId",
      "type": "error"
    },
    {
      "inputs": [
        {
          "internalType": "uint256",
          "name": "goal",
          "type": "uint256"
        },
        {
          "internalType": "uint256",
          "name": "rem",
          "type": "uint256"
        }
      ],
      "name": "Atium_SavingsGoal_Exceeded",
      "type": "error"
    },
    {
      "inputs": [],
      "name": "Atium_SavingsGoal_Not_Hit",
      "type": "error"
    },
    {
      "inputs": [],
      "name": "Atium_TransactionFailed",
      "type": "error"
    },
    {
      "inputs": [],
      "name": "Atium_ZeroInput",
      "type": "error"
    },
    {
      "inputs": [
        {
          "internalType": "uint256",
          "name": "_id",
          "type": "uint256"
        }
      ],
      "name": "allowance",
      "outputs": [],
      "stateMutability": "payable",
      "type": "function"
    },
    {
      "inputs": [
        {
          "internalType": "address",
          "name": "_receiver",
          "type": "address"
        },
        {
          "internalType": "uint256",
          "name": "_startDate",
          "type": "uint256"
        },
        {
          "internalType": "uint256",
          "name": "_amount",
          "type": "uint256"
        },
        {
          "internalType": "uint256",
          "name": "_interval",
          "type": "uint256"
        }
      ],
      "name": "allowancePlan",
      "outputs": [],
      "stateMutability": "nonpayable",
      "type": "function"
    },
    {
      "inputs": [],
      "name": "allowanceWithdraw",
      "outputs": [],
      "stateMutability": "nonpayable",
      "type": "function"
    },
    {
      "inputs": [
        {
          "internalType": "uint256",
          "name": "_id",
          "type": "uint256"
        }
      ],
      "name": "cancelAllowance",
      "outputs": [],
      "stateMutability": "nonpayable",
      "type": "function"
    },
    {
      "inputs": [
        {
          "internalType": "uint256",
          "name": "_id",
          "type": "uint256"
        }
      ],
      "name": "cancelGift",
      "outputs": [],
      "stateMutability": "nonpayable",
      "type": "function"
    },
    {
      "inputs": [
        {
          "internalType": "uint256",
          "name": "_id",
          "type": "uint256"
        }
      ],
      "name": "cancelSavings",
      "outputs": [],
      "stateMutability": "nonpayable",
      "type": "function"
    },
    {
      "inputs": [
        {
          "internalType": "uint256",
          "name": "_id",
          "type": "uint256"
        }
      ],
      "name": "cancelTrustfund",
      "outputs": [],
      "stateMutability": "nonpayable",
      "type": "function"
    },
    {
      "inputs": [
        {
          "internalType": "address",
          "name": "_user",
          "type": "address"
        }
      ],
      "name": "getAllActiveAllowance",
      "outputs": [
        {
          "components": [
            {
              "internalType": "uint256",
              "name": "id",
              "type": "uint256"
            },
            {
              "internalType": "address",
              "name": "sender",
              "type": "address"
            },
            {
              "internalType": "address",
              "name": "receiver",
              "type": "address"
            },
            {
              "internalType": "uint256",
              "name": "deposit",
              "type": "uint256"
            },
            {
              "internalType": "uint256",
              "name": "startDate",
              "type": "uint256"
            },
            {
              "internalType": "uint256",
              "name": "withdrawalAmount",
              "type": "uint256"
            },
            {
              "internalType": "uint256",
              "name": "withdrawalInterval",
              "type": "uint256"
            }
          ],
          "internalType": "struct AtiumPlan.AllowanceList[]",
          "name": "",
          "type": "tuple[]"
        }
      ],
      "stateMutability": "view",
      "type": "function"
    },
    {
      "inputs": [
        {
          "internalType": "address",
          "name": "_user",
          "type": "address"
        }
      ],
      "name": "getAllActiveGift",
      "outputs": [
        {
          "components": [
            {
              "internalType": "uint256",
              "name": "id",
              "type": "uint256"
            },
            {
              "internalType": "address",
              "name": "sender",
              "type": "address"
            },
            {
              "internalType": "address",
              "name": "receiver",
              "type": "address"
            },
            {
              "internalType": "uint256",
              "name": "date",
              "type": "uint256"
            },
            {
              "internalType": "uint256",
              "name": "amount",
              "type": "uint256"
            }
          ],
          "internalType": "struct AtiumPlan.GiftList[]",
          "name": "",
          "type": "tuple[]"
        }
      ],
      "stateMutability": "view",
      "type": "function"
    },
    {
      "inputs": [
        {
          "internalType": "address",
          "name": "_user",
          "type": "address"
        }
      ],
      "name": "getAllActiveSavings",
      "outputs": [
        {
          "components": [
            {
              "internalType": "uint256",
              "name": "id",
              "type": "uint256"
            },
            {
              "internalType": "address",
              "name": "user",
              "type": "address"
            },
            {
              "internalType": "uint256",
              "name": "amount",
              "type": "uint256"
            },
            {
              "internalType": "uint256",
              "name": "goal",
              "type": "uint256"
            },
            {
              "internalType": "uint256",
              "name": "time",
              "type": "uint256"
            }
          ],
          "internalType": "struct AtiumPlan.SavingsList[]",
          "name": "",
          "type": "tuple[]"
        }
      ],
      "stateMutability": "view",
      "type": "function"
    },
    {
      "inputs": [
        {
          "internalType": "address",
          "name": "_user",
          "type": "address"
        }
      ],
      "name": "getAllActiveTrustfund",
      "outputs": [
        {
          "components": [
            {
              "internalType": "uint256",
              "name": "id",
              "type": "uint256"
            },
            {
              "internalType": "address",
              "name": "sender",
              "type": "address"
            },
            {
              "internalType": "address",
              "name": "receiver",
              "type": "address"
            },
            {
              "internalType": "uint256",
              "name": "amount",
              "type": "uint256"
            },
            {
              "internalType": "uint256",
              "name": "startDate",
              "type": "uint256"
            },
            {
              "internalType": "uint256",
              "name": "withdrawalAmount",
              "type": "uint256"
            },
            {
              "internalType": "uint256",
              "name": "withdrawalInterval",
              "type": "uint256"
            }
          ],
          "internalType": "struct AtiumPlan.TrustFundList[]",
          "name": "",
          "type": "tuple[]"
        }
      ],
      "stateMutability": "view",
      "type": "function"
    },
    {
      "inputs": [
        {
          "internalType": "uint256",
          "name": "_id",
          "type": "uint256"
        }
      ],
      "name": "getAllowance",
      "outputs": [
        {
          "components": [
            {
              "internalType": "uint256",
              "name": "id",
              "type": "uint256"
            },
            {
              "internalType": "address",
              "name": "sender",
              "type": "address"
            },
            {
              "internalType": "address",
              "name": "receiver",
              "type": "address"
            },
            {
              "internalType": "uint256",
              "name": "deposit",
              "type": "uint256"
            },
            {
              "internalType": "uint256",
              "name": "startDate",
              "type": "uint256"
            },
            {
              "internalType": "uint256",
              "name": "withdrawalAmount",
              "type": "uint256"
            },
            {
              "internalType": "uint256",
              "name": "withdrawalInterval",
              "type": "uint256"
            }
          ],
          "internalType": "struct AtiumPlan.AllowanceList",
          "name": "",
          "type": "tuple"
        }
      ],
      "stateMutability": "view",
      "type": "function"
    },
    {
      "inputs": [
        {
          "internalType": "uint256",
          "name": "_id",
          "type": "uint256"
        }
      ],
      "name": "getAllowanceBalance",
      "outputs": [
        {
          "internalType": "uint256",
          "name": "",
          "type": "uint256"
        }
      ],
      "stateMutability": "view",
      "type": "function"
    },
    {
      "inputs": [
        {
          "internalType": "uint256",
          "name": "_id",
          "type": "uint256"
        }
      ],
      "name": "getAtium",
      "outputs": [
        {
          "components": [
            {
              "internalType": "uint256",
              "name": "id",
              "type": "uint256"
            },
            {
              "internalType": "address",
              "name": "user",
              "type": "address"
            },
            {
              "internalType": "enum AtiumPlan.Select",
              "name": "select",
              "type": "uint8"
            }
          ],
          "internalType": "struct AtiumPlan.AtiumList",
          "name": "",
          "type": "tuple"
        }
      ],
      "stateMutability": "view",
      "type": "function"
    },
    {
      "inputs": [
        {
          "internalType": "uint256",
          "name": "_id",
          "type": "uint256"
        }
      ],
      "name": "getGift",
      "outputs": [
        {
          "components": [
            {
              "internalType": "uint256",
              "name": "id",
              "type": "uint256"
            },
            {
              "internalType": "address",
              "name": "sender",
              "type": "address"
            },
            {
              "internalType": "address",
              "name": "receiver",
              "type": "address"
            },
            {
              "internalType": "uint256",
              "name": "date",
              "type": "uint256"
            },
            {
              "internalType": "uint256",
              "name": "amount",
              "type": "uint256"
            }
          ],
          "internalType": "struct AtiumPlan.GiftList",
          "name": "",
          "type": "tuple"
        }
      ],
      "stateMutability": "view",
      "type": "function"
    },
    {
      "inputs": [
        {
          "internalType": "uint256",
          "name": "_id",
          "type": "uint256"
        }
      ],
      "name": "getGiftBalance",
      "outputs": [
        {
          "internalType": "uint256",
          "name": "",
          "type": "uint256"
        }
      ],
      "stateMutability": "view",
      "type": "function"
    },
    {
      "inputs": [
        {
          "internalType": "uint256",
          "name": "_id",
          "type": "uint256"
        }
      ],
      "name": "getSavings",
      "outputs": [
        {
          "components": [
            {
              "internalType": "uint256",
              "name": "id",
              "type": "uint256"
            },
            {
              "internalType": "address",
              "name": "user",
              "type": "address"
            },
            {
              "internalType": "uint256",
              "name": "amount",
              "type": "uint256"
            },
            {
              "internalType": "uint256",
              "name": "goal",
              "type": "uint256"
            },
            {
              "internalType": "uint256",
              "name": "time",
              "type": "uint256"
            }
          ],
          "internalType": "struct AtiumPlan.SavingsList",
          "name": "",
          "type": "tuple"
        }
      ],
      "stateMutability": "view",
      "type": "function"
    },
    {
      "inputs": [
        {
          "internalType": "uint256",
          "name": "_id",
          "type": "uint256"
        }
      ],
      "name": "getSavingsBalance",
      "outputs": [
        {
          "internalType": "uint256",
          "name": "",
          "type": "uint256"
        }
      ],
      "stateMutability": "view",
      "type": "function"
    },
    {
      "inputs": [
        {
          "internalType": "uint256",
          "name": "_id",
          "type": "uint256"
        }
      ],
      "name": "getTrustfund",
      "outputs": [
        {
          "components": [
            {
              "internalType": "uint256",
              "name": "id",
              "type": "uint256"
            },
            {
              "internalType": "address",
              "name": "sender",
              "type": "address"
            },
            {
              "internalType": "address",
              "name": "receiver",
              "type": "address"
            },
            {
              "internalType": "uint256",
              "name": "amount",
              "type": "uint256"
            },
            {
              "internalType": "uint256",
              "name": "startDate",
              "type": "uint256"
            },
            {
              "internalType": "uint256",
              "name": "withdrawalAmount",
              "type": "uint256"
            },
            {
              "internalType": "uint256",
              "name": "withdrawalInterval",
              "type": "uint256"
            }
          ],
          "internalType": "struct AtiumPlan.TrustFundList",
          "name": "",
          "type": "tuple"
        }
      ],
      "stateMutability": "view",
      "type": "function"
    },
    {
      "inputs": [
        {
          "internalType": "uint256",
          "name": "_id",
          "type": "uint256"
        }
      ],
      "name": "getTrustfundBalance",
      "outputs": [
        {
          "internalType": "uint256",
          "name": "",
          "type": "uint256"
        }
      ],
      "stateMutability": "view",
      "type": "function"
    },
    {
      "inputs": [
        {
          "internalType": "uint256",
          "name": "_id",
          "type": "uint256"
        }
      ],
      "name": "gift",
      "outputs": [],
      "stateMutability": "payable",
      "type": "function"
    },
    {
      "inputs": [
        {
          "internalType": "address",
          "name": "_receiver",
          "type": "address"
        },
        {
          "internalType": "uint256",
          "name": "_date",
          "type": "uint256"
        }
      ],
      "name": "giftPlan",
      "outputs": [],
      "stateMutability": "nonpayable",
      "type": "function"
    },
    {
      "inputs": [],
      "name": "giftWithdraw",
      "outputs": [],
      "stateMutability": "nonpayable",
      "type": "function"
    },
    {
      "inputs": [
        {
          "internalType": "uint256",
          "name": "_id",
          "type": "uint256"
        }
      ],
      "name": "save",
      "outputs": [],
      "stateMutability": "payable",
      "type": "function"
    },
    {
      "inputs": [
        {
          "internalType": "uint256",
          "name": "_goal",
          "type": "uint256"
        }
      ],
      "name": "savingsPlanGoal",
      "outputs": [],
      "stateMutability": "nonpayable",
      "type": "function"
    },
    {
      "inputs": [
        {
          "internalType": "uint256",
          "name": "_time",
          "type": "uint256"
        }
      ],
      "name": "savingsPlanTime",
      "outputs": [],
      "stateMutability": "nonpayable",
      "type": "function"
    },
    {
      "inputs": [
        {
          "internalType": "uint256",
          "name": "_id",
          "type": "uint256"
        }
      ],
      "name": "trustfund",
      "outputs": [],
      "stateMutability": "payable",
      "type": "function"
    },
    {
      "inputs": [
        {
          "internalType": "address",
          "name": "_receiver",
          "type": "address"
        },
        {
          "internalType": "uint256",
          "name": "_startDate",
          "type": "uint256"
        },
        {
          "internalType": "uint256",
          "name": "_amount",
          "type": "uint256"
        },
        {
          "internalType": "uint256",
          "name": "_interval",
          "type": "uint256"
        }
      ],
      "name": "trustfundPlan",
      "outputs": [],
      "stateMutability": "nonpayable",
      "type": "function"
    },
    {
      "inputs": [],
      "name": "trustfundWithdraw",
      "outputs": [],
      "stateMutability": "nonpayable",
      "type": "function"
    },
    {
      "inputs": [
        {
          "internalType": "uint256",
          "name": "_id",
          "type": "uint256"
        }
      ],
      "name": "w_save",
      "outputs": [],
      "stateMutability": "nonpayable",
      "type": "function"
    },
    {
      "stateMutability": "payable",
      "type": "receive"
    }
  ],
  "bytecode": "0x608060405234801561001057600080fd5b5061511c806100206000396000f3fe6080604052600436106101d15760003560e01c8063abf982b7116100f7578063cf6e282711610095578063e4d9fff811610064578063e4d9fff814610679578063ed5579fc146106a2578063f7b05eea146106cb578063fa278ae614610708576101d8565b8063cf6e2827146105d3578063d14fb6db14610610578063d4096aa114610639578063d67d10dc14610650576101d8565b8063b298247e116100d1578063b298247e14610514578063bf6713f614610530578063c315d6351461056d578063c960174e14610596576101d8565b8063abf982b7146104a6578063aca9d54c146104c2578063ad31cc9f146104eb576101d8565b8063517e4b671161016f57806384c8d4901161013e57806384c8d490146103da5780638ee69ae8146104175780639378d65a1461044057806393ea685b14610469576101d8565b8063517e4b671461030c57806367b452141461032357806381acffe8146103605780638207d0f91461039d576101d8565b80631b862027116101ab5780631b862027146102805780632e43d7dc1461029c57806339d502fd146102b85780633e346eeb146102cf576101d8565b80631072354b146101dd57806313bfb1821461020657806316aa223414610243576101d8565b366101d857005b600080fd5b3480156101e957600080fd5b5061020460048036038101906101ff919061442b565b610745565b005b34801561021257600080fd5b5061022d6004803603810190610228919061442b565b610971565b60405161023a9190614510565b60405180910390f35b34801561024f57600080fd5b5061026a60048036038101906102659190614557565b610a1c565b60405161027791906146c1565b60405180910390f35b61029a6004803603810190610295919061442b565b610c64565b005b6102b660048036038101906102b1919061442b565b610ee6565b005b3480156102c457600080fd5b506102cd6110f5565b005b3480156102db57600080fd5b506102f660048036038101906102f1919061442b565b611149565b604051610303919061479c565b60405180910390f35b34801561031857600080fd5b50610321611211565b005b34801561032f57600080fd5b5061034a6004803603810190610345919061442b565b61127f565b60405161035791906147c6565b60405180910390f35b34801561036c57600080fd5b506103876004803603810190610382919061442b565b61129f565b60405161039491906147c6565b60405180910390f35b3480156103a957600080fd5b506103c460048036038101906103bf919061442b565b6112bc565b6040516103d191906147c6565b60405180910390f35b3480156103e657600080fd5b5061040160048036038101906103fc9190614557565b6112d9565b60405161040e91906148f8565b60405180910390f35b34801561042357600080fd5b5061043e6004803603810190610439919061442b565b61150d565b005b34801561044c57600080fd5b506104676004803603810190610462919061442b565b61173c565b005b34801561047557600080fd5b50610490600480360381019061048b9190614557565b61196b565b60405161049d9190614a57565b60405180910390f35b6104c060048036038101906104bb919061442b565b611bb3565b005b3480156104ce57600080fd5b506104e960048036038101906104e4919061442b565b611dc2565b005b3480156104f757600080fd5b50610512600480360381019061050d919061442b565b612046565b005b61052e6004803603810190610529919061442b565b6122f4565b005b34801561053c57600080fd5b506105576004803603810190610552919061442b565b6124ab565b6040516105649190614ae1565b60405180910390f35b34801561057957600080fd5b50610594600480360381019061058f919061442b565b6125a2565b005b3480156105a257600080fd5b506105bd60048036038101906105b8919061442b565b612850565b6040516105ca9190614b8a565b60405180910390f35b3480156105df57600080fd5b506105fa60048036038101906105f59190614557565b61295b565b6040516106079190614cbc565b60405180910390f35b34801561061c57600080fd5b5061063760048036038101906106329190614cde565b612b43565b005b34801561064557600080fd5b5061064e612ee9565b005b34801561065c57600080fd5b5061067760048036038101906106729190614d1e565b612f57565b005b34801561068557600080fd5b506106a0600480360381019061069b919061442b565b613357565b005b3480156106ae57600080fd5b506106c960048036038101906106c49190614d1e565b613583565b005b3480156106d757600080fd5b506106f260048036038101906106ed919061442b565b613983565b6040516106ff91906147c6565b60405180910390f35b34801561071457600080fd5b5061072f600480360381019061072a919061442b565b6139a3565b60405161073c9190614e13565b60405180910390f35b803373ffffffffffffffffffffffffffffffffffffffff166008600083815260200190815260200160002060010160009054906101000a900473ffffffffffffffffffffffffffffffffffffffff1673ffffffffffffffffffffffffffffffffffffffff16146107e1576040517f0d9ff29600000000000000000000000000000000000000000000000000000000815260040160405180910390fd5b6015600083815260200190815260200160002060009054906101000a900460ff1615610839576040517f18fbf5ed00000000000000000000000000000000000000000000000000000000815260040160405180910390fd5b61088a82600c60003373ffffffffffffffffffffffffffffffffffffffff1673ffffffffffffffffffffffffffffffffffffffff168152602001908152602001600020613aae90919063ffffffff16565b60016015600084815260200190815260200160002060006101000a81548160ff02191690831515021790555060003373ffffffffffffffffffffffffffffffffffffffff1660186000858152602001908152602001600020546040516108ef90614e5f565b60006040518083038185875af1925050503d806000811461092c576040519150601f19603f3d011682016040523d82523d6000602084013e610931565b606091505b505090508061096c576040517f75a8758900000000000000000000000000000000000000000000000000000000815260040160405180910390fd5b505050565b610979614235565b600660008381526020019081526020016000206040518060a0016040529081600082015481526020016001820160009054906101000a900473ffffffffffffffffffffffffffffffffffffffff1673ffffffffffffffffffffffffffffffffffffffff1673ffffffffffffffffffffffffffffffffffffffff16815260200160028201548152602001600382015481526020016004820154815250509050919050565b60606000600b60008473ffffffffffffffffffffffffffffffffffffffff1673ffffffffffffffffffffffffffffffffffffffff168152602001908152602001600020805480602002602001604051908101604052809291908181526020018280548015610aa957602002820191906000526020600020905b815481526020019060010190808311610a95575b5050505050905060008151905060008167ffffffffffffffff811115610ad257610ad1614e74565b5b604051908082528060200260200182016040528015610b0b57816020015b610af861427a565b815260200190600190039081610af05790505b50905060005b82811015610c585760076000858381518110610b3057610b2f614ea3565b5b602002602001015181526020019081526020016000206040518060e0016040529081600082015481526020016001820160009054906101000a900473ffffffffffffffffffffffffffffffffffffffff1673ffffffffffffffffffffffffffffffffffffffff1673ffffffffffffffffffffffffffffffffffffffff1681526020016002820160009054906101000a900473ffffffffffffffffffffffffffffffffffffffff1673ffffffffffffffffffffffffffffffffffffffff1673ffffffffffffffffffffffffffffffffffffffff168152602001600382015481526020016004820154815260200160058201548152602001600682015481525050828281518110610c4257610c41614ea3565b5b6020026020010181905250806001019050610b11565b50809350505050919050565b803373ffffffffffffffffffffffffffffffffffffffff166006600083815260200190815260200160002060010160009054906101000a900473ffffffffffffffffffffffffffffffffffffffff1673ffffffffffffffffffffffffffffffffffffffff1614610d00576040517f0d9ff29600000000000000000000000000000000000000000000000000000000815260040160405180910390fd5b6000821480610d0f5750600034145b15610d46576040517f8e277c2c00000000000000000000000000000000000000000000000000000000815260040160405180910390fd5b6006600083815260200190815260200160002060030154600660008481526020019081526020016000206002015434610d7f9190614f01565b1115610e1157600660008381526020019081526020016000206003015460066000848152602001908152602001600020600201546006600085815260200190815260200160002060030154610dd49190614f57565b6040517ff6f09cc8000000000000000000000000000000000000000000000000000000008152600401610e08929190614f8b565b60405180910390fd5b34600660008481526020019081526020016000206002016000828254610e379190614f01565b9250508190555060003073ffffffffffffffffffffffffffffffffffffffff1634604051610e6490614e5f565b60006040518083038185875af1925050503d8060008114610ea1576040519150601f19603f3d011682016040523d82523d6000602084013e610ea6565b606091505b5050905080610ee1576040517f75a8758900000000000000000000000000000000000000000000000000000000815260040160405180910390fd5b505050565b803373ffffffffffffffffffffffffffffffffffffffff166007600083815260200190815260200160002060010160009054906101000a900473ffffffffffffffffffffffffffffffffffffffff1673ffffffffffffffffffffffffffffffffffffffff1614610f82576040517f0d9ff29600000000000000000000000000000000000000000000000000000000815260040160405180910390fd5b6000821480610f915750600034145b15610fc8576040517f8e277c2c00000000000000000000000000000000000000000000000000000000815260040160405180910390fd5b600760008381526020019081526020016000206004015460116000848152602001908152602001600020819055503460076000848152602001908152602001600020600301600082825461101c9190614f01565b92505081905550346017600084815260200190815260200160002060008282546110469190614f01565b9250508190555060003073ffffffffffffffffffffffffffffffffffffffff163460405161107390614e5f565b60006040518083038185875af1925050503d80600081146110b0576040519150601f19603f3d011682016040523d82523d6000602084013e6110b5565b606091505b50509050806110f0576040517f75a8758900000000000000000000000000000000000000000000000000000000815260040160405180910390fd5b505050565b6000600190505b6111066004613b75565b811161114657600960008281526020019081526020016000206003015442106111335761113281613b83565b5b808061113e90614fb4565b9150506110fc565b50565b6111516142e3565b60056000838152602001908152602001600020604051806060016040529081600082015481526020016001820160009054906101000a900473ffffffffffffffffffffffffffffffffffffffff1673ffffffffffffffffffffffffffffffffffffffff1673ffffffffffffffffffffffffffffffffffffffff1681526020016001820160149054906101000a900460ff1660038111156111f4576111f36146e3565b5b6003811115611206576112056146e3565b5b815250509050919050565b6000600190505b6112226002613b75565b811161127c5760006017600083815260200190815260200160002054111561126957601160008281526020019081526020016000205442106112685761126781613d29565b5b5b808061127490614fb4565b915050611218565b50565b600060066000838152602001908152602001600020600201549050919050565b600060176000838152602001908152602001600020549050919050565b600060186000838152602001908152602001600020549050919050565b60606000600d60008473ffffffffffffffffffffffffffffffffffffffff1673ffffffffffffffffffffffffffffffffffffffff16815260200190815260200160002080548060200260200160405190810160405280929190818152602001828054801561136657602002820191906000526020600020905b815481526020019060010190808311611352575b5050505050905060008151905060008167ffffffffffffffff81111561138f5761138e614e74565b5b6040519080825280602002602001820160405280156113c857816020015b6113b561432c565b8152602001906001900390816113ad5790505b50905060005b8281101561150157600960008583815181106113ed576113ec614ea3565b5b602002602001015181526020019081526020016000206040518060a0016040529081600082015481526020016001820160009054906101000a900473ffffffffffffffffffffffffffffffffffffffff1673ffffffffffffffffffffffffffffffffffffffff1673ffffffffffffffffffffffffffffffffffffffff1681526020016002820160009054906101000a900473ffffffffffffffffffffffffffffffffffffffff1673ffffffffffffffffffffffffffffffffffffffff1673ffffffffffffffffffffffffffffffffffffffff168152602001600382015481526020016004820154815250508282815181106114eb576114ea614ea3565b5b60200260200101819052508060010190506113ce565b50809350505050919050565b803373ffffffffffffffffffffffffffffffffffffffff166009600083815260200190815260200160002060010160009054906101000a900473ffffffffffffffffffffffffffffffffffffffff1673ffffffffffffffffffffffffffffffffffffffff16146115a9576040517f0d9ff29600000000000000000000000000000000000000000000000000000000815260040160405180910390fd5b6016600083815260200190815260200160002060009054906101000a900460ff1615611601576040517f18fbf5ed00000000000000000000000000000000000000000000000000000000815260040160405180910390fd5b61165282600d60003373ffffffffffffffffffffffffffffffffffffffff1673ffffffffffffffffffffffffffffffffffffffff168152602001908152602001600020613aae90919063ffffffff16565b60016016600084815260200190815260200160002060006101000a81548160ff02191690831515021790555060003373ffffffffffffffffffffffffffffffffffffffff1660096000858152602001908152602001600020600401546040516116ba90614e5f565b60006040518083038185875af1925050503d80600081146116f7576040519150601f19603f3d011682016040523d82523d6000602084013e6116fc565b606091505b5050905080611737576040517f75a8758900000000000000000000000000000000000000000000000000000000815260040160405180910390fd5b505050565b803373ffffffffffffffffffffffffffffffffffffffff166006600083815260200190815260200160002060010160009054906101000a900473ffffffffffffffffffffffffffffffffffffffff1673ffffffffffffffffffffffffffffffffffffffff16146117d8576040517f0d9ff29600000000000000000000000000000000000000000000000000000000815260040160405180910390fd5b6013600083815260200190815260200160002060009054906101000a900460ff1615611830576040517f18fbf5ed00000000000000000000000000000000000000000000000000000000815260040160405180910390fd5b61188182600a60003373ffffffffffffffffffffffffffffffffffffffff1673ffffffffffffffffffffffffffffffffffffffff168152602001908152602001600020613aae90919063ffffffff16565b60016013600084815260200190815260200160002060006101000a81548160ff02191690831515021790555060003373ffffffffffffffffffffffffffffffffffffffff1660066000858152602001908152602001600020600201546040516118e990614e5f565b60006040518083038185875af1925050503d8060008114611926576040519150601f19603f3d011682016040523d82523d6000602084013e61192b565b606091505b5050905080611966576040517f75a8758900000000000000000000000000000000000000000000000000000000815260040160405180910390fd5b505050565b60606000600c60008473ffffffffffffffffffffffffffffffffffffffff1673ffffffffffffffffffffffffffffffffffffffff1681526020019081526020016000208054806020026020016040519081016040528092919081815260200182805480156119f857602002820191906000526020600020905b8154815260200190600101908083116119e4575b5050505050905060008151905060008167ffffffffffffffff811115611a2157611a20614e74565b5b604051908082528060200260200182016040528015611a5a57816020015b611a47614387565b815260200190600190039081611a3f5790505b50905060005b82811015611ba75760086000858381518110611a7f57611a7e614ea3565b5b602002602001015181526020019081526020016000206040518060e0016040529081600082015481526020016001820160009054906101000a900473ffffffffffffffffffffffffffffffffffffffff1673ffffffffffffffffffffffffffffffffffffffff1673ffffffffffffffffffffffffffffffffffffffff1681526020016002820160009054906101000a900473ffffffffffffffffffffffffffffffffffffffff1673ffffffffffffffffffffffffffffffffffffffff1673ffffffffffffffffffffffffffffffffffffffff168152602001600382015481526020016004820154815260200160058201548152602001600682015481525050828281518110611b9157611b90614ea3565b5b6020026020010181905250806001019050611a60565b50809350505050919050565b803373ffffffffffffffffffffffffffffffffffffffff166008600083815260200190815260200160002060010160009054906101000a900473ffffffffffffffffffffffffffffffffffffffff1673ffffffffffffffffffffffffffffffffffffffff1614611c4f576040517f0d9ff29600000000000000000000000000000000000000000000000000000000815260040160405180910390fd5b6000821480611c5e5750600034145b15611c95576040517f8e277c2c00000000000000000000000000000000000000000000000000000000815260040160405180910390fd5b6008600083815260200190815260200160002060040154601260008481526020019081526020016000208190555034600860008481526020019081526020016000206003016000828254611ce99190614f01565b9250508190555034601860008481526020019081526020016000206000828254611d139190614f01565b9250508190555060003073ffffffffffffffffffffffffffffffffffffffff1634604051611d4090614e5f565b60006040518083038185875af1925050503d8060008114611d7d576040519150601f19603f3d011682016040523d82523d6000602084013e611d82565b606091505b5050905080611dbd576040517f75a8758900000000000000000000000000000000000000000000000000000000815260040160405180910390fd5b505050565b600660008281526020019081526020016000206003015460066000838152602001908152602001600020600201541080611e115750600660008281526020019081526020016000206004015442105b15611e48576040517fa3fc45c600000000000000000000000000000000000000000000000000000000815260040160405180910390fd5b6013600082815260200190815260200160002060009054906101000a900460ff1615611ea0576040517f18fbf5ed00000000000000000000000000000000000000000000000000000000815260040160405180910390fd5b611f2781600a60006006600086815260200190815260200160002060010160009054906101000a900473ffffffffffffffffffffffffffffffffffffffff1673ffffffffffffffffffffffffffffffffffffffff1673ffffffffffffffffffffffffffffffffffffffff168152602001908152602001600020613aae90919063ffffffff16565b60016013600083815260200190815260200160002060006101000a81548160ff02191690831515021790555060006006600083815260200190815260200160002060010160009054906101000a900473ffffffffffffffffffffffffffffffffffffffff1673ffffffffffffffffffffffffffffffffffffffff166006600084815260200190815260200160002060020154604051611fc590614e5f565b60006040518083038185875af1925050503d8060008114612002576040519150601f19603f3d011682016040523d82523d6000602084013e612007565b606091505b5050905080612042576040517f75a8758900000000000000000000000000000000000000000000000000000000815260040160405180910390fd5b5050565b6000811415612081576040517f8e277c2c00000000000000000000000000000000000000000000000000000000815260040160405180910390fd5b61208b6000613f99565b6120956001613f99565b600060405180606001604052806120ac6000613b75565b81526020013373ffffffffffffffffffffffffffffffffffffffff168152602001600060038111156120e1576120e06146e3565b5b815250905060006040518060a001604052806120fd6001613b75565b81526020013373ffffffffffffffffffffffffffffffffffffffff1681526020016006600061212c6001613b75565b815260200190815260200160002060020154815260200184815260200160008152509050816005600061215f6000613b75565b81526020019081526020016000206000820151816000015560208201518160010160006101000a81548173ffffffffffffffffffffffffffffffffffffffff021916908373ffffffffffffffffffffffffffffffffffffffff16021790555060408201518160010160146101000a81548160ff021916908360038111156121e9576121e86146e3565b5b021790555090505080600660006122006001613b75565b81526020019081526020016000206000820151816000015560208201518160010160006101000a81548173ffffffffffffffffffffffffffffffffffffffff021916908373ffffffffffffffffffffffffffffffffffffffff160217905550604082015181600201556060820151816003015560808201518160040155905050600a60003373ffffffffffffffffffffffffffffffffffffffff1673ffffffffffffffffffffffffffffffffffffffff1681526020019081526020016000206122c96001613b75565b9080600181540180825580915050600190039060005260206000200160009091909190915055505050565b803373ffffffffffffffffffffffffffffffffffffffff166009600083815260200190815260200160002060010160009054906101000a900473ffffffffffffffffffffffffffffffffffffffff1673ffffffffffffffffffffffffffffffffffffffff1614612390576040517f0d9ff29600000000000000000000000000000000000000000000000000000000815260040160405180910390fd5b600082148061239f5750600034145b156123d6576040517f8e277c2c00000000000000000000000000000000000000000000000000000000815260040160405180910390fd5b346009600084815260200190815260200160002060040160008282546123fc9190614f01565b9250508190555060003073ffffffffffffffffffffffffffffffffffffffff163460405161242990614e5f565b60006040518083038185875af1925050503d8060008114612466576040519150601f19603f3d011682016040523d82523d6000602084013e61246b565b606091505b50509050806124a6576040517f75a8758900000000000000000000000000000000000000000000000000000000815260040160405180910390fd5b505050565b6124b361432c565b600960008381526020019081526020016000206040518060a0016040529081600082015481526020016001820160009054906101000a900473ffffffffffffffffffffffffffffffffffffffff1673ffffffffffffffffffffffffffffffffffffffff1673ffffffffffffffffffffffffffffffffffffffff1681526020016002820160009054906101000a900473ffffffffffffffffffffffffffffffffffffffff1673ffffffffffffffffffffffffffffffffffffffff1673ffffffffffffffffffffffffffffffffffffffff168152602001600382015481526020016004820154815250509050919050565b60008114156125dd576040517f8e277c2c00000000000000000000000000000000000000000000000000000000815260040160405180910390fd5b6125e76000613f99565b6125f16001613f99565b600060405180606001604052806126086000613b75565b81526020013373ffffffffffffffffffffffffffffffffffffffff1681526020016000600381111561263d5761263c6146e3565b5b815250905060006040518060a001604052806126596001613b75565b81526020013373ffffffffffffffffffffffffffffffffffffffff168152602001600660006126886001613b75565b81526020019081526020016000206002015481526020016000815260200184815250905081600560006126bb6000613b75565b81526020019081526020016000206000820151816000015560208201518160010160006101000a81548173ffffffffffffffffffffffffffffffffffffffff021916908373ffffffffffffffffffffffffffffffffffffffff16021790555060408201518160010160146101000a81548160ff02191690836003811115612745576127446146e3565b5b0217905550905050806006600061275c6001613b75565b81526020019081526020016000206000820151816000015560208201518160010160006101000a81548173ffffffffffffffffffffffffffffffffffffffff021916908373ffffffffffffffffffffffffffffffffffffffff160217905550604082015181600201556060820151816003015560808201518160040155905050600a60003373ffffffffffffffffffffffffffffffffffffffff1673ffffffffffffffffffffffffffffffffffffffff1681526020019081526020016000206128256001613b75565b9080600181540180825580915050600190039060005260206000200160009091909190915055505050565b61285861427a565b600760008381526020019081526020016000206040518060e0016040529081600082015481526020016001820160009054906101000a900473ffffffffffffffffffffffffffffffffffffffff1673ffffffffffffffffffffffffffffffffffffffff1673ffffffffffffffffffffffffffffffffffffffff1681526020016002820160009054906101000a900473ffffffffffffffffffffffffffffffffffffffff1673ffffffffffffffffffffffffffffffffffffffff1673ffffffffffffffffffffffffffffffffffffffff1681526020016003820154815260200160048201548152602001600582015481526020016006820154815250509050919050565b60606000600a60008473ffffffffffffffffffffffffffffffffffffffff1673ffffffffffffffffffffffffffffffffffffffff1681526020019081526020016000208054806020026020016040519081016040528092919081815260200182805480156129e857602002820191906000526020600020905b8154815260200190600101908083116129d4575b5050505050905060008151905060008167ffffffffffffffff811115612a1157612a10614e74565b5b604051908082528060200260200182016040528015612a4a57816020015b612a37614235565b815260200190600190039081612a2f5790505b50905060005b82811015612b375760066000858381518110612a6f57612a6e614ea3565b5b602002602001015181526020019081526020016000206040518060a0016040529081600082015481526020016001820160009054906101000a900473ffffffffffffffffffffffffffffffffffffffff1673ffffffffffffffffffffffffffffffffffffffff1673ffffffffffffffffffffffffffffffffffffffff1681526020016002820154815260200160038201548152602001600482015481525050828281518110612b2157612b20614ea3565b5b6020026020010181905250806001019050612a50565b50809350505050919050565b600073ffffffffffffffffffffffffffffffffffffffff168273ffffffffffffffffffffffffffffffffffffffff161480612b7e5750600081145b15612bb5576040517f8e277c2c00000000000000000000000000000000000000000000000000000000815260040160405180910390fd5b612bbf6000613f99565b612bc96004613f99565b60006040518060600160405280612be06000613b75565b81526020013373ffffffffffffffffffffffffffffffffffffffff168152602001600380811115612c1457612c136146e3565b5b815250905060006040518060a00160405280612c306004613b75565b81526020013373ffffffffffffffffffffffffffffffffffffffff1681526020018573ffffffffffffffffffffffffffffffffffffffff16815260200184815260200160096000612c816004613b75565b81526020019081526020016000206004015481525090508160056000612ca76000613b75565b81526020019081526020016000206000820151816000015560208201518160010160006101000a81548173ffffffffffffffffffffffffffffffffffffffff021916908373ffffffffffffffffffffffffffffffffffffffff16021790555060408201518160010160146101000a81548160ff02191690836003811115612d3157612d306146e3565b5b02179055509050508060096000612d486004613b75565b81526020019081526020016000206000820151816000015560208201518160010160006101000a81548173ffffffffffffffffffffffffffffffffffffffff021916908373ffffffffffffffffffffffffffffffffffffffff16021790555060408201518160020160006101000a81548173ffffffffffffffffffffffffffffffffffffffff021916908373ffffffffffffffffffffffffffffffffffffffff1602179055506060820151816003015560808201518160040155905050600d60003373ffffffffffffffffffffffffffffffffffffffff1673ffffffffffffffffffffffffffffffffffffffff168152602001908152602001600020612e4e6004613b75565b9080600181540180825580915050600190039060005260206000200160009091909190915055601060008573ffffffffffffffffffffffffffffffffffffffff1673ffffffffffffffffffffffffffffffffffffffff168152602001908152602001600020612ebd6004613b75565b908060018154018082558091505060019003906000526020600020016000909190919091505550505050565b6000600190505b612efa6003613b75565b8111612f5457600060186000838152602001908152602001600020541115612f415760126000828152602001908152602001600020544210612f4057612f3f81613faf565b5b5b8080612f4c90614fb4565b915050612ef0565b50565b600073ffffffffffffffffffffffffffffffffffffffff168473ffffffffffffffffffffffffffffffffffffffff161480612f925750600083145b80612f9d5750600082145b80612fa85750600081145b15612fdf576040517f8e277c2c00000000000000000000000000000000000000000000000000000000815260040160405180910390fd5b612fe96000613f99565b612ff36003613f99565b6000604051806060016040528061300a6000613b75565b81526020013373ffffffffffffffffffffffffffffffffffffffff1681526020016002600381111561303f5761303e6146e3565b5b815250905060006040518060e0016040528061305b6003613b75565b81526020013373ffffffffffffffffffffffffffffffffffffffff1681526020018773ffffffffffffffffffffffffffffffffffffffff168152602001600860006130a66003613b75565b815260200190815260200160002060030154815260200186815260200185815260200184815250905081600560006130de6000613b75565b81526020019081526020016000206000820151816000015560208201518160010160006101000a81548173ffffffffffffffffffffffffffffffffffffffff021916908373ffffffffffffffffffffffffffffffffffffffff16021790555060408201518160010160146101000a81548160ff02191690836003811115613168576131676146e3565b5b0217905550905050806008600061317f6003613b75565b81526020019081526020016000206000820151816000015560208201518160010160006101000a81548173ffffffffffffffffffffffffffffffffffffffff021916908373ffffffffffffffffffffffffffffffffffffffff16021790555060408201518160020160006101000a81548173ffffffffffffffffffffffffffffffffffffffff021916908373ffffffffffffffffffffffffffffffffffffffff160217905550606082015181600301556080820151816004015560a0820151816005015560c08201518160060155905050846012600061325f6003613b75565b815260200190815260200160002081905550600c60003373ffffffffffffffffffffffffffffffffffffffff1673ffffffffffffffffffffffffffffffffffffffff1681526020019081526020016000206132ba6003613b75565b9080600181540180825580915050600190039060005260206000200160009091909190915055600f60008773ffffffffffffffffffffffffffffffffffffffff1673ffffffffffffffffffffffffffffffffffffffff1681526020019081526020016000206133296003613b75565b9080600181540180825580915050600190039060005260206000200160009091909190915055505050505050565b803373ffffffffffffffffffffffffffffffffffffffff166007600083815260200190815260200160002060010160009054906101000a900473ffffffffffffffffffffffffffffffffffffffff1673ffffffffffffffffffffffffffffffffffffffff16146133f3576040517f0d9ff29600000000000000000000000000000000000000000000000000000000815260040160405180910390fd5b6014600083815260200190815260200160002060009054906101000a900460ff161561344b576040517f18fbf5ed00000000000000000000000000000000000000000000000000000000815260040160405180910390fd5b61349c82600b60003373ffffffffffffffffffffffffffffffffffffffff1673ffffffffffffffffffffffffffffffffffffffff168152602001908152602001600020613aae90919063ffffffff16565b60016014600084815260200190815260200160002060006101000a81548160ff02191690831515021790555060003373ffffffffffffffffffffffffffffffffffffffff16601760008581526020019081526020016000205460405161350190614e5f565b60006040518083038185875af1925050503d806000811461353e576040519150601f19603f3d011682016040523d82523d6000602084013e613543565b606091505b505090508061357e576040517f75a8758900000000000000000000000000000000000000000000000000000000815260040160405180910390fd5b505050565b600073ffffffffffffffffffffffffffffffffffffffff168473ffffffffffffffffffffffffffffffffffffffff1614806135be5750600083145b806135c95750600082145b806135d45750600081145b1561360b576040517f8e277c2c00000000000000000000000000000000000000000000000000000000815260040160405180910390fd5b6136156000613f99565b61361f6002613f99565b600060405180606001604052806136366000613b75565b81526020013373ffffffffffffffffffffffffffffffffffffffff1681526020016001600381111561366b5761366a6146e3565b5b815250905060006040518060e001604052806136876002613b75565b81526020013373ffffffffffffffffffffffffffffffffffffffff1681526020018773ffffffffffffffffffffffffffffffffffffffff168152602001600760006136d26002613b75565b8152602001908152602001600020600301548152602001868152602001858152602001848152509050816005600061370a6000613b75565b81526020019081526020016000206000820151816000015560208201518160010160006101000a81548173ffffffffffffffffffffffffffffffffffffffff021916908373ffffffffffffffffffffffffffffffffffffffff16021790555060408201518160010160146101000a81548160ff02191690836003811115613794576137936146e3565b5b021790555090505080600760006137ab6002613b75565b81526020019081526020016000206000820151816000015560208201518160010160006101000a81548173ffffffffffffffffffffffffffffffffffffffff021916908373ffffffffffffffffffffffffffffffffffffffff16021790555060408201518160020160006101000a81548173ffffffffffffffffffffffffffffffffffffffff021916908373ffffffffffffffffffffffffffffffffffffffff160217905550606082015181600301556080820151816004015560a0820151816005015560c08201518160060155905050846011600061388b6002613b75565b815260200190815260200160002081905550600b60003373ffffffffffffffffffffffffffffffffffffffff1673ffffffffffffffffffffffffffffffffffffffff1681526020019081526020016000206138e66002613b75565b9080600181540180825580915050600190039060005260206000200160009091909190915055600e60008773ffffffffffffffffffffffffffffffffffffffff1673ffffffffffffffffffffffffffffffffffffffff1681526020019081526020016000206139556002613b75565b9080600181540180825580915050600190039060005260206000200160009091909190915055505050505050565b600060096000838152602001908152602001600020600401549050919050565b6139ab614387565b600860008381526020019081526020016000206040518060e0016040529081600082015481526020016001820160009054906101000a900473ffffffffffffffffffffffffffffffffffffffff1673ffffffffffffffffffffffffffffffffffffffff1673ffffffffffffffffffffffffffffffffffffffff1681526020016002820160009054906101000a900473ffffffffffffffffffffffffffffffffffffffff1673ffffffffffffffffffffffffffffffffffffffff1673ffffffffffffffffffffffffffffffffffffffff1681526020016003820154815260200160048201548152602001600582015481526020016006820154815250509050919050565b60005b8280549050811015613b705781838281548110613ad157613ad0614ea3565b5b90600052602060002001541415613b5d578260018480549050613af49190614f57565b81548110613b0557613b04614ea3565b5b9060005260206000200154838281548110613b2357613b22614ea3565b5b906000526020600020018190555082805480613b4257613b41614ffd565b5b60019003818190600052602060002001600090559055613b70565b8080613b6890614fb4565b915050613ab1565b505050565b600081600001549050919050565b613c0a81600d60006009600086815260200190815260200160002060010160009054906101000a900473ffffffffffffffffffffffffffffffffffffffff1673ffffffffffffffffffffffffffffffffffffffff1673ffffffffffffffffffffffffffffffffffffffff168152602001908152602001600020613aae90919063ffffffff16565b60016016600083815260200190815260200160002060006101000a81548160ff02191690831515021790555060006009600083815260200190815260200160002060020160009054906101000a900473ffffffffffffffffffffffffffffffffffffffff1673ffffffffffffffffffffffffffffffffffffffff166009600084815260200190815260200160002060040154604051613ca890614e5f565b60006040518083038185875af1925050503d8060008114613ce5576040519150601f19603f3d011682016040523d82523d6000602084013e613cea565b606091505b5050905080613d25576040517f75a8758900000000000000000000000000000000000000000000000000000000815260040160405180910390fd5b5050565b60008042905060006011600085815260200190815260200160002054905060006007600086815260200190815260200160002060060154905060006001828486613d739190614f57565b613d7d919061505b565b613d879190614f01565b90508181613d95919061508c565b601160008881526020019081526020016000206000828254613db79190614f01565b92505081905550600760008781526020019081526020016000206005015460176000888152602001908152602001600020541015613e0657601760008781526020019081526020016000205494505b6007600087815260200190815260200160002060050154601760008881526020019081526020016000205410613e8d57600760008781526020019081526020016000206005015481613e58919061508c565b94506017600087815260200190815260200160002054851115613e8c57601760008781526020019081526020016000205494505b5b84601760008881526020019081526020016000206000828254613eb09190614f57565b9250508190555060006007600088815260200190815260200160002060020160009054906101000a900473ffffffffffffffffffffffffffffffffffffffff1673ffffffffffffffffffffffffffffffffffffffff1686604051613f1390614e5f565b60006040518083038185875af1925050503d8060008114613f50576040519150601f19603f3d011682016040523d82523d6000602084013e613f55565b606091505b5050905080613f90576040517f75a8758900000000000000000000000000000000000000000000000000000000815260040160405180910390fd5b50505050505050565b6001816000016000828254019250508190555050565b600080600860008481526020019081526020016000206004015490506000601260008581526020019081526020016000205490506000600860008681526020019081526020016000206006015490506000600182848661400f9190614f57565b614019919061505b565b6140239190614f01565b90508181614031919061508c565b6012600088815260200190815260200160002060008282546140539190614f01565b925050819055506008600087815260200190815260200160002060050154601860008881526020019081526020016000205410156140a257601860008781526020019081526020016000205494505b6008600087815260200190815260200160002060050154601860008881526020019081526020016000205410614129576008600087815260200190815260200160002060050154816140f4919061508c565b9450601860008781526020019081526020016000205485111561412857601860008781526020019081526020016000205494505b5b8460186000888152602001908152602001600020600082825461414c9190614f57565b9250508190555060006008600088815260200190815260200160002060020160009054906101000a900473ffffffffffffffffffffffffffffffffffffffff1673ffffffffffffffffffffffffffffffffffffffff16866040516141af90614e5f565b60006040518083038185875af1925050503d80600081146141ec576040519150601f19603f3d011682016040523d82523d6000602084013e6141f1565b606091505b505090508061422c576040517f75a8758900000000000000000000000000000000000000000000000000000000815260040160405180910390fd5b50505050505050565b6040518060a0016040528060008152602001600073ffffffffffffffffffffffffffffffffffffffff1681526020016000815260200160008152602001600081525090565b6040518060e0016040528060008152602001600073ffffffffffffffffffffffffffffffffffffffff168152602001600073ffffffffffffffffffffffffffffffffffffffff168152602001600081526020016000815260200160008152602001600081525090565b604051806060016040528060008152602001600073ffffffffffffffffffffffffffffffffffffffff16815260200160006003811115614326576143256146e3565b5b81525090565b6040518060a0016040528060008152602001600073ffffffffffffffffffffffffffffffffffffffff168152602001600073ffffffffffffffffffffffffffffffffffffffff16815260200160008152602001600081525090565b6040518060e0016040528060008152602001600073ffffffffffffffffffffffffffffffffffffffff168152602001600073ffffffffffffffffffffffffffffffffffffffff168152602001600081526020016000815260200160008152602001600081525090565b600080fd5b6000819050919050565b614408816143f5565b811461441357600080fd5b50565b600081359050614425816143ff565b92915050565b600060208284031215614441576144406143f0565b5b600061444f84828501614416565b91505092915050565b614461816143f5565b82525050565b600073ffffffffffffffffffffffffffffffffffffffff82169050919050565b600061449282614467565b9050919050565b6144a281614487565b82525050565b60a0820160008201516144be6000850182614458565b5060208201516144d16020850182614499565b5060408201516144e46040850182614458565b5060608201516144f76060850182614458565b50608082015161450a6080850182614458565b50505050565b600060a08201905061452560008301846144a8565b92915050565b61453481614487565b811461453f57600080fd5b50565b6000813590506145518161452b565b92915050565b60006020828403121561456d5761456c6143f0565b5b600061457b84828501614542565b91505092915050565b600081519050919050565b600082825260208201905092915050565b6000819050602082019050919050565b60e0820160008201516145c66000850182614458565b5060208201516145d96020850182614499565b5060408201516145ec6040850182614499565b5060608201516145ff6060850182614458565b5060808201516146126080850182614458565b5060a082015161462560a0850182614458565b5060c082015161463860c0850182614458565b50505050565b600061464a83836145b0565b60e08301905092915050565b6000602082019050919050565b600061466e82614584565b614678818561458f565b9350614683836145a0565b8060005b838110156146b457815161469b888261463e565b97506146a683614656565b925050600181019050614687565b5085935050505092915050565b600060208201905081810360008301526146db8184614663565b905092915050565b7f4e487b7100000000000000000000000000000000000000000000000000000000600052602160045260246000fd5b60048110614723576147226146e3565b5b50565b600081905061473482614712565b919050565b600061474482614726565b9050919050565b61475481614739565b82525050565b6060820160008201516147706000850182614458565b5060208201516147836020850182614499565b506040820151614796604085018261474b565b50505050565b60006060820190506147b1600083018461475a565b92915050565b6147c0816143f5565b82525050565b60006020820190506147db60008301846147b7565b92915050565b600081519050919050565b600082825260208201905092915050565b6000819050602082019050919050565b60a0820160008201516148236000850182614458565b5060208201516148366020850182614499565b5060408201516148496040850182614499565b50606082015161485c6060850182614458565b50608082015161486f6080850182614458565b50505050565b6000614881838361480d565b60a08301905092915050565b6000602082019050919050565b60006148a5826147e1565b6148af81856147ec565b93506148ba836147fd565b8060005b838110156148eb5781516148d28882614875565b97506148dd8361488d565b9250506001810190506148be565b5085935050505092915050565b60006020820190508181036000830152614912818461489a565b905092915050565b600081519050919050565b600082825260208201905092915050565b6000819050602082019050919050565b60e08201600082015161495c6000850182614458565b50602082015161496f6020850182614499565b5060408201516149826040850182614499565b5060608201516149956060850182614458565b5060808201516149a86080850182614458565b5060a08201516149bb60a0850182614458565b5060c08201516149ce60c0850182614458565b50505050565b60006149e08383614946565b60e08301905092915050565b6000602082019050919050565b6000614a048261491a565b614a0e8185614925565b9350614a1983614936565b8060005b83811015614a4a578151614a3188826149d4565b9750614a3c836149ec565b925050600181019050614a1d565b5085935050505092915050565b60006020820190508181036000830152614a7181846149f9565b905092915050565b60a082016000820151614a8f6000850182614458565b506020820151614aa26020850182614499565b506040820151614ab56040850182614499565b506060820151614ac86060850182614458565b506080820151614adb6080850182614458565b50505050565b600060a082019050614af66000830184614a79565b92915050565b60e082016000820151614b126000850182614458565b506020820151614b256020850182614499565b506040820151614b386040850182614499565b506060820151614b4b6060850182614458565b506080820151614b5e6080850182614458565b5060a0820151614b7160a0850182614458565b5060c0820151614b8460c0850182614458565b50505050565b600060e082019050614b9f6000830184614afc565b92915050565b600081519050919050565b600082825260208201905092915050565b6000819050602082019050919050565b60a082016000820151614be76000850182614458565b506020820151614bfa6020850182614499565b506040820151614c0d6040850182614458565b506060820151614c206060850182614458565b506080820151614c336080850182614458565b50505050565b6000614c458383614bd1565b60a08301905092915050565b6000602082019050919050565b6000614c6982614ba5565b614c738185614bb0565b9350614c7e83614bc1565b8060005b83811015614caf578151614c968882614c39565b9750614ca183614c51565b925050600181019050614c82565b5085935050505092915050565b60006020820190508181036000830152614cd68184614c5e565b905092915050565b60008060408385031215614cf557614cf46143f0565b5b6000614d0385828601614542565b9250506020614d1485828601614416565b9150509250929050565b60008060008060808587031215614d3857614d376143f0565b5b6000614d4687828801614542565b9450506020614d5787828801614416565b9350506040614d6887828801614416565b9250506060614d7987828801614416565b91505092959194509250565b60e082016000820151614d9b6000850182614458565b506020820151614dae6020850182614499565b506040820151614dc16040850182614499565b506060820151614dd46060850182614458565b506080820151614de76080850182614458565b5060a0820151614dfa60a0850182614458565b5060c0820151614e0d60c0850182614458565b50505050565b600060e082019050614e286000830184614d85565b92915050565b600081905092915050565b50565b6000614e49600083614e2e565b9150614e5482614e39565b600082019050919050565b6000614e6a82614e3c565b9150819050919050565b7f4e487b7100000000000000000000000000000000000000000000000000000000600052604160045260246000fd5b7f4e487b7100000000000000000000000000000000000000000000000000000000600052603260045260246000fd5b7f4e487b7100000000000000000000000000000000000000000000000000000000600052601160045260246000fd5b6000614f0c826143f5565b9150614f17836143f5565b9250827fffffffffffffffffffffffffffffffffffffffffffffffffffffffffffffffff03821115614f4c57614f4b614ed2565b5b828201905092915050565b6000614f62826143f5565b9150614f6d836143f5565b925082821015614f8057614f7f614ed2565b5b828203905092915050565b6000604082019050614fa060008301856147b7565b614fad60208301846147b7565b9392505050565b6000614fbf826143f5565b91507fffffffffffffffffffffffffffffffffffffffffffffffffffffffffffffffff821415614ff257614ff1614ed2565b5b600182019050919050565b7f4e487b7100000000000000000000000000000000000000000000000000000000600052603160045260246000fd5b7f4e487b7100000000000000000000000000000000000000000000000000000000600052601260045260246000fd5b6000615066826143f5565b9150615071836143f5565b9250826150815761508061502c565b5b828204905092915050565b6000615097826143f5565b91506150a2836143f5565b9250817fffffffffffffffffffffffffffffffffffffffffffffffffffffffffffffffff04831182151516156150db576150da614ed2565b5b82820290509291505056fea26469706673582212209a6331e0363c7de876b7f84578b4998e3dc57e0db2398e5a00ea11dee0c522f164736f6c63430008090033",
  "linkReferences": {},
  "deployedLinkReferences": {}
}