{
  "_format": "hh-sol-artifact-1",
  "contractName": "Atium",
  "sourceName": "contracts/Atium.sol",
  "abi": [
    {
      "inputs": [],
      "name": "Atium_Cancelled",
      "type": "error"
    },
    {
      "inputs": [],
      "name": "Atium_NotAmount",
      "type": "error"
    },
    {
      "inputs": [],
      "name": "Atium_NotOwnerId",
      "type": "error"
    },
    {
      "inputs": [
        {
          "internalType": "uint256",
          "name": "goal",
          "type": "uint256"
        },
        {
          "internalType": "uint256",
          "name": "rem",
          "type": "uint256"
        }
      ],
      "name": "Atium_SavingsGoal_Exceeded",
      "type": "error"
    },
    {
      "inputs": [],
      "name": "Atium_SavingsGoal_Not_Hit",
      "type": "error"
    },
    {
      "inputs": [],
      "name": "Atium_TransactionFailed",
      "type": "error"
    },
    {
      "inputs": [],
      "name": "Atium_ZeroInput",
      "type": "error"
    },
    {
      "inputs": [
        {
          "internalType": "uint256",
          "name": "_id",
          "type": "uint256"
        },
        {
          "internalType": "uint256",
          "name": "_amount",
          "type": "uint256"
        }
      ],
      "name": "allowance",
      "outputs": [],
      "stateMutability": "payable",
      "type": "function"
    },
    {
      "inputs": [
        {
          "internalType": "address",
          "name": "_receiver",
          "type": "address"
        },
        {
          "internalType": "uint256",
          "name": "_startDate",
          "type": "uint256"
        },
        {
          "internalType": "uint256",
          "name": "_amount",
          "type": "uint256"
        },
        {
          "internalType": "uint256",
          "name": "_interval",
          "type": "uint256"
        }
      ],
      "name": "allowancePlan",
      "outputs": [],
      "stateMutability": "nonpayable",
      "type": "function"
    },
    {
      "inputs": [],
      "name": "allowanceWithdraw",
      "outputs": [],
      "stateMutability": "nonpayable",
      "type": "function"
    },
    {
      "inputs": [
        {
          "internalType": "uint256",
          "name": "_id",
          "type": "uint256"
        }
      ],
      "name": "cancelAllowance",
      "outputs": [],
      "stateMutability": "nonpayable",
      "type": "function"
    },
    {
      "inputs": [
        {
          "internalType": "uint256",
          "name": "_id",
          "type": "uint256"
        }
      ],
      "name": "cancelGift",
      "outputs": [],
      "stateMutability": "nonpayable",
      "type": "function"
    },
    {
      "inputs": [
        {
          "internalType": "uint256",
          "name": "_id",
          "type": "uint256"
        }
      ],
      "name": "cancelSavings",
      "outputs": [],
      "stateMutability": "nonpayable",
      "type": "function"
    },
    {
      "inputs": [
        {
          "internalType": "uint256",
          "name": "_id",
          "type": "uint256"
        }
      ],
      "name": "cancelTrustfund",
      "outputs": [],
      "stateMutability": "nonpayable",
      "type": "function"
    },
    {
      "inputs": [],
      "name": "getAllActiveAllowance",
      "outputs": [
        {
          "components": [
            {
              "internalType": "uint256",
              "name": "id",
              "type": "uint256"
            },
            {
              "internalType": "address",
              "name": "sender",
              "type": "address"
            },
            {
              "internalType": "address",
              "name": "receiver",
              "type": "address"
            },
            {
              "internalType": "uint256",
              "name": "deposit",
              "type": "uint256"
            },
            {
              "internalType": "uint256",
              "name": "startDate",
              "type": "uint256"
            },
            {
              "internalType": "uint256",
              "name": "withdrawalAmount",
              "type": "uint256"
            },
            {
              "internalType": "uint256",
              "name": "withdrawalInterval",
              "type": "uint256"
            }
          ],
          "internalType": "struct AtiumPlan.AllowanceList[]",
          "name": "",
          "type": "tuple[]"
        }
      ],
      "stateMutability": "view",
      "type": "function"
    },
    {
      "inputs": [],
      "name": "getAllActiveGift",
      "outputs": [
        {
          "components": [
            {
              "internalType": "uint256",
              "name": "id",
              "type": "uint256"
            },
            {
              "internalType": "address",
              "name": "sender",
              "type": "address"
            },
            {
              "internalType": "address",
              "name": "receiver",
              "type": "address"
            },
            {
              "internalType": "uint256",
              "name": "date",
              "type": "uint256"
            },
            {
              "internalType": "uint256",
              "name": "amount",
              "type": "uint256"
            }
          ],
          "internalType": "struct AtiumPlan.GiftList[]",
          "name": "",
          "type": "tuple[]"
        }
      ],
      "stateMutability": "view",
      "type": "function"
    },
    {
      "inputs": [],
      "name": "getAllActiveSavings",
      "outputs": [
        {
          "components": [
            {
              "internalType": "uint256",
              "name": "id",
              "type": "uint256"
            },
            {
              "internalType": "address",
              "name": "user",
              "type": "address"
            },
            {
              "internalType": "uint256",
              "name": "amount",
              "type": "uint256"
            },
            {
              "internalType": "uint256",
              "name": "goal",
              "type": "uint256"
            },
            {
              "internalType": "uint256",
              "name": "time",
              "type": "uint256"
            }
          ],
          "internalType": "struct AtiumPlan.SavingsList[]",
          "name": "",
          "type": "tuple[]"
        }
      ],
      "stateMutability": "view",
      "type": "function"
    },
    {
      "inputs": [],
      "name": "getAllActiveTrustfund",
      "outputs": [
        {
          "components": [
            {
              "internalType": "uint256",
              "name": "id",
              "type": "uint256"
            },
            {
              "internalType": "address",
              "name": "sender",
              "type": "address"
            },
            {
              "internalType": "address",
              "name": "receiver",
              "type": "address"
            },
            {
              "internalType": "uint256",
              "name": "amount",
              "type": "uint256"
            },
            {
              "internalType": "uint256",
              "name": "startDate",
              "type": "uint256"
            },
            {
              "internalType": "uint256",
              "name": "withdrawalAmount",
              "type": "uint256"
            },
            {
              "internalType": "uint256",
              "name": "withdrawalInterval",
              "type": "uint256"
            }
          ],
          "internalType": "struct AtiumPlan.TrustFundList[]",
          "name": "",
          "type": "tuple[]"
        }
      ],
      "stateMutability": "view",
      "type": "function"
    },
    {
      "inputs": [
        {
          "internalType": "uint256",
          "name": "_id",
          "type": "uint256"
        }
      ],
      "name": "getAllowance",
      "outputs": [
        {
          "components": [
            {
              "internalType": "uint256",
              "name": "id",
              "type": "uint256"
            },
            {
              "internalType": "address",
              "name": "sender",
              "type": "address"
            },
            {
              "internalType": "address",
              "name": "receiver",
              "type": "address"
            },
            {
              "internalType": "uint256",
              "name": "deposit",
              "type": "uint256"
            },
            {
              "internalType": "uint256",
              "name": "startDate",
              "type": "uint256"
            },
            {
              "internalType": "uint256",
              "name": "withdrawalAmount",
              "type": "uint256"
            },
            {
              "internalType": "uint256",
              "name": "withdrawalInterval",
              "type": "uint256"
            }
          ],
          "internalType": "struct AtiumPlan.AllowanceList",
          "name": "",
          "type": "tuple"
        }
      ],
      "stateMutability": "view",
      "type": "function"
    },
    {
      "inputs": [
        {
          "internalType": "uint256",
          "name": "_id",
          "type": "uint256"
        }
      ],
      "name": "getAllowanceBalance",
      "outputs": [
        {
          "internalType": "uint256",
          "name": "",
          "type": "uint256"
        }
      ],
      "stateMutability": "view",
      "type": "function"
    },
    {
      "inputs": [
        {
          "internalType": "uint256",
          "name": "_id",
          "type": "uint256"
        }
      ],
      "name": "getAtium",
      "outputs": [
        {
          "components": [
            {
              "internalType": "uint256",
              "name": "id",
              "type": "uint256"
            },
            {
              "internalType": "address",
              "name": "user",
              "type": "address"
            },
            {
              "internalType": "enum AtiumPlan.Select",
              "name": "select",
              "type": "uint8"
            }
          ],
          "internalType": "struct AtiumPlan.AtiumList",
          "name": "",
          "type": "tuple"
        }
      ],
      "stateMutability": "view",
      "type": "function"
    },
    {
      "inputs": [
        {
          "internalType": "uint256",
          "name": "_id",
          "type": "uint256"
        }
      ],
      "name": "getGift",
      "outputs": [
        {
          "components": [
            {
              "internalType": "uint256",
              "name": "id",
              "type": "uint256"
            },
            {
              "internalType": "address",
              "name": "sender",
              "type": "address"
            },
            {
              "internalType": "address",
              "name": "receiver",
              "type": "address"
            },
            {
              "internalType": "uint256",
              "name": "date",
              "type": "uint256"
            },
            {
              "internalType": "uint256",
              "name": "amount",
              "type": "uint256"
            }
          ],
          "internalType": "struct AtiumPlan.GiftList",
          "name": "",
          "type": "tuple"
        }
      ],
      "stateMutability": "view",
      "type": "function"
    },
    {
      "inputs": [
        {
          "internalType": "uint256",
          "name": "_id",
          "type": "uint256"
        }
      ],
      "name": "getGiftBalance",
      "outputs": [
        {
          "internalType": "uint256",
          "name": "",
          "type": "uint256"
        }
      ],
      "stateMutability": "view",
      "type": "function"
    },
    {
      "inputs": [
        {
          "internalType": "uint256",
          "name": "_id",
          "type": "uint256"
        }
      ],
      "name": "getSavings",
      "outputs": [
        {
          "components": [
            {
              "internalType": "uint256",
              "name": "id",
              "type": "uint256"
            },
            {
              "internalType": "address",
              "name": "user",
              "type": "address"
            },
            {
              "internalType": "uint256",
              "name": "amount",
              "type": "uint256"
            },
            {
              "internalType": "uint256",
              "name": "goal",
              "type": "uint256"
            },
            {
              "internalType": "uint256",
              "name": "time",
              "type": "uint256"
            }
          ],
          "internalType": "struct AtiumPlan.SavingsList",
          "name": "",
          "type": "tuple"
        }
      ],
      "stateMutability": "view",
      "type": "function"
    },
    {
      "inputs": [
        {
          "internalType": "uint256",
          "name": "_id",
          "type": "uint256"
        }
      ],
      "name": "getSavingsBalance",
      "outputs": [
        {
          "internalType": "uint256",
          "name": "",
          "type": "uint256"
        }
      ],
      "stateMutability": "view",
      "type": "function"
    },
    {
      "inputs": [
        {
          "internalType": "uint256",
          "name": "_id",
          "type": "uint256"
        }
      ],
      "name": "getTrustfund",
      "outputs": [
        {
          "components": [
            {
              "internalType": "uint256",
              "name": "id",
              "type": "uint256"
            },
            {
              "internalType": "address",
              "name": "sender",
              "type": "address"
            },
            {
              "internalType": "address",
              "name": "receiver",
              "type": "address"
            },
            {
              "internalType": "uint256",
              "name": "amount",
              "type": "uint256"
            },
            {
              "internalType": "uint256",
              "name": "startDate",
              "type": "uint256"
            },
            {
              "internalType": "uint256",
              "name": "withdrawalAmount",
              "type": "uint256"
            },
            {
              "internalType": "uint256",
              "name": "withdrawalInterval",
              "type": "uint256"
            }
          ],
          "internalType": "struct AtiumPlan.TrustFundList",
          "name": "",
          "type": "tuple"
        }
      ],
      "stateMutability": "view",
      "type": "function"
    },
    {
      "inputs": [
        {
          "internalType": "uint256",
          "name": "_id",
          "type": "uint256"
        }
      ],
      "name": "getTrustfundBalance",
      "outputs": [
        {
          "internalType": "uint256",
          "name": "",
          "type": "uint256"
        }
      ],
      "stateMutability": "view",
      "type": "function"
    },
    {
      "inputs": [
        {
          "internalType": "uint256",
          "name": "_id",
          "type": "uint256"
        },
        {
          "internalType": "uint256",
          "name": "_amount",
          "type": "uint256"
        }
      ],
      "name": "gift",
      "outputs": [],
      "stateMutability": "payable",
      "type": "function"
    },
    {
      "inputs": [
        {
          "internalType": "address",
          "name": "_receiver",
          "type": "address"
        },
        {
          "internalType": "uint256",
          "name": "_date",
          "type": "uint256"
        }
      ],
      "name": "giftPlan",
      "outputs": [],
      "stateMutability": "nonpayable",
      "type": "function"
    },
    {
      "inputs": [],
      "name": "giftWithdraw",
      "outputs": [],
      "stateMutability": "nonpayable",
      "type": "function"
    },
    {
      "inputs": [
        {
          "internalType": "uint256",
          "name": "_id",
          "type": "uint256"
        },
        {
          "internalType": "uint256",
          "name": "_amount",
          "type": "uint256"
        }
      ],
      "name": "save",
      "outputs": [],
      "stateMutability": "payable",
      "type": "function"
    },
    {
      "inputs": [
        {
          "internalType": "uint256",
          "name": "_goal",
          "type": "uint256"
        }
      ],
      "name": "savingsPlanGoal",
      "outputs": [],
      "stateMutability": "nonpayable",
      "type": "function"
    },
    {
      "inputs": [
        {
          "internalType": "uint256",
          "name": "_time",
          "type": "uint256"
        }
      ],
      "name": "savingsPlanTime",
      "outputs": [],
      "stateMutability": "nonpayable",
      "type": "function"
    },
    {
      "inputs": [
        {
          "internalType": "uint256",
          "name": "_id",
          "type": "uint256"
        },
        {
          "internalType": "uint256",
          "name": "_amount",
          "type": "uint256"
        }
      ],
      "name": "trustfund",
      "outputs": [],
      "stateMutability": "payable",
      "type": "function"
    },
    {
      "inputs": [
        {
          "internalType": "address",
          "name": "_receiver",
          "type": "address"
        },
        {
          "internalType": "uint256",
          "name": "_startDate",
          "type": "uint256"
        },
        {
          "internalType": "uint256",
          "name": "_amount",
          "type": "uint256"
        },
        {
          "internalType": "uint256",
          "name": "_interval",
          "type": "uint256"
        }
      ],
      "name": "trustfundPlan",
      "outputs": [],
      "stateMutability": "nonpayable",
      "type": "function"
    },
    {
      "inputs": [],
      "name": "trustfundWithdraw",
      "outputs": [],
      "stateMutability": "nonpayable",
      "type": "function"
    },
    {
      "inputs": [
        {
          "internalType": "uint256",
          "name": "_id",
          "type": "uint256"
        }
      ],
      "name": "w_save",
      "outputs": [],
      "stateMutability": "nonpayable",
      "type": "function"
    },
    {
      "stateMutability": "payable",
      "type": "receive"
    }
  ],
  "bytecode": "0x608060405234801561001057600080fd5b506151ff806100206000396000f3fe6080604052600436106101d15760003560e01c80638ee69ae8116100f7578063cca16fa811610095578063e4d9fff811610064578063e4d9fff814610631578063ed5579fc1461065a578063f7b05eea14610683578063fa278ae6146106c0576101d8565b8063cca16fa8146105ac578063d14fb6db146105c8578063d4096aa1146105f1578063d67d10dc14610608576101d8565b8063ad31cc9f116100d1578063ad31cc9f146104e0578063bf6713f614610509578063c315d63514610546578063c960174e1461056f576101d8565b80638ee69ae8146104655780639378d65a1461048e578063aca9d54c146104b7576101d8565b8063517e4b671161016f5780636c45bdc41161013e5780636c45bdc4146103a457806381acffe8146103cf5780638207d0f91461040c57806383a74acc14610449576101d8565b8063517e4b671461031857806357fc03631461032f578063640117be1461034b57806367b4521414610367576101d8565b806313bfb182116101ab57806313bfb1821461025c5780632bb591451461029957806339d502fd146102c45780633e346eeb146102db576101d8565b806308339b93146101dd5780631072354b1461020857806312cc19e714610231576101d8565b366101d857005b600080fd5b3480156101e957600080fd5b506101f26106fd565b6040516101ff9190614631565b60405180910390f35b34801561021457600080fd5b5061022f600480360381019061022a9190614684565b61092f565b005b34801561023d57600080fd5b50610246610b5b565b60405161025391906147ee565b60405180910390f35b34801561026857600080fd5b50610283600480360381019061027e9190614684565b610da1565b6040516102909190614878565b60405180910390f35b3480156102a557600080fd5b506102ae610e4c565b6040516102bb91906149aa565b60405180910390f35b3480156102d057600080fd5b506102d9611032565b005b3480156102e757600080fd5b5061030260048036038101906102fd9190614684565b611086565b60405161030f9190614a85565b60405180910390f35b34801561032457600080fd5b5061032d61114e565b005b61034960048036038101906103449190614aa0565b6111bc565b005b61036560048036038101906103609190614aa0565b611478565b005b34801561037357600080fd5b5061038e60048036038101906103899190614684565b6116c1565b60405161039b9190614aef565b60405180910390f35b3480156103b057600080fd5b506103b96116e1565b6040516103c69190614c47565b60405180910390f35b3480156103db57600080fd5b506103f660048036038101906103f19190614684565b611927565b6040516104039190614aef565b60405180910390f35b34801561041857600080fd5b50610433600480360381019061042e9190614684565b611944565b6040516104409190614aef565b60405180910390f35b610463600480360381019061045e9190614aa0565b611961565b005b34801561047157600080fd5b5061048c60048036038101906104879190614684565b611b52565b005b34801561049a57600080fd5b506104b560048036038101906104b09190614684565b611d81565b005b3480156104c357600080fd5b506104de60048036038101906104d99190614684565b611fb0565b005b3480156104ec57600080fd5b5061050760048036038101906105029190614684565b612234565b005b34801561051557600080fd5b50610530600480360381019061052b9190614684565b6124e2565b60405161053d9190614cd1565b60405180910390f35b34801561055257600080fd5b5061056d60048036038101906105689190614684565b6125d9565b005b34801561057b57600080fd5b5061059660048036038101906105919190614684565b612895565b6040516105a39190614d7a565b60405180910390f35b6105c660048036038101906105c19190614aa0565b6129a0565b005b3480156105d457600080fd5b506105ef60048036038101906105ea9190614dc1565b612be9565b005b3480156105fd57600080fd5b50610606612f9d565b005b34801561061457600080fd5b5061062f600480360381019061062a9190614e01565b61300b565b005b34801561063d57600080fd5b5061065860048036038101906106539190614684565b613419565b005b34801561066657600080fd5b50610681600480360381019061067c9190614e01565b613645565b005b34801561068f57600080fd5b506106aa60048036038101906106a59190614684565b613a53565b6040516106b79190614aef565b60405180910390f35b3480156106cc57600080fd5b506106e760048036038101906106e29190614684565b613a73565b6040516106f49190614ef6565b60405180910390f35b60606000600d60003373ffffffffffffffffffffffffffffffffffffffff1673ffffffffffffffffffffffffffffffffffffffff16815260200190815260200160002080548060200260200160405190810160405280929190818152602001828054801561078a57602002820191906000526020600020905b815481526020019060010190808311610776575b5050505050905060008151905060008167ffffffffffffffff8111156107b3576107b2614f11565b5b6040519080825280602002602001820160405280156107ec57816020015b6107d9614305565b8152602001906001900390816107d15790505b50905060005b82811015610925576009600085838151811061081157610810614f40565b5b602002602001015181526020019081526020016000206040518060a0016040529081600082015481526020016001820160009054906101000a900473ffffffffffffffffffffffffffffffffffffffff1673ffffffffffffffffffffffffffffffffffffffff1673ffffffffffffffffffffffffffffffffffffffff1681526020016002820160009054906101000a900473ffffffffffffffffffffffffffffffffffffffff1673ffffffffffffffffffffffffffffffffffffffff1673ffffffffffffffffffffffffffffffffffffffff1681526020016003820154815260200160048201548152505082828151811061090f5761090e614f40565b5b60200260200101819052508060010190506107f2565b5080935050505090565b803373ffffffffffffffffffffffffffffffffffffffff166008600083815260200190815260200160002060010160009054906101000a900473ffffffffffffffffffffffffffffffffffffffff1673ffffffffffffffffffffffffffffffffffffffff16146109cb576040517f0d9ff29600000000000000000000000000000000000000000000000000000000815260040160405180910390fd5b6015600083815260200190815260200160002060009054906101000a900460ff1615610a23576040517f18fbf5ed00000000000000000000000000000000000000000000000000000000815260040160405180910390fd5b610a7482600c60003373ffffffffffffffffffffffffffffffffffffffff1673ffffffffffffffffffffffffffffffffffffffff168152602001908152602001600020613b7e90919063ffffffff16565b60016015600084815260200190815260200160002060006101000a81548160ff02191690831515021790555060003373ffffffffffffffffffffffffffffffffffffffff166018600085815260200190815260200160002054604051610ad990614fa0565b60006040518083038185875af1925050503d8060008114610b16576040519150601f19603f3d011682016040523d82523d6000602084013e610b1b565b606091505b5050905080610b56576040517f75a8758900000000000000000000000000000000000000000000000000000000815260040160405180910390fd5b505050565b60606000600b60003373ffffffffffffffffffffffffffffffffffffffff1673ffffffffffffffffffffffffffffffffffffffff168152602001908152602001600020805480602002602001604051908101604052809291908181526020018280548015610be857602002820191906000526020600020905b815481526020019060010190808311610bd4575b5050505050905060008151905060008167ffffffffffffffff811115610c1157610c10614f11565b5b604051908082528060200260200182016040528015610c4a57816020015b610c37614360565b815260200190600190039081610c2f5790505b50905060005b82811015610d975760076000858381518110610c6f57610c6e614f40565b5b602002602001015181526020019081526020016000206040518060e0016040529081600082015481526020016001820160009054906101000a900473ffffffffffffffffffffffffffffffffffffffff1673ffffffffffffffffffffffffffffffffffffffff1673ffffffffffffffffffffffffffffffffffffffff1681526020016002820160009054906101000a900473ffffffffffffffffffffffffffffffffffffffff1673ffffffffffffffffffffffffffffffffffffffff1673ffffffffffffffffffffffffffffffffffffffff168152602001600382015481526020016004820154815260200160058201548152602001600682015481525050828281518110610d8157610d80614f40565b5b6020026020010181905250806001019050610c50565b5080935050505090565b610da96143c9565b600660008381526020019081526020016000206040518060a0016040529081600082015481526020016001820160009054906101000a900473ffffffffffffffffffffffffffffffffffffffff1673ffffffffffffffffffffffffffffffffffffffff1673ffffffffffffffffffffffffffffffffffffffff16815260200160028201548152602001600382015481526020016004820154815250509050919050565b60606000600a60003373ffffffffffffffffffffffffffffffffffffffff1673ffffffffffffffffffffffffffffffffffffffff168152602001908152602001600020805480602002602001604051908101604052809291908181526020018280548015610ed957602002820191906000526020600020905b815481526020019060010190808311610ec5575b5050505050905060008151905060008167ffffffffffffffff811115610f0257610f01614f11565b5b604051908082528060200260200182016040528015610f3b57816020015b610f286143c9565b815260200190600190039081610f205790505b50905060005b828110156110285760066000858381518110610f6057610f5f614f40565b5b602002602001015181526020019081526020016000206040518060a0016040529081600082015481526020016001820160009054906101000a900473ffffffffffffffffffffffffffffffffffffffff1673ffffffffffffffffffffffffffffffffffffffff1673ffffffffffffffffffffffffffffffffffffffff168152602001600282015481526020016003820154815260200160048201548152505082828151811061101257611011614f40565b5b6020026020010181905250806001019050610f41565b5080935050505090565b6000600190505b6110436004613c45565b811161108357600960008281526020019081526020016000206003015442106110705761106f81613c53565b5b808061107b90614fe4565b915050611039565b50565b61108e61440e565b60056000838152602001908152602001600020604051806060016040529081600082015481526020016001820160009054906101000a900473ffffffffffffffffffffffffffffffffffffffff1673ffffffffffffffffffffffffffffffffffffffff1673ffffffffffffffffffffffffffffffffffffffff1681526020016001820160149054906101000a900460ff166003811115611131576111306149cc565b5b6003811115611143576111426149cc565b5b815250509050919050565b6000600190505b61115f6002613c45565b81116111b9576000601760008381526020019081526020016000205411156111a657601160008281526020019081526020016000205442106111a5576111a481613df9565b5b5b80806111b190614fe4565b915050611155565b50565b813373ffffffffffffffffffffffffffffffffffffffff166006600083815260200190815260200160002060010160009054906101000a900473ffffffffffffffffffffffffffffffffffffffff1673ffffffffffffffffffffffffffffffffffffffff1614611258576040517f0d9ff29600000000000000000000000000000000000000000000000000000000815260040160405180910390fd5b60008314806112675750600082145b1561129e576040517f8e277c2c00000000000000000000000000000000000000000000000000000000815260040160405180910390fd5b8134146112d7576040517f055932c300000000000000000000000000000000000000000000000000000000815260040160405180910390fd5b6006600084815260200190815260200160002060030154600660008581526020019081526020016000206002015483611310919061502d565b11156113a2576006600084815260200190815260200160002060030154600660008581526020019081526020016000206002015460066000868152602001908152602001600020600301546113659190615083565b6040517ff6f09cc80000000000000000000000000000000000000000000000000000000081526004016113999291906150b7565b60405180910390fd5b816006600085815260200190815260200160002060020160008282546113c8919061502d565b9250508190555060003073ffffffffffffffffffffffffffffffffffffffff16346040516113f590614fa0565b60006040518083038185875af1925050503d8060008114611432576040519150601f19603f3d011682016040523d82523d6000602084013e611437565b606091505b5050905080611472576040517f75a8758900000000000000000000000000000000000000000000000000000000815260040160405180910390fd5b50505050565b813373ffffffffffffffffffffffffffffffffffffffff166008600083815260200190815260200160002060010160009054906101000a900473ffffffffffffffffffffffffffffffffffffffff1673ffffffffffffffffffffffffffffffffffffffff1614611514576040517f0d9ff29600000000000000000000000000000000000000000000000000000000815260040160405180910390fd5b60008314806115235750600082145b1561155a576040517f8e277c2c00000000000000000000000000000000000000000000000000000000815260040160405180910390fd5b813414611593576040517f055932c300000000000000000000000000000000000000000000000000000000815260040160405180910390fd5b60086000848152602001908152602001600020600401546012600085815260200190815260200160002081905550816008600085815260200190815260200160002060030160008282546115e7919061502d565b9250508190555081601860008581526020019081526020016000206000828254611611919061502d565b9250508190555060003073ffffffffffffffffffffffffffffffffffffffff163460405161163e90614fa0565b60006040518083038185875af1925050503d806000811461167b576040519150601f19603f3d011682016040523d82523d6000602084013e611680565b606091505b50509050806116bb576040517f75a8758900000000000000000000000000000000000000000000000000000000815260040160405180910390fd5b50505050565b600060066000838152602001908152602001600020600201549050919050565b60606000600c60003373ffffffffffffffffffffffffffffffffffffffff1673ffffffffffffffffffffffffffffffffffffffff16815260200190815260200160002080548060200260200160405190810160405280929190818152602001828054801561176e57602002820191906000526020600020905b81548152602001906001019080831161175a575b5050505050905060008151905060008167ffffffffffffffff81111561179757611796614f11565b5b6040519080825280602002602001820160405280156117d057816020015b6117bd614457565b8152602001906001900390816117b55790505b50905060005b8281101561191d57600860008583815181106117f5576117f4614f40565b5b602002602001015181526020019081526020016000206040518060e0016040529081600082015481526020016001820160009054906101000a900473ffffffffffffffffffffffffffffffffffffffff1673ffffffffffffffffffffffffffffffffffffffff1673ffffffffffffffffffffffffffffffffffffffff1681526020016002820160009054906101000a900473ffffffffffffffffffffffffffffffffffffffff1673ffffffffffffffffffffffffffffffffffffffff1673ffffffffffffffffffffffffffffffffffffffff16815260200160038201548152602001600482015481526020016005820154815260200160068201548152505082828151811061190757611906614f40565b5b60200260200101819052508060010190506117d6565b5080935050505090565b600060176000838152602001908152602001600020549050919050565b600060186000838152602001908152602001600020549050919050565b813373ffffffffffffffffffffffffffffffffffffffff166009600083815260200190815260200160002060010160009054906101000a900473ffffffffffffffffffffffffffffffffffffffff1673ffffffffffffffffffffffffffffffffffffffff16146119fd576040517f0d9ff29600000000000000000000000000000000000000000000000000000000815260040160405180910390fd5b6000831480611a0c5750600082145b15611a43576040517f8e277c2c00000000000000000000000000000000000000000000000000000000815260040160405180910390fd5b813414611a7c576040517f055932c300000000000000000000000000000000000000000000000000000000815260040160405180910390fd5b81600960008581526020019081526020016000206004016000828254611aa2919061502d565b9250508190555060003073ffffffffffffffffffffffffffffffffffffffff1634604051611acf90614fa0565b60006040518083038185875af1925050503d8060008114611b0c576040519150601f19603f3d011682016040523d82523d6000602084013e611b11565b606091505b5050905080611b4c576040517f75a8758900000000000000000000000000000000000000000000000000000000815260040160405180910390fd5b50505050565b803373ffffffffffffffffffffffffffffffffffffffff166009600083815260200190815260200160002060010160009054906101000a900473ffffffffffffffffffffffffffffffffffffffff1673ffffffffffffffffffffffffffffffffffffffff1614611bee576040517f0d9ff29600000000000000000000000000000000000000000000000000000000815260040160405180910390fd5b6016600083815260200190815260200160002060009054906101000a900460ff1615611c46576040517f18fbf5ed00000000000000000000000000000000000000000000000000000000815260040160405180910390fd5b611c9782600d60003373ffffffffffffffffffffffffffffffffffffffff1673ffffffffffffffffffffffffffffffffffffffff168152602001908152602001600020613b7e90919063ffffffff16565b60016016600084815260200190815260200160002060006101000a81548160ff02191690831515021790555060003373ffffffffffffffffffffffffffffffffffffffff166009600085815260200190815260200160002060040154604051611cff90614fa0565b60006040518083038185875af1925050503d8060008114611d3c576040519150601f19603f3d011682016040523d82523d6000602084013e611d41565b606091505b5050905080611d7c576040517f75a8758900000000000000000000000000000000000000000000000000000000815260040160405180910390fd5b505050565b803373ffffffffffffffffffffffffffffffffffffffff166006600083815260200190815260200160002060010160009054906101000a900473ffffffffffffffffffffffffffffffffffffffff1673ffffffffffffffffffffffffffffffffffffffff1614611e1d576040517f0d9ff29600000000000000000000000000000000000000000000000000000000815260040160405180910390fd5b6013600083815260200190815260200160002060009054906101000a900460ff1615611e75576040517f18fbf5ed00000000000000000000000000000000000000000000000000000000815260040160405180910390fd5b611ec682600a60003373ffffffffffffffffffffffffffffffffffffffff1673ffffffffffffffffffffffffffffffffffffffff168152602001908152602001600020613b7e90919063ffffffff16565b60016013600084815260200190815260200160002060006101000a81548160ff02191690831515021790555060003373ffffffffffffffffffffffffffffffffffffffff166006600085815260200190815260200160002060020154604051611f2e90614fa0565b60006040518083038185875af1925050503d8060008114611f6b576040519150601f19603f3d011682016040523d82523d6000602084013e611f70565b606091505b5050905080611fab576040517f75a8758900000000000000000000000000000000000000000000000000000000815260040160405180910390fd5b505050565b600660008281526020019081526020016000206003015460066000838152602001908152602001600020600201541080611fff5750600660008281526020019081526020016000206004015442105b15612036576040517fa3fc45c600000000000000000000000000000000000000000000000000000000815260040160405180910390fd5b6013600082815260200190815260200160002060009054906101000a900460ff161561208e576040517f18fbf5ed00000000000000000000000000000000000000000000000000000000815260040160405180910390fd5b61211581600a60006006600086815260200190815260200160002060010160009054906101000a900473ffffffffffffffffffffffffffffffffffffffff1673ffffffffffffffffffffffffffffffffffffffff1673ffffffffffffffffffffffffffffffffffffffff168152602001908152602001600020613b7e90919063ffffffff16565b60016013600083815260200190815260200160002060006101000a81548160ff02191690831515021790555060006006600083815260200190815260200160002060010160009054906101000a900473ffffffffffffffffffffffffffffffffffffffff1673ffffffffffffffffffffffffffffffffffffffff1660066000848152602001908152602001600020600201546040516121b390614fa0565b60006040518083038185875af1925050503d80600081146121f0576040519150601f19603f3d011682016040523d82523d6000602084013e6121f5565b606091505b5050905080612230576040517f75a8758900000000000000000000000000000000000000000000000000000000815260040160405180910390fd5b5050565b600081141561226f576040517f8e277c2c00000000000000000000000000000000000000000000000000000000815260040160405180910390fd5b6122796000614069565b6122836001614069565b6000604051806060016040528061229a6000613c45565b81526020013373ffffffffffffffffffffffffffffffffffffffff168152602001600060038111156122cf576122ce6149cc565b5b815250905060006040518060a001604052806122eb6001613c45565b81526020013373ffffffffffffffffffffffffffffffffffffffff1681526020016006600061231a6001613c45565b815260200190815260200160002060020154815260200184815260200160008152509050816005600061234d6000613c45565b81526020019081526020016000206000820151816000015560208201518160010160006101000a81548173ffffffffffffffffffffffffffffffffffffffff021916908373ffffffffffffffffffffffffffffffffffffffff16021790555060408201518160010160146101000a81548160ff021916908360038111156123d7576123d66149cc565b5b021790555090505080600660006123ee6001613c45565b81526020019081526020016000206000820151816000015560208201518160010160006101000a81548173ffffffffffffffffffffffffffffffffffffffff021916908373ffffffffffffffffffffffffffffffffffffffff160217905550604082015181600201556060820151816003015560808201518160040155905050600a60003373ffffffffffffffffffffffffffffffffffffffff1673ffffffffffffffffffffffffffffffffffffffff1681526020019081526020016000206124b76001613c45565b9080600181540180825580915050600190039060005260206000200160009091909190915055505050565b6124ea614305565b600960008381526020019081526020016000206040518060a0016040529081600082015481526020016001820160009054906101000a900473ffffffffffffffffffffffffffffffffffffffff1673ffffffffffffffffffffffffffffffffffffffff1673ffffffffffffffffffffffffffffffffffffffff1681526020016002820160009054906101000a900473ffffffffffffffffffffffffffffffffffffffff1673ffffffffffffffffffffffffffffffffffffffff1673ffffffffffffffffffffffffffffffffffffffff168152602001600382015481526020016004820154815250509050919050565b6000811415612614576040517f8e277c2c00000000000000000000000000000000000000000000000000000000815260040160405180910390fd5b61261e6000614069565b6126286001614069565b4281612634919061502d565b90506000604051806060016040528061264d6000613c45565b81526020013373ffffffffffffffffffffffffffffffffffffffff16815260200160006003811115612682576126816149cc565b5b815250905060006040518060a0016040528061269e6001613c45565b81526020013373ffffffffffffffffffffffffffffffffffffffff168152602001600660006126cd6001613c45565b81526020019081526020016000206002015481526020016000815260200184815250905081600560006127006000613c45565b81526020019081526020016000206000820151816000015560208201518160010160006101000a81548173ffffffffffffffffffffffffffffffffffffffff021916908373ffffffffffffffffffffffffffffffffffffffff16021790555060408201518160010160146101000a81548160ff0219169083600381111561278a576127896149cc565b5b021790555090505080600660006127a16001613c45565b81526020019081526020016000206000820151816000015560208201518160010160006101000a81548173ffffffffffffffffffffffffffffffffffffffff021916908373ffffffffffffffffffffffffffffffffffffffff160217905550604082015181600201556060820151816003015560808201518160040155905050600a60003373ffffffffffffffffffffffffffffffffffffffff1673ffffffffffffffffffffffffffffffffffffffff16815260200190815260200160002061286a6001613c45565b9080600181540180825580915050600190039060005260206000200160009091909190915055505050565b61289d614360565b600760008381526020019081526020016000206040518060e0016040529081600082015481526020016001820160009054906101000a900473ffffffffffffffffffffffffffffffffffffffff1673ffffffffffffffffffffffffffffffffffffffff1673ffffffffffffffffffffffffffffffffffffffff1681526020016002820160009054906101000a900473ffffffffffffffffffffffffffffffffffffffff1673ffffffffffffffffffffffffffffffffffffffff1673ffffffffffffffffffffffffffffffffffffffff1681526020016003820154815260200160048201548152602001600582015481526020016006820154815250509050919050565b813373ffffffffffffffffffffffffffffffffffffffff166007600083815260200190815260200160002060010160009054906101000a900473ffffffffffffffffffffffffffffffffffffffff1673ffffffffffffffffffffffffffffffffffffffff1614612a3c576040517f0d9ff29600000000000000000000000000000000000000000000000000000000815260040160405180910390fd5b6000831480612a4b5750600082145b15612a82576040517f8e277c2c00000000000000000000000000000000000000000000000000000000815260040160405180910390fd5b813414612abb576040517f055932c300000000000000000000000000000000000000000000000000000000815260040160405180910390fd5b6007600084815260200190815260200160002060040154601160008581526020019081526020016000208190555081600760008581526020019081526020016000206003016000828254612b0f919061502d565b9250508190555081601760008581526020019081526020016000206000828254612b39919061502d565b9250508190555060003073ffffffffffffffffffffffffffffffffffffffff1634604051612b6690614fa0565b60006040518083038185875af1925050503d8060008114612ba3576040519150601f19603f3d011682016040523d82523d6000602084013e612ba8565b606091505b5050905080612be3576040517f75a8758900000000000000000000000000000000000000000000000000000000815260040160405180910390fd5b50505050565b600073ffffffffffffffffffffffffffffffffffffffff168273ffffffffffffffffffffffffffffffffffffffff161480612c245750600081145b15612c5b576040517f8e277c2c00000000000000000000000000000000000000000000000000000000815260040160405180910390fd5b612c656000614069565b612c6f6004614069565b4281612c7b919061502d565b905060006040518060600160405280612c946000613c45565b81526020013373ffffffffffffffffffffffffffffffffffffffff168152602001600380811115612cc857612cc76149cc565b5b815250905060006040518060a00160405280612ce46004613c45565b81526020013373ffffffffffffffffffffffffffffffffffffffff1681526020018573ffffffffffffffffffffffffffffffffffffffff16815260200184815260200160096000612d356004613c45565b81526020019081526020016000206004015481525090508160056000612d5b6000613c45565b81526020019081526020016000206000820151816000015560208201518160010160006101000a81548173ffffffffffffffffffffffffffffffffffffffff021916908373ffffffffffffffffffffffffffffffffffffffff16021790555060408201518160010160146101000a81548160ff02191690836003811115612de557612de46149cc565b5b02179055509050508060096000612dfc6004613c45565b81526020019081526020016000206000820151816000015560208201518160010160006101000a81548173ffffffffffffffffffffffffffffffffffffffff021916908373ffffffffffffffffffffffffffffffffffffffff16021790555060408201518160020160006101000a81548173ffffffffffffffffffffffffffffffffffffffff021916908373ffffffffffffffffffffffffffffffffffffffff1602179055506060820151816003015560808201518160040155905050600d60003373ffffffffffffffffffffffffffffffffffffffff1673ffffffffffffffffffffffffffffffffffffffff168152602001908152602001600020612f026004613c45565b9080600181540180825580915050600190039060005260206000200160009091909190915055601060008573ffffffffffffffffffffffffffffffffffffffff1673ffffffffffffffffffffffffffffffffffffffff168152602001908152602001600020612f716004613c45565b908060018154018082558091505060019003906000526020600020016000909190919091505550505050565b6000600190505b612fae6003613c45565b811161300857600060186000838152602001908152602001600020541115612ff55760126000828152602001908152602001600020544210612ff457612ff38161407f565b5b5b808061300090614fe4565b915050612fa4565b50565b600073ffffffffffffffffffffffffffffffffffffffff168473ffffffffffffffffffffffffffffffffffffffff1614806130465750600083145b806130515750600082145b8061305c5750600081145b15613093576040517f8e277c2c00000000000000000000000000000000000000000000000000000000815260040160405180910390fd5b61309d6000614069565b6130a76003614069565b42836130b3919061502d565b9250600060405180606001604052806130cc6000613c45565b81526020013373ffffffffffffffffffffffffffffffffffffffff16815260200160026003811115613101576131006149cc565b5b815250905060006040518060e0016040528061311d6003613c45565b81526020013373ffffffffffffffffffffffffffffffffffffffff1681526020018773ffffffffffffffffffffffffffffffffffffffff168152602001600860006131686003613c45565b815260200190815260200160002060030154815260200186815260200185815260200184815250905081600560006131a06000613c45565b81526020019081526020016000206000820151816000015560208201518160010160006101000a81548173ffffffffffffffffffffffffffffffffffffffff021916908373ffffffffffffffffffffffffffffffffffffffff16021790555060408201518160010160146101000a81548160ff0219169083600381111561322a576132296149cc565b5b021790555090505080600860006132416003613c45565b81526020019081526020016000206000820151816000015560208201518160010160006101000a81548173ffffffffffffffffffffffffffffffffffffffff021916908373ffffffffffffffffffffffffffffffffffffffff16021790555060408201518160020160006101000a81548173ffffffffffffffffffffffffffffffffffffffff021916908373ffffffffffffffffffffffffffffffffffffffff160217905550606082015181600301556080820151816004015560a0820151816005015560c0820151816006015590505084601260006133216003613c45565b815260200190815260200160002081905550600c60003373ffffffffffffffffffffffffffffffffffffffff1673ffffffffffffffffffffffffffffffffffffffff16815260200190815260200160002061337c6003613c45565b9080600181540180825580915050600190039060005260206000200160009091909190915055600f60008773ffffffffffffffffffffffffffffffffffffffff1673ffffffffffffffffffffffffffffffffffffffff1681526020019081526020016000206133eb6003613c45565b9080600181540180825580915050600190039060005260206000200160009091909190915055505050505050565b803373ffffffffffffffffffffffffffffffffffffffff166007600083815260200190815260200160002060010160009054906101000a900473ffffffffffffffffffffffffffffffffffffffff1673ffffffffffffffffffffffffffffffffffffffff16146134b5576040517f0d9ff29600000000000000000000000000000000000000000000000000000000815260040160405180910390fd5b6014600083815260200190815260200160002060009054906101000a900460ff161561350d576040517f18fbf5ed00000000000000000000000000000000000000000000000000000000815260040160405180910390fd5b61355e82600b60003373ffffffffffffffffffffffffffffffffffffffff1673ffffffffffffffffffffffffffffffffffffffff168152602001908152602001600020613b7e90919063ffffffff16565b60016014600084815260200190815260200160002060006101000a81548160ff02191690831515021790555060003373ffffffffffffffffffffffffffffffffffffffff1660176000858152602001908152602001600020546040516135c390614fa0565b60006040518083038185875af1925050503d8060008114613600576040519150601f19603f3d011682016040523d82523d6000602084013e613605565b606091505b5050905080613640576040517f75a8758900000000000000000000000000000000000000000000000000000000815260040160405180910390fd5b505050565b600073ffffffffffffffffffffffffffffffffffffffff168473ffffffffffffffffffffffffffffffffffffffff1614806136805750600083145b8061368b5750600082145b806136965750600081145b156136cd576040517f8e277c2c00000000000000000000000000000000000000000000000000000000815260040160405180910390fd5b6136d76000614069565b6136e16002614069565b42836136ed919061502d565b9250600060405180606001604052806137066000613c45565b81526020013373ffffffffffffffffffffffffffffffffffffffff1681526020016001600381111561373b5761373a6149cc565b5b815250905060006040518060e001604052806137576002613c45565b81526020013373ffffffffffffffffffffffffffffffffffffffff1681526020018773ffffffffffffffffffffffffffffffffffffffff168152602001600760006137a26002613c45565b815260200190815260200160002060030154815260200186815260200185815260200184815250905081600560006137da6000613c45565b81526020019081526020016000206000820151816000015560208201518160010160006101000a81548173ffffffffffffffffffffffffffffffffffffffff021916908373ffffffffffffffffffffffffffffffffffffffff16021790555060408201518160010160146101000a81548160ff02191690836003811115613864576138636149cc565b5b0217905550905050806007600061387b6002613c45565b81526020019081526020016000206000820151816000015560208201518160010160006101000a81548173ffffffffffffffffffffffffffffffffffffffff021916908373ffffffffffffffffffffffffffffffffffffffff16021790555060408201518160020160006101000a81548173ffffffffffffffffffffffffffffffffffffffff021916908373ffffffffffffffffffffffffffffffffffffffff160217905550606082015181600301556080820151816004015560a0820151816005015560c08201518160060155905050846011600061395b6002613c45565b815260200190815260200160002081905550600b60003373ffffffffffffffffffffffffffffffffffffffff1673ffffffffffffffffffffffffffffffffffffffff1681526020019081526020016000206139b66002613c45565b9080600181540180825580915050600190039060005260206000200160009091909190915055600e60008773ffffffffffffffffffffffffffffffffffffffff1673ffffffffffffffffffffffffffffffffffffffff168152602001908152602001600020613a256002613c45565b9080600181540180825580915050600190039060005260206000200160009091909190915055505050505050565b600060096000838152602001908152602001600020600401549050919050565b613a7b614457565b600860008381526020019081526020016000206040518060e0016040529081600082015481526020016001820160009054906101000a900473ffffffffffffffffffffffffffffffffffffffff1673ffffffffffffffffffffffffffffffffffffffff1673ffffffffffffffffffffffffffffffffffffffff1681526020016002820160009054906101000a900473ffffffffffffffffffffffffffffffffffffffff1673ffffffffffffffffffffffffffffffffffffffff1673ffffffffffffffffffffffffffffffffffffffff1681526020016003820154815260200160048201548152602001600582015481526020016006820154815250509050919050565b60005b8280549050811015613c405781838281548110613ba157613ba0614f40565b5b90600052602060002001541415613c2d578260018480549050613bc49190615083565b81548110613bd557613bd4614f40565b5b9060005260206000200154838281548110613bf357613bf2614f40565b5b906000526020600020018190555082805480613c1257613c116150e0565b5b60019003818190600052602060002001600090559055613c40565b8080613c3890614fe4565b915050613b81565b505050565b600081600001549050919050565b613cda81600d60006009600086815260200190815260200160002060010160009054906101000a900473ffffffffffffffffffffffffffffffffffffffff1673ffffffffffffffffffffffffffffffffffffffff1673ffffffffffffffffffffffffffffffffffffffff168152602001908152602001600020613b7e90919063ffffffff16565b60016016600083815260200190815260200160002060006101000a81548160ff02191690831515021790555060006009600083815260200190815260200160002060020160009054906101000a900473ffffffffffffffffffffffffffffffffffffffff1673ffffffffffffffffffffffffffffffffffffffff166009600084815260200190815260200160002060040154604051613d7890614fa0565b60006040518083038185875af1925050503d8060008114613db5576040519150601f19603f3d011682016040523d82523d6000602084013e613dba565b606091505b5050905080613df5576040517f75a8758900000000000000000000000000000000000000000000000000000000815260040160405180910390fd5b5050565b60008042905060006011600085815260200190815260200160002054905060006007600086815260200190815260200160002060060154905060006001828486613e439190615083565b613e4d919061513e565b613e57919061502d565b90508181613e65919061516f565b601160008881526020019081526020016000206000828254613e87919061502d565b92505081905550600760008781526020019081526020016000206005015460176000888152602001908152602001600020541015613ed657601760008781526020019081526020016000205494505b6007600087815260200190815260200160002060050154601760008881526020019081526020016000205410613f5d57600760008781526020019081526020016000206005015481613f28919061516f565b94506017600087815260200190815260200160002054851115613f5c57601760008781526020019081526020016000205494505b5b84601760008881526020019081526020016000206000828254613f809190615083565b9250508190555060006007600088815260200190815260200160002060020160009054906101000a900473ffffffffffffffffffffffffffffffffffffffff1673ffffffffffffffffffffffffffffffffffffffff1686604051613fe390614fa0565b60006040518083038185875af1925050503d8060008114614020576040519150601f19603f3d011682016040523d82523d6000602084013e614025565b606091505b5050905080614060576040517f75a8758900000000000000000000000000000000000000000000000000000000815260040160405180910390fd5b50505050505050565b6001816000016000828254019250508190555050565b60008060086000848152602001908152602001600020600401549050600060126000858152602001908152602001600020549050600060086000868152602001908152602001600020600601549050600060018284866140df9190615083565b6140e9919061513e565b6140f3919061502d565b90508181614101919061516f565b601260008881526020019081526020016000206000828254614123919061502d565b9250508190555060086000878152602001908152602001600020600501546018600088815260200190815260200160002054101561417257601860008781526020019081526020016000205494505b60086000878152602001908152602001600020600501546018600088815260200190815260200160002054106141f9576008600087815260200190815260200160002060050154816141c4919061516f565b945060186000878152602001908152602001600020548511156141f857601860008781526020019081526020016000205494505b5b8460186000888152602001908152602001600020600082825461421c9190615083565b9250508190555060006008600088815260200190815260200160002060020160009054906101000a900473ffffffffffffffffffffffffffffffffffffffff1673ffffffffffffffffffffffffffffffffffffffff168660405161427f90614fa0565b60006040518083038185875af1925050503d80600081146142bc576040519150601f19603f3d011682016040523d82523d6000602084013e6142c1565b606091505b50509050806142fc576040517f75a8758900000000000000000000000000000000000000000000000000000000815260040160405180910390fd5b50505050505050565b6040518060a0016040528060008152602001600073ffffffffffffffffffffffffffffffffffffffff168152602001600073ffffffffffffffffffffffffffffffffffffffff16815260200160008152602001600081525090565b6040518060e0016040528060008152602001600073ffffffffffffffffffffffffffffffffffffffff168152602001600073ffffffffffffffffffffffffffffffffffffffff168152602001600081526020016000815260200160008152602001600081525090565b6040518060a0016040528060008152602001600073ffffffffffffffffffffffffffffffffffffffff1681526020016000815260200160008152602001600081525090565b604051806060016040528060008152602001600073ffffffffffffffffffffffffffffffffffffffff16815260200160006003811115614451576144506149cc565b5b81525090565b6040518060e0016040528060008152602001600073ffffffffffffffffffffffffffffffffffffffff168152602001600073ffffffffffffffffffffffffffffffffffffffff168152602001600081526020016000815260200160008152602001600081525090565b600081519050919050565b600082825260208201905092915050565b6000819050602082019050919050565b6000819050919050565b6144ff816144ec565b82525050565b600073ffffffffffffffffffffffffffffffffffffffff82169050919050565b600061453082614505565b9050919050565b61454081614525565b82525050565b60a08201600082015161455c60008501826144f6565b50602082015161456f6020850182614537565b5060408201516145826040850182614537565b50606082015161459560608501826144f6565b5060808201516145a860808501826144f6565b50505050565b60006145ba8383614546565b60a08301905092915050565b6000602082019050919050565b60006145de826144c0565b6145e881856144cb565b93506145f3836144dc565b8060005b8381101561462457815161460b88826145ae565b9750614616836145c6565b9250506001810190506145f7565b5085935050505092915050565b6000602082019050818103600083015261464b81846145d3565b905092915050565b600080fd5b614661816144ec565b811461466c57600080fd5b50565b60008135905061467e81614658565b92915050565b60006020828403121561469a57614699614653565b5b60006146a88482850161466f565b91505092915050565b600081519050919050565b600082825260208201905092915050565b6000819050602082019050919050565b60e0820160008201516146f360008501826144f6565b5060208201516147066020850182614537565b5060408201516147196040850182614537565b50606082015161472c60608501826144f6565b50608082015161473f60808501826144f6565b5060a082015161475260a08501826144f6565b5060c082015161476560c08501826144f6565b50505050565b600061477783836146dd565b60e08301905092915050565b6000602082019050919050565b600061479b826146b1565b6147a581856146bc565b93506147b0836146cd565b8060005b838110156147e15781516147c8888261476b565b97506147d383614783565b9250506001810190506147b4565b5085935050505092915050565b600060208201905081810360008301526148088184614790565b905092915050565b60a08201600082015161482660008501826144f6565b5060208201516148396020850182614537565b50604082015161484c60408501826144f6565b50606082015161485f60608501826144f6565b50608082015161487260808501826144f6565b50505050565b600060a08201905061488d6000830184614810565b92915050565b600081519050919050565b600082825260208201905092915050565b6000819050602082019050919050565b60a0820160008201516148d560008501826144f6565b5060208201516148e86020850182614537565b5060408201516148fb60408501826144f6565b50606082015161490e60608501826144f6565b50608082015161492160808501826144f6565b50505050565b600061493383836148bf565b60a08301905092915050565b6000602082019050919050565b600061495782614893565b614961818561489e565b935061496c836148af565b8060005b8381101561499d5781516149848882614927565b975061498f8361493f565b925050600181019050614970565b5085935050505092915050565b600060208201905081810360008301526149c4818461494c565b905092915050565b7f4e487b7100000000000000000000000000000000000000000000000000000000600052602160045260246000fd5b60048110614a0c57614a0b6149cc565b5b50565b6000819050614a1d826149fb565b919050565b6000614a2d82614a0f565b9050919050565b614a3d81614a22565b82525050565b606082016000820151614a5960008501826144f6565b506020820151614a6c6020850182614537565b506040820151614a7f6040850182614a34565b50505050565b6000606082019050614a9a6000830184614a43565b92915050565b60008060408385031215614ab757614ab6614653565b5b6000614ac58582860161466f565b9250506020614ad68582860161466f565b9150509250929050565b614ae9816144ec565b82525050565b6000602082019050614b046000830184614ae0565b92915050565b600081519050919050565b600082825260208201905092915050565b6000819050602082019050919050565b60e082016000820151614b4c60008501826144f6565b506020820151614b5f6020850182614537565b506040820151614b726040850182614537565b506060820151614b8560608501826144f6565b506080820151614b9860808501826144f6565b5060a0820151614bab60a08501826144f6565b5060c0820151614bbe60c08501826144f6565b50505050565b6000614bd08383614b36565b60e08301905092915050565b6000602082019050919050565b6000614bf482614b0a565b614bfe8185614b15565b9350614c0983614b26565b8060005b83811015614c3a578151614c218882614bc4565b9750614c2c83614bdc565b925050600181019050614c0d565b5085935050505092915050565b60006020820190508181036000830152614c618184614be9565b905092915050565b60a082016000820151614c7f60008501826144f6565b506020820151614c926020850182614537565b506040820151614ca56040850182614537565b506060820151614cb860608501826144f6565b506080820151614ccb60808501826144f6565b50505050565b600060a082019050614ce66000830184614c69565b92915050565b60e082016000820151614d0260008501826144f6565b506020820151614d156020850182614537565b506040820151614d286040850182614537565b506060820151614d3b60608501826144f6565b506080820151614d4e60808501826144f6565b5060a0820151614d6160a08501826144f6565b5060c0820151614d7460c08501826144f6565b50505050565b600060e082019050614d8f6000830184614cec565b92915050565b614d9e81614525565b8114614da957600080fd5b50565b600081359050614dbb81614d95565b92915050565b60008060408385031215614dd857614dd7614653565b5b6000614de685828601614dac565b9250506020614df78582860161466f565b9150509250929050565b60008060008060808587031215614e1b57614e1a614653565b5b6000614e2987828801614dac565b9450506020614e3a8782880161466f565b9350506040614e4b8782880161466f565b9250506060614e5c8782880161466f565b91505092959194509250565b60e082016000820151614e7e60008501826144f6565b506020820151614e916020850182614537565b506040820151614ea46040850182614537565b506060820151614eb760608501826144f6565b506080820151614eca60808501826144f6565b5060a0820151614edd60a08501826144f6565b5060c0820151614ef060c08501826144f6565b50505050565b600060e082019050614f0b6000830184614e68565b92915050565b7f4e487b7100000000000000000000000000000000000000000000000000000000600052604160045260246000fd5b7f4e487b7100000000000000000000000000000000000000000000000000000000600052603260045260246000fd5b600081905092915050565b50565b6000614f8a600083614f6f565b9150614f9582614f7a565b600082019050919050565b6000614fab82614f7d565b9150819050919050565b7f4e487b7100000000000000000000000000000000000000000000000000000000600052601160045260246000fd5b6000614fef826144ec565b91507fffffffffffffffffffffffffffffffffffffffffffffffffffffffffffffffff82141561502257615021614fb5565b5b600182019050919050565b6000615038826144ec565b9150615043836144ec565b9250827fffffffffffffffffffffffffffffffffffffffffffffffffffffffffffffffff0382111561507857615077614fb5565b5b828201905092915050565b600061508e826144ec565b9150615099836144ec565b9250828210156150ac576150ab614fb5565b5b828203905092915050565b60006040820190506150cc6000830185614ae0565b6150d96020830184614ae0565b9392505050565b7f4e487b7100000000000000000000000000000000000000000000000000000000600052603160045260246000fd5b7f4e487b7100000000000000000000000000000000000000000000000000000000600052601260045260246000fd5b6000615149826144ec565b9150615154836144ec565b9250826151645761516361510f565b5b828204905092915050565b600061517a826144ec565b9150615185836144ec565b9250817fffffffffffffffffffffffffffffffffffffffffffffffffffffffffffffffff04831182151516156151be576151bd614fb5565b5b82820290509291505056fea26469706673582212201e59cf1f4a77777e24c32defcedb8f9dd770a9c96468ff164210eef7b672de7a64736f6c63430008090033",
  "linkReferences": {},
  "deployedLinkReferences": {}
}