{
  "_format": "hh-sol-artifact-1",
  "contractName": "Atium",
  "sourceName": "contracts/Atium.sol",
  "abi": [
    {
      "inputs": [],
      "name": "Atium_Cancelled",
      "type": "error"
    },
    {
      "inputs": [],
      "name": "Atium_NoWithdrawal",
      "type": "error"
    },
    {
      "inputs": [],
      "name": "Atium_NotAmount",
      "type": "error"
    },
    {
      "inputs": [],
      "name": "Atium_NotOwnerId",
      "type": "error"
    },
    {
      "inputs": [],
      "name": "Atium_NotReceiverId",
      "type": "error"
    },
    {
      "inputs": [
        {
          "internalType": "uint256",
          "name": "goal",
          "type": "uint256"
        },
        {
          "internalType": "uint256",
          "name": "rem",
          "type": "uint256"
        }
      ],
      "name": "Atium_SavingsGoal_Exceeded",
      "type": "error"
    },
    {
      "inputs": [],
      "name": "Atium_SavingsGoal_Not_Hit",
      "type": "error"
    },
    {
      "inputs": [],
      "name": "Atium_TransactionFailed",
      "type": "error"
    },
    {
      "anonymous": false,
      "inputs": [
        {
          "indexed": false,
          "internalType": "uint256",
          "name": "id",
          "type": "uint256"
        },
        {
          "indexed": true,
          "internalType": "address",
          "name": "user",
          "type": "address"
        },
        {
          "indexed": true,
          "internalType": "address",
          "name": "receiver",
          "type": "address"
        },
        {
          "indexed": false,
          "internalType": "uint256",
          "name": "deposit",
          "type": "uint256"
        },
        {
          "indexed": false,
          "internalType": "uint256",
          "name": "startDate",
          "type": "uint256"
        },
        {
          "indexed": false,
          "internalType": "uint256",
          "name": "withdrawal",
          "type": "uint256"
        },
        {
          "indexed": false,
          "internalType": "uint256",
          "name": "interval",
          "type": "uint256"
        }
      ],
      "name": "Allowance",
      "type": "event"
    },
    {
      "anonymous": false,
      "inputs": [
        {
          "indexed": false,
          "internalType": "uint256",
          "name": "id",
          "type": "uint256"
        },
        {
          "indexed": true,
          "internalType": "address",
          "name": "user",
          "type": "address"
        },
        {
          "indexed": true,
          "internalType": "address",
          "name": "receiver",
          "type": "address"
        },
        {
          "indexed": false,
          "internalType": "uint256",
          "name": "deposit",
          "type": "uint256"
        },
        {
          "indexed": false,
          "internalType": "uint256",
          "name": "date",
          "type": "uint256"
        }
      ],
      "name": "Gift",
      "type": "event"
    },
    {
      "anonymous": false,
      "inputs": [
        {
          "indexed": false,
          "internalType": "uint256",
          "name": "id",
          "type": "uint256"
        },
        {
          "indexed": true,
          "internalType": "address",
          "name": "user",
          "type": "address"
        },
        {
          "indexed": false,
          "internalType": "uint256",
          "name": "deposit",
          "type": "uint256"
        },
        {
          "indexed": false,
          "internalType": "uint256",
          "name": "goal",
          "type": "uint256"
        },
        {
          "indexed": false,
          "internalType": "uint256",
          "name": "time",
          "type": "uint256"
        }
      ],
      "name": "Savings",
      "type": "event"
    },
    {
      "anonymous": false,
      "inputs": [
        {
          "indexed": false,
          "internalType": "uint256",
          "name": "id",
          "type": "uint256"
        },
        {
          "indexed": true,
          "internalType": "address",
          "name": "user",
          "type": "address"
        },
        {
          "indexed": true,
          "internalType": "address",
          "name": "receiver",
          "type": "address"
        },
        {
          "indexed": false,
          "internalType": "uint256",
          "name": "deposit",
          "type": "uint256"
        },
        {
          "indexed": false,
          "internalType": "uint256",
          "name": "startDate",
          "type": "uint256"
        },
        {
          "indexed": false,
          "internalType": "uint256",
          "name": "withdrawal",
          "type": "uint256"
        },
        {
          "indexed": false,
          "internalType": "uint256",
          "name": "interval",
          "type": "uint256"
        }
      ],
      "name": "Trustfund",
      "type": "event"
    },
    {
      "anonymous": false,
      "inputs": [
        {
          "indexed": true,
          "internalType": "address",
          "name": "receiver",
          "type": "address"
        },
        {
          "indexed": false,
          "internalType": "uint256",
          "name": "atium",
          "type": "uint256"
        },
        {
          "indexed": false,
          "internalType": "uint256",
          "name": "amount",
          "type": "uint256"
        }
      ],
      "name": "Withdrawn",
      "type": "event"
    },
    {
      "inputs": [
        {
          "internalType": "uint256",
          "name": "_id",
          "type": "uint256"
        },
        {
          "internalType": "uint256",
          "name": "_amount",
          "type": "uint256"
        }
      ],
      "name": "allowance",
      "outputs": [],
      "stateMutability": "payable",
      "type": "function"
    },
    {
      "inputs": [
        {
          "internalType": "address",
          "name": "_receiver",
          "type": "address"
        },
        {
          "internalType": "uint256",
          "name": "_startDate",
          "type": "uint256"
        },
        {
          "internalType": "uint256",
          "name": "_amount",
          "type": "uint256"
        },
        {
          "internalType": "uint256",
          "name": "_interval",
          "type": "uint256"
        }
      ],
      "name": "allowancePlan",
      "outputs": [],
      "stateMutability": "nonpayable",
      "type": "function"
    },
    {
      "inputs": [
        {
          "internalType": "uint256",
          "name": "_id",
          "type": "uint256"
        }
      ],
      "name": "cancelAllowance",
      "outputs": [],
      "stateMutability": "nonpayable",
      "type": "function"
    },
    {
      "inputs": [
        {
          "internalType": "uint256",
          "name": "_id",
          "type": "uint256"
        }
      ],
      "name": "cancelGift",
      "outputs": [],
      "stateMutability": "nonpayable",
      "type": "function"
    },
    {
      "inputs": [
        {
          "internalType": "uint256",
          "name": "_id",
          "type": "uint256"
        }
      ],
      "name": "cancelSavings",
      "outputs": [],
      "stateMutability": "nonpayable",
      "type": "function"
    },
    {
      "inputs": [
        {
          "internalType": "uint256",
          "name": "_id",
          "type": "uint256"
        }
      ],
      "name": "cancelTrustfund",
      "outputs": [],
      "stateMutability": "nonpayable",
      "type": "function"
    },
    {
      "inputs": [
        {
          "internalType": "uint256",
          "name": "_id",
          "type": "uint256"
        },
        {
          "internalType": "address",
          "name": "_receiver",
          "type": "address"
        },
        {
          "internalType": "uint256",
          "name": "_startDate",
          "type": "uint256"
        },
        {
          "internalType": "uint256",
          "name": "_amount",
          "type": "uint256"
        },
        {
          "internalType": "uint256",
          "name": "_interval",
          "type": "uint256"
        }
      ],
      "name": "editAllowancePlan",
      "outputs": [],
      "stateMutability": "nonpayable",
      "type": "function"
    },
    {
      "inputs": [
        {
          "internalType": "uint256",
          "name": "_id",
          "type": "uint256"
        },
        {
          "internalType": "address",
          "name": "_receiver",
          "type": "address"
        },
        {
          "internalType": "uint256",
          "name": "_date",
          "type": "uint256"
        }
      ],
      "name": "editGiftPlan",
      "outputs": [],
      "stateMutability": "nonpayable",
      "type": "function"
    },
    {
      "inputs": [
        {
          "internalType": "uint256",
          "name": "_id",
          "type": "uint256"
        },
        {
          "internalType": "uint256",
          "name": "_goal",
          "type": "uint256"
        }
      ],
      "name": "editSavingsPlanGoal",
      "outputs": [],
      "stateMutability": "nonpayable",
      "type": "function"
    },
    {
      "inputs": [
        {
          "internalType": "uint256",
          "name": "_id",
          "type": "uint256"
        },
        {
          "internalType": "uint256",
          "name": "_time",
          "type": "uint256"
        }
      ],
      "name": "editSavingsPlanTime",
      "outputs": [],
      "stateMutability": "nonpayable",
      "type": "function"
    },
    {
      "inputs": [
        {
          "internalType": "uint256",
          "name": "_id",
          "type": "uint256"
        },
        {
          "internalType": "address",
          "name": "_receiver",
          "type": "address"
        },
        {
          "internalType": "uint256",
          "name": "_startDate",
          "type": "uint256"
        },
        {
          "internalType": "uint256",
          "name": "_amount",
          "type": "uint256"
        },
        {
          "internalType": "uint256",
          "name": "_interval",
          "type": "uint256"
        }
      ],
      "name": "editTrustfundPlan",
      "outputs": [],
      "stateMutability": "nonpayable",
      "type": "function"
    },
    {
      "inputs": [
        {
          "internalType": "uint256",
          "name": "_id",
          "type": "uint256"
        }
      ],
      "name": "getAllowance",
      "outputs": [
        {
          "components": [
            {
              "internalType": "uint256",
              "name": "id",
              "type": "uint256"
            },
            {
              "internalType": "address",
              "name": "sender",
              "type": "address"
            },
            {
              "internalType": "address",
              "name": "receiver",
              "type": "address"
            },
            {
              "internalType": "uint256",
              "name": "deposit",
              "type": "uint256"
            },
            {
              "internalType": "uint256",
              "name": "startDate",
              "type": "uint256"
            },
            {
              "internalType": "uint256",
              "name": "withdrawalAmount",
              "type": "uint256"
            },
            {
              "internalType": "uint256",
              "name": "withdrawalInterval",
              "type": "uint256"
            }
          ],
          "internalType": "struct AtiumPlan.AllowanceList",
          "name": "",
          "type": "tuple"
        }
      ],
      "stateMutability": "view",
      "type": "function"
    },
    {
      "inputs": [
        {
          "internalType": "uint256",
          "name": "_id",
          "type": "uint256"
        }
      ],
      "name": "getAtium",
      "outputs": [
        {
          "components": [
            {
              "internalType": "uint256",
              "name": "id",
              "type": "uint256"
            },
            {
              "internalType": "address",
              "name": "user",
              "type": "address"
            },
            {
              "internalType": "enum AtiumPlan.Select",
              "name": "select",
              "type": "uint8"
            }
          ],
          "internalType": "struct AtiumPlan.AtiumList",
          "name": "",
          "type": "tuple"
        }
      ],
      "stateMutability": "view",
      "type": "function"
    },
    {
      "inputs": [
        {
          "internalType": "uint256",
          "name": "_id",
          "type": "uint256"
        }
      ],
      "name": "getGift",
      "outputs": [
        {
          "components": [
            {
              "internalType": "uint256",
              "name": "id",
              "type": "uint256"
            },
            {
              "internalType": "address",
              "name": "sender",
              "type": "address"
            },
            {
              "internalType": "address",
              "name": "receiver",
              "type": "address"
            },
            {
              "internalType": "uint256",
              "name": "date",
              "type": "uint256"
            },
            {
              "internalType": "uint256",
              "name": "amount",
              "type": "uint256"
            }
          ],
          "internalType": "struct AtiumPlan.GiftList",
          "name": "",
          "type": "tuple"
        }
      ],
      "stateMutability": "view",
      "type": "function"
    },
    {
      "inputs": [
        {
          "internalType": "uint256",
          "name": "_id",
          "type": "uint256"
        }
      ],
      "name": "getSavings",
      "outputs": [
        {
          "components": [
            {
              "internalType": "uint256",
              "name": "id",
              "type": "uint256"
            },
            {
              "internalType": "address",
              "name": "user",
              "type": "address"
            },
            {
              "internalType": "uint256",
              "name": "amount",
              "type": "uint256"
            },
            {
              "internalType": "uint256",
              "name": "goal",
              "type": "uint256"
            },
            {
              "internalType": "uint256",
              "name": "time",
              "type": "uint256"
            }
          ],
          "internalType": "struct AtiumPlan.SavingsList",
          "name": "",
          "type": "tuple"
        }
      ],
      "stateMutability": "view",
      "type": "function"
    },
    {
      "inputs": [
        {
          "internalType": "uint256",
          "name": "_id",
          "type": "uint256"
        }
      ],
      "name": "getTrustfund",
      "outputs": [
        {
          "components": [
            {
              "internalType": "uint256",
              "name": "id",
              "type": "uint256"
            },
            {
              "internalType": "address",
              "name": "sender",
              "type": "address"
            },
            {
              "internalType": "address",
              "name": "receiver",
              "type": "address"
            },
            {
              "internalType": "uint256",
              "name": "amount",
              "type": "uint256"
            },
            {
              "internalType": "uint256",
              "name": "startDate",
              "type": "uint256"
            },
            {
              "internalType": "uint256",
              "name": "withdrawalAmount",
              "type": "uint256"
            },
            {
              "internalType": "uint256",
              "name": "withdrawalInterval",
              "type": "uint256"
            }
          ],
          "internalType": "struct AtiumPlan.TrustFundList",
          "name": "",
          "type": "tuple"
        }
      ],
      "stateMutability": "view",
      "type": "function"
    },
    {
      "inputs": [
        {
          "internalType": "uint256",
          "name": "_id",
          "type": "uint256"
        },
        {
          "internalType": "uint256",
          "name": "_amount",
          "type": "uint256"
        }
      ],
      "name": "gift",
      "outputs": [],
      "stateMutability": "payable",
      "type": "function"
    },
    {
      "inputs": [
        {
          "internalType": "address",
          "name": "_receiver",
          "type": "address"
        },
        {
          "internalType": "uint256",
          "name": "_date",
          "type": "uint256"
        }
      ],
      "name": "giftPlan",
      "outputs": [],
      "stateMutability": "nonpayable",
      "type": "function"
    },
    {
      "inputs": [
        {
          "internalType": "uint256",
          "name": "_id",
          "type": "uint256"
        },
        {
          "internalType": "uint256",
          "name": "_amount",
          "type": "uint256"
        }
      ],
      "name": "save",
      "outputs": [],
      "stateMutability": "payable",
      "type": "function"
    },
    {
      "inputs": [
        {
          "internalType": "uint256",
          "name": "_goal",
          "type": "uint256"
        }
      ],
      "name": "savingsPlanGoal",
      "outputs": [],
      "stateMutability": "nonpayable",
      "type": "function"
    },
    {
      "inputs": [
        {
          "internalType": "uint256",
          "name": "_time",
          "type": "uint256"
        }
      ],
      "name": "savingsPlanTime",
      "outputs": [],
      "stateMutability": "nonpayable",
      "type": "function"
    },
    {
      "inputs": [
        {
          "internalType": "uint256",
          "name": "_id",
          "type": "uint256"
        },
        {
          "internalType": "uint256",
          "name": "_amount",
          "type": "uint256"
        }
      ],
      "name": "trustfund",
      "outputs": [],
      "stateMutability": "payable",
      "type": "function"
    },
    {
      "inputs": [
        {
          "internalType": "address",
          "name": "_receiver",
          "type": "address"
        },
        {
          "internalType": "uint256",
          "name": "_startDate",
          "type": "uint256"
        },
        {
          "internalType": "uint256",
          "name": "_amount",
          "type": "uint256"
        },
        {
          "internalType": "uint256",
          "name": "_interval",
          "type": "uint256"
        }
      ],
      "name": "trustfundPlan",
      "outputs": [],
      "stateMutability": "nonpayable",
      "type": "function"
    },
    {
      "inputs": [
        {
          "internalType": "uint256",
          "name": "_id",
          "type": "uint256"
        }
      ],
      "name": "w_allowance",
      "outputs": [],
      "stateMutability": "nonpayable",
      "type": "function"
    },
    {
      "inputs": [
        {
          "internalType": "uint256",
          "name": "_id",
          "type": "uint256"
        }
      ],
      "name": "w_gift",
      "outputs": [],
      "stateMutability": "nonpayable",
      "type": "function"
    },
    {
      "inputs": [
        {
          "internalType": "uint256",
          "name": "_id",
          "type": "uint256"
        }
      ],
      "name": "w_save",
      "outputs": [],
      "stateMutability": "nonpayable",
      "type": "function"
    },
    {
      "inputs": [
        {
          "internalType": "uint256",
          "name": "_id",
          "type": "uint256"
        }
      ],
      "name": "w_trustfund",
      "outputs": [],
      "stateMutability": "nonpayable",
      "type": "function"
    },
    {
      "stateMutability": "payable",
      "type": "receive"
    }
  ],
  "bytecode": "0x608060405234801561001057600080fd5b50615497806100206000396000f3fe6080604052600436106101a05760003560e01c80639378d65a116100ec578063cca16fa81161008a578063e4d9fff811610064578063e4d9fff814610577578063eb514900146105a0578063ed5579fc146105c9578063fa278ae6146105f2576101a7565b8063cca16fa814610509578063d14fb6db14610525578063d67d10dc1461054e576101a7565b8063ad31cc9f116100c6578063ad31cc9f1461043d578063bf6713f614610466578063c315d635146104a3578063c960174e146104cc576101a7565b80639378d65a146103c2578063a0781399146103eb578063aca9d54c14610414576101a7565b80635029919b116101595780636c793fc9116101335780636c793fc91461032b57806383a74acc14610354578063872c6095146103705780638ee69ae814610399576101a7565b80635029919b146102ca57806357fc0363146102f3578063640117be1461030f576101a7565b8063024025f4146101ac5780631072354b146101d557806313bfb182146101fe5780631f7525d01461023b5780633d53316b146102645780633e346eeb1461028d576101a7565b366101a757005b600080fd5b3480156101b857600080fd5b506101d360048036038101906101ce9190614b0b565b61062f565b005b3480156101e157600080fd5b506101fc60048036038101906101f79190614b86565b6108c3565b005b34801561020a57600080fd5b5061022560048036038101906102209190614b86565b610b08565b6040516102329190614c39565b60405180910390f35b34801561024757600080fd5b50610262600480360381019061025d9190614b86565b610bb3565b005b34801561027057600080fd5b5061028b60048036038101906102869190614c54565b610e54565b005b34801561029957600080fd5b506102b460048036038101906102af9190614b86565b6110b4565b6040516102c19190614d60565b60405180910390f35b3480156102d657600080fd5b506102f160048036038101906102ec9190614b0b565b61117c565b005b61030d60048036038101906103089190614d7b565b611402565b005b61032960048036038101906103249190614d7b565b611818565b005b34801561033757600080fd5b50610352600480360381019061034d9190614b86565b611cb1565b005b61036e60048036038101906103699190614d7b565b611f52565b005b34801561037c57600080fd5b5061039760048036038101906103929190614d7b565b612345565b005b3480156103a557600080fd5b506103c060048036038101906103bb9190614b86565b61253e565b005b3480156103ce57600080fd5b506103e960048036038101906103e49190614b86565b612783565b005b3480156103f757600080fd5b50610412600480360381019061040d9190614b86565b6129c8565b005b34801561042057600080fd5b5061043b60048036038101906104369190614b86565b612bb5565b005b34801561044957600080fd5b50610464600480360381019061045f9190614b86565b612e80565b005b34801561047257600080fd5b5061048d60048036038101906104889190614b86565b613101565b60405161049a9190614e23565b60405180910390f35b3480156104af57600080fd5b506104ca60048036038101906104c59190614b86565b6131f8565b005b3480156104d857600080fd5b506104f360048036038101906104ee9190614b86565b613487565b6040516105009190614ecc565b60405180910390f35b610523600480360381019061051e9190614d7b565b613592565b005b34801561053157600080fd5b5061054c60048036038101906105479190614ee7565b613a2b565b005b34801561055a57600080fd5b5061057560048036038101906105709190614f27565b613d20565b005b34801561058357600080fd5b5061059e60048036038101906105999190614b86565b61403c565b005b3480156105ac57600080fd5b506105c760048036038101906105c29190614d7b565b614281565b005b3480156105d557600080fd5b506105f060048036038101906105eb9190614f27565b61446c565b005b3480156105fe57600080fd5b5061061960048036038101906106149190614b86565b614788565b604051610626919061501c565b60405180910390f35b843373ffffffffffffffffffffffffffffffffffffffff166007600083815260200190815260200160002060010160009054906101000a900473ffffffffffffffffffffffffffffffffffffffff1673ffffffffffffffffffffffffffffffffffffffff16146106cb576040517f0d9ff29600000000000000000000000000000000000000000000000000000000815260040160405180910390fd5b42846106d79190615066565b935060006040518060e001604052808881526020013373ffffffffffffffffffffffffffffffffffffffff1681526020018773ffffffffffffffffffffffffffffffffffffffff168152602001600760008a8152602001908152602001600020600301548152602001428761074c9190615066565b965086815260200185815260200184815250905080600760008981526020019081526020016000206000820151816000015560208201518160010160006101000a81548173ffffffffffffffffffffffffffffffffffffffff021916908373ffffffffffffffffffffffffffffffffffffffff16021790555060408201518160020160006101000a81548173ffffffffffffffffffffffffffffffffffffffff021916908373ffffffffffffffffffffffffffffffffffffffff160217905550606082015181600301556080820151816004015560a0820151816005015560c082015181600601559050508573ffffffffffffffffffffffffffffffffffffffff163373ffffffffffffffffffffffffffffffffffffffff167f7ae56fec07023e809c892be62111eb83aa2c212bbc4687da5af1b43048de86e689600760008c8152602001908152602001600020600301548989896040516108b29594939291906150cb565b60405180910390a350505050505050565b803373ffffffffffffffffffffffffffffffffffffffff166008600083815260200190815260200160002060010160009054906101000a900473ffffffffffffffffffffffffffffffffffffffff1673ffffffffffffffffffffffffffffffffffffffff161461095f576040517f0d9ff29600000000000000000000000000000000000000000000000000000000815260040160405180910390fd5b600c600083815260200190815260200160002060009054906101000a900460ff16156109b7576040517f18fbf5ed00000000000000000000000000000000000000000000000000000000815260040160405180910390fd5b6001600c600084815260200190815260200160002060006101000a81548160ff02191690831515021790555060003373ffffffffffffffffffffffffffffffffffffffff166008600085815260200190815260200160002060030154604051610a1f9061514f565b60006040518083038185875af1925050503d8060008114610a5c576040519150601f19603f3d011682016040523d82523d6000602084013e610a61565b606091505b5050905080610a9c576040517f75a8758900000000000000000000000000000000000000000000000000000000815260040160405180910390fd5b3373ffffffffffffffffffffffffffffffffffffffff167f92ccf450a286a957af52509bc1c9939d1a6a481783e142e41e2499f0bb66ebc660026008600087815260200190815260200160002060030154604051610afb9291906151a9565b60405180910390a2505050565b610b106148b7565b600660008381526020019081526020016000206040518060a0016040529081600082015481526020016001820160009054906101000a900473ffffffffffffffffffffffffffffffffffffffff1673ffffffffffffffffffffffffffffffffffffffff1673ffffffffffffffffffffffffffffffffffffffff16815260200160028201548152602001600382015481526020016004820154815250509050919050565b803373ffffffffffffffffffffffffffffffffffffffff166008600083815260200190815260200160002060020160009054906101000a900473ffffffffffffffffffffffffffffffffffffffff1673ffffffffffffffffffffffffffffffffffffffff1614610c4f576040517f1d53a4ad00000000000000000000000000000000000000000000000000000000815260040160405180910390fd5b600080600f6000858152602001908152602001600020541415610c9e576040517fcd672d5d00000000000000000000000000000000000000000000000000000000815260040160405180910390fd5b6008600084815260200190815260200160002060050154600f6000858152602001908152602001600020541015610ce657600f60008481526020019081526020016000205490505b6008600084815260200190815260200160002060050154600f60008581526020019081526020016000205410610d3057600860008481526020019081526020016000206005015490505b80600f60008581526020019081526020016000206000828254610d5391906151d2565b9250508190555060003373ffffffffffffffffffffffffffffffffffffffff1682604051610d809061514f565b60006040518083038185875af1925050503d8060008114610dbd576040519150601f19603f3d011682016040523d82523d6000602084013e610dc2565b606091505b5050905080610dfd576040517f75a8758900000000000000000000000000000000000000000000000000000000815260040160405180910390fd5b3373ffffffffffffffffffffffffffffffffffffffff167f92ccf450a286a957af52509bc1c9939d1a6a481783e142e41e2499f0bb66ebc6600284604051610e469291906151a9565b60405180910390a250505050565b823373ffffffffffffffffffffffffffffffffffffffff166009600083815260200190815260200160002060010160009054906101000a900473ffffffffffffffffffffffffffffffffffffffff1673ffffffffffffffffffffffffffffffffffffffff1614610ef0576040517f0d9ff29600000000000000000000000000000000000000000000000000000000815260040160405180910390fd5b4282610efc9190615066565b915060006040518060a001604052808681526020013373ffffffffffffffffffffffffffffffffffffffff1681526020018573ffffffffffffffffffffffffffffffffffffffff1681526020018481526020016009600088815260200190815260200160002060040154815250905080600960008781526020019081526020016000206000820151816000015560208201518160010160006101000a81548173ffffffffffffffffffffffffffffffffffffffff021916908373ffffffffffffffffffffffffffffffffffffffff16021790555060408201518160020160006101000a81548173ffffffffffffffffffffffffffffffffffffffff021916908373ffffffffffffffffffffffffffffffffffffffff16021790555060608201518160030155608082015181600401559050508373ffffffffffffffffffffffffffffffffffffffff163373ffffffffffffffffffffffffffffffffffffffff167f45c072424520e0f43771406123f773276f0aaea392c03a4c776e8df9b2e90d0c87600960008a815260200190815260200160002060040154876040516110a593929190615206565b60405180910390a35050505050565b6110bc6148fc565b60056000838152602001908152602001600020604051806060016040529081600082015481526020016001820160009054906101000a900473ffffffffffffffffffffffffffffffffffffffff1673ffffffffffffffffffffffffffffffffffffffff1673ffffffffffffffffffffffffffffffffffffffff1681526020016001820160149054906101000a900460ff16600381111561115f5761115e614ca7565b5b600381111561117157611170614ca7565b5b815250509050919050565b843373ffffffffffffffffffffffffffffffffffffffff166008600083815260200190815260200160002060010160009054906101000a900473ffffffffffffffffffffffffffffffffffffffff1673ffffffffffffffffffffffffffffffffffffffff1614611218576040517f0d9ff29600000000000000000000000000000000000000000000000000000000815260040160405180910390fd5b42846112249190615066565b935060006040518060e001604052808881526020013373ffffffffffffffffffffffffffffffffffffffff1681526020018773ffffffffffffffffffffffffffffffffffffffff168152602001600860008a815260200190815260200160002060030154815260200186815260200185815260200184815250905080600860008981526020019081526020016000206000820151816000015560208201518160010160006101000a81548173ffffffffffffffffffffffffffffffffffffffff021916908373ffffffffffffffffffffffffffffffffffffffff16021790555060408201518160020160006101000a81548173ffffffffffffffffffffffffffffffffffffffff021916908373ffffffffffffffffffffffffffffffffffffffff160217905550606082015181600301556080820151816004015560a0820151816005015560c082015181600601559050508573ffffffffffffffffffffffffffffffffffffffff163373ffffffffffffffffffffffffffffffffffffffff167fb74791b0a4c373e84daff7ffcedc5c320f5d43d7e43462f49d938959564b435089600860008c8152602001908152602001600020600301548989896040516113f19594939291906150cb565b60405180910390a350505050505050565b813373ffffffffffffffffffffffffffffffffffffffff166006600083815260200190815260200160002060010160009054906101000a900473ffffffffffffffffffffffffffffffffffffffff1673ffffffffffffffffffffffffffffffffffffffff161461149e576040517f0d9ff29600000000000000000000000000000000000000000000000000000000815260040160405180910390fd5b8134146114d7576040517f055932c300000000000000000000000000000000000000000000000000000000815260040160405180910390fd5b60066000848152602001908152602001600020600301546006600085815260200190815260200160002060020154836115109190615066565b11156115a25760066000848152602001908152602001600020600301546006600085815260200190815260200160002060020154600660008681526020019081526020016000206003015461156591906151d2565b6040517ff6f09cc800000000000000000000000000000000000000000000000000000000815260040161159992919061523d565b60405180910390fd5b816006600085815260200190815260200160002060020160008282546115c89190615066565b9250508190555060006040518060a001604052808581526020013373ffffffffffffffffffffffffffffffffffffffff16815260200160066000878152602001908152602001600020600201548152602001600660008781526020019081526020016000206003015481526020016006600087815260200190815260200160002060040154815250905080600660008681526020019081526020016000206000820151816000015560208201518160010160006101000a81548173ffffffffffffffffffffffffffffffffffffffff021916908373ffffffffffffffffffffffffffffffffffffffff16021790555060408201518160020155606082015181600301556080820151816004015590505060003073ffffffffffffffffffffffffffffffffffffffff16346040516116fe9061514f565b60006040518083038185875af1925050503d806000811461173b576040519150601f19603f3d011682016040523d82523d6000602084013e611740565b606091505b505090508061177b576040517f75a8758900000000000000000000000000000000000000000000000000000000815260040160405180910390fd5b3373ffffffffffffffffffffffffffffffffffffffff167fad57387c37d180b737321fddef35ced92cc15f70cc699b9b192d3621a2a4fd32866006600089815260200190815260200160002060020154600660008a815260200190815260200160002060030154600660008b8152602001908152602001600020600401546040516118099493929190615266565b60405180910390a25050505050565b813373ffffffffffffffffffffffffffffffffffffffff166008600083815260200190815260200160002060010160009054906101000a900473ffffffffffffffffffffffffffffffffffffffff1673ffffffffffffffffffffffffffffffffffffffff16146118b4576040517f0d9ff29600000000000000000000000000000000000000000000000000000000815260040160405180910390fd5b8134146118ed576040517f055932c300000000000000000000000000000000000000000000000000000000815260040160405180910390fd5b816008600085815260200190815260200160002060030160008282546119139190615066565b9250508190555081600f6000858152602001908152602001600020600082825461193d9190615066565b9250508190555060006040518060e001604052808581526020013373ffffffffffffffffffffffffffffffffffffffff1681526020016008600087815260200190815260200160002060020160009054906101000a900473ffffffffffffffffffffffffffffffffffffffff1673ffffffffffffffffffffffffffffffffffffffff1681526020016008600087815260200190815260200160002060030154815260200160086000878152602001908152602001600020600401548152602001600860008781526020019081526020016000206005015481526020016008600087815260200190815260200160002060060154815250905080600860008681526020019081526020016000206000820151816000015560208201518160010160006101000a81548173ffffffffffffffffffffffffffffffffffffffff021916908373ffffffffffffffffffffffffffffffffffffffff16021790555060408201518160020160006101000a81548173ffffffffffffffffffffffffffffffffffffffff021916908373ffffffffffffffffffffffffffffffffffffffff160217905550606082015181600301556080820151816004015560a0820151816005015560c0820151816006015590505060003073ffffffffffffffffffffffffffffffffffffffff1634604051611b329061514f565b60006040518083038185875af1925050503d8060008114611b6f576040519150601f19603f3d011682016040523d82523d6000602084013e611b74565b606091505b5050905080611baf576040517f75a8758900000000000000000000000000000000000000000000000000000000815260040160405180910390fd5b6008600086815260200190815260200160002060020160009054906101000a900473ffffffffffffffffffffffffffffffffffffffff1673ffffffffffffffffffffffffffffffffffffffff163373ffffffffffffffffffffffffffffffffffffffff167fb74791b0a4c373e84daff7ffcedc5c320f5d43d7e43462f49d938959564b435087600860008a815260200190815260200160002060030154600860008b815260200190815260200160002060040154600860008c815260200190815260200160002060050154600860008d815260200190815260200160002060060154604051611ca29594939291906150cb565b60405180910390a35050505050565b803373ffffffffffffffffffffffffffffffffffffffff166007600083815260200190815260200160002060020160009054906101000a900473ffffffffffffffffffffffffffffffffffffffff1673ffffffffffffffffffffffffffffffffffffffff1614611d4d576040517f1d53a4ad00000000000000000000000000000000000000000000000000000000815260040160405180910390fd5b600080600e6000858152602001908152602001600020541415611d9c576040517fcd672d5d00000000000000000000000000000000000000000000000000000000815260040160405180910390fd5b6007600084815260200190815260200160002060050154600e6000858152602001908152602001600020541015611de457600e60008481526020019081526020016000205490505b6007600084815260200190815260200160002060050154600e60008581526020019081526020016000205410611e2e57600760008481526020019081526020016000206005015490505b80600e60008581526020019081526020016000206000828254611e5191906151d2565b9250508190555060003373ffffffffffffffffffffffffffffffffffffffff1682604051611e7e9061514f565b60006040518083038185875af1925050503d8060008114611ebb576040519150601f19603f3d011682016040523d82523d6000602084013e611ec0565b606091505b5050905080611efb576040517f75a8758900000000000000000000000000000000000000000000000000000000815260040160405180910390fd5b3373ffffffffffffffffffffffffffffffffffffffff167f92ccf450a286a957af52509bc1c9939d1a6a481783e142e41e2499f0bb66ebc6600184604051611f449291906152e6565b60405180910390a250505050565b813373ffffffffffffffffffffffffffffffffffffffff166009600083815260200190815260200160002060010160009054906101000a900473ffffffffffffffffffffffffffffffffffffffff1673ffffffffffffffffffffffffffffffffffffffff1614611fee576040517f0d9ff29600000000000000000000000000000000000000000000000000000000815260040160405180910390fd5b813414612027576040517f055932c300000000000000000000000000000000000000000000000000000000815260040160405180910390fd5b8160096000858152602001908152602001600020600401600082825461204d9190615066565b9250508190555060006040518060a001604052808581526020013373ffffffffffffffffffffffffffffffffffffffff1681526020016009600087815260200190815260200160002060020160009054906101000a900473ffffffffffffffffffffffffffffffffffffffff1673ffffffffffffffffffffffffffffffffffffffff168152602001600960008781526020019081526020016000206003015481526020016009600087815260200190815260200160002060040154815250905080600960008681526020019081526020016000206000820151816000015560208201518160010160006101000a81548173ffffffffffffffffffffffffffffffffffffffff021916908373ffffffffffffffffffffffffffffffffffffffff16021790555060408201518160020160006101000a81548173ffffffffffffffffffffffffffffffffffffffff021916908373ffffffffffffffffffffffffffffffffffffffff160217905550606082015181600301556080820151816004015590505060003073ffffffffffffffffffffffffffffffffffffffff16346040516121f69061514f565b60006040518083038185875af1925050503d8060008114612233576040519150601f19603f3d011682016040523d82523d6000602084013e612238565b606091505b5050905080612273576040517f75a8758900000000000000000000000000000000000000000000000000000000815260040160405180910390fd5b6009600086815260200190815260200160002060020160009054906101000a900473ffffffffffffffffffffffffffffffffffffffff1673ffffffffffffffffffffffffffffffffffffffff163373ffffffffffffffffffffffffffffffffffffffff167f45c072424520e0f43771406123f773276f0aaea392c03a4c776e8df9b2e90d0c87600960008a815260200190815260200160002060040154600960008b81526020019081526020016000206003015460405161233693929190615206565b60405180910390a35050505050565b813373ffffffffffffffffffffffffffffffffffffffff166006600083815260200190815260200160002060010160009054906101000a900473ffffffffffffffffffffffffffffffffffffffff1673ffffffffffffffffffffffffffffffffffffffff16146123e1576040517f0d9ff29600000000000000000000000000000000000000000000000000000000815260040160405180910390fd5b42826123ed9190615066565b915060006040518060a001604052808581526020013373ffffffffffffffffffffffffffffffffffffffff168152602001600660008781526020019081526020016000206002015481526020016000815260200184815250905080600660008681526020019081526020016000206000820151816000015560208201518160010160006101000a81548173ffffffffffffffffffffffffffffffffffffffff021916908373ffffffffffffffffffffffffffffffffffffffff1602179055506040820151816002015560608201518160030155608082015181600401559050503373ffffffffffffffffffffffffffffffffffffffff167fad57387c37d180b737321fddef35ced92cc15f70cc699b9b192d3621a2a4fd32856006600088815260200190815260200160002060020154600087604051612530949392919061534a565b60405180910390a250505050565b803373ffffffffffffffffffffffffffffffffffffffff166009600083815260200190815260200160002060010160009054906101000a900473ffffffffffffffffffffffffffffffffffffffff1673ffffffffffffffffffffffffffffffffffffffff16146125da576040517f0d9ff29600000000000000000000000000000000000000000000000000000000815260040160405180910390fd5b600d600083815260200190815260200160002060009054906101000a900460ff1615612632576040517f18fbf5ed00000000000000000000000000000000000000000000000000000000815260040160405180910390fd5b6001600d600084815260200190815260200160002060006101000a81548160ff02191690831515021790555060003373ffffffffffffffffffffffffffffffffffffffff16600960008581526020019081526020016000206004015460405161269a9061514f565b60006040518083038185875af1925050503d80600081146126d7576040519150601f19603f3d011682016040523d82523d6000602084013e6126dc565b606091505b5050905080612717576040517f75a8758900000000000000000000000000000000000000000000000000000000815260040160405180910390fd5b3373ffffffffffffffffffffffffffffffffffffffff167f92ccf450a286a957af52509bc1c9939d1a6a481783e142e41e2499f0bb66ebc6600260096000878152602001908152602001600020600401546040516127769291906151a9565b60405180910390a2505050565b803373ffffffffffffffffffffffffffffffffffffffff166006600083815260200190815260200160002060010160009054906101000a900473ffffffffffffffffffffffffffffffffffffffff1673ffffffffffffffffffffffffffffffffffffffff161461281f576040517f0d9ff29600000000000000000000000000000000000000000000000000000000815260040160405180910390fd5b600a600083815260200190815260200160002060009054906101000a900460ff1615612877576040517f18fbf5ed00000000000000000000000000000000000000000000000000000000815260040160405180910390fd5b6001600a600084815260200190815260200160002060006101000a81548160ff02191690831515021790555060003373ffffffffffffffffffffffffffffffffffffffff1660066000858152602001908152602001600020600201546040516128df9061514f565b60006040518083038185875af1925050503d806000811461291c576040519150601f19603f3d011682016040523d82523d6000602084013e612921565b606091505b505090508061295c576040517f75a8758900000000000000000000000000000000000000000000000000000000815260040160405180910390fd5b3373ffffffffffffffffffffffffffffffffffffffff167f92ccf450a286a957af52509bc1c9939d1a6a481783e142e41e2499f0bb66ebc6600060066000878152602001908152602001600020600201546040516129bb92919061538f565b60405180910390a2505050565b803373ffffffffffffffffffffffffffffffffffffffff166009600083815260200190815260200160002060020160009054906101000a900473ffffffffffffffffffffffffffffffffffffffff1673ffffffffffffffffffffffffffffffffffffffff1614612a64576040517f1d53a4ad00000000000000000000000000000000000000000000000000000000815260040160405180910390fd5b6001600d600084815260200190815260200160002060006101000a81548160ff02191690831515021790555060003373ffffffffffffffffffffffffffffffffffffffff166009600085815260200190815260200160002060040154604051612acc9061514f565b60006040518083038185875af1925050503d8060008114612b09576040519150601f19603f3d011682016040523d82523d6000602084013e612b0e565b606091505b5050905080612b49576040517f75a8758900000000000000000000000000000000000000000000000000000000815260040160405180910390fd5b3373ffffffffffffffffffffffffffffffffffffffff167f92ccf450a286a957af52509bc1c9939d1a6a481783e142e41e2499f0bb66ebc660036009600087815260200190815260200160002060040154604051612ba89291906153f3565b60405180910390a2505050565b803373ffffffffffffffffffffffffffffffffffffffff166006600083815260200190815260200160002060010160009054906101000a900473ffffffffffffffffffffffffffffffffffffffff1673ffffffffffffffffffffffffffffffffffffffff1614612c51576040517f0d9ff29600000000000000000000000000000000000000000000000000000000815260040160405180910390fd5b600660008381526020019081526020016000206003015460066000848152602001908152602001600020600201541080612ca05750600660008381526020019081526020016000206004015442105b15612cd7576040517fa3fc45c600000000000000000000000000000000000000000000000000000000815260040160405180910390fd5b600a600083815260200190815260200160002060009054906101000a900460ff1615612d2f576040517f18fbf5ed00000000000000000000000000000000000000000000000000000000815260040160405180910390fd5b6001600a600084815260200190815260200160002060006101000a81548160ff02191690831515021790555060003373ffffffffffffffffffffffffffffffffffffffff166006600085815260200190815260200160002060020154604051612d979061514f565b60006040518083038185875af1925050503d8060008114612dd4576040519150601f19603f3d011682016040523d82523d6000602084013e612dd9565b606091505b5050905080612e14576040517f75a8758900000000000000000000000000000000000000000000000000000000815260040160405180910390fd5b3373ffffffffffffffffffffffffffffffffffffffff167f92ccf450a286a957af52509bc1c9939d1a6a481783e142e41e2499f0bb66ebc660006006600087815260200190815260200160002060020154604051612e7392919061538f565b60405180910390a2505050565b612e8a6000614893565b612e946001614893565b60006040518060600160405280612eab60006148a9565b81526020013373ffffffffffffffffffffffffffffffffffffffff16815260200160006003811115612ee057612edf614ca7565b5b815250905060006040518060a00160405280612efc60016148a9565b81526020013373ffffffffffffffffffffffffffffffffffffffff16815260200160066000612f2b60016148a9565b8152602001908152602001600020600201548152602001848152602001600081525090508160056000612f5e60006148a9565b81526020019081526020016000206000820151816000015560208201518160010160006101000a81548173ffffffffffffffffffffffffffffffffffffffff021916908373ffffffffffffffffffffffffffffffffffffffff16021790555060408201518160010160146101000a81548160ff02191690836003811115612fe857612fe7614ca7565b5b02179055509050508060066000612fff60016148a9565b81526020019081526020016000206000820151816000015560208201518160010160006101000a81548173ffffffffffffffffffffffffffffffffffffffff021916908373ffffffffffffffffffffffffffffffffffffffff1602179055506040820151816002015560608201518160030155608082015181600401559050503373ffffffffffffffffffffffffffffffffffffffff167fad57387c37d180b737321fddef35ced92cc15f70cc699b9b192d3621a2a4fd326130c160016148a9565b600660006130cf60016148a9565b8152602001908152602001600020600201548660006040516130f4949392919061541c565b60405180910390a2505050565b613109614945565b600960008381526020019081526020016000206040518060a0016040529081600082015481526020016001820160009054906101000a900473ffffffffffffffffffffffffffffffffffffffff1673ffffffffffffffffffffffffffffffffffffffff1673ffffffffffffffffffffffffffffffffffffffff1681526020016002820160009054906101000a900473ffffffffffffffffffffffffffffffffffffffff1673ffffffffffffffffffffffffffffffffffffffff1673ffffffffffffffffffffffffffffffffffffffff168152602001600382015481526020016004820154815250509050919050565b6132026000614893565b61320c6001614893565b42816132189190615066565b90506000604051806060016040528061323160006148a9565b81526020013373ffffffffffffffffffffffffffffffffffffffff1681526020016000600381111561326657613265614ca7565b5b815250905060006040518060a0016040528061328260016148a9565b81526020013373ffffffffffffffffffffffffffffffffffffffff168152602001600660006132b160016148a9565b81526020019081526020016000206002015481526020016000815260200184815250905081600560006132e460006148a9565b81526020019081526020016000206000820151816000015560208201518160010160006101000a81548173ffffffffffffffffffffffffffffffffffffffff021916908373ffffffffffffffffffffffffffffffffffffffff16021790555060408201518160010160146101000a81548160ff0219169083600381111561336e5761336d614ca7565b5b0217905550905050806006600061338560016148a9565b81526020019081526020016000206000820151816000015560208201518160010160006101000a81548173ffffffffffffffffffffffffffffffffffffffff021916908373ffffffffffffffffffffffffffffffffffffffff1602179055506040820151816002015560608201518160030155608082015181600401559050503373ffffffffffffffffffffffffffffffffffffffff167fad57387c37d180b737321fddef35ced92cc15f70cc699b9b192d3621a2a4fd3261344760016148a9565b6006600061345560016148a9565b81526020019081526020016000206002015460008760405161347a949392919061534a565b60405180910390a2505050565b61348f6149a0565b600760008381526020019081526020016000206040518060e0016040529081600082015481526020016001820160009054906101000a900473ffffffffffffffffffffffffffffffffffffffff1673ffffffffffffffffffffffffffffffffffffffff1673ffffffffffffffffffffffffffffffffffffffff1681526020016002820160009054906101000a900473ffffffffffffffffffffffffffffffffffffffff1673ffffffffffffffffffffffffffffffffffffffff1673ffffffffffffffffffffffffffffffffffffffff1681526020016003820154815260200160048201548152602001600582015481526020016006820154815250509050919050565b813373ffffffffffffffffffffffffffffffffffffffff166007600083815260200190815260200160002060010160009054906101000a900473ffffffffffffffffffffffffffffffffffffffff1673ffffffffffffffffffffffffffffffffffffffff161461362e576040517f0d9ff29600000000000000000000000000000000000000000000000000000000815260040160405180910390fd5b813414613667576040517f055932c300000000000000000000000000000000000000000000000000000000815260040160405180910390fd5b8160076000858152602001908152602001600020600301600082825461368d9190615066565b9250508190555081600e600085815260200190815260200160002060008282546136b79190615066565b9250508190555060006040518060e001604052808581526020013373ffffffffffffffffffffffffffffffffffffffff1681526020016007600087815260200190815260200160002060020160009054906101000a900473ffffffffffffffffffffffffffffffffffffffff1673ffffffffffffffffffffffffffffffffffffffff1681526020016007600087815260200190815260200160002060030154815260200160076000878152602001908152602001600020600401548152602001600760008781526020019081526020016000206005015481526020016007600087815260200190815260200160002060060154815250905080600760008681526020019081526020016000206000820151816000015560208201518160010160006101000a81548173ffffffffffffffffffffffffffffffffffffffff021916908373ffffffffffffffffffffffffffffffffffffffff16021790555060408201518160020160006101000a81548173ffffffffffffffffffffffffffffffffffffffff021916908373ffffffffffffffffffffffffffffffffffffffff160217905550606082015181600301556080820151816004015560a0820151816005015560c0820151816006015590505060003073ffffffffffffffffffffffffffffffffffffffff16346040516138ac9061514f565b60006040518083038185875af1925050503d80600081146138e9576040519150601f19603f3d011682016040523d82523d6000602084013e6138ee565b606091505b5050905080613929576040517f75a8758900000000000000000000000000000000000000000000000000000000815260040160405180910390fd5b6007600086815260200190815260200160002060020160009054906101000a900473ffffffffffffffffffffffffffffffffffffffff1673ffffffffffffffffffffffffffffffffffffffff163373ffffffffffffffffffffffffffffffffffffffff167f7ae56fec07023e809c892be62111eb83aa2c212bbc4687da5af1b43048de86e687600760008a815260200190815260200160002060030154600760008b815260200190815260200160002060040154600760008c815260200190815260200160002060050154600760008d815260200190815260200160002060060154604051613a1c9594939291906150cb565b60405180910390a35050505050565b613a356000614893565b613a3f6004614893565b4281613a4b9190615066565b905060006040518060600160405280613a6460006148a9565b81526020013373ffffffffffffffffffffffffffffffffffffffff168152602001600380811115613a9857613a97614ca7565b5b815250905060006040518060a00160405280613ab460046148a9565b81526020013373ffffffffffffffffffffffffffffffffffffffff1681526020018573ffffffffffffffffffffffffffffffffffffffff16815260200184815260200160096000613b0560046148a9565b81526020019081526020016000206004015481525090508160056000613b2b60006148a9565b81526020019081526020016000206000820151816000015560208201518160010160006101000a81548173ffffffffffffffffffffffffffffffffffffffff021916908373ffffffffffffffffffffffffffffffffffffffff16021790555060408201518160010160146101000a81548160ff02191690836003811115613bb557613bb4614ca7565b5b02179055509050508060096000613bcc60046148a9565b81526020019081526020016000206000820151816000015560208201518160010160006101000a81548173ffffffffffffffffffffffffffffffffffffffff021916908373ffffffffffffffffffffffffffffffffffffffff16021790555060408201518160020160006101000a81548173ffffffffffffffffffffffffffffffffffffffff021916908373ffffffffffffffffffffffffffffffffffffffff16021790555060608201518160030155608082015181600401559050508373ffffffffffffffffffffffffffffffffffffffff163373ffffffffffffffffffffffffffffffffffffffff167f45c072424520e0f43771406123f773276f0aaea392c03a4c776e8df9b2e90d0c613ce260046148a9565b60096000613cf060046148a9565b81526020019081526020016000206004015487604051613d1293929190615206565b60405180910390a350505050565b613d2a6000614893565b613d346003614893565b4283613d409190615066565b925060006040518060600160405280613d5960006148a9565b81526020013373ffffffffffffffffffffffffffffffffffffffff16815260200160026003811115613d8e57613d8d614ca7565b5b815250905060006040518060e00160405280613daa60036148a9565b81526020013373ffffffffffffffffffffffffffffffffffffffff1681526020018773ffffffffffffffffffffffffffffffffffffffff16815260200160086000613df560036148a9565b81526020019081526020016000206003015481526020018681526020018581526020018481525090508160056000613e2d60006148a9565b81526020019081526020016000206000820151816000015560208201518160010160006101000a81548173ffffffffffffffffffffffffffffffffffffffff021916908373ffffffffffffffffffffffffffffffffffffffff16021790555060408201518160010160146101000a81548160ff02191690836003811115613eb757613eb6614ca7565b5b02179055509050508060086000613ece60036148a9565b81526020019081526020016000206000820151816000015560208201518160010160006101000a81548173ffffffffffffffffffffffffffffffffffffffff021916908373ffffffffffffffffffffffffffffffffffffffff16021790555060408201518160020160006101000a81548173ffffffffffffffffffffffffffffffffffffffff021916908373ffffffffffffffffffffffffffffffffffffffff160217905550606082015181600301556080820151816004015560a0820151816005015560c082015181600601559050508573ffffffffffffffffffffffffffffffffffffffff163373ffffffffffffffffffffffffffffffffffffffff167fb74791b0a4c373e84daff7ffcedc5c320f5d43d7e43462f49d938959564b4350613ff860036148a9565b6008600061400660036148a9565b81526020019081526020016000206003015489898960405161402c9594939291906150cb565b60405180910390a3505050505050565b803373ffffffffffffffffffffffffffffffffffffffff166007600083815260200190815260200160002060010160009054906101000a900473ffffffffffffffffffffffffffffffffffffffff1673ffffffffffffffffffffffffffffffffffffffff16146140d8576040517f0d9ff29600000000000000000000000000000000000000000000000000000000815260040160405180910390fd5b600b600083815260200190815260200160002060009054906101000a900460ff1615614130576040517f18fbf5ed00000000000000000000000000000000000000000000000000000000815260040160405180910390fd5b6001600b600084815260200190815260200160002060006101000a81548160ff02191690831515021790555060003373ffffffffffffffffffffffffffffffffffffffff1660076000858152602001908152602001600020600301546040516141989061514f565b60006040518083038185875af1925050503d80600081146141d5576040519150601f19603f3d011682016040523d82523d6000602084013e6141da565b606091505b5050905080614215576040517f75a8758900000000000000000000000000000000000000000000000000000000815260040160405180910390fd5b3373ffffffffffffffffffffffffffffffffffffffff167f92ccf450a286a957af52509bc1c9939d1a6a481783e142e41e2499f0bb66ebc6600160076000878152602001908152602001600020600301546040516142749291906152e6565b60405180910390a2505050565b813373ffffffffffffffffffffffffffffffffffffffff166006600083815260200190815260200160002060010160009054906101000a900473ffffffffffffffffffffffffffffffffffffffff1673ffffffffffffffffffffffffffffffffffffffff161461431d576040517f0d9ff29600000000000000000000000000000000000000000000000000000000815260040160405180910390fd5b60006040518060a001604052808581526020013373ffffffffffffffffffffffffffffffffffffffff168152602001600660008781526020019081526020016000206002015481526020018481526020016000815250905080600660008681526020019081526020016000206000820151816000015560208201518160010160006101000a81548173ffffffffffffffffffffffffffffffffffffffff021916908373ffffffffffffffffffffffffffffffffffffffff1602179055506040820151816002015560608201518160030155608082015181600401559050503373ffffffffffffffffffffffffffffffffffffffff167fad57387c37d180b737321fddef35ced92cc15f70cc699b9b192d3621a2a4fd3285600660008881526020019081526020016000206002015486600060405161445e949392919061541c565b60405180910390a250505050565b6144766000614893565b6144806002614893565b428361448c9190615066565b9250600060405180606001604052806144a560006148a9565b81526020013373ffffffffffffffffffffffffffffffffffffffff168152602001600160038111156144da576144d9614ca7565b5b815250905060006040518060e001604052806144f660026148a9565b81526020013373ffffffffffffffffffffffffffffffffffffffff1681526020018773ffffffffffffffffffffffffffffffffffffffff1681526020016007600061454160026148a9565b8152602001908152602001600020600301548152602001868152602001858152602001848152509050816005600061457960006148a9565b81526020019081526020016000206000820151816000015560208201518160010160006101000a81548173ffffffffffffffffffffffffffffffffffffffff021916908373ffffffffffffffffffffffffffffffffffffffff16021790555060408201518160010160146101000a81548160ff0219169083600381111561460357614602614ca7565b5b0217905550905050806007600061461a60026148a9565b81526020019081526020016000206000820151816000015560208201518160010160006101000a81548173ffffffffffffffffffffffffffffffffffffffff021916908373ffffffffffffffffffffffffffffffffffffffff16021790555060408201518160020160006101000a81548173ffffffffffffffffffffffffffffffffffffffff021916908373ffffffffffffffffffffffffffffffffffffffff160217905550606082015181600301556080820151816004015560a0820151816005015560c082015181600601559050508573ffffffffffffffffffffffffffffffffffffffff163373ffffffffffffffffffffffffffffffffffffffff167f7ae56fec07023e809c892be62111eb83aa2c212bbc4687da5af1b43048de86e661474460026148a9565b6007600061475260026148a9565b8152602001908152602001600020600301548989896040516147789594939291906150cb565b60405180910390a3505050505050565b614790614a09565b600860008381526020019081526020016000206040518060e0016040529081600082015481526020016001820160009054906101000a900473ffffffffffffffffffffffffffffffffffffffff1673ffffffffffffffffffffffffffffffffffffffff1673ffffffffffffffffffffffffffffffffffffffff1681526020016002820160009054906101000a900473ffffffffffffffffffffffffffffffffffffffff1673ffffffffffffffffffffffffffffffffffffffff1673ffffffffffffffffffffffffffffffffffffffff1681526020016003820154815260200160048201548152602001600582015481526020016006820154815250509050919050565b6001816000016000828254019250508190555050565b600081600001549050919050565b6040518060a0016040528060008152602001600073ffffffffffffffffffffffffffffffffffffffff1681526020016000815260200160008152602001600081525090565b604051806060016040528060008152602001600073ffffffffffffffffffffffffffffffffffffffff1681526020016000600381111561493f5761493e614ca7565b5b81525090565b6040518060a0016040528060008152602001600073ffffffffffffffffffffffffffffffffffffffff168152602001600073ffffffffffffffffffffffffffffffffffffffff16815260200160008152602001600081525090565b6040518060e0016040528060008152602001600073ffffffffffffffffffffffffffffffffffffffff168152602001600073ffffffffffffffffffffffffffffffffffffffff168152602001600081526020016000815260200160008152602001600081525090565b6040518060e0016040528060008152602001600073ffffffffffffffffffffffffffffffffffffffff168152602001600073ffffffffffffffffffffffffffffffffffffffff168152602001600081526020016000815260200160008152602001600081525090565b600080fd5b6000819050919050565b614a8a81614a77565b8114614a9557600080fd5b50565b600081359050614aa781614a81565b92915050565b600073ffffffffffffffffffffffffffffffffffffffff82169050919050565b6000614ad882614aad565b9050919050565b614ae881614acd565b8114614af357600080fd5b50565b600081359050614b0581614adf565b92915050565b600080600080600060a08688031215614b2757614b26614a72565b5b6000614b3588828901614a98565b9550506020614b4688828901614af6565b9450506040614b5788828901614a98565b9350506060614b6888828901614a98565b9250506080614b7988828901614a98565b9150509295509295909350565b600060208284031215614b9c57614b9b614a72565b5b6000614baa84828501614a98565b91505092915050565b614bbc81614a77565b82525050565b614bcb81614acd565b82525050565b60a082016000820151614be76000850182614bb3565b506020820151614bfa6020850182614bc2565b506040820151614c0d6040850182614bb3565b506060820151614c206060850182614bb3565b506080820151614c336080850182614bb3565b50505050565b600060a082019050614c4e6000830184614bd1565b92915050565b600080600060608486031215614c6d57614c6c614a72565b5b6000614c7b86828701614a98565b9350506020614c8c86828701614af6565b9250506040614c9d86828701614a98565b9150509250925092565b7f4e487b7100000000000000000000000000000000000000000000000000000000600052602160045260246000fd5b60048110614ce757614ce6614ca7565b5b50565b6000819050614cf882614cd6565b919050565b6000614d0882614cea565b9050919050565b614d1881614cfd565b82525050565b606082016000820151614d346000850182614bb3565b506020820151614d476020850182614bc2565b506040820151614d5a6040850182614d0f565b50505050565b6000606082019050614d756000830184614d1e565b92915050565b60008060408385031215614d9257614d91614a72565b5b6000614da085828601614a98565b9250506020614db185828601614a98565b9150509250929050565b60a082016000820151614dd16000850182614bb3565b506020820151614de46020850182614bc2565b506040820151614df76040850182614bc2565b506060820151614e0a6060850182614bb3565b506080820151614e1d6080850182614bb3565b50505050565b600060a082019050614e386000830184614dbb565b92915050565b60e082016000820151614e546000850182614bb3565b506020820151614e676020850182614bc2565b506040820151614e7a6040850182614bc2565b506060820151614e8d6060850182614bb3565b506080820151614ea06080850182614bb3565b5060a0820151614eb360a0850182614bb3565b5060c0820151614ec660c0850182614bb3565b50505050565b600060e082019050614ee16000830184614e3e565b92915050565b60008060408385031215614efe57614efd614a72565b5b6000614f0c85828601614af6565b9250506020614f1d85828601614a98565b9150509250929050565b60008060008060808587031215614f4157614f40614a72565b5b6000614f4f87828801614af6565b9450506020614f6087828801614a98565b9350506040614f7187828801614a98565b9250506060614f8287828801614a98565b91505092959194509250565b60e082016000820151614fa46000850182614bb3565b506020820151614fb76020850182614bc2565b506040820151614fca6040850182614bc2565b506060820151614fdd6060850182614bb3565b506080820151614ff06080850182614bb3565b5060a082015161500360a0850182614bb3565b5060c082015161501660c0850182614bb3565b50505050565b600060e0820190506150316000830184614f8e565b92915050565b7f4e487b7100000000000000000000000000000000000000000000000000000000600052601160045260246000fd5b600061507182614a77565b915061507c83614a77565b9250827fffffffffffffffffffffffffffffffffffffffffffffffffffffffffffffffff038211156150b1576150b0615037565b5b828201905092915050565b6150c581614a77565b82525050565b600060a0820190506150e060008301886150bc565b6150ed60208301876150bc565b6150fa60408301866150bc565b61510760608301856150bc565b61511460808301846150bc565b9695505050505050565b600081905092915050565b50565b600061513960008361511e565b915061514482615129565b600082019050919050565b600061515a8261512c565b9150819050919050565b6000819050919050565b6000819050919050565b600061519361518e61518984615164565b61516e565b614a77565b9050919050565b6151a381615178565b82525050565b60006040820190506151be600083018561519a565b6151cb60208301846150bc565b9392505050565b60006151dd82614a77565b91506151e883614a77565b9250828210156151fb576151fa615037565b5b828203905092915050565b600060608201905061521b60008301866150bc565b61522860208301856150bc565b61523560408301846150bc565b949350505050565b600060408201905061525260008301856150bc565b61525f60208301846150bc565b9392505050565b600060808201905061527b60008301876150bc565b61528860208301866150bc565b61529560408301856150bc565b6152a260608301846150bc565b95945050505050565b6000819050919050565b60006152d06152cb6152c6846152ab565b61516e565b614a77565b9050919050565b6152e0816152b5565b82525050565b60006040820190506152fb60008301856152d7565b61530860208301846150bc565b9392505050565b6000819050919050565b600061533461532f61532a8461530f565b61516e565b614a77565b9050919050565b61534481615319565b82525050565b600060808201905061535f60008301876150bc565b61536c60208301866150bc565b615379604083018561533b565b61538660608301846150bc565b95945050505050565b60006040820190506153a4600083018561533b565b6153b160208301846150bc565b9392505050565b6000819050919050565b60006153dd6153d86153d3846153b8565b61516e565b614a77565b9050919050565b6153ed816153c2565b82525050565b600060408201905061540860008301856153e4565b61541560208301846150bc565b9392505050565b600060808201905061543160008301876150bc565b61543e60208301866150bc565b61544b60408301856150bc565b615458606083018461533b565b9594505050505056fea2646970667358221220ba3b4d5e36852834d654a65bbf2b39d18b51da72a1a4fbdfcb5af1e0c589d87764736f6c63430008090033",
  "linkReferences": {},
  "deployedLinkReferences": {}
}